:1086A70041010C0A41013F0041014A0041014000DC
:1086B7004101500041014700420141000041014989
:0F86C700064101510341014FF2C10AC109C10B24
:03000B0002A578D3
:10A57800C0E0C083C08290010CE06401700604F062
:10A58800C28D801C90010CE014F090013FE004F0B3
:10A59800900142E004F07006900141E004F0C28DA1
:07A5A800D082D083D0E03225
:10A8D500E58954F04401F589E4F58CF58AD28C229A
:05A96300C28DD2A92203
:03A97200C2A92255
:0BA9040012A6B0EFF47002EEF460F554
:01A90F002225
:05A44B009000E0EFF0BD
:10A450009000E0E0FF12A503EF3395E04F6024E4A5
:10A460009000E1F0A3F0C39000E2E094E89000E1F6
:10A47000E0940350DBA3E004F070EB9000E1E00413
:08A48000F080E39000E0E0FF32
:01A4880022B1
:0EA16B00900034EBF0A3EAF0A3E9F0A3EDF0CE
:10A17900E4A3F0900037E0FFA3E0C39F50299000CB
:10A1890034E0FBA3E0FAA3E0F9122444FF12A44B44
:10A19900900039EFF0900035E475F0011225259013
:07A1A9000038E004F080CC57
:01A1B000228C
:10A8E50012A96D12A92C12A910C283D287C2972270
:1097B20012A8D512A96312A60F12A66112A8E5D2A9
:1097C200AF12A7A07F217E0012A86912A83E7F6176
:1097D20012A04C12A933209103125082129FA6129A
:1097E2006927EF70FA90010C7403F020093F208082
:1097F2000E7B017A0079E4128FF1900000EFF012F3
:10980200119220B32B7B017A0079E4128EBB900077
:1098120000EFF0FD7B017A0079E412451D7B017AAD
:109822000079E4900000E0FD12A0DC8003121192A6
:0598320012993C80B614
:05A968004C49564500BA
:0B86D60009113030303030300000005F
:0E451D00900001EBF0A3EAF0A3E9F0A3EDF0AB
:10452B007D0A7C007FA812A4CA900236EFF090009F
:10453B0004E0FF64197059900001E0FBA3E0FAA3BB
:10454B00E0F91224446402704790000212245D6467
:10455B0048703DFE74FF2FF582EE34FFF583122475
:10456B005D6403702B900001A3A3E02403F9E43AEC
:10457B00FA127160EF600302482D900001E0FBA37B
:10458B00E0FAA3E02403F9E43AFA1293EE029EF95F
:10459B00900001E0FBA3E0FAA3E0F912244464B617
:1045AB007028900235E004F0E0D39404748094807A
:1045BB00500302482D7FAE124191C282E490013F1D
:1045CB00F0C297C283900235F022900001E0FBA36A
:1045DB00E0FAA3E0F9122444FF64B76005EF64AA84
:1045EB00705390013FE0C39414748094804008E4AE
:1045FB00F0C297D282C283900143E0600302482D40
:10460B00900236E06401600302482DC3900142E042
:10461B009458900141E09402500302482DE4F0A31A
:10462B00F090014304F07BFF7AA9796812A287E42A
:10463B00900143F022900001E0FBA3E0FAA3E0F924
:10464B0012244464B170057F60024721900001E0A1
:10465B00FBA3E0FAA3E0F912244464B270057F5D7A
:10466B00024721900004E064017017900001E0FB09
:10467B00A3E0FAA3E0F912244464A170057F5A0267
:10468B004721900004E064017016900001E0FBA349
:10469B00E0FAA3E0F9122444640670047FAB807641
:1046AB00900004E064017016900001E0FBA3E0FAB7
:1046BB00A3E0F9122444640770047F5F80589000D4
:1046CB0004E064017016900001E0FBA3E0FAA3E0A4
:1046DB00F9122444640870047F61803A900004E06E
:1046EB0064017016900001E0FBA3E0FAA3E0F9125D
:1046FB002444640970047FAF801C900004E06401C3
:10470B007017900001E0FBA3E0FAA3E0F912244438
:10471B0064B470057F5E024191900004E0FF641366
:10472B007038900001E0FBA3E0FAA3E0F9900001E0
:10473B0012245DB456247E0074FF2FF582EE34FFF5
:10474B00F58312245D64037011900001A3A3E02490
:10475B0002F9E43AFA7F5B02482A900004E0FF6416
:10476B0006600302482D900001E0FBA3E0FAA3E0F2
:10477B00F91224446402600302482D9000011224B4
:10478B005D6457600302482DFE74FF2FF582EE34F3
:10479B00FFF58312245D6403600302482D90000132
:1047AB00A3A390000212245DFD7B017A0079051210
:1047BB009E409000087420F0900001E0FBA3E0FA0B
:1047CB00A3E0F990000312245DFD900001A3A390D8
:1047DB00000412245D90003BF07B017A00790912F2
:1047EB00482E900236E064017021129BB8EFF46002
:1047FB00077FAB12419180097B017A007905128208
:10480B00D07B017A0079057F5C8014129BB8EFF4A2
:10481B0060057FAB1241917B017A0079057F5C12B9
:02482B00651F07
:01482D002268
:0B8FF100900001EBF0A3EAF0A3E9F010
:108FFC00E4900005F0A3740BF0900236E06401706D
:10900C0073900004F0900006E0FF900004E0C39F12
:10901C005053E4FFFEFD30801DED701A0FBF0001B0
:10902C000ED3EF9420EE944E40EC7D01900006E0C0
:10903C00900004F080E0ED6401602A900005E004EB
:10904C00F012961B900001E0FBA3E0FAA3E0F9EF0D
:10905C0012248A900002E475F00112252590000478
:10906C00E004F080A0900001E0FBA3E0FAA3E0F99B
:09907C00E412248A900005E0FFD3
:0190850022C8
:0B908600900229EBF0A3EAF0A3E9F050
:10909100E4FF7E0290000212245D6403701C9002C2
:1090A10029E0FBA3E0FAA3E0F990000112245DB4EA
:1090B1005008D297E490013FF022900229E0FBA3EF
:1090C100E0FAA3E0F990000112245D643C704A903B
:1090D1000229E0FBA3E0FAA3E0F98E827583001276
:1090E100245DFD74112FF8A6050E0F8E8275830085
:1090F10012245D640370D8900229E0FBA3E0FAA377
:10910100E0F98E82758300E412249C74102FF8E438
:09911100F6D20B90010C740AF077
:01911A002232
:10A80F00E4FFEFC3940674809480500974112FF8FD
:07A81F0076300F80EDC20B43
:01A82600220F
:0EA34A00900037EBF0A3EAF0A3E9F0A3EDF0EA
:10A35800E4A3F090003AE0FFA3E0C39F50249000EC
:10A3680037E0FBA3E0FAA3E0F9122444FF12A04C63
:10A37800900038E475F00112252590003BE004F0C8
:02A3880080D182
:01A38A0022B0
:0B82D000900010EBF0A3EAF0A3E9F02F
:1082DB009000317403F090001314F012A88D9000ED
:1082EB0014EFF0A37453F0900147E090003160134A
:1082FB00E0FF04F074132FF582E43400F583744D22
:10830B00F08011E0FF04F074132FF582E43400F5D4
:10831B00837443F09000317404F0900010E0FBA3E1
:10832B00E0FAA3E0F9122444FF6021900031E0242D
:10833B0013F582E43400F583EFF0900011E475F04F
:10834B0001122525900031E004F080CE900031E041
:10835B00FF04F074132FF582E43400F583743AF0C4
:10836B00900031E02413F9E43400FA7B0112624BE4
:10837B00900031E0FF241DF582E43400F583743A5C
:10838B00F0741E2FF582E43400F5837403F07B0147
:0B839B007A007913EF240CFD02A34AC6
:0B5C3600900012EBF0A3EAF0A3E9F0ED
:105C41009000367403F090001814F012A88D9000A3
:105C510019EFF0A37453F09001B0E0900036601397
:105C6100E0FF04F074182FF582E43400F583744DDD
:105C7100F08011E0FF04F074182FF582E43400F590
:105C8100837443F0900012E0FBA3E0FAA3E0F990E3
:105C9100000512245D64026003025D23900012A3DB
:105CA100A390000C12245DFD7B017A00791C129EE9
:105CB100407B017A00791812000E900036EFF0E077
:105CC100FF2418F582E43400F5837420F074192F51
:105CD100F582E43400F583E4F07B017A007918124F
:105CE100000E900036EFF02418F9E43400FA7B013D
:105CF100C003C002C001900012E0FBA3E0FAA3E0E0
:105D0100F990000B12245DFD900012A3A390000AEC
:105D110012245D90003BF0D001D002D00312482E36
:105D2100804F900015E0FBA3E0FAA3E0F9122444B0
:105D3100FF900036E0FE04F074182EF582E4340082
:105D4100F583EFF0900016E475F00112252590001F
:105D510015E0FBA3E0FAA3E0F912244470C490001B
:105D610036E0FF04F074182FF582E43400F583E483
:105D7100F07B017A00791812000E900036EFF0E006
:105D8100FF2418F582E43400F583743AF074192F76
:105D9100F9E43400FA7B0112624B7B017A00791835
:105DA10012000E900036EFF0E0FF04F074182FF5AA
:105DB10082E43400F583743AF0900036E0FF04F099
:105DC10074182FF582E43400F5837403F07B017AB3
:0B5DD100007918900036E0FD02A34AA4
:08000300D29412A975C29422E7
:05A40C009000C8EFF014
:10A41100E4A3F0A3F09000C8E0FFA2E713F030D767
:10A4210004D2958002C2951200039000CAE004F0A4
:10A4310070069000C9E004F0C39000CAE09408904F
:09A4410000C9E06480948040CC65
:01A44A0022EF
:0A92CE00EBF0A3EAF0A3E9F07F8DB6
:0592D8009000C5EFF05D
:1092DD00D2967F037E0012A8699000C5E0FF12A40C
:1092ED000CE49000C6F0A3F09000C6E0FCA3E0FDF6
:1092FD00C39408EC64809480504F309516900237DB
:10930D00E04480F0ED9406EC648094805005E0FF1D
:10931D00C313F0209520900237E0547FF0D39000D6
:10932D00C7E094069000C6E06480948050089002D7
:10933D0037E0FFC313F01200039000C7E004F07094
:10934D00A79000C6E004F0809FC296900237E0FF20
:01935D0022ED
:10A63900900013EFF0A3EDF0D2967F037E0012A8ED
:10A6490069900013E0FF12A40C900014E0FF900041
:08A6590013F012A40CC29622BA
:10A38B00900011E475F001122525900011E475F091
:10A39B0001122525900011E475F00112252590007E
:10A3AB0010E0FBA3E0FAA3E0F9122444FF900001B4
:04A3BB0012245DFD0E
:0CA3BF00EF540FC454F0FFED540F4FFF9B
:01A3CB00226F
:10716000E4FF122444FEC394305003027272EED343
:107170009439400302727290000112245DFEC394A0
:1071800030500302726FEED39439400302726F9055
:10719000000312245DFEC39430500302726CEED3E0
:1071A0009439400302726C90000412245DFEC39473
:1071B000305003027274EED394394003027274901B
:1071C000000812245DFEC394305003027269EED3AE
:1071D0009439400302726990000B12245DFEC3943F
:1071E000305003027266EED39439507A90000C123C
:1071F000245DFEC39430406BEED39439506590000B
:107200000E12245DFEC394304056EED39439505094
:1072100090000F12245DFEC394304041EED39439A8
:10722000503B90001112245DFEC39430402CEED3ED
:107230009439502690001212245DFEC394304017FA
:10724000EED39439501190001412245DFEC3943093
:107250004022EED39439227F01227F01227F012236
:107260007F01227F01227F01227F01227F01227F75
:0472700001227F0177
:0172740022F7
:1093EE00900010EBF0A3EAF0A3E9F012A3A9AD07E9
:1093FE007F8612A63912A38BAD077F8812A63990ED
:10940E000011E475F001122525900011E475F001AC
:10941E0012252512A38BAD077F8C12A63912A38BB2
:10942E00AD077F8412A63912A38BAD077F8212A6D9
:10943E003912A38BAD077F8012A639900011E47507
:10944E00F001122525900011E475F00112252590EA
:10945E000011E475F001122525900010E0FBA3E049
:0F946E00FAA3E0F9122444540FFD7F8A02A639B5
:10A7B900AE07EEC4540F540FFE6012EF540FFFE4BE
:0DA7C900FDEDC39E5007740A2FFF0D80F4B4
:01A7D6002260
:10A4890012249C900072E475F00112252590007148
:0CA49900E0FBA3E0FAA3E0F9122444FF6A
:10A4A500E4FEFDFCECC39F500B0DED640A7002FD4C
:10A4B5000E0C80F0EEC454F054F0FEED540F4EFF38
:01A4C5002274
:109E4000E4FFFE900037EDF0900037E0C3946474B7
:109E50008094804007E0249CF00F80ECEF443012A7
:109E6000248A740129F9E43AFA900037E0C3940A8D
:109E7000748094804007E024F6F00E80ECEE4430CD
:109E800012248A740129F9E43AFA900037E0443048
:0E9E900012248A740129F9E43AFAE402248AC1
:0E482E00900037EBF0A3EAF0A3E9F0A3EDF061
:10483C00E490003CF0A3F090003FF0A3F0A3F0A3B1
:10484C00F090003EEDF054F0F0E0FFC4540FF09007
:10485C000047122592404000007F007E007D807C46
:10486C00411263B9C004C005C006C00790003EE009
:10487C00FCE4121F56D003D002D001D000121E4609
:10488C00C004C005C006C00790003CE0FCA3E0FDDE
:10489C00E4121F51D003D002D001D000121D5512CA
:1048AC001F8A90003CEEF0A3EFF090003AE09000ED
:1048BC003EF0540FF0900047122592400000007F0C
:1048CC00007E007D807C411263B9C004C005C00627
:1048DC00C00790003EE0FCE4121F56D003D002D07B
:1048EC0001D000121E46C004C005C006C0079000CF
:1048FC003CE0FCA3E0FDE4121F51D003D002D00138
:10490C00D000121D55121F8A90003CEEF0A3EFF060
:10491C0090003BE090003EF054F0F0E0FFC4540FE8
:10492C00F09000471225923F8000007F007E007DB2
:10493C00807C411263B9C004C005C006C00790005A
:10494C003EE0FCE4121F56D003D002D001D000127E
:10495C001E46C004C005C006C00790003CE0FCA386
:10496C00E0FDE4121F51D003D002D001D000121D83
:10497C0055121F8A90003CEEF0A3EFF090003BE044
:10498C0090003EF0540FF09000471225920000006A
:10499C00007F007E007D807C411263B9C004C0059D
:1049AC00C006C00790003EE0FCE4121F56D003D0B6
:1049BC0002D001D000121E46C004C005C006C007BC
:1049CC0090003CE0FCA3E0FDE4121F51D003D002A8
:1049DC00D001D000121D55121F8A90003CEEF0A39E
:1049EC00EFF0C3EF9410EE9427401074F02FFF7487
:1049FC00D83EFE90003FE004F080E790003FE0449A
:104A0C0030FD900037E0FBA3E0FAA3E0F9ED1224AF
:104A1C008A900038E475F001122525C3EF94E8EE76
:104A2C009403401074182FFF74FC3EFE900040E07D
:104A3C0004F080E7900040E04430FD900037E0FB4C
:104A4C00A3E0FAA3E0F9ED12248A900038E475F0A3
:104A5C0001122525C3EF9464EE94004010749C2F32
:104A6C00FF74FF3EFE900041E004F080E7900041AF
:104A7C00E04430FD900037E0FBA3E0FAA3E0F9ED51
:104A8C0012248A900038E475F001122525C3EF94A6
:104A9C000AEE9400401074F62FFF74FF3EFE900057
:104AAC0042E004F080E7900042E04430FD90003793
:104ABC00E0FBA3E0FAA3E0F9ED12248A900038E4BD
:104ACC0075F001122525EF4430FF900037E0FBA371
:104ADC00E0FAA3E0F9EF12248A900038E475F001B3
:104AEC00122525900037E0FBA3E0FAA3E0F9E402DD
:024AFC00248A0A
:03624B009000655B
:10624E001292CEEF54F0C4540F4430FE900065E02D
:10625E00FBA3E0FAA3E0F9EE12248A900066E4753F
:10626E00F001122525EF540F4430FF900065E0FB3E
:10627E00A3E0FAA3E0F9EF12248A900066E475F029
:10628E00011225257F891292D8EF54F0C4540F4481
:10629E0030FE900065E0FBA3E0FAA3E0F9EE1224D5
:1062AE008A900066E475F001122525EF540F4430F4
:1062BE00FF900065E0FBA3E0FAA3E0F9EF12248A59
:1062CE00900066E475F0011225257F871292D8EFB3
:1062DE0054F0C4540F4430FE900065E0FBA3E0FA86
:1062EE00A3E0F9EE12248A900066E475F0011225FF
:1062FE0025EF540F4430FF900065E0FBA3E0FAA3B6
:10630E00E0F9EF12248A900066E475F0011225255B
:10631E007F851292D8EF54F0C4540F4430FE900093
:10632E0065E0FBA3E0FAA3E0F9EE12248A90006682
:10633E00E475F001122525EF540F4430FF900065EF
:10634E00E0FBA3E0FAA3E0F9EF12248A900066E4E2
:10635E0075F0011225257F831292D8EF54F0C454A4
:10636E000F4430FE900065E0FBA3E0FAA3E0F9EEE7
:10637E0012248A900066E475F001122525EF540F61
:10638E004430FF900065E0FBA3E0FAA3E0F9EF12C2
:10639E00248A900066E475F001122525900065E0D0
:0B63AE00FBA3E0FAA3E0F9E402248A5C
:108C32009000C21292CE12A7B99000C2E0FBA3E04C
:108C4200FAA3E0F9EF12248A9000C3E475F001124E
:108C520025257F891292D812A7B99000C2E0FBA302
:108C6200E0FAA3E0F9EF12248A9000C3E475F00160
:108C72001225257F871292D812A7B99000C2E0FB75
:108C8200A3E0FAA3E0F9EF12248A9000C3E475F09E
:108C9200011225257F851292D812A7B99000C2E051
:108CA200FBA3E0FAA3E0F9EF12248A9000C3E47573
:108CB200F0011225257F831292D812A7B99000C223
:108CC200E0FBA3E0FAA3E0F9EF12248A9000C3E4E8
:068CD20075F001022525EA
:0B911B00900071EBF0A3EAF0A3E9F074
:1091260012A496EF54F0C4540F4430FE900074E03D
:10913600FBA3E0FAA3E0F9EE12248AEF540F4430C1
:10914600FF900074E0FBA3E0FAA3E0F9900001EFC2
:1091560012A489EF54F0C4540F4430FE900074E01A
:10916600FBA3E0FAA3E0F9900002EE12249CEF5470
:109176000F443090000312A489EF54F0C4540F44F6
:1091860030FE900074E0FBA3E0FAA3E0F99000043F
:10919600EE12249CEF540F443090000512249C904C
:0691A6000006E402249C17
:1083A60090001D1292CE90001DE0FBA3E0FAA3E020
:1083B600F9EF12248A90001EE475F0011225257F3C
:1083C600891292D890001DE0FBA3E0FAA3E0F9EF32
:1083D60012248A90001EE475F0011225257F87126B
:1083E60092D890001DE0FBA3E0FAA3E0F9EF122477
:1083F6008A90001EE475F0011225257F851292D819
:1084060090001DE0FBA3E0FAA3E0F9EF12248A90A6
:10841600001EE475F0011225257F831292D8900084
:108426001DE0FBA3E0FAA3E0F9EF12248A90001EF8
:10843600E475F0011225257F811292D890001DE087
:10844600FBA3E0FAA3E0F9EF12248A90001EE4757C
:10845600F00112252590001DE0FBA3E0FAA3E0F948
:04846600E402248A7E
:07A92C00C294C296D29522ED
:0B60D20090000EEBF0A3EAF0A3E9F051
:1060DD00A37401F0122444FF3395E04F70479000F4
:1060ED000EE0FBA3E0FAA3E0F990000112245DFF9E
:1060FD003395E04F702F90000212245DFF3395E031
:10610D004F702290000312245DFF3395E04F701500
:10611D0090000412245DFF3395E04F70089000113C
:10612D0004F00262457B017A007912128C329001E3
:10613D0043E0640170097B017A007912128CD890CA
:10614D00000EE0FBA3E0FAA3E0F9122444FFFD33B7
:10615D0095E0FC900012E0C39DEC6480F87480988B
:10616D005003026232900012E06F600302623F90B2
:10617D00000EE0FBA3E0FAA3E0F990000112245D0C
:10618D00FFFD3395E0FC900013E0C39DEC6480F8B7
:10619D007480985003026232900013E06F60030226
:1061AD00623D90000EE0FBA3E0FAA3E0F99000023F
:1061BD0012245DFFFD3395E0FC900014E0C39DECCF
:1061CD006480F87480985002805B900014E06F70CA
:1061DD005D90000EE0FBA3E0FAA3E0F9900003123E
:1061ED00245DFFFD3395E0FC900015E0C39DEC644C
:1061FD0080F87480985002802C900015E0B5072C23
:10620D0090000EE0FBA3E0FAA3E0F9900004122445
:10621D005DFF3395E0FE900016E0C39FEE6480F8BD
:10622D00748098500DE4900011F0800C8004800271
:0D623D0080009000117402F0900011E0FF4D
:01624A002231
:0B8762009000B0EBF0A3EAF0A3E9F0F8
:10876D007B017A0079BB128C329000BBE0FF7E005A
:10877D007C017D6D1224BEAC06AD07A3E075F01E25
:10878D00A42DFFEC35F0FEA3E07C002FFFEC3EFEA8
:10879D00E4FD9000B31225869000B0E0FBA3E0FA53
:1087AD00A3E0F990000112245D75F01EA4FDACF05C
:1087BD00C004C005122444FF7E007C017D6D12248F
:1087CD00BED0E02FFFD0E03EFE90000212245D1CD3
:1087DD002FFFEC3EFEE4FD9000B71225869000B30E
:1087ED00E0FCA3E0FDA3E0FEA3E0FFA3E0F8A3E01F
:1087FD00F9A3E0FAA3E0FBC312254940089000C19C
:0F880D007401F08005E49000C1F09000C1E0FF1D
:01881C002239
:102FB900900011ECF0A3EDF090000EEBF0A3EAF015
:032FC900A3E9F089
:102FCC00C200C20190000B12245DFF3395E04F60EC
:102FDC00030234EF90000EE0FBA3E0FAA3E0F990BB
:102FEC00000C12245DFF3395E04F60030234EF9028
:102FFC00000D12245DFF3395E04F60030234EF9017
:10300C00000E12245DFF3395E04F60030234EF9005
:10301C00000F12245DFF3395E04F60030234EF90F4
:10302C000011E0FEA3E0C3943CEE9400900011402C
:10303C001CA3E0FB7C007D3CFF1224D090001AEF17
:10304C00F075F03CA4FFC3EB9FA3F0800BA3E090C2
:10305C00001BF0E490001AF090001BE0FF700302DC
:10306C00332490000EE0FBA3E0FAA3E0F9900004F7
:10307C0012245DFEEF2E900019F0D3943B748094D3
:10308C008050030232F9E0FF75F03C8490001CF094
:10309C00E0FE75F03CA4FDC3EF9D900019F090008C
:1030AC000312245DFFEE2F900018F0D39417748058
:1030BC00948050030232D8E0FF75F0188490001C05
:1030CC00F0E0FE75F018A4FDC3EF9D900018F09091
:1030DC00000212245DFFEE2F900017F090000112F9
:1030EC00245DFF3395E0FEEF64014E6024EF640332
:1030FC004E601EEF64054E6018EF64074E6012EFD1
:10310C0064084E600CEF640A4E6006EF640C4E705F
:10311C0057900017E0D3941F748094804032E024C1
:10312C00E1F090000EE0FBA3E0FAA3E0F9900001BF
:10313C0012245D04900016F0D3940C74809480409B
:10314C002412244404900015F0A37401F002335EA1
:10315C0090000EE0FBA3E0FAA3E0F990000112242A
:10316C005D900016F002335790000EE0FBA3E0FADE
:10317C00A3E0F990000112245DFF3395E0FEEF64AB
:10318C00044E6012EF64064E600CEF64094E60064C
:10319C00EF640B4E7027900017E0D3941E7480944C
:1031AC0080400DE024E2F090000112245D048006C2
:1031BC0090000112245D900016F002335790000E1F
:1031CC00E0FBA3E0FAA3E0F990000112245DFF33C9
:1031DC0095E0FEEF64024E60030232BB122444FF02
:1031EC00FD3395E0FCED24D0FAEC3407900013F09D
:1031FC00A3CAF0C200ED64104C6023EF3395E0FEDF
:10320C00EF64144E6018EF64184E6012EF641C4E9D
:10321C00600CEF64204E6006EF64244E7002D20006
:10322C00300049900017E0FDD3941D748094809079
:10323C00000EE0FBA3E0FAA3E0F94017122444903F
:10324C000015F0900017E024E3F090000112245DCB
:10325C00048012122444900015F0900017EDF090A9
:10326C00000112245D900016F002335E900017E00E
:10327C00FDD3941C748094804018E024E4F09000FA
:10328C000EE0FBA3E0FAA3E0F990000112245D0428
:10329C008016900017EDF090000EE0FBA3E0FAA36F
:1032AC00E0F990000112245D900016F00233579063
:1032BC000017E0F090000EE0FBA3E0FAA3E0F99019
:1032CC00000112245D900016F002335790000EE0BE
:1032DC00FBA3E0FAA3E0F990000212245D90001722
:1032EC00F090000112245D900016F0805E90000EAC
:1032FC00E0FBA3E0FAA3E0F990000312245D900038
:10330C0018F090000212245D900017F0900001124A
:10331C00245D900016F0803390000EE0FBA3E0FAE1
:10332C00A3E0F990000412245D900019F0900003C2
:10333C0012245D900018F090000212245D9000178A
:10334C00F090000112245D900016F01224449000BD
:10335C0015F090001AE0FF70030234B0900018E0F2
:10336C002FF0E0FFD394177480948050030234B094
:10337C00EF75F0188490001CF0E0FE75F018A4FDB9
:10338C00C3EF9D900018F0900017E02EF0900016FF
:10339C00E0FF6401601EEF64036019EF64056014C4
:1033AC00EF6407600FEF6408600AEF640A6005EFD2
:1033BC00640C7035900017E0D3941F748094805087
:1033CC00030234B0E024E1F0900016E004F0E0D306
:1033DC00940C74809480900015E0400904F0A37460
:1033EC0001F00234B0F00234B0900016E0FF640437
:1033FC00600FEF6406600AEF64096005EF640B7000
:10340C001F900017E0D3941E74809480400CE0242D
:10341C00E2F0900016E0040234AA900016E0807EE0
:10342C00900016E0FA6402707B900015E0FBFD7CC6
:10343C000024D0FEEC3407900013F0A3CEF0C200B1
:10344C00ED6410601AEBFF64146014EF6418600FE5
:10345C00EF641C600AEF64206005EF64247002D2F4
:10346C0000300024900017E0FFD3941D74809480EA
:10347C00400BE024E3F0900016E004800990001764
:10348C00EFF0900016EA8016900017E0D3941C74AD
:10349C00809480400FE024E4F0900016E004F0905B
:1034AC000015E0F0900015E0FF90000EE0FBA3E0AB
:1034BC00FAA3E0F990000BEF12249C900016E09018
:1034CC00000C12249C900017E090000D12249C908C
:1034DC000018E090000E12249C900019E090000F50
:0334EC0012249C0B
:0134EF0022BA
:10A86900E4FDFCC3ED9FEC9E50070DBD00010C807B
:01A87900F2EC
:01A87A0022BB
:04A7F400AB07AA06FF
:10A7F800900000C3E5829BE5839A500A7F967E000D
:06A8080012A869A380ED17
:01A80E002227
:08A53E0090000FEEF0A3EFF016
:10A54600E4A3F0A3F090000FE0FEA3E0FFC39000A9
:10A5560012E09F900011E09E50177F0A7E0012A71E
:10A56600F4900012E004F070DC900011E004F0803A
:01A57600D410
:01A5770022C1
:01A9750022BF
:03A71C0012A6FA88
:10A71F00D20ED293D292E4FFFE209205C20EC293C4
:0CA72F00220FBF00010EBE04F0BF4CED75
:01A73B0022FB
:03A73C0012A6FA68
:10A73F00D293D292D20EE4FFFE209205C20EC293A4
:0CA74F00220FBF00010EBE02F0BF8AED19
:01A75B0022DB
:06A95D00D29300C2932218
:10A6FA00E4FEEEC39408748094805015EF25E0FFC1
:10A70A0030D704D2928002C292D29312A95D0E80EF
:01A71A00E15D
:01A71B00221B
:08A87B00ECFD7C00C293C292C7
:0AA88300D292D29300C292C2932237
:09A91A00C293C292D293D29222A0
:109FFC00E4FBEBFDC39408748094805038C293301A
:10A00C00921690022DE04401F0ED94067480948039
:10A01C005006E025E0F0D29320921790022DE054E8
:10A02C00FEF0EBD39406748094805006E025E0F0AB
:0CA03C00D2930B80BDC29390022DE0FF78
:01A0480022F5
:109F5000900071E0FCA3E0FDA3E0FBA3E0FAA3E026
:079F6000F9122444FB7FA865
:029F6700AA0747
:109F6900AF05A90712A87BAF0212A71CAF0512A75C
:109F79001CAF0112A6FA12A71FAF0312A6FA12A765
:109F89001F12A91A7F0D7E0012A7F4D293D2927FD5
:0D9F9900627E0012A8697F627E0002A86946
:04A4C6007C007FA8EF
:02A4CA00AB07DE
:10A4CC00AF05AA0712A87BAF0312A73CAF0512A7D2
:10A4DC003CAF0212A6FA12A73F12A883EB04FF129C
:10A4EC00A6FA12A71FC293129FFC12A91AD293D2DA
:06A4FC009290022DE0FF2A
:01A502002236
:109FA600E4FDFC7FA812A4CA900152E4F0A3EFF0EE
:109FB6007D0212A4C690014DE4F0A3EFF07D0412D9
:109FC600A4C690014BE4F0A3EFF07D0612A4C69060
:109FD6000145E4F0A3EFF07D0812A4C6900143EF1B
:109FE600F07D0C12A4C6900148EFF07D0E12A4C6B7
:069FF600900144EFF0228F
:109D78009000B0EEF0A3EFF0A3EBF0A3EAF0A3E9B4
:019D8800F0EA
:109D89009000B0E0FCA3E0FD7FA812A4CA9000B245
:109D9900E0FBA3E0FAA3E0F9EF12248A9000B2E015
:109DA900FBA3E0FAA3E0F9122444FF9000B1E00418
:109DB900F070069000B0E004F09000B3E475F00193
:109DC900122525EF70BA9000B2E0FBA3E0FAA3E0F8
:059DD900F9E402248AF8
:109C9E00900071EEF0A3EFF0A3EBF0A3EAF0A3E9CE
:109CAE00F0900073E0FBA3E0FAA3E0F91224446005
:109CBE0024B40D04E412248A129F50900072E00422
:109CCE00F07006900071E004F0900074E475F001FD
:109CDE0012252580CC129F50900072E004F0700681
:109CEE00900071E004F0900074E475F001122525E7
:0F9CFE00900071E0FCA3E0FDE4FB7FA8029F67EC
:108D7E0053656E736F726573204175746F20792021
:108D8E0073656E736F72312061637469766F732EC3
:108D9E000053656E736F722061637469766F207312
:108DAE00656E736F7231202E004465746563746155
:108DBE00646F2E2053656E736F72204175746F2E23
:108DCE000053656E736F726573206E6F20646574E9
:108DDE0065637461646F73005665686963756C6F63
:108DEE00204573706572616E646F2053616C697299
:108DFE002E005665686963756C6F2053616C6965EA
:108E0E006E646F2E20556E206D6F6D656E746F00E3
:0486E100410238001A
:07A93300C2B5C2B6C2B72293
:07A93A00C2B5D2B6C2B7227C
:07A94100C2B5C2B6D2B72275
:07A94800D2B5C2B6D2B7225E
:07A94F00C2B5D2B6D2B72257
:07A95600D2B5D2B6D2B72240
:10A75C00E4FF7DF47C01309115EFFB3395E04B70F9
:0EA76C000DED1D70011CED4C70EC7F0180E8BE
:01A77A0022BC
:10A2C5009000347401F012A94F309103E004F012AC
:10A2D500A956309107900034E02402F0900034E054
:10A2E500640170177D12FC7FA812A4CAEF600CF4FC
:10A2F500900034700404F08002EFF0900034E02404
:02A3050030FF27
:01A307002233
:10A88D007D127C007FA812A4CAEF6005F470027FD0
:01A89D0001B9
:01A89E002297
:109BB80012A94130916112A75CEF3395E0FEEF6482
:109BC800014E704712A94820912312A93A7BFF2021
:109BD800910D7A8D797E12A287E490014780227ACE
:109BE8008D799F12A2879001477401801412A93AB7
:109BF8007BFF2091107A8D79B712A2879001477464
:109C080001F07FFF227A8D79CF80067BFF7A8D79EC
:109C1800E612A2877F00227BFF7A8E790012A28744
:039C28007F012297
:10A77B00E4FE12A94130911412A75CEFFD3395E072
:0EA78B00FCED64014C7002FF227F01227F0171
:01A79900229D
:10993C00E4900001F012A933209169900238E07094
:10994C0016900001E0701030B35A04F012A5E390A9
:10995C0002387401F0804D900238E064017016906A
:10996C000001E0701030B33C04F0127275900238B4
:10997C007402F0802F900238E0640270279000018E
:10998C00E0702130B31E04F07D0C7C007FA812A483
:10999C00CAEF640170047F5380027F4E129593E4EA
:0F99AC00900238F012A933309105E4900001F0D9
:0199BB002289
:1034F000643B686F726100494E4752455345205402
:1035000041524A45544120005441524A45544120B9
:1035100053494E20494E475245534F200054415283
:103520004A455441204E4F20524547495354524139
:10353000205041474F2000455843454445205449B9
:10354000454D504F204445204752414349412000BA
:103550004D454E5355414C204E4F2045535441202C
:10356000454E20504152515545414445524F20004F
:10357000444952494A41534520412043414A412050
:1035800000475241434941532E2E2E2000475241BD
:10359000434941532E2E2E004D454E5355414C4923
:1035A0004441442056454E4349444120004D454E38
:1035B0005355414C494441442045584345444520D6
:1035C000484F524152494F2041434552515545536E
:1035D0004520412043414A4120004E4F2045532081
:1035E0004D454E5355414C49444144204E4920508D
:1035F00052455041474F004D454E5355414C204E8A
:103600004F205041474F204C4F434143494F4E209C
:10361000484F59005441524A455441204E4F20458D
:10362000532044454C205041525155454144455248
:103630004F200053494E2050524553454E43494177
:10364000205645484943554C415220005441524A66
:1036500045544120494E56414C4944412000544173
:10366000524A4554412053494E20464F524D4154F1
:103670004F20004655455241204445204C494E4577
:10368000412000554E204D4F4D454E544F20504F38
:1036900052204641564F522000613B38353B494E3F
:1036A0004752455345205441524A4554410A0D0062
:1036B00000613B38363B5441524A455441205349FE
:1036C0004E20494E475245534F200A0D0000613BA2
:1036D00038373B5441524A455441204E4F205245C1
:1036E000474953545241205041474F0A0D00006151
:1036F0003B38383B455843454445205449454D5097
:103700004F20444520475241434941200A0D0000C3
:10371000613B38393B4D454E5355414C204E4F206F
:103720004553544120454E20504152515545414446
:1037300045524F0A0D0000613B39303B4449524924
:103740004A41534520412043414A410A0D0000614E
:103750003B39313B475241434941532E2E2E200ADB
:103760000D0000613B39333B4D454E5355414C20D4
:103770004E4F204553544120454E20504152515503
:1037800045414445524F0A0D0000613B39343B4DE1
:10379000454E5355414C494441442056454E4349BA
:1037A00044410A0D0000613B39353B4D454E5355B0
:1037B000414C494441442045584345444520484FE5
:1037C000524152494F20414345525155455345209E
:1037D000412043414A410A0D0000613B39363B4ECE
:1037E0004F204553204D454E5355414C494441448B
:1037F000204E49205052455041474F0A0D0000616C
:103800003B39373B4D454E5355414C204E4F205090
:1038100041474F204C4F434143494F4E20484F5959
:103820000A0D0000613B39383B5441524A4554412E
:10383000204E4F2045532044454C20504152515575
:1038400045414445524F200A0D0000613B39383B49
:1038500053494E2050524553454E43494120564509
:10386000484943554C4152200A0D0000613B39380C
:103870003B5441524A45544120494E56414C4944DB
:1038800041200A0D0000613B39383B5441524A4502
:1038900054412053494E20464F524D41544F200A27
:1038A0000D0000613B39383B4655455241204445A7
:1038B000204C494E45410A0D0000613B39383B55CB
:1038C0004E204D4F4D454E544F20504F52204641B3
:1038D000564F520A0D0000613B30373BA1204D4549
:1038E0004E5355414C494441442056454E4349446A
:1038F0004120210A0D0000613B30363B4D454E53BF
:1039000055414C20465545524120444520484F5290
:103910004152494F0A0D0000613B39383B484F5234
:103920004152494F204E4F2050524F4752414D4136
:10393000444F0A0D000057494547414E4420004777
:103940005241434941532000613B39323B5749457D
:1039500047414E443A000A6400613B39313B4752CB
:1039600041434941532000AA80280720000000005D
:1039700000140000AA8018010200AA8018010200A9
:09A68900900032E025E0FFE4FD41
:05A6920090003FEDF017
:10A6970012A44B900040EFF090003FE0600AE4FF07
:08A6A70012A44B900040EFF0FB
:01A6AF002288
:08A23D007B017A007914E4FDB5
:0EA2450090003AEBF0A3EAF0A3E9F0A3EDF0ED
:10A25300E4A3F090003AE0FBA3E0FAA3E0F9900056
:10A263003EE0F58275830012245DFF601090003D8F
:0DA27300E0FD12A69290003EE004F080D6BF
:01A2800022BB
:0EA1B10090001DEBF0A3EAF0A3E9F0A3EDF09F
:10A1BF00E4900022F0900020E0FF900022E0FEC328
:10A1CF009F502490001DE0FBA3E0FAA3E0F98E82DC
:10A1DF0075830012245DFF900021E0FD12A692907E
:07A1EF000022E004F080CE25
:01A1F6002246
:0B9E9E0090003AEBF0A3EAF0A3E9F01B
:109EA90012000E90003DEFF0E4900239F090003D71
:109EB900E02401FFE433FE900239E0C39FEE6480A1
:109EC900F8748098502990003AE0FBA3E0FAA3E0E7
:109ED900F9122444FF12A44B90003EEFF090003B8E
:0F9EE900E475F001122525900239E004F080BEE7
:019EF8002247
:109EF90078107C007D017BFF7A3979677E007F0DC0
:109F090012241E900144E07022C2877B017A0079F5
:109F1900151283A6C29C7B017A007910E490002176
:109F2900F07D0D12A1B1D29CD28722C287E49000A4
:109F390010F07B017A0079101283A67BFF7A3479BD
:069F4900F0129E9ED2877B
:019F4F0022EF
:0541910090002BEFF08F
:10419600782C7C007D017BFF7A3979747E007F065E
:1041A60012241EC287900144E060030244217B0171
:1041B6007A00792CFD12A24590002BE01225E341EE
:1041C600FF55421F56423F57425F58427F59429F12
:1041D6005A42BF5B427F5D42DF5E42FF5F431F6024
:1041E600433F61435FAA437FAB439FAC43BEAD43AE
:1041F600DDAE43FCAF0000441E7BFF7A3479F71234
:10420600000E900032EFF0E4FDFF12A69212A6898E
:104216007BFF7A3479F70244197BFF7A35790812E5
:10422600000E900032EFF0E4FDFF12A69212A6896E
:104236007BFF7A3579080244197BFF7A35791D129E
:10424600000E900032EFF0E4FDFF12A69212A6894E
:104256007BFF7A35791D0244197BFF7A357937124F
:10426600000E900032EFF0E4FDFF12A69212A6892E
:104276007BFF7A3579370244197BFF7A35795012FC
:10428600000E900032EFF0E4FDFF12A69212A6890E
:104296007BFF7A3579500244197BFF7A35797012A3
:1042A600000E900032EFF0E4FDFF12A69212A689EE
:1042B6007BFF7A3579700244197BFF7A3579811252
:1042C600000E900032EFF0E4FDFF12A69212A689CE
:1042D6007BFF7A35798D0244197BFF7A35799812FE
:1042E600000E900032EFF0E4FDFF12A69212A689AE
:1042F6007BFF7A3579980244197BFF7A3579AD12BE
:10430600000E900032EFF0E4FDFF12A69212A6898D
:104316007BFF7A3579AD0244197BFF7A3579DA125B
:10432600000E900032EFF0E4FDFF12A69212A6896D
:104336007BFF7A3579DA0244197BFF7A3579F712F1
:10434600000E900032EFF0E4FDFF12A69212A6894D
:104356007BFF7A3579F70244197BFF7A3679141296
:10436600000E900032EFF0E4FDFF12A69212A6892D
:104376007BFF7A3679140244197BFF7A3679331239
:10438600000E900032EFF0E4FDFF12A69212A6890D
:104396007BFF7A3679330244197BFF7A36794C12E1
:1043A600000E900032EFF0E4FDFF12A69212A689ED
:1043B6007BFF7A36794C805B7BFF7A36795E12001A
:1043C6000E900032EFF0E4FDFF12A69212A6897B52
:1043D600FF7A36795E803C7BFF7A36797312000E5F
:1043E600900032EFF0E4FDFF12A69212A6897BFF41
:1043F6007A367973801D7BFF7A36798312000E90A8
:104406000032EFF0E4FDFF12A69212A6897BFF7A36
:104416003679837D0112A245D28722C28790002B6E
:10442600E01225E3446D55447656447F5744885838
:1044360044915944995A44A15B44A95D44B15E44F0
:10444600B95F44C16044C96144D1AA44D9AB44E1CF
:10445600AC44E9AD44F1AE44F9AF4501B44509B504
:104466004511B60000451A7BFF7A36799902451741
:104476007BFF7A3679B10245177BFF7A3679CE0211
:1044860045177BFF7A3679EF0245177BFF7A377936
:1044960010807E7BFF7A37793780767BFF7A377993
:1044A6004F806E7BFF7A37796380667BFF7A377938
:1044B6008A805E7BFF7A3779A680567BFF7A3779CA
:1044C600DA804E7BFF7A3779FF80467BFF7A387930
:1044D60024803E7BFF7A38794B80367BFF7A3879A9
:1044E6006C802E7BFF7A38798680267BFF7A387936
:1044F600A3801E7BFF7A3879BA80167BFF7A3879DB
:10450600D7800E7BFF7A3879F780067BFF7A397978
:0645160018129E9ED287E0
:01451C00227C
:0E651F00900010EFF0A3EBF0A3EAF0A3E9F078
:10652D0078147C007D017BFF7A39797A7E007F06B5
:10653D0012241EC287900144E060030265E39000BF
:10654D0010E024A560401460030265E012A23D7BBB
:10655D00FF7A39793612000E90001AEFF090001183
:10656D00E0FBA3E0FAA3E0F912000E90001AE02F71
:10657D0004F0E4FDFF12A69290001A12A68C7BFF88
:10658D007A397936803812A23D7BFF7A39793F12FC
:10659D00000E90001AEFF0900011E0FBA3E0FAA3BB
:1065AD00E0F912000E90001AE02F04F0E4FDFF1246
:1065BD00A69290001A12A68C7BFF7A39793F7D0145
:1065CD0012A245900011E0FBA3E0FAA3E0F97D01D2
:1065DD0012A245D28722C287900010E024A5601731
:1065ED0014600302667E781B7C007D017BFF7A3987
:1065FD007948122870803C781B7C007D017BFF7AE6
:10660D00397959122870900011E0FBA3E0FAA3E04C
:10661D00F912000E90001AEFF024FFFFE434FFFE94
:10662D00900011E0FBA3E0FAA3E0F98F828E83E4E2
:10663D0012249C900011E0F9A3E0FAA3E090005D14
:10664D00C9F0A3EAF0A3E9F07B017A00791B129D52
:10665D000D90005D74FFF0A37439F0A37456F07BB8
:10666D00017A00791B129D0D7B017A00791B129E18
:03667D009ED28723
:0166800022F7
:100026000A20434F4E5452415345D1412041435437
:1000360055414C2056454E4349444120444542458E
:100046002052454E4F564152204645434841205680
:10005600454E43494D49454E544F200A0040232101
:10006600246046625E262A003A5B3C253F58545D72
:100076003D29000D0A0A25733E20002563002564EC
:10008600000D0A0A2041435455414C2049445F4320
:100096004C49454E54453D25730D0A0A000D0A0A82
:1000A60020444947495445205355204E5545564FFF
:1000B6002049445F434C49454E54453D000D0A0ACC
:1000C600204441544F204D4F444946494341444FF3
:1000D6002049445F434C49454E54453D25730D0A1E
:1000E6000A000D0A0A2041435455414C20434F440F
:1000F6005F5041524B3D25730D0A0A000D0A0A2036
:10010600444947495445205355204E5545564F209E
:10011600434F445F5041524B3D000D0A0A20444173
:10012600544F204D4F444946494341444F20434F85
:10013600445F5041524B3D25730D0A0A000D0A0AD1
:100146002041435455414C205449454D504F5F473B
:1001560052414349413D25730D0A0A000D0A0A2002
:10016600444947495445205355204E5545564F203E
:100176005449454D504F5F4752414349413D000D5B
:100186000A0A204441544F204D4F444946494341B1
:10019600444F205449454D504F5F475241434941D2
:1001A6003D25730D0A0A000D0A0A204143545541A4
:1001B6004C2053494E5F434F42524F20494E4841CF
:1001C60042494C495441444F3D25730D0A0A000DDE
:1001D6000A0A2041435455414C2053494E5F434F30
:1001E60042524F204752415449533D25730D0A0A46
:1001F600000D0A0A2041435455414C2053494E5F95
:10020600434F42524F20475241544953205920539D
:10021600414C49444120454C204D49534D4F2044C3
:1002260049413D25730D0A0A000D0A0A2044494733
:10023600495445205355204E5545564F2053494E57
:100246005F434F42524F3D000D0A0A204143545529
:10025600414C20444542554720494E484142494C6D
:10026600495441444F3D25730D0A0A000D0A0A20E0
:1002760041435455414C204445425547204841424C
:10028600494C495441444F3D25730D0A0A000D0A55
:100296000A2044494749544520454C204E55455669
:1002A6004F2045535441444F204445204445425530
:1002B600473D000D0A0A2041435455414C205553F1
:1002C600455F4C505220494E484142494C495441A1
:1002D600444F3D25730D0A0A000D0A0A2041435476
:1002E60055414C205553455F4C5052204841424998
:1002F6004C495441444F3D25730D0A0A000D0A0A24
:100306002044494749544520454C204E5545564FB3
:100316002045535441444F204445205553455F4C96
:1003260050523D000D0A0A2041435455414C20438A
:100336004F4D5041524143494F4E20414354495637
:100346004120494E484142494C495441444F3D257C
:10035600730D0A0A000D0A0A2041435455414C20E8
:10036600434F4D5041524143494F4E20414354491A
:1003760056412020484142494C495441444F3D256D
:10038600730D0A0A000D0A0A2044494749544520BC
:10039600454C204E5545564F2045535441444F2019
:1003A600444520434F4D5041524143494F4E204111
:1003B6004354495641203D000D0A0A2041435455F5
:1003C600414C20434F4D5041524143494F4E2041ED
:1003D60043544956412020494E484142494C4954CC
:1003E60041444F3D25730D0A0A000D0A0A2050416B
:1003F6004E54414C4C41204C434420484142494CC8
:1004060049544144413D25730D0A0A000D0A0A204C
:1004160050414E54414C4C4120524153504245525A
:1004260052592020484142494C49544144413D25B6
:10043600730D0A0A000D0A0A20444947495445200B
:10044600454C204E5545564F2045535441444F2068
:100456004445204C412050414E54414C4C41203D96
:10046600000D0A0A205041534120504F522043416B
:100476004A4120504152412056414C494441522064
:100486004443544F3D25730D0A0A000D0A0A2041C4
:10049600504C494341204445534355454E544F3DE6
:1004A60025730D0A0A000D0A0A2044494749544596
:1004B60020454C204E5545564F2045535441444FF8
:1004C600204445204443544F203D000D0A0A204154
:1004D600435455414C20414E544950415353424197
:1004E600434B204D454E5355414C20494E484142C1
:1004F600494C495441444F3D25730D0A0A000D0AE3
:100506000A2041435455414C20414E5449504153D1
:10051600534241434B204D454E5355414C20484193
:1005260042494C495441444F3D25730D0A0A000D7A
:100536000A0A2044494749544520454C204E554512
:10054600564F2045535441444F20444520414E5474
:1005560049504153534241434B204D454E5355411B
:100566004C3D000D0A0A2041435455414C20414E52
:100576005449504153534241434B20204D454E531D
:1005860055414C20484142494C495441444F3D2530
:10059600730D0A0A000D0A0A2041435455414C20A6
:1005A600414444524553535F484947485F424F418F
:1005B60052443D25730D0A0A000D0A0A2044494794
:1005C600495445204C41204E55455641204144440E
:1005D600524553535F484947485F424F4152443D55
:1005E600000D0A0A2041435455414C20484F5241C0
:1005F60052494F20494E484142494C495441444F83
:100606003D25730D0A0A000D0A0A2041435455413F
:100616004C20484F524152494F20484142494C498B
:100626005441444F3D25730D0A0A000D0A0A204421
:10063600494749544520454C204E5545564F20457F
:10064600535441444F20444520484F524152494F4C
:100656003D000D0A0A2044696769746520486F7277
:10066600612030383A3030204D696E75746F7320D2
:1006760044657364653A20000D0A0A20486F72616A
:100686002050726F6772616D6164612044657364A6
:10069600653A200025633A000D0A0A204469676915
:1006A600746520486F72613A4D696E75746F732078
:1006B60048617374613A20000D0A0A20486F72611E
:1006C6002050726F6772616D616461204861737456
:1006D600613A20000D0A2044657364652020486154
:1006E6007374610D0A002025630025632020200015
:1006F6000D0A0A20446967697465206C6F7320646B
:1007060069617320612070726F6772616D6172201A
:100716004C756E6573203D20322C20004D6172743D
:100726006573203D20332C204D696572636F6C65BF
:1007360073203D20342C204A7565766573203D2054
:10074600352C2000566965726E6573203D20362C67
:100756002053616261646F203D20372C20446F6D09
:10076600696E676F203D2031203A20000D0A0A206D
:10077600446961732050726F6772616D61646F7353
:10078600203A2000204C756E6573003D2025632CB1
:1007960000204D617274657300204D696572636F48
:1007A6006C657300204A7565766573002056696529
:1007B600726E6573002053616261646F0020446F3E
:1007C6006D696E676F003D20256300204C756E6570
:1007D60073203D2050726F6772616D61646F0D0A00
:1007E60000204C756E6573203D204E6F2070726F31
:1007F6006772616D61646F0D0A00204D61727465E8
:1008060073203D2050726F6772616D61646F0D0ACF
:1008160000204D6172746573203D204E6F2070720A
:100826006F6772616D61646F0D0A00204D696572B4
:10083600636F6C6573203D2050726F6772616D61E6
:10084600646F0D0A00204D696572636F6C657320D5
:100856003D204E6F2070726F6772616D61646F0D1F
:100866000A00204A7565766573203D2050726F67D1
:1008760072616D61646F0D0A00204A756576657355
:10088600203D204E6F2070726F6772616D61646FDC
:100896000D0A0020566965726E6573203D20507200
:1008A6006F6772616D61646F0D0A0020566965722B
:1008B6006E6573203D204E6F2070726F6772616D9A
:1008C60061646F0D0A002053616261646F203D20F0
:1008D60050726F6772616D61646F0D0A002053611B
:1008E6006261646F203D204E6F2070726F67726187
:1008F6006D61646F0D0A0020446F6D696E676F202D
:100906003D2050726F6772616D61646F0D0A002041
:10091600446F6D696E676F203D204E6F2070726F59
:100926006772616D61646F0D0A000D0A0A204469E1
:100936006769746520656C206E756D65726F2064DD
:10094600656C20486F726172696F20612070726FEA
:100956006772616D6172203D20000D0A0A20507297
:100966006F6772616D617220736567756E646F2063
:10097600486F726172696F2073693D283129206E54
:100986006F3D2830293D20000D0A0A204143545569
:10099600414C2046454348412056454E43494D4922
:1009A600454E544F2050415353574F52443A2573A6
:1009B6000D0A0A000D0A0A2F3E496420526567692E
:1009C6007374726F3A002573000D0A0A2F3E506148
:1009D6007373776F72643A000D0A0A2044494749D7
:1009E6005445204C41204E554556412046454348E6
:1009F600412044452056454E43494D49454E544FA6
:100A06003D000D0A0A2025730D0A0A000D0A0A2068
:100A16002558000D0A0A2041435455414C204645AD
:100A26004348412044452056454E43494D49454E8D
:100A3600544F2050524F4752414D414441203D258D
:100A4600730D0A0A000D0A206E756D65726F2064BB
:100A5600656C20486F726172696F202070726F67D3
:100A660072616D61646F203D2025630D0A000D0AD9
:100A76002020484F524152494F20484142494C4953
:100A86005441444F20203D204F4E0D0A000D0A20B0
:100A9600446961732050726F6772616D61646F7330
:100AA6000D0A000D0A2020534547554E444F204855
:100AB6004F524152494F20484142494C49544144C2
:100AC6004F20203D204F4E0D0A000D0A205345476A
:100AD600554E444F20484F524152494F20484142BB
:100AE600494C495441444F20203D204F46460D0A6B
:100AF600000D0A2020484F524152494F204841429A
:100B0600494C495441444F20203D204F46460D0A4A
:100B1600000D0A2049445F434C49454E54455F50F9
:100B2600524F4752414D41444F203D2025730D0AF7
:100B3600000D0A20434F445F5041524B5F50524FC5
:100B46004752414D41444F203D2025730D0A000D6B
:100B56000A205449454D504F5F4752414349412071
:100B660050524F4752414D41444F203D2025730D71
:100B76000A000D0A2053494E5F434F42524F204808
:100B86004142494C495441444F203D204F4646205E
:100B96000D0A000D0A2053494E5F434F42524F2023
:100BA6003D204F4E0D0A000D0A2050524F4752412C
:100BB6004D41444F204445425547203D204F4E0D60
:100BC6000A000D0A2050524F4752414D41444F20D2
:100BD6004445425547203D204F46460D0A000D0A22
:100BE600205553455F4C5052203D204F46460D0A36
:100BF600000D0A205553455F4C5052203D204F4E64
:100C06000D0A000D0A0A2020434F4D504152414320
:100C1600494F4E20414354495641203D204F4646B8
:100C26000D0A000D0A0A20434F4D504152414349D7
:100C36004F4E2041435449564120203D204F4E0DF2
:100C46000A000D0A2050414E54414C4C41204C4361
:100C5600442050524F4752414D4144410D0A000D28
:100C66000A2050414E54414C4C412052415350426F
:100C760045525259202050524F4752414D4144410E
:100C86000D0A000D0A0A2020414E54495041535383
:100C96004241434B204D454E5355414C203D204F3C
:100CA60046460D0A000D0A0A2020414E544950417D
:100CB60053534241434B204D454E5355414C203DE5
:100CC600204F4E0D0A0041435455414C20414444A7
:100CD600524553535F484947485F424F415244206B
:100CE60050524F4752414D414441203D2025730DFE
:100CF6000A000D0A2041435455414C2046454348BD
:100D0600412044452056454E43494D49454E544F92
:100D16002050524F4752414D414441203D25730DCD
:100D26000A000D0A2049445F434C49454E5445206C
:100D36002020202D2D2D20434D4420302049646550
:100D46006E746966696361646F722064656C2063A2
:100D56006C69656E7465206D6178696D6F203235DA
:100D660035000D0A20434F445F5041524B2020204E
:100D76002020202D2D2D20434D44203120456C2050
:100D86006E756D65726F2064656C20706172717529
:100D960065616465726F206D6178696D6F203235AB
:100DA60035000D0A20545F47524143494120202017
:100DB6002020202D2D2D20434D44203220546965BE
:100DC6006D706F2073696E20636F62726F203030B2
:100DD6002C20206D6178696D6F20323535000D0A43
:100DE6002053494E5F434F42524F20202020202D52
:100DF6002D2D20434D44203320496E686162696C75
:100E0600697461646F3D20302C2047726174697388
:100E16003D2031202C20477261746973207920733C
:100E2600616C69646120656C206D69736D6F206407
:100E360069613D2032000D0A204445425547202075
:100E4600202020202020202D2D2D20434D442034ED
:100E560020486162696C69746172203D20312C20E2
:100E6600496E686162696C69746172203D20300068
:100E76000D0A205553455F4C50522020202020203B
:100E8600202D2D2D20434D44203520486162696C6C
:100E960069746172203D20312C20496E6861626957
:100EA6006C69746172203D2030000D0A20434F4D5D
:100EB6005041524143494F4E5F41435449564120A8
:100EC6002D2D2D20434D44203620486162696C69E2
:100ED600746172203D20312C20496E686162696C14
:100EE60069746172203D2030000D0A205449504F2C
:100EF6005F50414E54414C4C4120202020202D2D46
:100F06002D20434D442037202830292070616E74EF
:100F1600616C6C61206C6364202073657269652066
:100F260028312920726173706265727279206F2090
:100F3600626C7565746F6F7468000D0A20444354C3
:100F46004F5F504153415F43414A412020202020BA
:100F56002D2D2D20434D4420382028302920706126
:100F6600736120706F722063616A612028312920C5
:100F760061706C69636120656C2064657363756577
:100F86006E746F000D0A205553455F4150425F4D08
:100F9600454E5355414C202020202D2D2D20434DCC
:100FA60044203920486162696C69746172203D2071
:100FB600312C20496E686162696C69746172203DEA
:100FC6002030000D0A20414444524553535F48499E
:100FD60047485F424F415244202D2D2D20434D441A
:100FE600203130204C6120646972656363696F6EDD
:100FF60020616C74612064656C20626F617264208C
:1010060064656C206E756D65726F203520616C208D
:10101600392073696E6F207365207573612064656E
:10102600626520697220656E2030000D0A20484FE7
:10103600524152494F2020202020202020202020CD
:10104600202D2D2D20434D442031312050726F67C5
:10105600616D6120313020686F726172696F732033
:1010660064656C203120616C203130000D0A2056F9
:1010760045525F50524F4752414D4143494F4E20D2
:1010860020202D2D2D20434D44203132204D7565D5
:1010960073747261206C612070726F6772616D612A
:1010A60063696F6E000D0A20415955444120202086
:1010B6002020202020202D2D2D20434D442031336B
:1010C600204D756573747261206C6F7320636F6D4C
:1010D600616E646F73000D0A2053414C4952202003
:1010E600202020202020202D2D2D20434D4420314E
:1010F600342053616C69722064652070726F677268
:10110600616D6163696F6E000D0A0A5369737465D8
:101116006D612064652050726F6772616D616369ED
:101126006F6E207665726966696361646F72206CA2
:10113600696E74656368200D0A0D0A000D0A436F17
:101146006D616E646F206E6F2065786973746520BB
:1011560027257327003A5B3C253F58545D3D2900FF
:10116600232A594A41494D4563616D696C744B00A8
:1011760077727A32357136382D393166532E400002
:0C118600200D0A00200D0A00220D0A00B6
:1086E5005401C72F0000000000000000000000003A
:1086F500000000000000004901BE61646D696E0064
:10870500000000603001DB30000031000032000065
:108715003300003400003500003600003700003813
:108725000000390000313000313100313200313381
:078735000031340031350072
:0B529C00900071EBF0A3EAF0A3E9F032
:1052A70078767C007D017BFF7A11795B7E007F0B2E
:1052B70012241E78817C007D017BFF7A1179667E3E
:1052C700007F1012241E78917C007D017BFF7A11EC
:1052D70079767E007F1012241E7B017A0079AC7FDD
:1052E700507E03129D787B017A0079AC128762EFBA
:1052F7003395E0FEEF64014E60177BFF7A00792655
:105307001239EB78767C007D017BFF7A0079638028
:105317000C78767C007D017BFF7A00796E1228700D
:10532700900071E0FBA3E0FAA3E0F912000E9000F1
:1053370074EFF0E4A3F0900075E0FFC3940A748063
:105347009480400302549F900071E0FBA3E0FAA30E
:10535700E0F98F8275830012245DFD7C0074762F3F
:10536700F582E43400F583E02DFFEC339001BAF0C9
:10537700A3EFF07E00540FFFA3EEF0A3EFF0700B46
:10538700E004F070069001BCE004F09001BCE0FE80
:10539700A3E02480F58274003EF583E07E002DFFB4
:1053A700EE3C9001BAF0A3EFF07E00540FFFA3EE9E
:1053B700F0A3EFF0700BE004F070069001BCE0047E
:1053C700F09001BCE0FEA3E02490F58274003EF566
:1053D70083E0FF9001BAE0FEA3E06FFF9001BAEE11
:1053E700F0FEA3EFF0D394FFEE940040059001BACE
:1053F700E4F09001BAE0FEA3E0FFC3947AEE9400D4
:105407004015D3EF94FFEE9400500CEF547AFF90C1
:1054170001BAE4F0A3EFF0C39001BBE09430900130
:10542700BAE09400500CA3E02440F09001BAE034B5
:1054370000F09001BAE0FEA3E0FFC3945BEE940096
:105447004014D3EF9460EE9400500BE02407F090E3
:1054570001BAE03400F09001BAE0FEA3E0FFC39484
:105467003AEE94004014D3EF9440EE9400500BE0D2
:1054770024F9F09001BAE034FFF09001BAA3E0FFFD
:10548700900075E024A1F582E43400F583EFF090F5
:105497000075E004F002533DE49000ABF07B017A25
:0354A7000079A1E8
:0154AA0022DF
:0B9DDE0090005AEBF0A3EAF0A3E9F0BC
:109DE900E4900060F0900060E0FFC39410748094E8
:109DF900805041EF75F003A424DBF9740135F0FAC2
:109E09007B01785D7C007D01122870785D7C007D86
:109E19000190005AE0FBA3E0FAA3E0F9122787EFCB
:109E29003395E04F7006900060E0FF22900060E0FB
:069E390004F080B17FFF80
:019E3F002200
:08A30800E0FBA3E0FAA3E0F979
:0BA31000900071EBF0A3EAF0A3E9F06D
:10A31B0078747C007D017B017A0179BE12287078FC
:10A32B00747C007D01900071E0FBA3E0FAA3E0F9DF
:0EA33B00122787EF3395E04F7002FF227FFF5D
:01A3490022F1
:06A3CC007B017A007932EA
:0BA3D200900071EBF0A3EAF0A3E9F0AB
:10A3DD0078747C007D017BFF7A1179867E007F0485
:10A3ED0012241E90007B7401F0A37400F0A374740A
:0FA3FD00F0900071E0FBA3E0FAA3E0F9027F5CAF
:10935E00E0FBA3E0FAA3E02FF9EA3EFAE92401F9D3
:03936E00E43AFAE4
:0B93710090005AEBF0A3EAF0A3E9F033
:10937C00785D7C007D017BFF7A11798A7E007F0409
:10938C0012241E78617C007D017BFF7A11798E7E20
:10939C00007F0412241E90005AE0FBA3E0FAA3E025
:1093AC00F9122444FFB4200C90005BE475F0011218
:1093BC00252580E2EF90007BB4220D7401F0A3749C
:1093CC0000F0A37461F080167401F0A37400F0A394
:1093DC00745DF090005AE0FBA3E0FAA3E0F9127F71
:0193EC005C24
:0193ED00225D
:10A827009000B37401F0A37401F0A374C7F07BFF29
:07A837007A0079790239EB88
:0899BC007A0079777B01E4FDDC
:0E99C400900085EBF0A3EAF0A3E9F0A3EDF02C
:1099D20012A904900085E0FBA3E0FAA3E0F9EF12DC
:1099E200248A900088E0701D900085E0FBA3E0FAD5
:1099F200A3E0F91224449000B3F07BFF7A0079814E
:109A02001239EB80057F2A12A44B900085E0FBA35C
:109A1200E0FAA3E0F9122444FF7E00900086E47588
:109A2200F001122525900085E0FBA3E0FAA3E0F9FE
:099A3200E412248AEF640D709720
:019A3B002208
:10881D00E4FDFC7FA812A4CA7E00900064EEF0A3D4
:10882D00EFF09000B374FFF0A37400F0A37484F024
:10883D00A3EEF0A3EFF07B017A00795A1239E5909F
:10884D0000B37401F0A37400F0A3745AF07BFF7AA7
:10885D000079871239EB7BFF7A0079A31239EB7A15
:10886D0000795A1299C07B017A00795A12811E90B3
:10887D000064EEF0A3EFF0FBE4FDFC7FA8129F6710
:10888D00E4FDFC7FA812A4CA7E00900064EEF0A364
:10889D00EFF09000B374FFF0A37400F0A37484F0B4
:1088AD00A3EEF0A3EFF07B017A00795A1239E5902F
:1088BD0000B37401F0A37400F0A3745AF07BFF7A37
:0688CD000079C30239EB43
:10852D007D027C007FA812A4CA7E00900064EEF04C
:10853D00A3EFF09000B374FFF0A37400F0A3748464
:10854D00F0A3EEF0A3EFF07B017A00795A1239E532
:10855D009000B37401F0A37400F0A3745AF07BFF84
:10856D007A0079E81239EB7BFF7A0179021239EB47
:10857D007B017A00795AE4FD1299C47B017A007966
:10858D005A12811E900064EEF0A3EFF0FB7D027C89
:10859D00007FA8129F677D027C007FA812A4CA7E6F
:1085AD0000900064EEF0A3EFF09000B374FFF0A321
:1085BD007400F0A37484F0A3EEF0A3EFF07B017AC6
:1085CD0000795A1239E59000B37401F0A37400F0EC
:0D85DD00A3745AF07BFF7A0179200239EB7C
:1085EA007D047C007FA812A4CA7E00900064EEF08D
:1085FA00A3EFF09000B374FFF0A37400F0A37484A7
:10860A00F0A3EEF0A3EFF07B017A00795A1239E574
:10861A009000B37401F0A37400F0A3745AF07BFFC6
:10862A007A0179431239EB7BFF7A0179621239EBCD
:10863A007B017A00795AE4FD1299C47B017A0079A8
:10864A005A12811E900064EEF0A3EFF0FB7D047CC9
:10865A00007FA8129F677D047C007FA812A4CA7EAF
:10866A0000900064EEF0A3EFF09000B374FFF0A363
:10867A007400F0A37484F0A3EEF0A3EFF07B017A08
:10868A0000795A1239E59000B37401F0A37400F02E
:0D869A00A3745AF07BFF7A0179850239EB59
:106A67007D067C007FA812A4CA7E00900064EEF029
:106A7700A3EFF09000B374FFF0A37400F0A3748445
:106A8700F0A3EEF0A3EFF07B017A00795A1239E513
:106A9700900064E07002A3E070159000B304F0A3C7
:106AA7007400F0A3745AF07BFF7A0179AD803590BA
:106AB7000064E07004A3E0640170159000B304F073
:106AC700A37400F0A3745AF07BFF7A0179D5801480
:106AD7009000B37401F0A37400F0A3745AF07BFF25
:106AE7007A0179F71239EB7BFF7A02792F1239EBAA
:106AF7007B017A00795AE4FD1299C47B017A007907
:106B07005A12811E900064EEF0A3EFF0FB7D067C25
:106B1700007FA8129F677D067C007FA812A4CA7E0B
:106B270000900064EEF0A3EFF09000B374FFF0A3C1
:106B37007400F0A37484F0A3EEF0A3EFF07B017A66
:106B470000795A1239E5900064E07002A3E07015ED
:106B57009000B304F0A37400F0A3745AF07BFF7A9B
:106B67000179AD8035900064E07004A3E0640170A2
:106B7700159000B304F0A37400F0A3745AF07BFFE0
:106B87007A0179D580149000B37401F0A37400F0F2
:0D6B9700A3745AF07BFF7A0179F71239EBF5
:016BA40022CE
:107794007D087C007FA812A4CA7E00900064EEF0ED
:1077A400A3EFF09000B374FFF0A37400F0A374840B
:1077B400F0A3EEF0A3EFF07B017A00795A1239E5D9
:1077C400900064E07002A3E070159000B304F0A38D
:1077D4007400F0A3745AF07BFF7A02794E801490FF
:1077E40000B37401F0A37400F0A3745AF07BFF7A21
:1077F4000279721239EB7BFF7A0279941239EB7BAE
:10780400017A00795AE4FD1299C47B017A00795A0D
:1078140012811E900064EEF0A3EFF0FB7D087C0063
:107824007FA8129F677D087C007FA812A4CA7E00EF
:10783400900064EEF0A3EFF09000B374FFF0A37433
:1078440000F0A37484F0A3EEF0A3EFF07B017A00C0
:10785400795A1239E5900064E07002A3E070159043
:1078640000B304F0A37400F0A3745AF07BFF7A020F
:10787400794E80149000B37401F0A37400F0A374E3
:0B7884005AF07BFF7A0279721239EB98
:01788F0022D6
:107890007D0A7C007FA812A4CA7E00900064EEF0EE
:1078A000A3EFF09000B374FFF0A37400F0A374840E
:1078B000F0A3EEF0A3EFF07B017A00795A1239E5DC
:1078C000900064E07002A3E070159000B304F0A390
:1078D0007400F0A3745AF07BFF7A0279B980149097
:1078E00000B37401F0A37400F0A3745AF07BFF7A24
:1078F0000279DF1239EB7BFF7A0379031239EB7BD4
:10790000017A00795AE4FD1299C47B017A00795A10
:1079100012811E900064EEF0A3EFF0FB7D0A7C0064
:107920007FA8129F677D0A7C007FA812A4CA7E00F0
:10793000900064EEF0A3EFF09000B374FFF0A37436
:1079400000F0A37484F0A3EEF0A3EFF07B017A00C3
:10795000795A1239E5900064E07002A3E070159046
:1079600000B304F0A37400F0A3745AF07BFF7A0212
:1079700079B980149000B37401F0A37400F0A3747B
:0B7980005AF07BFF7A0279DF1239EB2E
:01798B0022D9
:10798C007D0C7C007FA812A4CA7E00900064EEF0EF
:10799C00A3EFF09000B374FFF0A37400F0A3748411
:1079AC00F0A3EEF0A3EFF07B017A00795A1239E5DF
:1079BC00900064E07002A3E070159000B304F0A393
:1079CC007400F0A3745AF07BFF7A03792A80149028
:1079DC0000B37401F0A37400F0A3745AF07BFF7A27
:1079EC0003795B1239EB7BFF7A03798B1239EB7BD2
:1079FC00017A00795AE4FD1299C47B017A00795A14
:107A0C0012811E900064EEF0A3EFF0FB7D0C7C0065
:107A1C007FA8129F677D0C7C007FA812A4CA7E00F1
:107A2C00900064EEF0A3EFF09000B374FFF0A37439
:107A3C0000F0A37484F0A3EEF0A3EFF07B017A00C6
:107A4C00795A1239E5900064E07002A3E070159049
:107A5C0000B304F0A37400F0A3745AF07BFF7A0314
:107A6C0079BE80149000B37401F0A37400F0A37479
:0B7A7C005AF07BFF7A03795B1239EBB4
:017A870022DC
:107A88007D0E7C007FA812A4CA7E00900064EEF0F0
:107A9800A3EFF09000B374FFF0A37400F0A3748414
:107AA800F0A3EEF0A3EFF07B017A00795A1239E5E2
:107AB800900064E07002A3E070159000B304F0A396
:107AC8007400F0A3745AF07BFF7A0379F080149065
:107AD80000B37401F0A37400F0A3745AF07BFF7A2A
:107AE8000479121239EB7BFF7A04793B1239EB7B6C
:107AF800017A00795AE4FD1299C47B017A00795A17
:107B080012811E900064EEF0A3EFF0FB7D0E7C0066
:107B18007FA8129F677D0E7C007FA812A4CA7E00F2
:107B2800900064EEF0A3EFF09000B374FFF0A3743C
:107B380000F0A37484F0A3EEF0A3EFF07B017A00C9
:107B4800795A1239E5900064E07002A3E07015904C
:107B580000B304F0A37400F0A3745AF07BFF7A0317
:107B680079F080149000B37401F0A37400F0A3744A
:0B7B78005AF07BFF7A0479121239EBFF
:017B830022DF
:107B84007D0F7C007FA812A4CA7E00900064EEF0F2
:107B9400A3EFF09000B374FFF0A37400F0A3748417
:107BA400F0A3EEF0A3EFF07B017A00795A1239E5E5
:107BB400900064E07002A3E070159000B304F0A399
:107BC4007400F0A3745AF07BFF7A047967801490F0
:107BD40000B37401F0A37400F0A3745AF07BFF7A2D
:107BE4000479911239EB7BFF7A0479AC1239EB7B7F
:107BF400017A00795AE4FD1299C47B017A00795A1A
:107C040012811E900064EEF0A3EFF0FB7D0F7C0068
:107C14007FA8129F677D0F7C007FA812A4CA7E00F4
:107C2400900064EEF0A3EFF09000B374FFF0A3743F
:107C340000F0A37484F0A3EEF0A3EFF07B017A00CC
:107C4400795A1239E5900064E07002A3E07015904F
:107C540000B304F0A37400F0A3745AF07BFF7A0419
:107C6400796780149000B37401F0A37400F0A374D6
:0B7C74005AF07BFF7A0479911239EB83
:017C7F0022E2
:107C80007D157C007FA812A4CA7E00900064EEF0EF
:107C9000A3EFF09000B374FFF0A37400F0A374841A
:107CA000F0A3EEF0A3EFF07B017A00795A1239E5E8
:107CB000900064E07002A3E070159000B304F0A39C
:107CC0007400F0A3745AF07BFF7A0479D180149089
:107CD00000B37401F0A37400F0A3745AF07BFF7A30
:107CE0000579041239EB7BFF7A0579351239EB7B84
:107CF000017A00795AE4FD1299C47B017A00795A1D
:107D000012811E900064EEF0A3EFF0FB7D157C0065
:107D10007FA8129F677D157C007FA812A4CA7E00F1
:107D2000900064EEF0A3EFF09000B374FFF0A37442
:107D300000F0A37484F0A3EEF0A3EFF07B017A00CF
:107D4000795A1239E5900064E07002A3E070159052
:107D500000B304F0A37400F0A3745AF07BFF7A041C
:107D600079D180149000B37401F0A37400F0A3746F
:0B7D70005AF07BFF7A0579691239EBAD
:017D7B0022E5
:108040007D127C007FA812A4CA7E00900064EEF02E
:10805000A3EFF09000B374FFF0A37400F0A3748456
:10806000F0A3EEF0A3EFF07B017A00795A1239E524
:10807000900064E07002A3E070069000B3048005F5
:108080009000B37401F0A37400F0A3745AF07BFF66
:108090007A05799B1239EB7BFF7A0579BF1239EBB0
:1080A0007B017A00795AE4FD1299C47B017A007948
:1080B0005A12811E900064EEF0A3EFF0FB7D127C5B
:1080C000007FA8129F677D127C007FA812A4CA7E41
:1080D00000900064EEF0A3EFF09000B374FFF0A303
:1080E0007400F0A37484F0A3EEF0A3EFF07B017AA8
:1080F00000795A1239E5900064E07002A3E070063E
:108100009000B30480059000B37401F0A37400F0F4
:0D811000A3745AF07BFF7A05799B1239EBBE
:01811D00223F
:10A5AF009000887419F0A37432F0A3744BF0A37465
:10A5BF0064F0A3747DF0A37496F0A374AFF0A3744A
:10A5CF00C8F0A374E1F0A374FAF0E4A3F07B017A6E
:03A5DF0000798878
:01A5E2002256
:0A6F2D00900075EEF0FCA3EFF0FDFC
:106F37007FA812A4CA7E00900081EEF0A3EFF09024
:106F470000B374FFF0A37400F0A37484F0A3EEF011
:106F5700A3EFF07B017A0079771239E5900081E0A1
:106F67007002A3E070159000B304F0A37400F0A3BF
:106F77007477F07BFF7A0579E780149000B374018A
:106F8700F0A37400F0A37477F07BFF7A06790D12F3
:106F970039EB7BFF7A0679311239EB7B017A00797D
:106FA70077E4FD1299C47B017A00797712811E90EC
:106FB7000081EEF0A3EFF0900075E0FCA3E0FDABDD
:106FC700077FA8129F67900075E0FCA3E0FD7FA8EC
:106FD70012A4CA7E00900081EEF0A3EFF09000B3F8
:106FE70074FFF0A37400F0A37484F0A3EEF0A3EF92
:106FF700F07B017A0079771239E5900081E0700221
:10700700A3E09000837018F0A3F09000B304F0A3FE
:107017007400F0A37477F07BFF7A0579E78017E4B3
:10702700F0A304F09000B3F0A37400F0A37477F01A
:0F7037007BFF7A06790D1239EB900083A3E0FFFF
:017046002227
:0854AB00900075EEF0A3EFF094
:1054B3007BFF7A0679581239EB1299BC7BFF7A0687
:1054C300797E1239EB900076E02407FD900075E0B9
:1054D3003400FC900077E0FB7FA8129F6790007672
:1054E300E02407FD900075E03400FC7FA812A4CAF5
:1054F3007BFF7A0079819000B3EFF01239EB9000D3
:1055030076E02408FD900075E03400FC900078E01C
:10551300FB7FA8129F67900076E02408FD9000753A
:10552300E03400FC7FA812A4CA7BFF7A06799A9024
:1055330000B3EFF01239EB900076E02409FD900000
:1055430075E03400FC90007AE0FB7FA8129F67901F
:105553000076E02409FD900075E03400FC7FA8127A
:10556300A4CA7BFF7A0079819000B3EFF01239EB84
:10557300900076E0240AFD900075E03400FC900072
:105583007BE0FB7FA8129F67900076E0240AFD90E2
:105593000075E03400FC7FA812A4CA7BFF7A00796F
:1055A300819000B3EFF01239EB7BFF7A06799E12FC
:1055B30039EB1299BC7BFF7A0679BE1239EB900066
:1055C30076E0240BFD900075E03400FC900077E05A
:1055D300FB7FA8129F67900076E0240BFD90007577
:1055E300E03400FC7FA812A4CA7BFF7A0079819083
:1055F30000B3EFF01239EB900076E0240CFD90003D
:1056030075E03400FC900078E0FB7FA8129F679060
:105613000076E0240CFD900075E03400FC7FA812B6
:10562300A4CA7BFF7A06799A9000B3EFF01239EBA4
:10563300900076E0240DFD900075E03400FC9000AE
:105643007AE0FB7FA8129F67900076E0240DFD901F
:105653000075E03400FC7FA812A4CA7BFF7A0079AE
:10566300819000B3EFF01239EB900076E0240EFD49
:10567300900075E03400FC90007BE0FB7FA8129F54
:1056830067900076E0240EFD900075E03400FC7F07
:10569300A812A4CA7BFF7A0079819000B3EFF002CD
:0256A30039EBE1
:08704700900088EEF0A3EFF0C9
:10704F007BFF7A0679DA1239EB900089E02407FD8D
:10705F00900088E03400FC7FA812A4CA7BFF7A0658
:10706F0079EC9000B3EFF01239EB900089E024082F
:10707F00FD900088E03400FC7FA812A4CA7BFF7A41
:10708F0006799A9000B3EFF01239EB900089E02463
:10709F0009FD900088E03400FC7FA812A4CA7BFF92
:1070AF007A0079819000B3EFF01239EB900089E00C
:1070BF00240AFD900088E03400FC7FA812A4CA7B4C
:1070CF00FF7A0679F09000B3EFF01239EB90008958
:1070DF00E0240BFD900088E03400FC7FA812A4CAC6
:1070EF007BFF7A0079819000B3EFF01239EB9000BB
:1070FF0089E0240CFD900088E03400FC7FA812A4E6
:10710F00CA7BFF7A06799A9000B3EFF01239EB90B1
:10711F000089E0240DFD900088E03400FC7FA81268
:10712F00A4CA7BFF7A0079819000B3EFF01239EB9C
:10713F00900089E0240EFD900088E03400FC7FA8C9
:10714F0012A4CA7BFF7A0079819000B3EFF0023965
:01715F00EB44
:084DCB00900075EEF0A3EFF07B
:104DD3007BFF7A0679F61239EB7BFF7A0779221289
:104DE30039EB7BFF7A07794A1239EB7B017A007939
:104DF30077E4FD1299C47BFF7A0779721239EBE4E9
:104E0300900082F0900082E0FFC394087480948045
:104E1300400302508174772FF582E43400F583E078
:104E2300900083F0643270437BFF7A07798A1239EA
:104E3300EB900076E02401FD900075E03400FC7BEC
:104E4300327FA8129F67900076E02401FD900075E1
:104E5300E03400FC7FA812A4CA900081EFF07BFF2E
:104E63007A0779919000B3F01239EB900082E02435
:104E730077F582E43400F583E0900083F0643370C7
:104E8300437BFF7A0779971239EB900076E024028F
:104E9300FD900075E03400FC7B337FA8129F679080
:104EA3000076E02402FD900075E03400FC7FA81238
:104EB300A4CA900081EFF07BFF7A0779919000B349
:104EC300F01239EB900082E02477F582E43400F5A8
:104ED30083E0900083F0643470437BFF7A07799F0B
:104EE3001239EB900076E02403FD900075E0340066
:104EF300FC7B347FA8129F67900076E02403FD902B
:104F03000075E03400FC7FA812A4CA900081EFF082
:104F13007BFF7A0779919000B3F01239EB9000820E
:104F2300E02477F582E43400F583E0900083F064B5
:104F33003570437BFF7A0779AA1239EB900076E04C
:104F43002404FD900075E03400FC7B357FA8129F9C
:104F530067900076E02404FD900075E03400FC7F48
:104F6300A812A4CA900081EFF07BFF7A0779919091
:104F730000B3F01239EB900082E02477F582E43439
:104F830000F583E0900083F0643670437BFF7A077B
:104F930079B21239EB900076E02405FD900075E0BC
:104FA3003400FC7B367FA8129F67900076E02405CF
:104FB300FD900075E03400FC7FA812A4CA90008124
:104FC300EFF07BFF7A0779919000B3F01239EB9001
:104FD3000082E02477F582E43400F583E0900083D7
:104FE300F0643770437BFF7A0779BB1239EB90008B
:104FF30076E02406FD900075E03400FC7B377FA843
:10500300129F67900076E02406FD900075E034005F
:10501300FC7FA812A4CA900081EFF07BFF7A077986
:10502300919000B3F01239EB900082E02477F5827F
:10503300E43400F583E0900083F0643170377BFF44
:105043007A0779C31239EB900075E0FCA3E0FD7B8E
:10505300317FA8129F67900075E0FCA3E0FD7FA855
:1050630012A4CA900081EFF07BFF7A0779CC9000FD
:0E507300B3F01239EB900082E004F0024E0719
:01508100220C
:086E0500900088EEF0A3EFF00D
:106E0D002401FDE43EFC7FA812A4CA90008AEFF095
:106E1D0064327BFF70067A0779D180047A0779E7AF
:106E2D001239EB900089E02402FD900088E03400D7
:106E3D00FC7FA812A4CA90008AEFF064337BFF7028
:106E4D00067A08790080047A0879171239EB9000D8
:106E5D0089E02403FD900088E03400FC7FA812A493
:106E6D00CA90008AEFF064347BFF70067A0879319E
:106E7D0080047A08794B1239EB900089E02404FDE7
:106E8D00900088E03400FC7FA812A4CA90008AEF1D
:106E9D00F064357BFF70067A08796880047A08798A
:106EAD007F1239EB900089E02405FD900088E034D5
:106EBD0000FC7FA812A4CA90008AEFF064367BFF15
:106ECD0070067A08799980047A0879B11239EB90B5
:106EDD000089E02406FD900088E03400FC7FA812B4
:106EED00A4CA90008AEFF064377BFF70067A0879A8
:106EFD00CC80047A0879E31239EB900088E0FCA38A
:106F0D00E0FD7FA812A4CA90008AEFF064317BFFE8
:0F6F1D0070067A0879FD80047A0979151239EB2C
:016F2C002242
:1067E20012A5AF78647C007D011228707BFF7A09C4
:1067F20079301239EB7B017A00795AE4FD1299C49F
:106802007B017A00795A12811EEF14900074F0E035
:106812002464F582E43400F583E0FF7E0090006F8B
:10682200EEF0A3EFF0A3EEF0A3EFF0900070E024FF
:106832000FF090006FE03400F0E0FEA3E0FF126F73
:106842002D900071E0FFA3E090006FCFF0A3EFF076
:106852009000747401F0900074E0FFC39408748097
:106862009480501C900070E02FFD90006FE0340087
:10687200FC7BFF7FA8129F67900074E004F080D633
:10688200900071E0FEA3E0FF90006FEEF0A3EFF046
:10689200124DCB90006FE0FEA3E0FF1254AB7BFFE2
:1068A2007A0979601239EB7B017A00795AE4FD1298
:1068B20099C47B017A00795A12811E900073EFF01D
:1068C200FB900070E02410FD90006FE03400FC7F2C
:1068D200A8129F67900070E02410FD90006FE034D2
:1068E20000FC7FA812A4CA900073EFF09000B3746A
:1068F200FFF0A37400F0A37484F0A3EFF07B017A9D
:1069020000795A1239E5900073E064017016900024
:1069120070E0240AF090006FE03400F0E0FEA3E0A3
:04692200FF1254AB61
:01692600224E
:1056A5007B017A00795A7F507E03129D78900074B1
:1056B5007401F0A37400F0A37468F07B017A00799B
:1056C5005A12911B9000B37401F0A37400F0A374F7
:1056D50068F07BFF7A09798E1239EB7BFF7A0979BD
:1056E500BA1239EB7B017A00795A7F007E03129D4D
:1056F500789000B37401F0A37400F0A3745AF07BA2
:10570500FF7A0979CC1239EB7B017A00795A12526A
:105715009C78BE7C017D011228707BFF7A0979CFC8
:105725001239EB7B017A00795A7D011299C47B010C
:105735007A00795A12A3D2900065EBF0A3EAF0A3A0
:10574500E9F07B017A0179BE7F007E03129C9E9071
:10575500006512A308EF70837BFF7A0979DE1239A1
:10576500EB7B017A00795AE4FD1299C49000B37479
:1057750001F0A37400F0A3745AF07BFF7A0A79084C
:105785001239EB90005AE0900068F090005BE090D1
:105795000069F0E4A3F07B017A00796812811E901C
:1057A500006FEEF0A3EFF07BFF7A0A79129000B359
:1057B500EEF0A3EFF01239EB90006FA3E0FB7D5004
:1057C5007C037FA8129F6790005CE0900068F090D2
:1057D500005DE0900069F0E4A3F07B017A00796850
:1057E50012811E90006FEEF0A3EFF07BFF7A0A792D
:1057F500129000B3EEF0A3EFF01239EB90006FA317
:10580500E0FB7D517C037FA8129F6790005EE090CE
:105815000068F090005FE0900069F0E4A3F07B0180
:105825007A00796812811E90006FEEF0A3EFF07B8D
:10583500FF7A0A79129000B3EEF0A3EFF01239EB7C
:1058450090006FA3E0FB7D527C037FA8129F67E465
:10585500FB7D537C037FA8129F677B017A00795AF1
:105865007F507E03129D789000747401F0A374003C
:10587500F0A37468F07B017A00795A12911B9000AD
:10588500B37401F0A37400F0A37468F07BFF7A0A87
:0558950079190239EB56
:106BA50012A5AF78777C007D01122870E4900082F1
:106BB500F0900082E0FFC3940A7480948040030241
:106BC5006CDB7BFF7A0A794BEF24319000B3F0122E
:106BD50039EB900082E02477F582E43400F583E018
:106BE500FF7E00900083EEF0A3EFF0A3EEF0A3EF9D
:106BF500F0900084E0240FF0900083E03400F0E092
:106C0500FCA3E0FD7FA812A4CA900087EFF09000D6
:106C1500B374FFF0A37400F0A37484F0A3EFF07BCA
:106C2500017A00796D1239E5900087E0640160030F
:106C3500026CC97BFF7A0A79741239EB7BFF7A0AF9
:106C450079931239EB900085E0FEA3E0FF90008375
:106C5500EEF0A3EFF0126E05900083E0FEA3E0FFD7
:106C6500127047900084E02410FD900083E034000A
:106C7500FC7FA812A4CA900087EFF09000B374FFC0
:106C8500F0A37400F0A37484F0A3EFF07B017A0005
:106C9500796D1239E5900087E064017BFF701F7AFA
:106CA5000A79A91239EB900084E0240AF090008358
:106CB500E03400F0E0FEA3E0FF127047800F7A0A8F
:106CC50079D080067BFF7A0A79F71239EB9000823A
:066CD500E004F0026BB6C2
:016CDB002296
:103E0300E4FDFC7FA812A4CA7E00900064EEF0A338
:103E1300EFF09000B374FFF0A37400F0A37484F088
:103E2300A3EEF0A3EFF07B017A00795A1239E59003
:103E330000B37401F0A37400F0A3745AF07BFF7A0B
:103E43000B79171239EB7D027C007FA812A4CA7E7E
:103E530000900064EEF0A3EFF09000B374FFF0A3C2
:103E63007400F0A37484F0A3EEF0A3EFF07B017A67
:103E730000795A1239E59000B37401F0A37400F08D
:103E8300A3745AF07BFF7A0B79371239EB7D047CEC
:103E9300007FA812A4CA7E00900064EEF0A3EFF0A6
:103EA3009000B374FFF0A37400F0A37484F0A3EE46
:103EB300F0A3EFF07B017A00795A1239E59000B351
:103EC3007401F0A37400F0A3745AF07BFF7A0B79AA
:103ED300551239EB7D067C007FA812A4CA7E0090A0
:103EE3000064EEF0A3EFF09000B374FFF0A374004E
:103EF300F0A37484F0A3EEF0A3EFF07B017A0079D2
:103F03005A1239E5900064E07002A3E070087BFF69
:103F13007A0B79788012900064E07004A3E0640166
:103F230070097BFF7A0B79991239EB7D087C007F4E
:103F3300A812A4CA7E00900064EEF0A3EFF09000F4
:103F4300B374FFF0A37400F0A37484F0A3EEF0A3A2
:103F5300EFF07B017A00795A1239E5900064E07042
:103F630004A3E064017BFF70067A0B79AD80047AC9
:103F73000B79C81239EB7D0A7C007FA812A4CA7E94
:103F830000900064EEF0A3EFF09000B374FFF0A391
:103F93007400F0A37484F0A3EEF0A3EFF07B017A36
:103FA30000795A1239E5900064E07002A3E07BFFC8
:103FB30070067A0B79E480047A0B79F71239EB7D7A
