:1066CA004100C90A4100FC00410107004100FD00E8
:1066DA0041010D00410104004200FE000041010693
:0D66EA000641010E0341010CF2C10AC10975
:03000B000278F187
:1078F100C0E0C083C0829000C9E06401700604F05A
:10790100C28D801C9000C9E014F09000FCE004F0EE
:107911009000FFE004F070069000FEE004F0C28DDC
:07792100D082D083D0E032D8
:107C2300E58954F04401F589E4F58CF58AD28C2278
:057CB100C28DD2A922E2
:037CC000C2A92234
:0B7C52001279F5EFF47002EEF460F51B
:017C5D002204
:0578010090009DEFF076
:1078060090009DE0FF12787CEF3395E04F6024E412
:1078160090009EF0A3F0C390009FE094E890009E35
:10782600E0940350DBA3E004F070EB90009EE004CC
:08783600F080E390009DE0FFEB
:01783E002227
:0E752200900034EBF0A3EAF0A3E9F0A3EDF043
:10753000E4A3F0900037E0FFA3E0C39F5029900040
:1075400034E0FBA3E0FAA3E0F91212E1FF127801A4
:10755000900039EFF0900035E475F0011213B0900F
:077560000038E004F080CCCC
:017567002201
:107C3300127CBB127C7A127C5EC283D287C29722EB
:106D0100127C23127CB11279541279A6127C33D2EF
:106D1100AF127B067F217E00127BB7127B8C7F61D5
:106D210012744B127C812091031243AA12735212E6
:106D31004E05EF70FA9000C97403F020093F2080DE
:106D41000E7B017A0079A11267FF900000EFF0122B
:106D5100002620B32B7B017A0079A112662E9000C8
:106D610000EFF0FD7B017A0079A11234D17B017A29
:106D71000079A1900000E0FD1274938003120026B7
:056D8100126E8B80B6CC
:057CB6004C4956450099
:0E34D100900001EBF0A3EAF0A3E9F0A3EDF008
:1034DF007D0A7C007FA81278439001B2EFF0900034
:1034EF0004E0FF64197059900001E0FBA3E0FAA318
:1034FF00E0F91212E1640270479000021212FA64AE
:10350F0048703DFE74FF2FF582EE34FFF5831212E3
:10351F00FA6403702B900001A3A3E02403F9E43AAB
:10352F00FA1251ACEF60030237E1900001E0FBA308
:10353F00E0FAA3E02403F9E43AFA126AD60272FB26
:10354F00900001E0FBA3E0FAA3E0F91212E164B6E8
:10355F0070289001B1E004F0E0D39404748094805B
:10356F0050030237E17FAE123169C282E49000FC52
:10357F00F0C297C2839001B1F022900001E0FBA34B
:10358F00E0FAA3E0F91212E1FF64B76005EF64AA55
:10359F0070539000FCE0C39414748094804008E44E
:1035AF00F0C297D282C283900100E060030237E13C
:1035BF009001B2E0640160030237E1C39000FFE0C5
:1035CF0094589000FEE0940250030237E1E4F0A318
:1035DF00F090010004F07BFF7A7C79B6127683E4D9
:1035EF00900100F022900001E0FBA3E0FAA3E0F9C4
:1035FF001212E164B170057F600236D5900001E0D0
:10360F00FBA3E0FAA3E0F91212E164B270057F5D4B
:10361F000236D5900004E064017017900001E0FBC2
:10362F00A3E0FAA3E0F91212E164A170057F5A0238
:10363F0036D5900004E064017016900001E0FBA302
:10364F00E0FAA3E0F91212E1640670047FAB807612
:10365F00900004E064017016900001E0FBA3E0FA13
:10366F00A3E0F91212E1640770047F5F80589000A5
:10367F0004E064017016900001E0FBA3E0FAA3E000
:10368F00F91212E1640870047F61803A900004E03F
:10369F0064017016900001E0FBA3E0FAA3E0F912B9
:1036AF0012E1640970047FAF801C900004E0640194
:1036BF007017900001E0FBA3E0FAA3E0F91212E10A
:1036CF0064B470057F5E023169900004E0FF6413FB
:1036DF007038900001E0FBA3E0FAA3E0F99000013D
:1036EF001212FAB456247E0074FF2FF582EE34FFC7
:1036FF00F5831212FA64037011900001A3A3E02462
:10370F0002F9E43AFA7F5B0237DE900004E0FF64CF
:10371F000660030237E1900001E0FBA3E0FAA3E0AB
:10372F00F91212E1640260030237E19000011212F4
:10373F00FA645760030237E1FE74FF2FF582EE340F
:10374F00FFF5831212FA640360030237E190000160
:10375F00A3A39000021212FAFD7B017A00790512E1
:10376F0073A89000087420F0900001E0FBA3E0FA2A
:10377F00A3E0F99000031212FAFD900001A3A390A9
:10378F0000041212FA900014F07B017A00790912EA
:10379F0037E29001B2E0640170211270FDEFF46026
:1037AF00077FAB12316980097B017A007905125CC2
:1037BF00657B017A0079057F5C80141270FDEFF450
:1037CF0060057FAB1231697B017A0079057F5C124E
:0237DF004B5A43
:0137E10022C5
:0B67FF00900001EBF0A3EAF0A3E9F02A
:10680A00E4900005F0A3740BF09001B2E06401700B
:10681A0073900004F0900006E0FF900004E0C39F2C
:10682A005053E4FFFEFD30801DED701A0FBF0001CA
:10683A000ED3EF9420EE944E40EC7D01900006E0DA
:10684A00900004F080E0ED6401602A900005E00405
:10685A00F0126C79900001E0FBA3E0FAA3E0F9EFF3
:10686A00121327900002E475F0011213B09000048D
:10687A00E004F080A0900001E0FBA3E0FAA3E0F9B5
:09688A00E4121327900005E0FF61
:0168930022E2
:0E76C100900033EBF0A3EAF0A3E9F0A3EDF0A4
:1076CF00E4A3F0900036E0FFA3E0C39F50249000A6
:1076DF0033E0FBA3E0FAA3E0F91212E1FF12744BBF
:1076EF00900034E475F0011213B0900037E004F00D
:0276FF0080D138
:017701002265
:0B5C6500900010EBF0A3EAF0A3E9F0C0
:105C70009000317403F090001314F0127BDB90005D
:105C800014EFF0A37453F0900104E090003160131E
:105C9000E0FF04F074132FF582E43400F583744DB3
:105CA000F08011E0FF04F074132FF582E43400F566
:105CB000837443F09000317404F0900010E0FBA373
:105CC000E0FAA3E0F91212E1FF6021900031E02434
:105CD00013F582E43400F583EFF0900011E475F0E1
:105CE000011213B0900031E004F080CE900031E05A
:105CF000FF04F074132FF582E43400F583743AF056
:105D0000900031E02413F9E43400FA7B01124011D1
:105D1000900031E0FF241DF582E43400F583743AED
:105D2000F0741E2FF582E43400F5837403F07B01D8
:0B5D30007A007913EF240CFD0276C10D
:0B3D7F0090000EEBF0A3EAF0A3E9F0C7
:103D8A009000327403F090001414F0127BDB900060
:103D9A0015EFF0A37453F0900011E0FBA3E0FAA32F
:103DAA00E0F99000081212FA9000326013E0FF0462
:103DBA00F074142FF582E43400F583744DF0801109
:103DCA00E0FF04F074142FF582E43400F5837443A1
:103DDA00F090000EE0FBA3E0FAA3E0F91212E1FF73
:103DEA00900032E0FE04F074142EF582E43400F5FB
:103DFA0083EFF090000FE475F0011213B090000EFB
:103E0A00E0FBA3E0FAA3E0F91212E170C4900032D9
:103E1A00E0FF04F074142FF582E43400F583743A59
:103E2A00F0900011E0FBA3E0FAA3E0F91212E1FF1F
:103E3A00127A61AD077C00ED54F0FFE4C4F854F047
:103E4A00C8EFC4540F484430FF900032E0FE04F03B
:103E5A0074142EF582E43400F583EFF0ED540F4428
:103E6A0030FF900032E0FE04F074142EF582E43440
:103E7A0000F583EFF0900011E0FBA3E0FAA3E0F96C
:103E8A009000011212FAFF127A617C00AD07ED541C
:103E9A00F0FFE4C4F854F0C8EFC4540F484430FFAC
:103EAA00900032E0FE04F074142EF582E43400F53A
:103EBA0083EFF0ED540F4430FF900032E0FE04F03F
:103ECA0074142EF582E43400F583EFF0900011E0CB
:103EDA00FBA3E0FAA3E0F99000021212FAFF127AA9
:103EEA00617C00AD07ED54F0FFE4C4F854F0C8EF6C
:103EFA00C4540F484430FF900032E0FE04F07414BA
:103F0A002EF582E43400F583EFF0ED540F4430FFD0
:103F1A00900032E0FE04F074142EF582E43400F5C9
:103F2A0083EFF0900011E0FBA3E0FAA3E0F9900020
:103F3A00031212FAFF127A617C00AD07ED54F0FF0A
:103F4A00E4C4F854F0C8EFC4540F484430FF90005A
:103F5A0032E0FE04F074142EF582E43400F583EFA7
:103F6A00F0ED540F4430FF900032E0FE04F0741478
:103F7A002EF582E43400F583EFF0900011E0FBA304
:103F8A00E0FAA3E0F99000041212FAFF127A617CB7
:103F9A0000AD07ED54F0FFE4C4F854F0C8EFC45480
:103FAA000F484430FF900032E0FE04F074142EF5FE
:103FBA0082E43400F583EFF0ED540F4430FF9000B3
:103FCA0032E0FE04F074142EF582E43400F583EF37
:103FDA00F0900032E0FF04F074142FF582E434000C
:103FEA00F583743AF0900032E0FF04F074142FF570
:103FFA0082E43400F5837403F07B017A007914902B
:07400A000032E0FD0276C167
:08000300D294127CC3C29422C6
:0577830090003AEFF058
:10778800E4A3F0A3F090003AE0FFA2E713F030D7AB
:1077980004D2958002C29512000390003CE004F0E8
:1077A800700690003BE004F0C390003CE094089021
:0977B800003BE06480948040CCA9
:0177C10022A5
:0A69B600EBF0A3EAF0A3E9F07F8DF7
:0569C000900037EFF02C
:1069C500D2967F037E00127BB7900037E0FF1277E7
:1069D50083E4900038F0A3F0900038E0FCA3E0FDDC
:1069E500C39408EC64809480504F3095169001B3A1
:1069F500E04480F0ED9406EC648094805005E0FF5F
:106A0500C313F02095209001B3E0547FF0D390009C
:106A150039E09406900038E0648094805008900135
:106A2500B3E0FFC313F0120003900039E004F070E7
:106A3500A7900038E004F0809FC2969001B3E0FF74
:016A4500222E
:10797E00900013EFF0A3EDF0D2967F037E00127B02
:10798E00B7900013E0FF127783900014E0FF900091
:08799E0013F0127783C2962258
:10770200900011E475F0011213B0900011E475F0CD
:10771200011213B0900011E475F0011213B0900041
:1077220010E0FBA3E0FAA3E0F91212E1FF900001DE
:047732001212FAFD38
:0C773600EF540FC454F0FFED540F4FFF50
:017742002224
:1051AC00E4FF1212E1FEC3943050030252BEEED360
:1051BC00943940030252BE9000011212FAFEC394BD
:1051CC003050030252BBEED3943940030252BB90D1
:1051DC0000031212FAFEC3943050030252B8EED3FD
:1051EC00943940030252B89000041212FAFEC39490
:1051FC003050030252C0EED3943940030252C09097
:10520C0000081212FAFEC3943050030252B5EED3CA
:10521C00943940030252B590000B1212FAFEC3945B
:10522C003050030252B2EED39439507A90000C12E3
:10523C0012FAFEC39430406BEED394395065900053
:10524C000E1212FAFEC394304056EED394395050DD
:10525C0090000F1212FAFEC394304041EED39439F1
:10526C00503B9000111212FAFEC39430402CEED336
:10527C00943950269000121212FAFEC39430401743
:10528C00EED3943950119000141212FAFEC39430DC
:10529C004022EED39439227F01227F01227F01220A
:1052AC007F01227F01227F01227F01227F01227F49
:0452BC0001227F014B
:0152C00022CB
:106AD600900010EBF0A3EAF0A3E9F0127720AD07DF
:106AE6007F8612797E127702AD077F8812797E90B3
:106AF6000011E475F0011213B0900011E475F00175
:106B06001213B0127702AD077F8C12797E127702CC
:106B1600AD077F8412797E127702AD077F821279E4
:106B26007E127702AD077F8012797E900011E475A0
:106B3600F0011213B0900011E475F0011213B09039
:106B46000011E475F0011213B0900010E0FBA3E011
:0F6B5600FAA3E0F91212E1540FFD7F8A02797E53
:107B1F00AE07EEC4540F540FFE6012EF540FFFE484
:0D7B2F00FDEDC39E5007740A2FFF0D80F47A
:017B3C002226
:107A6100E4FEFDFCECC39F500B0DED640A7002FDBA
:107A71000E0C80F0EEC454F054F0FEED540F4EFFA6
:017A810022E2
:1073A800E4FFFE900010EDF0900010E0C3946474C8
:1073B8008094804007E0249CF00F80ECEF4430126A
:1073C8001327740129F9E43AFA900010E0C3940AEB
:1073D800748094804007E024F6F00E80ECEE443090
:1073E800121327740129F9E43AFA900010E04430A6
:0373F80002132756
:0E37E200900010EBF0A3EAF0A3E9F0A3EDF0E5
:1037F000E4900015F0A3F0900018F0A3F0A3F0A35C
:10380000F0900017EDF054F0F0E0FFC4540FF0908A
:10381000002012140C404000007F007E007D807C60
:103820004112488FC004C005C006C007900017E0D1
:10383000FCE4120DF3D003D002D001D000120CE34F
:10384000C004C005C006C007900015E0FCA3E0FD61
:10385000E4120DEED003D002D001D000120BF21210
:103860000E27900015EEF0A3EFF0900013E090000B
:1038700017F0540FF090002012140C400000007F4D
:10388000007E007D807C4112488FC004C005C006C8
:10389000C007900017E0FCE4120DF3D003D002D073
:1038A00001D000120CE3C004C005C006C0079000A0
:1038B00015E0FCA3E0FDE4120DEED003D002D00130
:1038C000D000120BF2120E27900015EEF0A3EFF0CD
:1038D000900014E0900017F054F0F0E0FFC4540F93
:1038E000F090002012140C3F8000007F007E007DCD
:1038F000807C4112488FC004C005C006C0079000FC
:1039000017E0FCE4120DF3D003D002D001D0001276
:103910000CE3C004C005C006C007900015E0FCA37E
:10392000E0FDE4120DEED003D002D001D000120B66
:10393000F2120E27900015EEF0A3EFF0900014E0C5
:10394000900017F0540FF090002012140C000000AB
:10395000007F007E007D807C4112488FC004C0053E
:10396000C006C007900017E0FCE4120DF3D003D0AE
:1039700002D001D000120CE3C004C005C006C0078D
:10398000900015E0FCA3E0FDE4120DEED003D002A0
:10399000D001D000120BF2120E27900015EEF0A30A
:1039A000EFF0C3EF9410EE9427401074F02FFF74E3
:1039B000D83EFE900018E004F080E7900018E04444
:1039C00030FD900010E0FBA3E0FAA3E0F9ED121344
:1039D00027900011E475F0011213B0C3EF94E8EEE4
:1039E0009403401074182FFF74FC3EFE900019E001
:1039F00004F080E7900019E04430FD900010E0FBF7
:103A0000A3E0FAA3E0F9ED121327900011E475F09A
:103A1000011213B0C3EF9464EE94004010749C2F15
:103A2000FF74FF3EFE90001AE004F080E790001A59
:103A3000E04430FD900010E0FBA3E0FAA3E0F9EDD4
:103A4000121327900011E475F0011213B0C3EF9424
:103A50000AEE9400401074F62FFF74FF3EFE9000B3
:103A60001BE004F080E790001BE04430FD90001064
:103A7000E0FBA3E0FAA3E0F9ED121327900011E4B4
:103A800075F0011213B0EF4430FF900010E0FBA37B
:103A9000E0FAA3E0F9EF121327900011E475F001AA
:103AA0001213B0900010E0FBA3E0FAA3E0F9E402E7
:023AB0001327DA
:03401100900032EA
:104014001269B6EF54F0C4540F4430FE900032E0FD
:10402400FBA3E0FAA3E0F9EE121327900033E47542
:10403400F0011213B0EF540F4430FF900032E0FB54
:10404400A3E0FAA3E0F9EF121327900033E475F02C
:10405400011213B07F891269C0EF54F0C4540F44A5
:1040640030FE900032E0FBA3E0FAA3E0F9EE121375
:1040740027900033E475F0011213B0EF540F44306D
:10408400FF900032E0FBA3E0FAA3E0F9EF1213275C
:10409400900033E475F0011213B07F871269C0EF0A
:1040A40054F0C4540F4430FE900032E0FBA3E0FA15
:1040B400A3E0F9EE121327900033E475F001121314
:1040C400B0EF540F4430FF900032E0FBA3E0FAA3BA
:1040D400E0F9EF121327900033E475F0011213B0E6
:1040E4007F851269C0EF54F0C4540F4430FE900031
:1040F40032E0FBA3E0FAA3E0F9EE121327900033B9
:10410400E475F0011213B0EF540F4430FF90003205
:10411400E0FBA3E0FAA3E0F9EF121327900033E4E5
:1041240075F0011213B07F831269C0EF54F0C454C8
:104134000F4430FE900032E0FBA3E0FAA3E0F9EE76
:10414400121327900033E475F0011213B0EF540FEB
:104154004430FF900032E0FBA3E0FAA3E0F9EF1251
:104164001327900033E475F0011213B07F811269B4
:10417400C0EF54F0C4540F4430FE900032E0FBA36F
:10418400E0FAA3E0F9EE121327900033E475F0018E
:104194001213B0EF540F4430FF900032E0FBA3E061
:1041A400FAA3E0F9EF121327900033E475F001123B
:1041B40013B07F8B1269C0EF540F4430FF9000326C
:1041C400E0FBA3E0FAA3E0F9EF121327900033E435
:1041D40075F0011213B0900032E0FBA3E0FAA3E003
:0541E400F9E4021327BD
:1063A5009000341269B6127B1F900034E0FBA3E025
:1063B500FAA3E0F9EF121327900035E475F0011206
:1063C50013B07F891269C0127B1F900034E0FBA3D4
:1063D500E0FAA3E0F9EF121327900035E475F00118
:1063E5001213B07F871269C0127B1F900034E0FB47
:1063F500A3E0FAA3E0F9EF121327900035E475F056
:10640500011213B07F851269C0127B1F900034E022
:10641500FBA3E0FAA3E0F9EF121327900035E4752A
:10642500F0011213B07F831269C0127B1F900034F4
:10643500E0FBA3E0FAA3E0F9EF121327900035E49F
:0664450075F0010213B026
:105D3B0090001D1269B690001DE0FBA3E0FAA3E0F2
:105D4B00F9EF12132790001EE475F0011213B07FC8
:105D5B00891269C090001DE0FBA3E0FAA3E0F9EF04
:105D6B0012132790001EE475F0011213B07F8712F7
:105D7B0069C090001DE0FBA3E0FAA3E0F9EF12135A
:105D8B002790001EE475F0011213B07F851269C0D5
:105D9B0090001DE0FBA3E0FAA3E0F9EF12132790AC
:105DAB00001EE475F0011213B07F831269C09000DE
:105DBB001DE0FBA3E0FAA3E0F9EF12132790001EFE
:105DCB00E475F0011213B07F811269C090001DE0E1
:105DDB00FBA3E0FAA3E0F9EF12132790001EE47582
:105DEB00F0011213B090001DE0FBA3E0FAA3E0F961
:045DFB00E402132784
:077C7A00C294C296D29522CC
:0B47160090000EEBF0A3EAF0A3E9F026
:10472100A37401F01212E1FF3395E04F704790003E
:104731000EE0FBA3E0FAA3E0F99000011212FAFFE8
:104741003395E04F702F9000021212FAFF3395E07B
:104751004F70229000031212FAFF3395E04F70154B
:104761009000041212FAFF3395E04F700890001187
:1047710004F00248897B017A0079121263A5900145
:1047810000E0640170097B017A00791212644B9098
:10479100000EE0FBA3E0FAA3E0F91212E1FFFD3302
:1047A10095E0FC900012E0C39DEC6480F874809861
:1047B1005003024876900012E06F60030248839034
:1047C100000EE0FBA3E0FAA3E0F99000011212FA57
:1047D100FFFD3395E0FC900013E0C39DEC6480F88D
:1047E1007480985003024876900013E06F600302D2
:1047F100488190000EE0FBA3E0FAA3E0F9900002EB
:104801001212FAFFFD3395E0FC900014E0C39DEC19
:104811006480F87480985002805B900014E06F709F
:104821005D90000EE0FBA3E0FAA3E0F99000031213
:1048310012FAFFFD3395E0FC900015E0C39DEC6496
:1048410080F87480985002802C900015E0B5072CF8
:1048510090000EE0FBA3E0FAA3E0F990000412122D
:10486100FAFF3395E0FE900016E0C39FEE6480F8F6
:10487100748098500DE4900011F0800C8004800247
:0D48810080009000117402F0900011E0FF23
:01488E002207
:101EF300900011ECF0A3EDF090000EEBF0A3EAF0EC
:031F0300A3E9F05F
:101F0600C200C20190000B1212FAFF3395E04F6037
:101F16000302242990000EE0FBA3E0FAA3E0F99067
:101F2600000C1212FAFF3395E04F60030224299049
:101F3600000D1212FAFF3395E04F60030224299038
:101F4600000E1212FAFF3395E04F60030224299027
:101F5600000F1212FAFF3395E04F60030224299016
:101F66000011E0FEA3E0C3943CEE94009000114003
:101F76001CA3E0FB7C007D3CFF12135B90001AEF74
:101F8600F075F03CA4FFC3EB9FA3F0800BA3E09099
:101F9600001BF0E490001AF090001BE0FF700302B3
:101FA600225E90000EE0FBA3E0FAA3E0F9900004A5
:101FB6001212FAFEEF2E900019F0D3943B7480941F
:101FC600805003022233E0FF75F03C8490001CF041
:101FD600E0FE75F03CA4FDC3EF9D900019F0900063
:101FE600031212FAFFEE2F900018F0D394177480A4
:101FF60094805003022212E0FF75F0188490001CB2
:10200600F0E0FE75F018A4FDC3EF9D900018F09067
:1020160000021212FAFFEE2F900017F09000011244
:1020260012FAFF3395E0FEEF64014E6024EF64037D
:102036004E601EEF64054E6018EF64074E6012EFA7
:1020460064084E600CEF640A4E6006EF640C4E7036
:1020560057900017E0D3941F748094804032E02498
:10206600E1F090000EE0FBA3E0FAA3E0F990000196
:102076001212FA04900016F0D3940C7480948040E7
:10208600241212E104900015F0A37401F0022298C4
:1020960090000EE0FBA3E0FAA3E0F9900001121213
:1020A600FA900016F002229190000EE0FBA3E0FAEF
:1020B600A3E0F99000011212FAFF3395E0FEEF64F7
:1020C600044E6012EF64064E600CEF64094E600623
:1020D600EF640B4E7027900017E0D3941E74809423
:1020E60080400DE024E2F09000011212FA0480060E
:1020F6009000011212FA900016F002229190000E42
:10210600E0FBA3E0FAA3E0F99000011212FAFF3314
:1021160095E0FEEF64024E60030221F51212E1FF24
:10212600FD3395E0FCED24D0FAEC3407900013F073
:10213600A3CAF0C200ED64104C6023EF3395E0FEB5
:10214600EF64144E6018EF64184E6012EF641C4E74
:10215600600CEF64204E6006EF64244E7002D200DD
:10216600300049900017E0FDD3941D748094809050
:10217600000EE0FBA3E0FAA3E0F940171212E1908B
:102186000015F0900017E024E3F09000011212FA17
:102196000480121212E1900015F0900017EDF090F5
:1021A60000011212FA900016F0022298900017E031
:1021B600FDD3941C748094804018E024E4F09000D1
:1021C6000EE0FBA3E0FAA3E0F99000011212FA0474
:1021D6008016900017EDF090000EE0FBA3E0FAA346
:1021E600E0F99000011212FA900016F00222919086
:1021F6000017E0F090000EE0FBA3E0FAA3E0F990F0
:1022060000011212FA900016F002229190000EE0E0
:10221600FBA3E0FAA3E0F99000021212FA9000176D
:10222600F09000011212FA900016F0805E90000EF7
:10223600E0FBA3E0FAA3E0F99000031212FA900083
:1022460018F09000021212FA900017F09000011296
:1022560012FA900016F0803390000EE0FBA3E0FA2D
:10226600A3E0F99000041212FA900019F09000030E
:102276001212FA900018F09000021212FA9000174B
:10228600F09000011212FA900016F01212E190007E
:1022960015F090001AE0FF70030223EA900018E0A0
:1022A6002FF0E0FFD394177480948050030223EA42
:1022B600EF75F0188490001CF0E0FE75F018A4FD90
:1022C600C3EF9D900018F0900017E02EF0900016D6
:1022D600E0FF6401601EEF64036019EF640560149B
:1022E600EF6407600FEF6408600AEF640A6005EFA9
:1022F600640C7035900017E0D3941F74809480505E
:10230600030223EAE024E1F0900016E004F0E0D3B3
:10231600940C74809480900015E0400904F0A37436
:1023260001F00223EAF00223EA900016E0FF6404BB
:10233600600FEF6406600AEF64096005EF640B70D6
:102346001F900017E0D3941E74809480400CE02404
:10235600E2F0900016E0040223E4900016E0807E8E
:10236600900016E0FA6402707B900015E0FBFD7C9D
:102376000024D0FEEC3407900013F0A3CEF0C20088
:10238600ED6410601AEBFF64146014EF6418600FBC
:10239600EF641C600AEF64206005EF64247002D2CB
:1023A60000300024900017E0FFD3941D74809480C1
:1023B600400BE024E3F0900016E00480099000173B
:1023C600EFF0900016EA8016900017E0D3941C7484
:1023D600809480400FE024E4F0900016E004F09032
:1023E6000015E0F0900015E0FF90000EE0FBA3E082
:1023F600FAA3E0F990000BEF121339900016E09063
:10240600000C121339900017E090000D121339904A
:102416000018E090000E121339900019E090000F9A
:0324260012133955
:012429002290
:107BB700E4FDFCC3ED9FEC9E50070DBD00010C805A
:017BC700F2CB
:017BC800229A
:047B5A00AB07AA06C5
:107B5E00900000C3E5829BE5839A500A7F967E00D3
:067B6E00127BB7A380EDBD
:017B740022EE
:0878B70090000FEEF0A3EFF0CA
:1078BF00E4A3F0A3F090000FE0FEA3E0FFC390005D
:1078CF0012E09F900011E09E50177F0A7E00127BFE
:1078DF005A900012E004F070DC900011E004F08088
:0178EF00D4C4
:0178F0002275
:017CC300229E
:037A8200127A3F36
:107A8500D20DD293D292E4FFFE209205C20DC2938D
:0C7A9500220FBF00010EBE04F0BF4CED3C
:017AA10022C2
:037AA200127A3F16
:107AA500D293D292D20DE4FFFE209205C20DC2936D
:0C7AB500220FBF00010EBE02F0BF8AEDE0
:017AC10022A2
:067CAB00D29300C29322F7
:107A3F00E4FEEEC39408748094805015EF25E0FFA8
:107A4F0030D704D2928002C292D293127CAB0E80B6
:017A5F00E145
:017A60002203
:087BC900ECFD7C00C293C292A6
:0A7BD100D292D29300C292C2932216
:097C6800C293C292D293D292227F
:1073FB00E4FBEBFDC39408748094805038C2933047
:10740B0092169001A9E04401F0ED940674809480EB
:10741B005006E025E0F0D2932092179001A9E0549A
:10742B00FEF0EBD39406748094805006E025E0F0D8
:0C743B00D2930B80BDC2939001A9E0FF2A
:017447002222
:0277C200AA0714
:1077C400AF05A907127BC9AF02127A82AF05127AFC
:1077D40082AF01127A3F127A85AF03127A3F127A8E
:1077E40085127C687F0D7E00127B5AD293D2927FE1
:0D77F400627E00127BB77F627E00027BB7D1
:04783F007C007FA8A2
:02784300AB0791
:10784500AF05AA07127BC9AF03127AA2AF05127A58
:10785500A2AF02127A3F127AA5127BD1EB04FF1276
:107865007A3F127A85C2931273FB127C68D293D247
:06787500929001A9E0FF62
:01787B0022EA
:10735200E4FDFC7FA812784390010FE4F0A3EFF064
:107362007D0212783F90010AE4F0A3EFF07D04124F
:10737200783F900108E4F0A3EFF07D0612783F9089
:107382000102E4F0A3EFF07D0812783F900100EFD4
:10739200F07D0C12783F900105EFF07D0E12783FE0
:0673A200900101EFF02252
:1064F10053656E736F726573204175746F207920D7
:1065010073656E736F72312061637469766F732E78
:106511000053656E736F722061637469766F2073C7
:10652100656E736F7231202E00446574656374610A
:10653100646F2E2053656E736F72204175746F2ED8
:106541000053656E736F726573206E6F206465749E
:1065510065637461646F73005665686963756C6F18
:10656100204573706572616E646F2053616C69724E
:106571002E005665686963756C6F2053616C69659F
:106581006E646F2E20556E206D6F6D656E746F0099
:0466F7004101B400A9
:077C8100C2B5C2B6C2B72272
:077C8800C2B5D2B6C2B7225B
:077C8F00C2B5C2B6D2B72254
:077C9600D2B5C2B6D2B7223D
:077C9D00C2B5D2B6D2B72236
:077CA400D2B5D2B6D2B7221F
:107AC200E4FF7DF47C01309115EFFB3395E04B70C0
:0E7AD2000DED1D70011CED4C70EC7F0180E885
:017AE0002283
:107BDB007F31127C9D3091010F127CA43091020FEA
:017BEB000F8A
:017BEC002276
:1070FD00127C8F309161127AC2EF3395E0FEEF640E
:10710D00014E7047127C96209123127C887BFF20C4
:10711D00910D7A6479F1127683E490010480227ADC
:10712D0065791212768390010474018014127C88A3
:10713D007BFF2091107A65792A1276839001047471
:10714D0001F07FFF227A65794280067BFF7A6579AF
:10715D00591276837F00227BFF7A657973127683CD
:03716D007F01227D
:107AE100E4FE127C8F309114127AC2EFFD3395E0DF
:0E7AF100FCED64014C7002FF227F01227F0138
:017AFF002264
:106E8B00E4900001F0127C812091699001B4E070D4
:106E9B0016900001E0701030B35A04F0127928906C
:106EAB0001B47401F0804D9001B4E0640170169050
:106EBB000001E0701030B33C04F01252C19001B4E9
:106ECB007402F0802F9001B4E064027027900001EF
:106EDB00E0702130B31E04F07D0C7C007FA812788B
:106EEB0043EF640170047F5380027F4E126BF1E419
:0F6EFB009001B4F0127C81309105E4900001F019
:016F0A002264
:102D3800643B686F726100494E47524553452054C1
:102D480041524A45544120005441524A4554412079
:102D580053494E20494E475245534F200054415243
:102D68004A455441204E4F205245474953545241F9
:102D7800205041474F200045584345444520544979
:102D8800454D504F2044452047524143494120007A
:102D98004D454E5355414C204E4F204553544120EC
:102DA800454E20504152515545414445524F20000F
:102DB800444952494A41534520412043414A412010
:102DC80000475241434941532E2E2E20004752417D
:102DD800434941532E2E2E004D454E5355414C49E3
:102DE8004441442056454E4349444120004D454EF8
:102DF8005355414C49444144204558434544452096
:102E0800484F524152494F2041434552515545532D
:102E18004520412043414A4120004E4F2045532040
:102E28004D454E5355414C49444144204E4920504C
:102E380052455041474F004D454E5355414C204E49
:102E48004F205041474F204C4F434143494F4E205C
:102E5800484F59005441524A455441204E4F20454D
:102E6800532044454C205041525155454144455208
:102E78004F200053494E2050524553454E43494137
:102E8800205645484943554C415220005441524A26
:102E980045544120494E56414C4944412000544133
:102EA800524A4554412053494E20464F524D4154B1
:102EB8004F20004655455241204445204C494E4537
:102EC800412000554E204D4F4D454E544F20504FF8
:102ED80052204641564F522000613B38353B494EFF
:102EE8004752455345205441524A4554410A0D0022
:102EF80000613B38363B5441524A455441205349BE
:102F08004E20494E475245534F200A0D0000613B61
:102F180038373B5441524A455441204E4F20524580
:102F2800474953545241205041474F0A0D00006110
:102F38003B38383B455843454445205449454D5056
:102F48004F20444520475241434941200A0D000083
:102F5800613B38393B4D454E5355414C204E4F202F
:102F68004553544120454E20504152515545414406
:102F780045524F0A0D0000613B39303B44495249E4
:102F88004A41534520412043414A410A0D0000610E
:102F98003B39313B475241434941532E2E2E200A9B
:102FA8000D0000613B39333B4D454E5355414C2094
:102FB8004E4F204553544120454E205041525155C3
:102FC80045414445524F0A0D0000613B39343B4DA1
:102FD800454E5355414C494441442056454E43497A
:102FE80044410A0D0000613B39353B4D454E535570
:102FF800414C494441442045584345444520484FA5
:10300800524152494F20414345525155455345205D
:10301800412043414A410A0D0000613B39363B4E8D
:103028004F204553204D454E5355414C494441444A
:10303800204E49205052455041474F0A0D0000612B
:103048003B39373B4D454E5355414C204E4F205050
:1030580041474F204C4F434143494F4E20484F5919
:103068000A0D0000613B39383B5441524A455441EE
:10307800204E4F2045532044454C20504152515535
:1030880045414445524F200A0D0000613B39383B09
:1030980053494E2050524553454E434941205645C9
:1030A800484943554C4152200A0D0000613B3938CC
:1030B8003B5441524A45544120494E56414C49449B
:1030C80041200A0D0000613B39383B5441524A45C2
:1030D80054412053494E20464F524D41544F200AE7
:1030E8000D0000613B39383B465545524120444567
:1030F800204C494E45410A0D0000613B39383B558B
:103108004E204D4F4D454E544F20504F5220464172
:10311800564F520A0D000057494547414E4420007A
:10312800475241434941532000613B39323B57499B
:103138004547414E443A000A6400613B39313B47F8
:103148005241434941532000AA802807200000002B
:103158000000140000AA8018010200AA80180102C9
:013168000066
:0979CE00900017E025E0FFE4FD44
:0579D70090003FEDF0FF
:1079DC00127801900040EFF090003FE0600AE4FF65
:0879EC00127801900040EFF059
:0179F4002270
:087639007B017A007914E4FDE5
:0E76410090003AEBF0A3EAF0A3E9F0A3EDF01D
:10764F00E4A3F090003AE0FBA3E0FAA3E0F9900086
:10765F003EE0F5827583001212FAFF601090003D34
:0D766F00E0FD1279D790003EE004F080D6D7
:01767C0022EB
:0E75680090001DEBF0A3EAF0A3E9F0A3EDF014
:10757600E4900022F0900020E0FF900022E0FEC39D
:107586009F502490001DE0FBA3E0FAA3E0F98E8251
:107596007583001212FAFF900021E0FD1279D79050
:0775A6000022E004F080CE9A
:0175AD0022BB
:0B72A00090003AEBF0A3EAF0A3E9F045
:1072AB0012000E90003DEFF0E49001B5F090003D20
:1072BB00E02401FFE433FE9001B5E0C39FEE648050
:1072CB00F8748098502990003AE0FBA3E0FAA3E011
:1072DB00F91212E1FF12780190003EEFF090003BA3
:0F72EB00E475F0011213B09001B5E004F080BE1D
:0172FA002271
:1072FB0078107C007D017BFF7A3179507E007F0D09
:10730B001212BB900101E07022C2877B017A0079D7
:10731B0015125D3BC29C7B017A007910E490002131
:10732B00F07D0D127568D29CD28722C287E4900043
:10733B0010F07B017A007910125D3B7BFF7A2D797F
:06734B00381272A0D28787
:017351002219
:05316900900010EFF0E2
:10316E0078117C007D017BFF7A31795D7E007F06D0
:10317E001212BBC287900101E060030233F97B019A
:10318E007A007911FD127641900010E012145D3133
:10319E00D75531F75632175732375832575932778B
:1031AE005A32975B32575D32B75E32D75F32F76075
:1031BE003317613337AA3357AB3377AC3396AD330E
:1031CE00B5AE33D4AF000033F67BFF7A2D793F12C4
:1031DE00000E900017EFF0E4FDFF1279D71279CEB2
:1031EE007BFF7A2D793F0233F17BFF7A2D795012D6
:1031FE00000E900017EFF0E4FDFF1279D71279CE92
:10320E007BFF7A2D79500233F17BFF7A2D7965128F
:10321E00000E900017EFF0E4FDFF1279D71279CE71
:10322E007BFF7A2D79650233F17BFF7A2D797F1240
:10323E00000E900017EFF0E4FDFF1279D71279CE51
:10324E007BFF7A2D797F0233F17BFF7A2D799812ED
:10325E00000E900017EFF0E4FDFF1279D71279CE31
:10326E007BFF7A2D79980233F17BFF7A2D79B81294
:10327E00000E900017EFF0E4FDFF1279D71279CE11
:10328E007BFF7A2D79B80233F17BFF7A2D79C91243
:10329E00000E900017EFF0E4FDFF1279D71279CEF1
:1032AE007BFF7A2D79D50233F17BFF7A2D79E012EF
:1032BE00000E900017EFF0E4FDFF1279D71279CED1
:1032CE007BFF7A2D79E00233F17BFF7A2D79F512AF
:1032DE00000E900017EFF0E4FDFF1279D71279CEB1
:1032EE007BFF7A2D79F50233F17BFF7A2E7922124C
:1032FE00000E900017EFF0E4FDFF1279D71279CE91
:10330E007BFF7A2E79220233F17BFF7A2E793F12E0
:10331E00000E900017EFF0E4FDFF1279D71279CE70
:10332E007BFF7A2E793F0233F17BFF7A2E795C1286
:10333E00000E900017EFF0E4FDFF1279D71279CE50
:10334E007BFF7A2E795C0233F17BFF7A2E797B122A
:10335E00000E900017EFF0E4FDFF1279D71279CE30
:10336E007BFF7A2E797B0233F17BFF7A2E799412D2
:10337E00000E900017EFF0E4FDFF1279D71279CE10
:10338E007BFF7A2E7994805B7BFF7A2E79A61200D2
:10339E000E900017EFF0E4FDFF1279D71279CE7B75
:1033AE00FF7A2E79A6803C7BFF7A2E79BB12000E17
:1033BE00900017EFF0E4FDFF1279D71279CE7BFF64
:1033CE007A2E79BB801D7BFF7A2E79CB12000E9060
:1033DE000017EFF0E4FDFF1279D71279CE7BFF7A5A
:1033EE002E79CB7D01127641D28722C287900010B2
:1033FE00E012145D343C55344556344D573455580F
:10340E00345D5934655A346D5B34755D347D5E348C
:10341E00855F348D60349561349DAA34A5AB34AD8F
:10342E00AC34B5AD34BDAE34C5AF000034CE7BFF89
:10343E007A2E79E10234CB7BFF7A2E79F9807E7B6E
:10344E00FF7A2F791680767BFF7A2F7937806E7B05
:10345E00FF7A2F795880667BFF7A2F797F805E7B8B
:10346E00FF7A2F799780567BFF7A2F79AB804E7B30
:10347E00FF7A2F79D280467BFF7A2F79EE803E7BC2
:10348E00FF7A30792280367BFF7A307947802E7B27
:10349E00FF7A30796C80267BFF7A307993801E7BA1
:1034AE00FF7A3079B480167BFF7A3079CE800E7B2E
:1034BE00FF7A3079EB80067BFF7A3179021272A0A7
:0234CE00D287A3
:0134D00022D9
:0E4B5A00900010EFF0A3EBF0A3EAF0A3E9F057
:104B680078147C007D017BFF7A3179637E007F06B3
:104B78001212BBC287900101E06003024C1E900034
:104B880010E024A56040146003024C1B1276397BA8
:104B9800FF7A31791F12000E90001AEFF090001181
:104BA800E0FBA3E0FAA3E0F912000E90001AE02F50
:104BB80004F0E4FDFF1279D790001A1279D17BFF37
:104BC8007A31791F80381276397BFF7A3179281249
:104BD800000E90001AEFF0900011E0FBA3E0FAA39A
:104BE800E0F912000E90001AE02F04F0E4FDFF1225
:104BF80079D790001A1279D17BFF7A3179287D0113
:104C0800127641900011E0FBA3E0FAA3E0F97D01E0
:104C1800127641D28722C287900010E024A560173F
:104C2800146003024CB9781B7C007D017BFF7A314C
:104C380079311216EA803C781B7C007D017BFF7A73
:104C48003179421216EA900011E0FBA3E0FAA3E0E2
:104C5800F912000E90001AEFF024FFFFE434FFFE73
:104C6800900011E0FBA3E0FAA3E0F98F828E83E4C1
:104C7800121339900011E0F9A3E0FAA3E090006064
:104C8800C9F0A3EAF0A3E9F07B017A00791B12715D
:104C98007090006074FFF0A37431F0A3743FF07B50
:104CA800017A00791B1271707B017A00791B1272EC
:034CB800A0D28700
:014CBB0022D6
:10172F000D0A0A25733E20002563002564000D0A6B
:10173F000A2041435455414C2049445F434C49458D
:10174F004E54453D25730D0A0A000D0A0A204449DF
:10175F0047495445205355204E5545564F2049442F
:10176F005F434C49454E54453D000D0A0A20444104
:10177F00544F204D4F444946494341444F2049441B
:10178F005F434C49454E54453D25730D0A0A000DE4
:10179F000A0A2041435455414C20434F445F504166
:1017AF00524B3D25730D0A0A000D0A0A2044494782
:1017BF00495445205355204E5545564F20434F44CD
:1017CF005F5041524B3D000D0A0A204441544F20B7
:1017DF004D4F444946494341444F20434F445F5086
:1017EF0041524B3D25730D0A0A000D0A0A20414351
:1017FF005455414C205449454D504F5F475241433A
:10180F0049413D25730D0A0A000D0A0A2044494734
:10181F00495445205355204E5545564F2054494560
:10182F004D504F5F4752414349413D000D0A0A2039
:10183F004441544F204D4F444946494341444F2062
:10184F005449454D504F5F4752414349413D2573E0
:10185F000D0A0A000D0A0A2041435455414C2053EA
:10186F00494E5F434F42524F20494E484142494CE7
:10187F00495441444F3D25730D0A0A000D0A0A20B1
:10188F0041435455414C2053494E5F434F42524FB1
:10189F00204752415449533D25730D0A0A000D0A42
:1018AF000A2041435455414C2053494E5F434F4208
:1018BF00524F2047524154495320592053414C49CC
:1018CF00444120454C204D49534D4F204449413D03
:1018DF0025730D0A0A000D0A0A2044494749544549
:1018EF00205355204E5545564F2053494E5F434F79
:1018FF0042524F3D000D0A0A2041435455414C209E
:10190F00444542554720494E484142494C4954416C
:10191F00444F3D25730D0A0A000D0A0A2041435416
:10192F0055414C20444542554720484142494C4976
:10193F005441444F3D25730D0A0A000D0A0A2044F5
:10194F00494749544520454C204E5545564F204553
:10195F00535441444F2044452044454255473D0090
:10196F000D0A0A2041435455414C205553455F4CB5
:10197F00505220494E484142494C495441444F3DF1
:10198F0025730D0A0A000D0A0A2041435455414C94
:10199F00205553455F4C505220484142494C4954C1
:1019AF0041444F3D25730D0A0A000D0A0A20444990
:1019BF004749544520454C204E5545564F204553D9
:1019CF005441444F204445205553455F4C50523DA0
:1019DF00000D0A0A2041435455414C20434F4D50AE
:1019EF0041524143494F4E204143544956412049AA
:1019FF004E484142494C495441444F3D25730D0ACD
:101A0F000A000D0A0A2041435455414C20434F4DC3
:101A1F005041524143494F4E204143544956412072
:101A2F0020484142494C495441444F3D25730D0ACA
:101A3F000A000D0A0A2044494749544520454C20C5
:101A4F004E5545564F2045535441444F2044452051
:101A5F00434F4D5041524143494F4E20414354490A
:101A6F005641203D000D0A0A2041435455414C2058
:101A7F00434F4D5041524143494F4E2041435449EA
:101A8F0056412020494E484142494C495441444F08
:101A9F003D25730D0A0A000D0A0A2050414E54418C
:101AAF004C4C41204C434420484142494C495441FD
:101ABF0044413D25730D0A0A000D0A0A2050414E7C
:101ACF0054414C4C4120524153504245525259209F
:101ADF0020484142494C49544144413D25730D0A28
:101AEF000A000D0A0A2044494749544520454C2015
:101AFF004E5545564F2045535441444F20444520A1
:101B0F004C412050414E54414C4C41203D000D0A58
:101B1F000A205041534120504F522043414A412007
:101B2F00504152412056414C494441522044435464
:101B3F004F3D25730D0A0A000D0A0A2041504C49EA
:101B4F004341204445534355454E544F3D25730D56
:101B5F000A0A000D0A0A2044494749544520454CBA
:101B6F00204E5545564F2045535441444F20444530
:101B7F00204443544F203D000D0A2049445F434CFD
:101B8F0049454E5445202020202D2D2D20434D44D6
:101B9F002030204964656E746966696361646F7291
:101BAF002064656C20636C69656E7465206D617867
:101BBF00696D6F20323535000D0A20434F445F5059
:101BCF0041524B2020202020202D2D2D20434D44ED
:101BDF00203120456C206E756D65726F2064656CC9
:101BEF0020706172717565616465726F206D6178C7
:101BFF00696D6F20323535000D0A20545F47524111
:101C0F004349412020202020202D2D2D20434D44BD
:101C1F002032205469656D706F2073696E20636F79
:101C2F0062726F2030302C20206D6178696D6F20CB
:101C3F00323535000D0A2053494E5F434F42524F04
:101C4F0020202020202D2D2D20434D4420332049AE
:101C5F006E686162696C697461646F3D20302C201D
:101C6F004772617469733D2031202C204772617473
:101C7F00697320792073616C69646120656C206DD4
:101C8F0069736D6F206469613D2032000D0A204435
:101C9F00454255472020202020202020202D2D2D6B
:101CAF0020434D44203420486162696C697461722D
:101CBF00203D20312C20496E686162696C69746126
:101CCF0072203D2030000D0A205553455F4C505275
:101CDF00202020202020202D2D2D20434D44203545
:101CEF0020486162696C69746172203D20312C203B
:101CFF00496E686162696C69746172203D203000C1
:101D0F000D0A20434F4D5041524143494F4E5F41C1
:101D1F004354495641202D2D2D20434D442036202C
:101D2F00486162696C69746172203D20312C2049D1
:101D3F006E686162696C69746172203D2030000DBC
:101D4F000A205449504F5F50414E54414C4C412052
:101D5F00202020202D2D2D20434D442037202830AA
:101D6F00292070616E74616C6C61206C636420203B
:101D7F0073657269652028312920726173706265FD
:101D8F00727279206F20626C7565746F6F74680062
:101D9F000D0A204443544F5F504153415F43414A22
:101DAF004120202020202D2D2D20434D4420382050
:101DBF00283029207061736120706F722063616A0F
:101DCF0061202831292061706C69636120656C2066
:101DDF006465736375656E746F000D0A2041595504
:101DEF0044412020202020202020202D2D2D204355
:101DFF004D442039204D756573747261206C6F737B
:101E0F0020636F6D616E646F73000D0A2053414C38
:101E1F0049522020202020202020202D2D2D20430E
:101E2F004D442031302053616C69722064652070FD
:101E3F00726F6772616D6163696F6E000D0A0A538D
:101E4F00697374656D612064652050726F6772618C
:101E5F006D6163696F6E207665726966696361642F
:101E6F006F72206C696E74656368200D0A0D0A002D
:101E7F000D0A0A2F3E5573756172696F3A000D0A8C
:101E8F000A2F3E50617373776F72643A00313233A9
:101E9F00343536000D0A436F6D616E646F206E6FBF
:101EAF00206578697374652027257327003A5B3C9A
:101EBF00253F58545D3D2900232A594A41494D4534
:101ECF0063616D696C744B0077727A323571363895
:101EDF002D393166532E4000200D0A00200D0A00C7
:041EEF00220D0A00B6
:1066FB0054011E2F000000000000000000000000ED
:10670B000000000000000049011561646D696E0016
:10671B000000006021013230000031000032000027
:10672B00330000340000350000360000370000381D
:08673B000000390000313000BC
:0B41E90090005DEBF0A3EAF0A3E9F00A
:1041F40078627C007D017BFF7A1E79BC7E007F0B98
:104204001212BB786D7C007D017BFF7A1E79C77E1C
:10421400007F101212BB787D7C007D017BFF7A1E2B
:1042240079D77E007F101212BB90005DE0FBA3E003
:10423400FAA3E0F912000E900060EFF0E4A3F0900E
:104244000060E0FFA3E0FEC39F40030243A390008D
:104254005DE0FBA3E0FAA3E0F98E827583001212FD
:10426400FAFD7C0074622EF582E43400F583E02DBF
:10427400FFEC33900111F0A3EFF07E00540FFFA385
:10428400EEF0A3EFF0700BE004F07006900113E081
:1042940004F0900113E0FEA3E0246CF58274003E68
:1042A400F583E07E002DFFEE3C900111F0A3EFF0CA
:1042B4007E00540FFFA3EEF0A3EFF0700BE004F0C8
:1042C4007006900113E004F0900113E0FEA3E024D3
:1042D4007CF58274003EF583E0FF900111E0FEA3BB
:1042E400E06FFF900111EEF0FEA3EFF0D394FFEE28
:1042F40094004005900111E4F0900111E0FEA3E068
:10430400FFC3947AEE94004015D3EF94FFEE94002B
:10431400500CEF547AFF900111E4F0A3EFF0C39036
:104324000112E09430900111E09400500CA3E024B9
:1043340040F0900111E03400F0900111E0FEA3E0A0
:10434400FFC3945BEE94004014D3EF9460EE9400AA
:10435400500BE02407F0900111E03400F0900111BB
:10436400E0FEA3E0FFC3943AEE94004014D3EF942C
:1043740040EE9400500BE024F9F0900111E034FF7A
:10438400F0900111A3E0FF900061E0248DF582E438
:104394003400F583EFF0900061E004F00242437BC7
:0543A400017A00798D93
:0143A90022F1
:0B723E0090005DEBF0A3EAF0A3E9F084
:10724900E4900063F0900063E0FFC3940B748094B2
:10725900805041EF75F003A42432F9740135F0FA36
:107269007B0178607C007D011216EA78607C007DE4
:107279000190005DE0FBA3E0FAA3E0F9121601EF2B
:107289003395E04F7006900063E0FF22900063E0C1
:0672990004F080B17FFF4C
:01729F0022CC
:0B75F400900001E0FBA3E0FAA3E0F927
:0B75FF0090005DEBF0A3EAF0A3E9F0C0
:10760A0078607C007D017B017A0179151216EA788F
:10761A00607C007D0190005DE0FBA3E0FAA3E0F945
:0E762A00121601EF3395E04F7002FF227FFF32
:01763800222F
:067743007B017A0079359C
:0B77490090005DEBF0A3EAF0A3E9F074
:1077540078607C007D017BFF7A1E79E77E007F04E0
:107764001212BB90006B7401F0A37400F0A3746058
:0F777400F090005DE0FBA3E0FAA3E0F9025AA653
:106A4600E0FBA3E0FAA3E02FF9EA3EFAE92401F914
:036A5600E43AFA25
:0B6A590090005DEBF0A3EAF0A3E9F071
:106A640078607C007D017BFF7A1E79EB7E007F04D9
:106A74001212BB78647C007D017BFF7A1E79EF7E65
:106A8400007F041212BB90005DE0FBA3E0FAA3E0D8
:106A9400F91212E1FFB4200C90005EE475F00112CB
:106AA40013B080E2EF90006BB4220D7401F0A37474
:106AB40000F0A37464F080167401F0A37400F0A3D2
:106AC4007460F090005DE0FBA3E0FAA3E0F9125AD1
:016AD400A61B
:016AD500229E
:107B75009000707401F0A37401F0A3741EF07BFFF4
:077B85007A17792F02292075
:086F0B007A0079357B01E4FDF9
:0E6F1300900069EBF0A3EAF0A3E9F0A3EDF023
:106F2100127C52900069E0FBA3E0FAA3E0F9EF12B2
:106F3100132790006CE0701D900069E0FBA3E0FA5C
:106F4100A3E0F91212E1900070F07BFF7A17793714
:106F510012292080057F2A127801900069E0FBA3A5
:106F6100E0FAA3E0F91212E1FF7E0090006AE475F5
:106F7100F0011213B0900069E0FBA3E0FAA3E0F97D
:096F8100E4121327EF640D709770
:016F8A0022E4
:10603C00E4FDFC7FA81278437E00900067EEF0A38D
:10604C00EFF090007074FFF0A37417F0A3743AF0A3
:10605C00A3EEF0A3EFF07B017A00795D12291A9080
:10606C0000707401F0A37400F0A3745DF07BFF7AF0
:10607C0017793D1229207BFF7A1779591229207A3A
:10608C0000795D126F0F7B017A00795D125B8A904B
:10609C000067EEF0A3EFF0FBE4FDFC7FA81277C2E3
:1060AC00E4FDFC7FA81278437E00900067EEF0A31D
:1060BC00EFF090007074FFF0A37417F0A3743AF033
:1060CC00A3EEF0A3EFF07B017A00795D12291A9010
:1060DC0000707401F0A37400F0A3745DF07BFF7A80
:0660EC001779790229205A
:105EC2007D027C007FA81278437E00900067EEF08E
:105ED200A3EFF090007074FFF0A37417F0A3743A6C
:105EE200F0A3EEF0A3EFF07B017A00795D12291A9C
:105EF2009000707401F0A37400F0A3745DF07BFF56
:105F02007A17799E1229207BFF7A1779B8122920F5
:105F12007B017A00795DE4FD126F137B017A0079CF
:105F22005D125B8A900067EEF0A3EFF0FB7D027CCE
:105F3200007FA81277C27D027C007FA81278437E80
:105F420000900067EEF0A3EFF090007074FFF0A3F2
:105F52007417F0A3743AF0A3EEF0A3EFF07B017A8A
:105F620000795D12291A9000707401F0A37400F098
:0D5F7200A3745DF07BFF7A1779D602292019
:105F7F007D047C007FA81278437E00900067EEF0CE
:105F8F00A3EFF090007074FFF0A37417F0A3743AAE
:105F9F00F0A3EEF0A3EFF07B017A00795D12291ADE
:105FAF009000707401F0A37400F0A3745DF07BFF98
:105FBF007A1779F91229207BFF7A1879181229207C
:105FCF007B017A00795DE4FD126F137B017A007912
:105FDF005D125B8A900067EEF0A3EFF0FB7D047C0F
:105FEF00007FA81277C27D047C007FA81278437EC1
:105FFF0000900067EEF0A3EFF090007074FFF0A335
:10600F007417F0A3743AF0A3EEF0A3EFF07B017ACC
:10601F0000795D12291A9000707401F0A37400F0DA
:0D602F00A3745DF07BFF7A18793B022920F5
:104F45007D067C007FA81278437E00900067EEF016
:104F5500A3EFF090007074FFF0A37417F0A3743AF8
:104F6500F0A3EEF0A3EFF07B017A00795D12291A28
:104F7500900067E07002A3E0701590007004F0A344
:104F85007400F0A3745DF07BFF7A18796380359027
:104F95000067E07004A3E06401701590007004F0F0
:104FA500A37400F0A3745DF07BFF7A18798B8014ED
:104FB5009000707401F0A37400F0A3745DF07BFFA2
:104FC5007A1879AD1229207BFF7A1879E512292004
:104FD5007B017A00795DE4FD126F137B017A00791C
:104FE5005D125B8A900067EEF0A3EFF0FB7D067C17
:104FF500007FA81277C27D067C007FA81278437EC9
:1050050000900067EEF0A3EFF090007074FFF0A33E
:105015007417F0A3743AF0A3EEF0A3EFF07B017AD6
:1050250000795D12291A900067E07002A3E07015FF
:1050350090007004F0A37400F0A3745DF07BFF7A18
:105045001879638035900067E07004A3E06401700F
:105055001590007004F0A37400F0A3745DF07BFF5D
:105065007A18798B80149000707401F0A37400F0A5
:0D507500A3745DF07BFF7A1879AD1229203D
:01508200220B
:1054D0007D087C007FA81278437E00900067EEF084
:1054E000A3EFF090007074FFF0A37417F0A3743A68
:1054F000F0A3EEF0A3EFF07B017A00795D12291A98
:10550000900067E07002A3E0701590007004F0A3B3
:105510007400F0A3745DF07BFF7A19790480149015
:1055200000707401F0A37400F0A3745DF07BFF7A47
:105530001979281229207BFF7A19794A1229207BB0
:10554000017A00795DE4FD126F137B017A00795DC9
:10555000125B8A900067EEF0A3EFF0FB7D087C0001
:105560007FA81277C27D087C007FA81278437E0056
:10557000900067EEF0A3EFF090007074FFF0A3745A
:1055800017F0A3743AF0A3EEF0A3EFF07B017A00DA
:10559000795D12291A900067E07002A3E0701590FF
:1055A000007004F0A37400F0A3745DF07BFF7A191F
:1055B000790480149000707401F0A37400F0A37457
:0B55C0005DF07BFF7A1979281229208A
:0155CB0022BD
:1055CC007D0A7C007FA81278437E00900067EEF085
:1055DC00A3EFF090007074FFF0A37417F0A3743A6B
:1055EC00F0A3EEF0A3EFF07B017A00795D12291A9B
:1055FC00900067E07002A3E0701590007004F0A3B7
:10560C007400F0A3745DF07BFF7A19796F801490AD
:10561C0000707401F0A37400F0A3745DF07BFF7A4A
:10562C001979951229207BFF7A1979B91229207BD7
:10563C00017A00795DE4FD126F137B017A00795DCC
:10564C00125B8A900067EEF0A3EFF0FB7D0A7C0002
:10565C007FA81277C27D0A7C007FA81278437E0057
:10566C00900067EEF0A3EFF090007074FFF0A3745D
:10567C0017F0A3743AF0A3EEF0A3EFF07B017A00DD
:10568C00795D12291A900067E07002A3E070159002
:10569C00007004F0A37400F0A3745DF07BFF7A1922
:1056AC00796F80149000707401F0A37400F0A374EF
:0B56BC005DF07BFF7A19799512292020
:0156C70022C0
:1056C8007D0C7C007FA81278437E00900067EEF086
:1056D800A3EFF090007074FFF0A37417F0A3743A6E
:1056E800F0A3EEF0A3EFF07B017A00795D12291A9E
:1056F800900067E07002A3E0701590007004F0A3BA
:105708007400F0A3745DF07BFF7A1979E08014903F
:1057180000707401F0A37400F0A3745DF07BFF7A4D
:105728001A79111229207BFF7A1A79411229207BD4
:10573800017A00795DE4FD126F137B017A00795DCF
:10574800125B8A900067EEF0A3EFF0FB7D0C7C0003
:105758007FA81277C27D0C7C007FA81278437E0058
:10576800900067EEF0A3EFF090007074FFF0A37460
:1057780017F0A3743AF0A3EEF0A3EFF07B017A00E0
:10578800795D12291A900067E07002A3E070159005
:10579800007004F0A37400F0A3745DF07BFF7A1A24
:1057A800797480149000707401F0A37400F0A374ED
:0B57B8005DF07BFF7A1A7911122920A6
:0157C30022C3
:1057C4007D0E7C007FA81278437E00900067EEF087
:1057D400A3EFF090007074FFF0A37417F0A3743A71
:1057E400F0A3EEF0A3EFF07B017A00795D12291AA1
:1057F400900067E07002A3E0701590007004F0A3BD
:105804007400F0A3745DF07BFF7A1A79A68014907B
:1058140000707401F0A37400F0A3745DF07BFF7A50
:105824001A79C81229207BFF7A1A79F11229207B70
:10583400017A00795DE4FD126F137B017A00795DD2
:10584400125B8A900067EEF0A3EFF0FB7D0E7C0004
:105854007FA81277C27D0E7C007FA81278437E0059
:10586400900067EEF0A3EFF090007074FFF0A37463
:1058740017F0A3743AF0A3EEF0A3EFF07B017A00E3
:10588400795D12291A900067E07002A3E070159008
:10589400007004F0A37400F0A3745DF07BFF7A1A27
:1058A40079A680149000707401F0A37400F0A374BE
:0B58B4005DF07BFF7A1A79C8122920F2
:0158BF0022C6
:1058C0007D0F7C007FA81278437E00900067EEF089
:1058D000A3EFF090007074FFF0A37417F0A3743A74
:1058E000F0A3EEF0A3EFF07B017A00795D12291AA4
:1058F000900067E07002A3E0701590007004F0A3C0
:105900007400F0A3745DF07BFF7A1B791D80149006
:1059100000707401F0A37400F0A3745DF07BFF7A53
:105920001B79471229207BFF7A1B79621229207B81
:10593000017A00795DE4FD126F137B017A00795DD5
:10594000125B8A900067EEF0A3EFF0FB7D0F7C0006
:105950007FA81277C27D0F7C007FA81278437E005B
:10596000900067EEF0A3EFF090007074FFF0A37466
:1059700017F0A3743AF0A3EEF0A3EFF07B017A00E6
:10598000795D12291A900067E07002A3E07015900B
:10599000007004F0A37400F0A3745DF07BFF7A1B29
:1059A000791D80149000707401F0A37400F0A3744A
:0B59B0005DF07BFF7A1B794712292075
:0159BB0022C9
:1071DB007BFF7A1B79871229207BFF7A1B79C712D9
:1071EB0029207BFF7A1C79071229207BFF7A1C79D7
:1071FB00431229207BFF7A1C799B1229207BFF7A73
:10720B001C79D51229207BFF7A1D790F1229207B3F
:10721B00FF7A1D794E1229207BFF7A1D799F122947
:10722B00207BFF7A1D79E91229207BFF7A1E7919C1
:03723B0002292005
:1043AA007BFF7A1E794B1229207BFF7A1E797F12B6
:1043BA002920126F0B127743900001EBF0A3EAF069
:1043CA00A3E9F07B017A0079351241E990000AEB02
:1043DA00F0A3EAF0A3E9F01275F4EF70CC7BFF7A50
:1043EA001E798D1229207B017A0079357D01126FA1
:1043FA0013127743900001EBF0A3EAF0A3E9F078F7
:10440A00157C017D017BFF7A1E799C1216EA1275D2
:10441A00F4EF70C902453B127B75126F0B1277439A
:10442A00900001EBF0A3EAF0A3E9F012000E90006D
:10443A0001126A46900004EBF0A3EAF0A3E9F01235
:10444A00000E900004126A46900007EBF0A3EAF00F
:10445A00A3E9F0900004E0FBA3E0FAA3E0F9EA493B
:10446A004B60171212E1B42F11780D7C007D019078
:10447A000004A3A3E01216EA803D900004E0FBA327
:10448A00E0FAA3E0F9EA494B602D780D7C007D0142
:10449A007B017A01791E1216EA900004E0F9A3E082
:1044AA00FAA3E0900060C9F0A3EAF0A3E9F07B0167
:1044BA007A00790D127170900001E0FBA3E0FAA373
:1044CA00E0F9EA494B700302442112723EEFB40B41
:1044DA000050649044E4F828287302450502450B0D
:1044EA0002451102451702451D02452302452902CC
:1044FA00452F02453502453B02456212603C0244A3
:10450A0021125EC2024421125F7F024421124F45EA
:10451A000244211254D00244211255CC02442112E1
:10452A0056C80244211257C40244211258C00244F8
:10453A00211271DB024421900001E0F9A3E0FAA301
:10454A00E0900070C9F0A3EAF0A3E9F07BFF7A1EBD
:08455A0079A31229200244217B
:014562002236
:107B3D004461746F7320656E766961646F73207034
:0D7B4D00746F20706172616C3D0025640052
:0B662E00900001EBF0A3EAF0A3E9F0FC
:10663900900006E4F0A374A0F0E4A3F020B379126B
:106649007CC0E4900005F0C286900004F0C2B290CC
:106659000006805620B35A900004E0705430B40DFF
:10666900EF1F70011EEF4E70EB04F080449000059F
:10667900E0C3942874809480503720B408E5A09032
:106689000008F080F5900008E0FF900001E0FBA30E
:10669900E0FAA3E0F9EF121327900002E475F00184
:1066A9001213B0900005E004F0A3E0FEA3E0FF8020
:1066B900A330B3FDD2B2D286127CB1900005E0FFBF
:0166C90022AE
:0E60F200900034EBF0A3EAF0A3E9F0A3EDF088
:1061000090003DF0D2B2D2B4C286E490003CF0C21E
:10611000B290003812140C00004E2030B3499000A9
:106120003CE07043C2B2D2B4900038E0FCA3E0FD82
:10613000A3E0FEA3E0FFEF24FFFFEE34FFFEED340B
:10614000FFFDEC34FFFC900038121400900038E0A2
:10615000FCA3E0FDA3E0FEA3E0FFEC4D4E4F70BBBF
:10616000A304F0C28280B490003CE0702920B326E2
:10617000900034E0FBA3E0FAA3E0F91212E1F5A0ED
:10618000127BED900035E475F0011213B0900037EA
:10619000E014F0E070DA75A0FFD2B2D2B4D2867FFC
:0661A000627E00027BB7E5
:1053D1009000157403F090018A14F0900014E0908D
:1053E100018BF0A37415F01212E1FF900015E0FE9D
:1053F10004F0748A2EF582E43401F583EFF0740130
:1054010029F9E43AFA1212E170DD900015E024FD69
:1054110090018CF0900011E0FBA3E0FAA3E0F99079
:1054210000051212FA6030900015E0FF04F0748A52
:105431002FF582E43401F583742DF09000051212EA
:10544100FA2430FF900015E0FE04F0748A2EF582F4
:10545100E43401F583EFF0900015E0FF04F0748A65
:105461002FF582E43401F583742EF0900011E0FBF6
:10547100A3E0FAA3E0F99000081212FA9000156077
:1054810013E0FF04F0748A2FF582E43401F583748C
:105491004DF08011E0FF04F0748A2FF582E43401AD
:1054A100F5837443F0C2B27B017A01798A900015C9
:1054B100E0FD1260F2127C717B017A01798A900021
:0F54C10015E0FD9000387401F0127087027C71C5
:103AB2009000337402F0900015F0900014E0900032
:103AC20016F01212E1FF900033E0FE04F074152E9E
:103AD200F582E43400F583EFF0740129F9E43AFA4F
:103AE2001212E170DD900011E0FBA3E0FAA3E0F90D
:103AF2009000061212FA900033602FE0FF04F07477
:103B0200152FF582E43400F583742DF0900006122F
:103B120012FA2430FF900033E0FE04F074152EF503
:103B220082E43400F583EFF08025E0FF04F07415A1
:103B32002FF582E43400F583742DF0900033E0FF1A
:103B420004F074152FF582E43400F5837430F0909C
:103B52000011E0FBA3E0FAA3E0F99000091212FAC7
:103B6200540F640F90001670057443F08003747351
:103B7200F0900033E0FF04F074152FF582E4340076
:103B8200F583742DF01212E12430FF900033E0FE31
:103B920004F074152EF582E43400F583EFF0900002
:103BA200011212FA2430FF900033E0FE04F0741583
:103BB2002EF582E43400F583EFF09000021212FA3F
:103BC2002430FF900033E0FE04F074152EF582E4F9
:103BD2003400F583EFF09000031212FA2430FF90C4
:103BE2000033E0FE04F074152EF582E43400F58310
:103BF200EFF09000041212FA2430FF900033E0FE3E
:103C020004F074152EF582E43400F583EFF0900091
:103C120033E0FF04F074152FF582E43400F5837469
:103C22002DF0900033E02415F9E43400FA7B011200
:103C320063A5900033E02415F582E43400F583E0B7
:103C42002430FF900033E0FE04F074152EF582E478
:103C52003400F583EFF0900033E02415F582E4346C
:103C620000F583E02430FF900033E0FE04F0741589
:103C72002EF582E43400F583EFF0900033E0241552
:103C8200F582E43400F583E02430FF900033E0FE57
:103C920004F074152EF582E43400F583EFF0900001
:103CA20033E02415F582E43400F583E02430FF90FC
:103CB2000033E0FE04F074152EF582E43400F5833F
:103CC200EFF0900033E02415F582E43400F583E050
:103CD2002430FF900033E0FE04F074152EF582E4E8
:103CE2003400F583EFF0900033E0FF04F074152FF9
:103CF200F582E43400F583742EF0900011E0FBA30A
:103D0200E0FAA3E0F99000081212FA90003360136F
:103D1200E0FF04F074152FF582E43400F583744D4E
:103D2200F08011E0FF04F074152FF582E43400F501
:103D3200837443F0900033E0FF04F074152FF58292
:103D4200E43400F5837403F0C2B230B3FD7B017A30
:103D5200007915900033E0FD1260F2127C717BFF56
:103D62007A7B793D1276837B017A00791590003354
:0D3D7200E0FDE4900038F0127087027C71D3
:107BED00C2B47F217E00127BB7D2B47F217E00020A
:027BFD007BB754
:066BF10090000EEFF0FB26
:106BF700D2B4C286E4A3F0A312140C00003A988B17
:106C0700A0C2B230B34390000FE0703DA3E0FCA3F5
:106C1700E0FDA3E0FEA3E0FFEF24FFFFEE34FFFE5D
:106C2700ED34FFFDEC34FFFC9000101214009000CF
:106C370010E0FCA3E0FDA3E0FEA3E0FFEC4D4E4F08
:106C470070C190000F04F080BA90000FE0700C2024
:106C5700B30990000EE0F5A0127BEDD2B2D2B4D208
:106C67008675A0FF7F627E00127BB77F627E00027F
:026C77007BB7E9
:0A7C5E00D2B4D2B2D28675A0FF2284
:107928009000027402F0A37469F07B017A00790474
:10793800125D3B7F8B1269C090000AEFF0A37403BD
:0C794800F07B017A0079027D0A0260F2F7
:1052C100E4900012F09000027402F0A37444F09094
:1052D100007074FFF0A3747BF0A37457F090010F7A
:1052E100E0FFA3E0900073CFF0A3EFF07B017A0021
:1052F100790D12291A9000117402F0900012E02425
:105301000DF582E43400F583E0FF6017900011E0B1
:105311002402F582E43400F583EFF0900012E004FA
:10532100F08018900011E02402F582E43400F58346
:10533100743BF0900011E004F08008900011E0044B
:10534100F080B890007074FFF0A3747BF0A37457E1
:10535100F090010AE0FFA3E0900073CFF0A3EFF01B
:105361007B017A00790D12291AE4900012F0900065
:1053710012E0240DF582E43400F583E0FF6017901C
:105381000011E02402F582E43400F583EFF090008F
:1053910012E004F08018900011E02402F582E43458
:1053A10000F583743BF0900011E004F08008900058
:1053B10011E004F080B8900011E0FD2402F582E4D0
:1053C1003400F5837403F07B017A0079020260F204
:1062FE004461746F73204D462072657370756573BB
:10630E0074613A20004461746F73204D4620456ECF
:10631E00766961646F733A20002F2A2D2D2D2D2D55
:10632E002D2D2D2D2D2D2D2D2D2D2D2D2D2D2D2D8F
:10633E002D2D2D2D2D2D2D2D2D2D2D2D2D2D2D2D7F
:10634E002D2D2A2F0A0D0046656368612041637466
:10635E0075616C20656E20426F6172643A20000A8E
:10636E000D0A0D00526563696265207472616D617C
:10637E002070746F20706172616C3D20000A0D00F8
:10638E006C6F6E6769747564206465206C6120742F
:07639E0072616D613A2000FD
:067B0000AE07EEC313FE08
:107B0600E4FFEFD3940774809480500C00000000CB
:087B160000000000000F80EAEE
:017B1E002244
:107B8C00E4FFEFD3940474809480500A000000004A
:067B9C000000000F80EC68
:017BA20022C0
:037448004430FFCE
:02744B00AE078A
:10744D00C2AFC290127B060000AD06EE5401FE7075
:10745D0004C2908002D290127B067C01ECD394077B
:10746D00748094805015EDC313FD5401FE7004C259
:10747D00908002D290127B060C80E1D290127B0696
:05748D00127B06D2AFE6
:0174920022D7
:1075AE00E490000EF0A3F0FEFBFA900100E06401FF
:1075BE007033EFC39464748094804007749C2FFFE3
:1075CE000E80EFEFC3940A74809480400774F62FF8
:1075DE00FF0B80EFAA07EE127448EB127448EA44D0
:0575EE0030FF12744B98
:0175F3002275
:0274DB00AB07FD
:1074DD00900100E06401703CEB54F0C4540FFFD3F5
:1074ED00940974809480400674372FFF80047430A3
:1074FD002FFF12744BEB540FFFD3940974809480BB
:10750D00400674372FFF800474302FFF12744B7FA9
:04751D002012744B79
:017521002247
:0E708700900034EBF0A3EAF0A3E9F0A3EDF0E3
:10709500900100E06401705F127C71900038E0FFA0
:1070A5003395E0FEEF4E7BFF60067A6279FE800441
:1070B5007A637913127683E4900039F0900037E013
:1070C500FF900039E0C39F5024900034E0FBA3E01B
:1070D500FAA3E0F91212E1FF1274DB900035E475B2
:1070E500F0011213B0900039E004F080CF7F0A124E
:0770F500744B7F0D12744B78
:0170FC002271
:06767D007BFF7A63798BAC
:0B76830090003AEBF0A3EAF0A3E9F05E
:10768E00E4A3F0900100E06401702790003DF090BB
:10769E00003AE0FBA3E0FAA3E0F9A3E0F5827583DC
:1076AE00001212FAFF600B12744B90003DE004F0D2
:0276BE0080DD6D
:0176C00022A7
:097C71007BFF7A63792702768318
:106C79007EFF127B8C127B06208005747FFF8004C7
:106C8900EE4480FF127B00EE208005547FFF8003D5
:106C99004480FF127B00EE208005547FFF8003446F
:106CA90080FF127B00EE208005547FFF8003448023
:106CB900FF127B00EE208005547FFF80034480FF94
:106CC900127B00EE208005547FFF80034480FF1271
:106CD9007B00EE208005547FFF80034480FF127BF8
:106CE90000EE208005547FFF80034480FFAE071229
:076CF9007B063080FDAF06B1
:016D00002270
:10644B00900018EBF0A3EAF0A3E9F07BFF7A6379F5
:10645B0055127683900018E0FBA3E0FAA3E0F91243
:10646B0012E1FF127A611274DB7F2F12744B9000D2
:10647B0018E0FBA3E0FAA3E0F99000011212FAFF77
:10648B00127A611274DB7F2F12744B900018E0FBB1
:10649B00A3E0FAA3E0F99000021212FAFF127A615C
:1064AB001274DB7F2012744B900018E0FBA3E0FA10
:1064BB00A3E0F99000031212FAFF127A611274DB57
:1064CB007F3A12744B900018E0FBA3E0FAA3E0F9BB
:1064DB009000041212FAFF127A611274DB7BFF7ABE
:0664EB0063796D02768367
:057CBB00D290D28022EE
:10749300900001EBF0A3EAF0A3E9F0A3EDF07BFF8A
:1074A3007A637972127683900001E0FBA3E0FAA37A
:1074B300E0F9A3E0FD9000387401F01270871276B2
:1074C3007D7BFF7A63798E127683900004E0FF124E
:0874D30074DB12767D027C716E
:106743004101AD00010F00011000010D00010E0019
:04675300C10CC10BA9
:0300230002456330
:10456300C0E0C083C082C0D075D000C000C004C00A
:0545730005C006C007B1
:104578002098030246E6C2989001ABE599F0C3E59E
:104588000D950EFFE49400FEEF54F84E700DE0FF19
:10459800E50D54072422F8A607050D9000FDE0FF5D
:1045A8007E00D39432748094804005900107E4F033
:1045B800900107E014603114605C147003024661D6
:1045C800240360030246E1900106E0FD9001ABE0A0
:1045D8006D60030246E6D20B9000FDF0F50DF50E76
:1045E80090010704F00246E69001ABE0FD9000FD63
:1045F800E0FC04F074CA2CF582E43400F583EDF095
:1046080090010CE0FD9000CAE0900107B50502801A
:1046180042E4F00246E6EF64034E9001AB701CE002
:10462800FE2402A3F09000FDE0FF04F074CA2FF509
:1046380082E43400F583EEF00246D9E0FF9000FDF5
:10464800E0FE04F074CA2EF582E43400F583EFF03E
:104658009001077402F00246E69001ABE0FF90007B
:10466800FDE0FE04F074CA2EF582E43400F583EF11
:10467800F09001ACE014F0E070579000FDE024C821
:10468800F582E43400F583E0FF90010EE0FEEF6E62
:10469800703DFFFE9000FDE0FD14FCEEC39C501041
:1046A80074CA2EF582E43400F583E06FFF0E80E4CF
:1046B80074C92DF582E43400F583E0B5070FC20B09
:1046C8009001ADE4F0D20A900107F08011800A80D1
:1046D800089001077403F08005900107E4F0309911
:1046E8001AC299E50F65106010E51054012454F8BA
:0B46F800E6F5990510C20C8002D20C00
:10470300D007D006D005D004D000D0D0D082D0833B
:03471300D0E032C1
:10795400D310AF01C3C0D01279A6E4F50FF510F52A
:107964000DF50EC29FD29EC29DD29CC298C299D2DE
:0A7974000CD2ACD2BCD0D092AF22EE
:1079A600D310AF01C3C0D0C299E4F50FF510C28E53
:1079B600C2AB43878053890F438920758DF4758B3D
:0879C600F4D28ED0D092AF2262
:10787C00D310AF01C3C0D09000A0EFF0127C11C3A5
:10788C00EF94027480948040047FFF80199000A0D4
:10789C00E0FFE50F54012454F8A607050F300C0443
:0B78AC00C20CD2997F00D0D092AF2216
:1079F500D310AF01C3C0D0127BFFEF70067EFF7FAF
:107A0500FF800EAF0E050EEF54072422F8E6FF7E29
:067A150000D0D092AF2268
:107BFF00D310AF01C3C0D0C3E50D950EFFD0D09207
:027C0F00AF22A2
:107C1100D310AF01C3C0D0C3E50F9510FFD0D092F0
:027C2100AF2290
:10242A0044697370656E7361646F72204E6F2052D7
:10243A006573706F6E64652050544F20534552493E
:10244A0045202E2E2E0D0A0D0A000D0A0D0A0049EE
:10245A004E494349414C495A412053494E204D4F18
:10246A0056494D49454E544F204552524F520D0A36
:10247A000D0A00494E494349414C495A41205349A2
:10248A004E204D4F56494D49454E544F204F4B0D06
:10249A000A0D0A0044574C4F415020454550524FAF
:1024AA004D204552524F520D0A0D0A0044574C4FC7
:1024BA00415020454550524F4D204F4B0D0A0D0AB1
:1024CA0000434152445F494E53455243494F4E20BF
:1024DA004552524F520D0A0D0A00434152445F4978
:1024EA004E53455243494F4E204F4B0D0A0D0A0099
:1024FA005345515F434152445F494E534552434904
:10250A004F4E202046414C4C4F0D0A0D0A004348BD
:10251A0045434B205341545553204F4B0D0A0D0A46
:10252A00004E6F207469656E65207461726A657405
:10253A00617320656E20656C206D6563616E6973D9
:10254A006D6F0D0A0D0A005665686963756C6F2018
:10255A00656E20656C206C6F6F700D0A0D0A005451
:10256A0061726A65746120656E206C6120626F63B6
:10257A00610D0A0D0A005461726A657461206C6902
:10258A007374612070617261206C65657220656E7A
:10259A002052460D0A0D0A005665686963756C6F0C
:1025AA00206E6F20656E20656C206C6F6F700D0A4F
:1025BA000D0A005345515F52455155455354204623
:1025CA00414C4C4F0D0A0D0A0044697370656E73D5
:1025DA0061646F72204E6F20526573706F6E64650E
:1025EA002053455120524551554553542E2E2E0DF8
:1025FA000A0D0A005461726A6574612076616C6919
:10260A006461204D4635300D0A0D0A005461726A24
:10261A0065746120696E76616C696461206E6F20F1
:10262A006573204D4635300D0A0D0A004C4F414462
:10263A002056455249465920454550524F4D20454E
:10264A0052524F520D0A0D0A004C4F414420564532
:10265A005249465920454550524F4D204F4B0D0A7D
:10266A000D0A005345515F52445F533142312045B0
:10267A0052524F520D0A0D0A005345515F52445FA0
:10268A0053314231204F4B0D0A0D0A0049445F4332
:10269A004C49454E54453A2000434F445F504152FD
:1026AA004B3A005449504F204445205441524A4520
:1026BA005441203120524F544143494F4E3A200051
:1026CA005345515F52445F53314232204552524F73
:1026DA00520D0A0D0A005345515F52445F5331426D
:1026EA0032204F4B0D0A0D0A004552524F523A20E2
:1026FA0053494E20494E475245534F0D0A0D0A0081
:10270A0053616C696461204175746F72697A61649E
:10271A00610D0A0D0A0045786365646520542E47E9
:10272A0052414349410D0A0D0A00434F4449474F5C
:10273A00204445204443544F3A20005449454D50C3
:10274A004F204445204443544F3A20002575004405
:10275A0043544F2046494A41204645434841204474
:10276A0045204F55543A20004443544F20504F526D
:10277A0043454E54414A45203130302520004443D8
:10278A00544F204E4F20454C20313030253A2000FE
:10279A005469656D706F204772616369613A200000
:1027AA005441524A4554412053494E205041474FC3
:1027BA000D0A0D0A005345515F52445F53314230AE
:1027CA00204552524F520D0A0D0A005345515F528D
:1027DA00445F53314230204F4B0D0A0D0A004E75AB
:1027EA006D65726F205469636B65743A20005345B6
:1027FA00515F57525F53314232204552524F520D68
:10280A000A0D0A005345515F57525F533142322035
:10281A004F4B0D0A0D0A005345515F5254415F5305
:10282A00324230204552524F520D0A0D0A0053458A
:10283A00515F5254415F53324230204F4B0D0A0DC3
:10284A000A006F6B207461726A657461206F6B2E67
:10285A002E2E0D0A0D0A0072656C65206F66660DD4
:10286A000A0D0A004E4F20454A454354205441520E
:10287A004A4554204552524F520D0A0D0A00454A04
:10288A00454354205441524A4554204F4B0D0A0D9A
:10289A000A005345515F52445F533142305F454A03
:0B28AA00454354204F4B0D0A0D0A005F
:0D67570041018930420153000041018800DA
:107A1B007F029000C9E064016003300A16300A113E
:107A2B00C20A9000CEE0FEB45003E4FF22EE7F03C7
:037A3B00227F01A6
:017A3E002225
:1061A600E490000EF07BFF7A24792A127683900120
:1061B600ADE0FF1274DB900153A3E0FF1274DB9095
:1061C600000EE0FF1274DB7BFF7A2479541276838B
:1061D600200B3A9001ADE004F0E0C3940A74809479
:1061E600804022D2837F6E7E001278B7E49001ADA4
:1061F600F0900153F0A3F090000EF0C2837F6EFE84
:106206001278B7803E90000E7401F08036900154EB
:10621600E004F07006900153E004F0C3900154E0EE
:106226009403900153E09400E49001AD4010F09087
:106236000153F0A3F090000E04F0C20B8005F0901D
:0E624600000EF09000C97432F090000EE0FFE0
:016254002227
:104E0500900189E07003024F3724CF6022147003AC
:104E1500024EB2147003024EBD24036003024F3DDF
:104E2500C2837F331265919001897431F0FF22129C
:104E35007A1B900001EFF03395E04F604AE0FF33B5
:104E450095E0FEEF64024E70099001897431F0021D
:104E55004F37EF64034E7BFF701D7A247959127624
:104E6500837B017A0079CA9000FDE0FD90003874DB
:104E750001F012708780077A24792A1276839001CF
:104E8500897430F0024F377BFF7A24797D1276835F
:104E95007B017A0079CA9000FDE0FD90003874012D
:104EA500F01270879001897432F0024F3712625503
:104EB5009001897433F0FF22127A1B900001EFF004
:104EC5003395E04F6048E0FF3395E0FEEF64024E16
:104ED50070089001897433F08056EF64034E7BFFB0
:104EE500701D7A24799E1276837B017A0079CA90A7
:104EF50000FDE0FD9000387401F012708780077A9C
:104F050024792A1276839001897430F080227BFF00
:104F15007A2479B61276837B017A0079CA9000FDEE
:104F2500E0FD9000387401F0127087E4900189F07B
:0F4F35008000900189E0FF229001897430F0FF25
:014F4400224A
:1000260090010DE012145D007900008D0100F202CE
:1000360001040309F5040A03050223060305070361
:100046006C0803750904E50A04EE0B07A80C07B152
:100056000D08C70E08D60F0951100960110A9E1225
:100066000AA7130B9A200BA1210BC0220BCB23004E
:10007600000BE59000C9E064016003020BEAC2834D
:100086007F30126894803A127A1B900001EFF0607C
:1000960052E0FF7E006402700690010D04F022EF2C
:1000A60064034E70097BFF7A2479CB020AC712617A
:1000B600A6EF70047F0180027F00900001EFF060E0
:1000C6000790010D7401F0221261A6EF640170041D
:1000D6007F0180027F00900001EFF07003020BEABF
:1000E600020BB77BFF7A2479E40202489000C9E04C
:1000F60064016003020BEA7F3012700B8036127ABD
:100106001B900001EFF0604EE0FF7E00640270027B
:100116008022EF64034E70097BFF7A2479FA02028B
:10012600481261A6EF70047F0180027F00900001F3
:10013600EFF0600790010D7403F0221261A6EF64E0
:100146000170047F0180027F00900001EFF07003D0
:10015600020BEA02025F7BFF7A2579181276837B0F
:10016600017A0079CA9000FDE0FD9000387401F034
:100176001270879000D1E0643070537BFF7A257946
:100186002B1276839000C97432F090010D7402F040
:100196001270FDEF6032900188E07016E004F07B8B
:1001A600FF7A2579511276837FA0126BF17F550273
:1001B6003169900188E004F0E0C39414748094805F
:1001C6005003020BEAE4F022E4900188F02290004A
:1001D600D1E0B4310C7BFF7A257969127683020B64
:1001E600939000D1E064326003020BEA7BFF7A252C
:1001F60079801276831270FDEF7BFF600C7A257989
:1002060051127683126F8B80267A2579A212768315
:100216007FE0126BF17FAB123169020B93127A1BEE
:10022600900001EFF0604DE0FF7E006402700790E1
:10023600010D7406F022EF64034E7BFF70227A25CF
:1002460079BD1276837B017A0079CA9000FDE0FDC4
:100256009000387401F012708790010D7402F0223C
:100266007A2579D31276837FE1126BF17FAC123156
:1002760069020B939000D4E064317054A3E07BFFD5
:10028600B430207A2579FE1276837B017A0079CA0A
:100296009000FDE0FD9000387401F012708712693D
:1002A60025806E7A2679161276837B017A0079CAC2
:1002B6009000FDE0FD9000387401F01270877FA277
:1002C600126BF17FE1126BF17FAC123169020B9375
:1002D6007BFF7A2679161276837B017A0079CA909B
:1002E60000FDE0FD9000387401F01270877FA212C5
:1002F6006BF17FE1126BF17FAC123169020B931245
:100306007A1B900001EFF0603EE0FF7E0064027011
:100316000790010D7407F022EF64034E7BFF701DFA
:100326007A2679361276837B017A0079CA9000FDA7
:10033600E0FD9000387401F012708780077A247906
:100346002A127683020BB77BFF7A267953127683BD
:100356007B017A0079CA9000FDE0FD9000387401B7
:10036600F0127087805E7D017F01125DFF8036127C
:100376007A1B900001EFF06052E0FF7E006402708D
:10038600028022EF64034E70097BFF7A26796D02A4
:100396000AC71261A6EF70047F0180027F009000F9
:1003A60001EFF0600790010D7409F0221261A6EFCB
:1003B600640170047F0180027F00900001EFF070FD
:1003C60003020BEA90010D7408F0227BFF7A26796E
:1003D600831276837B017A0079CA9000FDE0FD9056
:1003E60000387401F01270879000CDE0C394187441
:1003F60080948050030204D8E4900001F09000013C
:10040600E0C39410748094805021E0FF24D4F582D8
:10041600E43400F583E0FE74662FF582E43401F5DA
:1004260083EEF0900001E004F080D2900167E0FFD7
:100436007E0090010FE0FCA3E0FDB50714EEB504C5
:1004460010900169E0FF90010AE07003A3E06F607D
:100456000EED4C707090010AE07002A3E070667BAE
:10046600FF7A267996127683900167E0FF1275AEC1
:100476007BFF7A2479541276837BFF7A2679A3123E
:100486007683900169E0FF1275AE7BFF7A2479547A
:10049600127683900166E06401701D7BFF7A2679EF
:1004A600AD127683900166E0FF1274DB7BFF7A243F
:1004B60079541276830205437FE1126BF17FAC1209
:1004C6003169020B937FE5126BF17FAA1231690243
:1004D6000B937FDF126BF17FAD123169020B937DB7
:1004E600027F01125DFF8036127A1B900001EFF049
:1004F6006052E0FF7E00640270028022EF64034EC9
:1005060070097BFF7A2679CA020AC71261A6EF70C4
:10051600047F0180027F00900001EFF060079001E8
:100526000D740BF0221261A6EF640170047F018046
:10053600027F00900001EFF07003020BEA90010DBC
:10054600740AF0227BFF7A2679E01276837B017AA1
:100556000079CA9000FDE0FD9000387401F0127039
:1005660087E4900001F0900001E0C3941074809439
:10057600805021E0FF24D4F582E43400F583E0FEC8
:1005860074772FF582E43401F583EEF0900001E0F4
:1005960004F080D2900181E0FF64026003EF701BDB
:1005A6007BFF7A2679F31276837FA2126BF17FE6C0
:1005B600126BF17F56123169020B93900102E0FE35
:1005C600A3E0FF4E605EEF64014E70030206F990F1
:1005D6000102E07004A3E06402600302074F7B019E
:1005E6007A0079081263A5900008E0FF900177E091
:1005F600B5071B900009E0FF900178E0B5070F9062
:10060600000AE0FF900179E0B507030206F97BFFD7
:100616007A2779201276837FE8126BF17F581231A0
:1006260069020B9390017DE070030207197D0F7C30
:10063600007FA8127843EF700302074F127C717B8C
