:1086810041010C0A41013F0041014A004101400002
:1086910041015000410147004201410000410149AF
:0F86A100064101510341014FF2C10AC109C10B4A
:03000B0002A593B8
:10A59300C0E0C083C08290010CE06401700604F047
:10A5A300C28D801C90010CE014F090013FE004F098
:10A5B300900142E004F07006900141E004F0C28D86
:07A5C300D082D083D0E0320A
:10A8D800E58954F04401F589E4F58CF58AD28C2297
:05A96600C28DD2A92200
:03A97500C2A92252
:0BA9070012A6CBEFF47002EEF460F536
:01A912002222
:05A466009000E0EFF0A2
:10A46B009000E0E0FF12A51EEF3395E04F6024E46F
:10A47B009000E1F0A3F0C39000E2E094E89000E1DB
:10A48B00E0940350DBA3E004F070EB9000E1E004F8
:08A49B00F080E39000E0E0FF17
:01A4A3002296
:0EA18600900034EBF0A3EAF0A3E9F0A3EDF0B3
:10A19400E4A3F0900037E0FFA3E0C39F50299000B0
:10A1A40034E0FBA3E0FAA3E0F9122417FF12A4663B
:10A1B400900039EFF0900035E475F0011224F89026
:07A1C4000038E004F080CC3C
:01A1CB002271
:10A8E80012A97012A92F12A913C283D287C2972264
:1096F70012A8D812A96612A62A12A67C12A8E8D226
:10970700AF12A7BB7F217E0012A86C12A8417F6110
:1097170012A06712A93620910312505C129FC11242
:109727006901EF70FA90010C7403F020093F208063
:109737000E7B017A0079E4128FCB900000EFF012D4
:10974700119220B32B7B017A0079E4128E95900059
:1097570000EFF0FD7B017A0079E41244F77B017A90
:109767000079E4900000E0FD12A0F7800312119247
:0597770012988180B68C
:05A96B004C49564500B7
:0B86B000091130303030303000000085
:0E44F700900001EBF0A3EAF0A3E9F0A3EDF0D2
:104505007D0A7C007FA812A4E5900233EFF09000AD
:1045150004E0FF64197059900001E0FBA3E0FAA3E1
:10452500E0F91224176402704790000212243064E7
:1045350048703DFE74FF2FF582EE34FFF58312249B
:10454500306403702B900001A3A3E02403F9E43A3F
:10455500FA12713AEF6003024807900001E0FBA3ED
:10456500E0FAA3E02403F9E43AFA129333029F1424
:10457500900001E0FBA3E0FAA3E0F912241764B66A
:104585007028900232E004F0E0D3940474809480A3
:1045950050030248077FAE12416BC282E490013F8F
:1045A500F0C297C283900232F022900001E0FBA393
:1045B500E0FAA3E0F9122417FF64B76005EF64AAD7
:1045C500705390013FE0C39414748094804008E4D4
:1045D500F0C297D282C283900143E060030248078C
:1045E500900233E064016003024807C3900142E092
:1045F5009458900141E094025003024807E4F0A367
:10460500F090014304F07BFF7AA9796B12A2A2E432
:10461500900143F022900001E0FBA3E0FAA3E0F94A
:1046250012241764B170057F600246FB900001E01B
:10463500FBA3E0FAA3E0F912241764B270057F5DCD
:104645000246FB900004E064017017900001E0FB56
:10465500A3E0FAA3E0F912241764A170057F5A02BA
:1046650046FB900004E064017016900001E0FBA396
:10467500E0FAA3E0F9122417640670047FAB807694
:10468500900004E064017016900001E0FBA3E0FADD
:10469500A3E0F9122417640770047F5F8058900027
:1046A50004E064017016900001E0FBA3E0FAA3E0CA
:1046B500F9122417640870047F61803A900004E0C1
:1046C50064017016900001E0FBA3E0FAA3E0F91283
:1046D5002417640970047FAF801C900004E0640116
:1046E5007017900001E0FBA3E0FAA3E0F91224178C
:1046F50064B470057F5E02416B900004E0FF6413B3
:104705007038900001E0FBA3E0FAA3E0F990000106
:10471500122430B456247E0074FF2FF582EE34FF48
:10472500F58312243064037011900001A3A3E024E3
:1047350002F9E43AFA7F5B024804900004E0FF6462
:10474500066003024807900001E0FBA3E0FAA3E03E
:10475500F91224176402600302480790000112242D
:104765003064576003024807FE74FF2FF582EE346C
:10477500FFF58312243064036003024807900001AB
:10478500A3A3900002122430FD7B017A0079051263
:104795009E5D9000087420F0900001E0FBA3E0FA14
:1047A500A3E0F9900003122430FD900001A3A3902B
:1047B500000412243090003BF07B017A0079091245
:1047C5004808900233E064017021129AFDEFF4600D
:1047D500077FAB12416B80097B017A007905128254
:1047E500AA7B017A0079057F5C8014129AFDEFF4AB
:1047F50060057FAB12416B7B017A0079057F5C1206
:0248050064F954
:01480700228E
:0B8FCB00900001EBF0A3EAF0A3E9F036
:108FD600E4900005F0A3740BF0900233E064017096
:108FE60073900004F0900006E0FF900004E0C39F39
:108FF6005053E4FFFEFD30801DED701A0FBF0001D7
:109006000ED3EF9420EE944E40EC7D01900006E0E6
:10901600900004F080E0ED6401602A900005E00411
:10902600F0129560900001E0FBA3E0FAA3E0F9EFEF
:1090360012245D900002E475F0011224F8900004F9
:10904600E004F080A0900001E0FBA3E0FAA3E0F9C1
:09905600E412245D900005E0FF26
:01905F0022EE
:0EA36500900037EBF0A3EAF0A3E9F0A3EDF0CF
:10A37300E4A3F090003AE0FFA3E0C39F50249000D1
:10A3830037E0FBA3E0FAA3E0F9122417FF12A0675A
:10A39300900038E475F0011224F890003BE004F0DB
:02A3A30080D167
:01A3A5002295
:0B82AA00900010EBF0A3EAF0A3E9F055
:1082B5009000317403F090001314F012A890900010
:1082C50014EFF0A37453F0900147E0900031601370
:1082D500E0FF04F074132FF582E43400F583744D48
:1082E500F08011E0FF04F074132FF582E43400F5FB
:1082F500837443F09000317404F0900010E0FBA308
:10830500E0FAA3E0F9122417FF6021900031E02480
:1083150013F582E43400F583EFF0900011E475F075
:10832500011224F8900031E004F080CE900031E095
:10833500FF04F074132FF582E43400F583743AF0EA
:10834500900031E02413F9E43400FA7B0112622530
:10835500900031E0FF241DF582E43400F583743A82
:10836500F0741E2FF582E43400F5837403F07B016D
:0B8375007A007913EF240CFD02A365D1
:0B5C1000900012EBF0A3EAF0A3E9F013
:105C1B009000367403F090001814F012A8909000C6
:105C2B0019EFF0A37453F09001B0E09000366013BD
:105C3B00E0FF04F074182FF582E43400F583744D03
:105C4B00F08011E0FF04F074182FF582E43400F5B6
:105C5B00837443F0900012E0FBA3E0FAA3E0F99009
:105C6B00000512243064026003025CFD900012A355
:105C7B00A390000C122430FD7B017A00791C129E3C
:105C8B005D7B017A00791812000E900036EFF0E080
:105C9B00FF2418F582E43400F5837420F074192F77
:105CAB00F582E43400F583E4F07B017A0079181275
:105CBB00000E900036EFF02418F9E43400FA7B0163
:105CCB00C003C002C001900012E0FBA3E0FAA3E006
:105CDB00F990000B122430FD900012A3A390000A40
:105CEB0012243090003BF0D001D002D003124808B0
:105CFB00804F900015E0FBA3E0FAA3E0F912241704
:105D0B00FF900036E0FE04F074182EF582E43400A8
:105D1B00F583EFF0900016E475F0011224F8900073
:105D2B0015E0FBA3E0FAA3E0F912241770C490006E
:105D3B0036E0FF04F074182FF582E43400F583E4A9
:105D4B00F07B017A00791812000E900036EFF0E02C
:105D5B00FF2418F582E43400F583743AF074192F9C
:105D6B00F9E43400FA7B011262257B017A00791881
:105D7B0012000E900036EFF0E0FF04F074182FF5D0
:105D8B0082E43400F583743AF0900036E0FF04F0BF
:105D9B0074182FF582E43400F5837403F07B017AD9
:0B5DAB00007918900036E0FD02A365AF
:08000300D29412A978C29422E4
:05A427009000C8EFF0F9
:10A42C00E4A3F0A3F09000C8E0FFA2E713F030D74C
:10A43C0004D2958002C2951200039000CAE004F089
:10A44C0070069000C9E004F0C39000CAE094089034
:09A45C0000C9E06480948040CC4A
:01A4650022D4
:0A921300EBF0A3EAF0A3E9F07F8D71
:05921D009000C5EFF018
:10922200D2967F037E0012A86C9000C5E0FF12A4C4
:1092320027E49000C6F0A3F09000C6E0FCA3E0FD96
:10924200C39408EC64809480504F30951690023499
:10925200E04480F0ED9406EC648094805005E0FFD9
:10926200C313F0209520900234E0547FF0D3900095
:10927200C7E094069000C6E0648094805008900293
:1092820034E0FFC313F01200039000C7E004F07053
:10929200A79000C6E004F0809FC296900234E0FFDF
:0192A20022A9
:10A65400900013EFF0A3EDF0D2967F037E0012A8D2
:10A664006C900013E0FF12A427900014E0FF900008
:08A6740013F012A427C2962284
:10A3A600900011E475F0011224F8900011E475F0A4
:10A3B600011224F8900011E475F0011224F89000BF
:10A3C60010E0FBA3E0FAA3E0F9122417FF900001C6
:04A3D600122430FD20
:0CA3DA00EF540FC454F0FFED540F4FFF80
:01A3E6002254
:10713A00E4FF122417FEC39430500302724CEED3BC
:10714A009439400302724C900001122430FEC39419
:10715A00305003027249EED39439400302724990C7
:10716A000003122430FEC394305003027246EED359
:10717A0094394003027246900004122430FEC394EC
:10718A0030500302724EEED39439400302724E908D
:10719A000008122430FEC394305003027243EED327
:1071AA009439400302724390000B122430FEC394B8
:1071BA00305003027240EED39439507A90000C1288
:1071CA002430FEC39430406BEED39439506590005E
:1071DA000E122430FEC394304056EED394395050E8
:1071EA0090000F122430FEC394304041EED39439FC
:1071FA00503B900011122430FEC39430402CEED341
:10720A0094395026900012122430FEC3943040174D
:10721A00EED394395011900014122430FEC39430E6
:10722A004022EED39439227F01227F01227F01225C
:10723A007F01227F01227F01227F01227F01227F9B
:04724A0001227F019D
:01724E00221D
:10933300900010EBF0A3EAF0A3E9F012A3C4AD0789
:109343007F8612A65412A3A6AD077F8812A6549057
:109353000011E475F0011224F8900011E475F00196
:109363001224F812A3A6AD077F8C12A65412A3A64B
:10937300AD077F8412A65412A3A6AD077F8212A65F
:109383005412A3A6AD077F8012A654900011E47572
:10939300F0011224F8900011E475F0011224F89002
:1093A3000011E475F0011224F8900010E0FBA3E033
:0F93B300FAA3E0F9122417540FFD7F8A02A65483
:10A7D400AE07EEC4540F540FFE6012EF540FFFE4A3
:0DA7E400FDEDC39E5007740A2FFF0D80F499
:01A7F1002245
:10A4A40012246F900072E475F0011224F890007188
:0CA4B400E0FBA3E0FAA3E0F9122417FF7C
:10A4C000E4FEFDFCECC39F500B0DED640A7002FD31
:10A4D0000E0C80F0EEC454F054F0FEED540F4EFF1D
:01A4E0002259
:109E5D00E4FFFE900037EDF0900037E0C39464749A
:109E6D008094804007E0249CF00F80ECEF4430128A
:109E7D00245D740129F9E43AFA900037E0C3940A9D
:109E8D00748094804007E024F6F00E80ECEE4430B0
:109E9D0012245D740129F9E43AFA900037E0443058
:0E9EAD0012245D740129F9E43AFAE402245DFE
:0E480800900037EBF0A3EAF0A3E9F0A3EDF087
:10481600E490003CF0A3F090003FF0A3F0A3F0A3D7
:10482600F090003EEDF054F0F0E0FFC4540FF0902D
:104836000047122565404000007F007E007D807C99
:1048460041126393C004C005C006C00790003EE055
:10485600FCE4121F29D003D002D001D000121E1989
:10486600C004C005C006C00790003CE0FCA3E0FD04
:10487600E4121F24D003D002D001D000121D28124A
:104886001F5D90003CEEF0A3EFF090003AE0900040
:104896003EF0540FF0900047122565400000007F5F
:1048A600007E007D807C41126393C004C005C00673
:1048B600C00790003EE0FCE4121F29D003D002D0CE
:1048C60001D000121E19C004C005C006C007900022
:1048D6003CE0FCA3E0FDE4121F24D003D002D0018B
:1048E600D000121D28121F5D90003CEEF0A3EFF0E1
:1048F60090003BE090003EF054F0F0E0FFC4540F0F
:10490600F09000471225653F8000007F007E007D05
:10491600807C41126393C004C005C006C0079000A6
:104926003EE0FCE4121F29D003D002D001D00012D1
:104936001E19C004C005C006C00790003CE0FCA3D9
:10494600E0FDE4121F24D003D002D001D000121DD6
:1049560028121F5D90003CEEF0A3EFF090003BE0C4
:1049660090003EF0540FF0900047122565000000BD
:10497600007F007E007D807C41126393C004C005E9
:10498600C006C00790003EE0FCE4121F29D003D009
:1049960002D001D000121E19C004C005C006C0070F
:1049A60090003CE0FCA3E0FDE4121F24D003D002FB
:1049B600D001D000121D28121F5D90003CEEF0A31E
:1049C600EFF0C3EF9410EE9427401074F02FFF74AD
:1049D600D83EFE90003FE004F080E790003FE044C0
:1049E60030FD900037E0FBA3E0FAA3E0F9ED1224D6
:1049F6005D900038E475F0011224F8C3EF94E8EEF8
:104A06009403401074182FFF74FC3EFE900040E0A3
:104A160004F080E7900040E04430FD900037E0FB72
:104A2600A3E0FAA3E0F9ED12245D900038E475F0F6
:104A3600011224F8C3EF9464EE94004010749C2F86
:104A4600FF74FF3EFE900041E004F080E7900041D5
:104A5600E04430FD900037E0FBA3E0FAA3E0F9ED77
:104A660012245D900038E475F0011224F8C3EF9427
:104A76000AEE9400401074F62FFF74FF3EFE90007D
:104A860042E004F080E7900042E04430FD900037B9
:104A9600E0FBA3E0FAA3E0F9ED12245D900038E410
:104AA60075F0011224F8EF4430FF900037E0FBA3C5
:104AB600E0FAA3E0F9EF12245D900038E475F00106
:104AC6001224F8900037E0FBA3E0FAA3E0F9E40231
:024AD600245D5D
:0362250090006581
:10622800129213EF54F0C4540F4430FE900065E00E
:10623800FBA3E0FAA3E0F9EE12245D900066E47592
:10624800F0011224F8EF540F4430FF900065E0FB92
:10625800A3E0FAA3E0F9EF12245D900066E475F07C
:10626800011224F87F8912921DEF54F0C4540F4490
:1062780030FE900065E0FBA3E0FAA3E0F9EE1224FB
:106288005D900066E475F0011224F8EF540F443075
:10629800FF900065E0FBA3E0FAA3E0F9EF12245DAC
:1062A800900066E475F0011224F87F8712921DEFC2
:1062B80054F0C4540F4430FE900065E0FBA3E0FAAC
:1062C800A3E0F9EE12245D900066E475F001122453
:1062D800F8EF540F4430FF900065E0FBA3E0FAA309
:1062E800E0F9EF12245D900066E475F0011224F8DD
:1062F8007F8512921DEF54F0C4540F4430FE900075
:1063080065E0FBA3E0FAA3E0F9EE12245D900066D5
:10631800E475F0011224F8EF540F4430FF90006543
:10632800E0FBA3E0FAA3E0F9EF12245D900066E435
:1063380075F0011224F87F8312921DEF54F0C454B3
:106348000F4430FE900065E0FBA3E0FAA3E0F9EE0D
:1063580012245D900066E475F0011224F8EF540FE2
:106368004430FF900065E0FBA3E0FAA3E0F9EF12E8
:10637800245D900066E475F0011224F8900065E051
:0B638800FBA3E0FAA3E0F9E402245DAF
:108C0C009000C212921312A7D49000C2E0FBA3E012
:108C1C00FAA3E0F9EF12245D9000C3E475F00112A1
:108C2C0024F87F8912921D12A7D49000C2E0FBA3F6
:108C3C00E0FAA3E0F9EF12245D9000C3E475F001B3
:108C4C001224F87F8712921D12A7D49000C2E0FB69
:108C5C00A3E0FAA3E0F9EF12245D9000C3E475F0F1
:108C6C00011224F87F8512921D12A7D49000C2E045
:108C7C00FBA3E0FAA3E0F9EF12245D9000C3E475C6
:108C8C00F0011224F87F8312921D12A7D49000C217
:108C9C00E0FBA3E0FAA3E0F9EF12245D9000C3E43B
:068CAC0075F0010224F83E
:0B906000900071EBF0A3EAF0A3E9F030
:10906B0012A4B1EF54F0C4540F4430FE900074E0DE
:10907B00FBA3E0FAA3E0F9EE12245DEF540F4430AA
:10908B00FF900074E0FBA3E0FAA3E0F9900001EF7E
:10909B0012A4A4EF54F0C4540F4430FE900074E0BB
:1090AB00FBA3E0FAA3E0F9900002EE12246FEF5459
:1090BB000F443090000312A4A4EF54F0C4540F4497
:1090CB0030FE900074E0FBA3E0FAA3E0F9900004FB
:1090DB00EE12246FEF540F443090000512246F9062
:0690EB000006E402246F00
:1083800090001D12921390001DE0FBA3E0FAA3E001
:10839000F9EF12245D90001EE475F0011224F87FBD
:1083A0008912921D90001DE0FBA3E0FAA3E0F9EF13
:1083B00012245D90001EE475F0011224F87F8712EC
:1083C000921D90001DE0FBA3E0FAA3E0F9EF122458
:1083D0005D90001EE475F0011224F87F8512921D55
:1083E00090001DE0FBA3E0FAA3E0F9EF12245D90FA
:1083F000001EE475F0011224F87F8312921D900094
:108400001DE0FBA3E0FAA3E0F9EF12245D90001E4B
:10841000E475F0011224F87F8112921D90001DE096
:10842000FBA3E0FAA3E0F9EF12245D90001EE475CF
:10843000F0011224F890001DE0FBA3E0FAA3E0F99C
:04844000E402245DD1
:07A92F00C294C296D29522EA
:0B60AC00900010EBF0A3EAF0A3E9F075
:1060B700A37401F0122417FF3395E04F7047900047
:1060C70010E0FBA3E0FAA3E0F9900001122430FFEF
:1060D7003395E04F702F900002122430FF3395E084
:1060E7004F7022900003122430FF3395E04F701554
:1060F700900004122430FF3395E04F70089000138E
:1061070004F002621F7B017A007914128C0C900153
:1061170043E0640170097B017A007914128CB29014
:106127000010E0FBA3E0FAA3E0F9122417FFFD3308
:1061370095E0FC900014E0C39DEC6480F8748098AF
:10614700500302620C900014E06F60030262199022
:106157000010E0FBA3E0FAA3E0F99000011224305D
:10616700FFFD3395E0FC900015E0C39DEC6480F8DB
:10617700748098500302620C900015E06F60030270
:106187006217900010E0FBA3E0FAA3E0F990000289
:10619700122430FFFD3395E0FC900016E0C39DEC20
:1061A7006480F87480985002805B900016E06F70EE
:1061B7005D900010E0FBA3E0FAA3E0F99000031262
:1061C7002430FFFD3395E0FC900017E0C39DEC649D
:1061D70080F87480985002802C900017E0B5072C47
:1061E700900010E0FBA3E0FAA3E0F990000412246A
:1061F70030FF3395E0FE900018E0C39FEE6480F80F
:10620700748098500DE4900013F0800C8004800295
:0D62170080009000137402F0900013E0FF6F
:016224002257
:0B873C009000B0EBF0A3EAF0A3E9F01E
:108747007B017A0079BB128C0C9000BBE0FF7E00A6
:108757007C017D6D122491AC06AD07A3E075F01E78
:10876700A42DFFEC35F0FEA3E07C002FFFEC3EFECE
:10877700E4FD9000B31225599000B0E0FBA3E0FAA6
:10878700A3E0F990000112243075F01EA4FDACF0AF
:10879700C004C005122417FF7E007C017D6D1224E2
:1087A70091D0E02FFFD0E03EFE9000021224301C53
:1087B7002FFFEC3EFEE4FD9000B71225599000B361
:1087C700E0FCA3E0FDA3E0FEA3E0FFA3E0F8A3E045
:1087D700F9A3E0FAA3E0FBC312251C40089000C1EF
:0F87E7007401F08005E49000C1F09000C1E0FF44
:0187F6002260
:102FA900900011ECF0A3EDF090000EEBF0A3EAF025
:032FB900A3E9F099
:102FBC00C200C20190000B122430FF3395E04F6029
:102FCC00030234DF90000EE0FBA3E0FAA3E0F990DB
:102FDC00000C122430FF3395E04F60030234DF9075
:102FEC00000D122430FF3395E04F60030234DF9064
:102FFC00000E122430FF3395E04F60030234DF9053
:10300C00000F122430FF3395E04F60030234DF9041
:10301C000011E0FEA3E0C3943CEE9400900011403C
:10302C001CA3E0FB7C007D3CFF1224A390001AEF54
:10303C00F075F03CA4FFC3EB9FA3F0800BA3E090D2
:10304C00001BF0E490001AF090001BE0FF700302EC
:10305C00331490000EE0FBA3E0FAA3E0F990000417
:10306C00122430FEEF2E900019F0D3943B74809410
:10307C008050030232E9E0FF75F03C8490001CF0B4
:10308C00E0FE75F03CA4FDC3EF9D900019F090009C
:10309C0003122430FFEE2F900018F0D39417748095
:1030AC00948050030232C8E0FF75F0188490001C25
:1030BC00F0E0FE75F018A4FDC3EF9D900018F090A1
:1030CC000002122430FFEE2F900017F09000011236
:1030DC002430FF3395E0FEEF64014E6024EF64036F
:1030EC004E601EEF64054E6018EF64074E6012EFE1
:1030FC0064084E600CEF640A4E6006EF640C4E7070
:10310C0057900017E0D3941F748094804032E024D1
:10311C00E1F090000EE0FBA3E0FAA3E0F9900001CF
:10312C0012243004900016F0D3940C7480948040D8
:10313C002412241704900015F0A37401F002334EEE
:10314C0090000EE0FBA3E0FAA3E0F990000112243A
:10315C0030900016F002334790000EE0FBA3E0FA2B
:10316C00A3E0F9900001122430FF3395E0FEEF64E8
:10317C00044E6012EF64064E600CEF64094E60065C
:10318C00EF640B4E7027900017E0D3941E7480945C
:10319C0080400DE024E2F0900001122430048006FF
:1031AC00900001122430900016F002334790000E6C
:1031BC00E0FBA3E0FAA3E0F9900001122430FF3306
:1031CC0095E0FEEF64024E60030232AB122417FF4F
:1031DC00FD3395E0FCED24D0FAEC3407900013F0AD
:1031EC00A3CAF0C200ED64104C6023EF3395E0FEEF
:1031FC00EF64144E6018EF64184E6012EF641C4EAE
:10320C00600CEF64204E6006EF64244E7002D20016
:10321C00300049900017E0FDD3941D748094809089
:10322C00000EE0FBA3E0FAA3E0F94017122417907C
:10323C000015F0900017E024E3F090000112243008
:10324C00048012122417900015F0900017EDF090E6
:10325C000001122430900016F002334E900017E05B
:10326C00FDD3941C748094804018E024E4F090000A
:10327C000EE0FBA3E0FAA3E0F99000011224300465
:10328C008016900017EDF090000EE0FBA3E0FAA37F
:10329C00E0F9900001122430900016F002334790B0
:1032AC000017E0F090000EE0FBA3E0FAA3E0F99029
:1032BC000001122430900016F002334790000EE00B
:1032CC00FBA3E0FAA3E0F99000021224309000175F
:1032DC00F0900001122430900016F0805E90000EE9
:1032EC00E0FBA3E0FAA3E0F9900003122430900075
:1032FC0018F0900002122430900017F09000011288
:10330C002430900016F0803390000EE0FBA3E0FA1E
:10331C00A3E0F9900004122430900019F0900003FF
:10332C00122430900018F0900002122430900017F4
:10333C00F0900001122430900016F0122417900027
:10334C0015F090001AE0FF70030234A0900018E012
:10335C002FF0E0FFD394177480948050030234A0B4
:10336C00EF75F0188490001CF0E0FE75F018A4FDC9
:10337C00C3EF9D900018F0900017E02EF09000160F
:10338C00E0FF6401601EEF64036019EF64056014D4
:10339C00EF6407600FEF6408600AEF640A6005EFE2
:1033AC00640C7035900017E0D3941F748094805097
:1033BC00030234A0E024E1F0900016E004F0E0D326
:1033CC00940C74809480900015E0400904F0A37470
:1033DC0001F00234A0F00234A0900016E0FF640467
:1033EC00600FEF6406600AEF64096005EF640B7010
:1033FC001F900017E0D3941E74809480400CE0243E
:10340C00E2F0900016E00402349A900016E0807E00
:10341C00900016E0FA6402707B900015E0FBFD7CD6
:10342C000024D0FEEC3407900013F0A3CEF0C200C1
:10343C00ED6410601AEBFF64146014EF6418600FF5
:10344C00EF641C600AEF64206005EF64247002D204
:10345C0000300024900017E0FFD3941D74809480FA
:10346C00400BE024E3F0900016E004800990001774
:10347C00EFF0900016EA8016900017E0D3941C74BD
:10348C00809480400FE024E4F0900016E004F0906B
:10349C000015E0F0900015E0FF90000EE0FBA3E0BB
:1034AC00FAA3E0F990000BEF12246F900016E09055
:1034BC00000C12246F900017E090000D12246F90F6
:1034CC000018E090000E12246F900019E090000F8D
:0334DC0012246F48
:0134DF0022CA
:10A86C00E4FDFCC3ED9FEC9E50070DBD00010C8078
:01A87C00F2E9
:01A87D0022B8
:04A80F00AB07AA06E3
:10A81300900000C3E5829BE5839A500A7F967E00F1
:06A8230012A86CA380EDF9
:01A82900220C
:08A5590090000FEEF0A3EFF0FB
:10A56100E4A3F0A3F090000FE0FEA3E0FFC390008E
:10A5710012E09F900011E09E50177F0A7E0012A802
:10A581000F900012E004F070DC900011E004F08004
:01A59100D4F5
:01A5920022A6
:01A9780022BC
:03A7370012A71551
:10A73A00D20ED293D292E4FFFE209205C20EC293A9
:0CA74A00220FBF00010EBE04F0BF4CED5A
:01A7560022E0
:03A7570012A71531
:10A75A00D293D292D20EE4FFFE209205C20EC29389
:0CA76A00220FBF00010EBE02F0BF8AEDFE
:01A7760022C0
:06A96000D29300C2932215
:10A71500E4FEEEC39408748094805015EF25E0FFA5
:10A7250030D704D2928002C292D29312A9600E80D1
:01A73500E142
:01A736002200
:08A87E00ECFD7C00C293C292C4
:0AA88600D292D29300C292C2932234
:09A91D00C293C292D293D292229D
:10A01700E4FBEBFDC39408748094805038C29330FE
:10A02700921690022AE04401F0ED94067480948021
:10A037005006E025E0F0D29320921790022AE054D0
:10A04700FEF0EBD39406748094805006E025E0F090
:0CA05700D2930B80BDC29390022AE0FF60
:01A0630022DA
:109F6B00900071E0FCA3E0FDA3E0FBA3E0FAA3E00B
:079F7B00F9122417FB7FA877
:029F8200AA072C
:109F8400AF05A90712A87EAF0212A737AF0512A723
:109F940037AF0112A71512A73AAF0312A71512A7DC
:109FA4003A12A91D7F0D7E0012A80FD293D2927F80
:0D9FB400627E0012A86C7F627E0002A86C25
:04A4E1007C007FA8D4
:02A4E500AB07C3
:10A4E700AF05AA0712A87EAF0312A757AF0512A799
:10A4F70057AF0212A71512A75A12A886EB04FF122C
:10A50700A71512A73AC29312A01712A91DD293D268
:06A517009290022AE0FF11
:01A51D00221B
:109FC100E4FDFC7FA812A4E5900152E4F0A3EFF0B8
:109FD1007D0212A4E190014DE4F0A3EFF07D0412A3
:109FE100A4E190014BE4F0A3EFF07D0612A4E1900F
:109FF1000145E4F0A3EFF07D0812A4E1900143EFE5
:10A00100F07D0C12A4E1900148EFF07D0E12A4E165
:06A01100900144EFF02273
:109D95009000B0EEF0A3EFF0A3EBF0A3EAF0A3E997
:019DA500F0CD
:109DA6009000B0E0FCA3E0FD7FA812A4E59000B20D
:109DB600E0FBA3E0FAA3E0F9EF12245D9000B2E025
:109DC600FBA3E0FAA3E0F9122417FF9000B1E00428
:109DD600F070069000B0E004F09000B3E475F00176
:109DE6001224F8EF70BA9000B2E0FBA3E0FAA3E009
:059DF600F9E402245D08
:109BE300900071EEF0A3EFF0A3EBF0A3EAF0A3E98A
:109BF300F0900073E0FBA3E0FAA3E0F912241760EE
:109C030024B40D04E412245D129F6B900072E004EF
:109C1300F07006900071E004F0900074E475F001B8
:109C23001224F880CC129F6B900072E004F070064F
:109C3300900071E004F0900074E475F0011224F8D0
:0F9C4300900071E0FCA3E0FDE4FB7FA8029F828C
:108D580053656E736F726573204175746F20792047
:108D680073656E736F72312061637469766F732EE9
:108D78000053656E736F722061637469766F207338
:108D8800656E736F7231202E00446574656374617B
:108D9800646F2E2053656E736F72204175746F2E49
:108DA8000053656E736F726573206E6F206465740F
:108DB80065637461646F73005665686963756C6F89
:108DC800204573706572616E646F2053616C6972BF
:108DD8002E005665686963756C6F2053616C696510
:108DE8006E646F2E20556E206D6F6D656E746F000A
:0486BB004102350043
:07A93600C2B5C2B6C2B72290
:07A93D00C2B5D2B6C2B72279
:07A94400C2B5C2B6D2B72272
:07A94B00D2B5C2B6D2B7225B
:07A95200C2B5D2B6D2B72254
:07A95900D2B5D2B6D2B7223D
:10A77700E4FF7DF47C01309115EFFB3395E04B70DE
:0EA787000DED1D70011CED4C70EC7F0180E8A3
:01A7950022A1
:10A2E0009000347401F012A952309103E004F0128E
:10A2F000A959309107900034E02402F0900034E036
:10A30000640170177D12FC7FA812A4E5EF600CF4C5
:10A31000900034700404F08002EFF0900034E024E8
:02A3200030FF0C
:01A322002218
:10A890007D127C007FA812A4E5EF6005F470027FB2
:01A8A00001B6
:01A8A1002294
:109AFD0012A94430916112A777EF3395E0FEEF6420
:109B0D00014E704712A94B20912312A93D7BFF20D6
:109B1D00910D7A8D795812A2A2E490014780227A94
:109B2D008D797912A2A29001477401801412A93D7A
:109B3D007BFF2091107A8D799112A2A2900147742A
:109B4D0001F07FFF227A8D79A980067BFF7A8D79CE
:109B5D00C012A2A27F00227BFF7A8D79DA12A2A217
:039B6D007F012253
:10A79600E4FE12A94430911412A777EFFD3395E039
:0EA7A600FCED64014C7002FF227F01227F0156
:01A7B4002282
:10988100E4900001F012A936209169900235E07050
:1098910016900001E0701030B35A04F012A5FE904A
:1098A10002357401F0804D900235E064017016902C
:1098B1000001E0701030B33C04F012724F90023599
:1098C1007402F0802F900235E0640270279000014D
:1098D100E0702130B31E04F07D0C7C007FA812A43F
:1098E100E5EF640170047F5380027F4E1294D8E447
:0F98F100900235F012A936309105E4900001F095
:019900002244
:10396300643B686F726100494E475245534520548A
:1039730041524A45544120005441524A4554412042
:1039830053494E20494E475245534F20005441520C
:103993004A455441204E4F205245474953545241C2
:1039A300205041474F200045584345444520544942
:1039B300454D504F20444520475241434941200043
:1039C3004D454E5355414C204E4F204553544120B5
:1039D300454E20504152515545414445524F2000D8
:1039E300444952494A41534520412043414A4120D9
:1039F30000475241434941532E2E2E200047524146
:103A0300434941532E2E2E004D454E5355414C49AB
:103A13004441442056454E4349444120004D454EC0
:103A23005355414C4944414420455843454445205E
:103A3300484F524152494F204143455251554553F6
:103A43004520412043414A4120004E4F2045532009
:103A53004D454E5355414C49444144204E49205015
:103A630052455041474F004D454E5355414C204E12
:103A73004F205041474F204C4F434143494F4E2025
:103A8300484F59005441524A455441204E4F204516
:103A9300532044454C2050415251554541444552D1
:103AA3004F200053494E2050524553454E43494100
:103AB300205645484943554C415220005441524AEF
:103AC30045544120494E56414C49444120005441FC
:103AD300524A4554412053494E20464F524D41547A
:103AE3004F20004655455241204445204C494E4500
:103AF300412000554E204D4F4D454E544F20504FC1
:103B030052204641564F522000613B38353B494EC7
:103B13004752455345205441524A4554410A0000F7
:103B2300613B38363B5441524A4554412053494E38
:103B330020494E475245534F200A0000613B383716
:103B43003B5441524A455441204E4F205245474928
:103B530053545241205041474F0A0000613B3838CB
:103B63003B455843454445205449454D504F204417
:103B73004520475241434941200A0000613B3839FF
:103B83003B4D454E5355414C204E4F2045535441D8
:103B930020454E20504152515545414445524F0A0C
:103BA3000000613B39303B444952494A4153452067
:103BB300412043414A410A0000613B39313B4752AE
:103BC30041434941532E2E2E200A0000613B3933D5
:103BD3003B4D454E5355414C204E4F204553544188
:103BE30020454E20504152515545414445524F0ABC
:103BF3000000613B39343B4D454E5355414C4944DC
:103C030041442056454E434944410A0000613B3933
:103C1300353B4D454E5355414C494441442045584D
:103C23004345444520484F524152494F2041434563
:103C330052515545534520412043414A410A000012
:103C4300613B39363B4E4F204553204D454E53552E
:103C5300414C49444144204E49205052455041472C
:103C63004F0A0000613B39373B4D454E5355414C9C
:103C7300204E4F205041474F204C4F434143494F23
:103C83004E20484F590A0000613B39383B5441529A
:103C93004A455441204E4F2045532044454C205023
:103CA3004152515545414445524F200A0000613B62
:103CB30039383B53494E2050524553454E434941B1
:103CC300205645484943554C4152200A0000613B68
:103CD30039383B5441524A45544120494E56414C90
:103CE300494441200A0000613B39383B5441524A60
:103CF3004554412053494E20464F524D41544F2085
:103D03000A0000613B39383B465545524120444542
:103D1300204C494E45410A0000613B39383B554E22
:103D2300204D4F4D454E544F20504F522046415643
:103D33004F520A0000613B30373BA1204D454E53A3
:103D430055414C494441442056454E434944412042
:103D5300210A0000613B30363B4D454E5355414CE3
:103D630020465545524120444520484F524152492F
:103D73004F0A0000613B39383B484F524152494F8B
:103D8300204E4F2050524F4752414D41444F0A005D
:103D93000057494547414E4420004752414349415A
:103DA300532000613B39323B57494547414E443A22
:103DB300000A00613B39313B47524143494153209B
:103DC30000AA802807200000000000140000AA8039
:0A3DD30018010200AA801801020086
:09A6A400900032E025E0FFE4FD26
:05A6AD0090003FEDF0FC
:10A6B20012A466900040EFF090003FE0600AE4FFD1
:08A6C20012A466900040EFF0C5
:01A6CA00226D
:08A258007B017A007914E4FD9A
:0EA2600090003AEBF0A3EAF0A3E9F0A3EDF0D2
:10A26E00E4A3F090003AE0FBA3E0FAA3E0F990003B
:10A27E003EE0F582758300122430FF601090003DA1
:0DA28E00E0FD12A6AD90003EE004F080D689
:01A29B0022A0
:0EA1CC0090001DEBF0A3EAF0A3E9F0A3EDF084
:10A1DA00E4900022F0900020E0FF900022E0FEC30D
:10A1EA009F502490001DE0FBA3E0FAA3E0F98E82C1
:10A1FA00758300122430FF900021E0FD12A6AD9075
:07A20A000022E004F080CE09
:01A21100222A
:0B9EBB0090003AEBF0A3EAF0A3E9F0FE
:109EC60012000E90003DEFF0E4900236F090003D57
:109ED600E0FF900236E0C39F503390003AE0FBA3C8
:109EE600E0FAA3E0F9122417FF12A46690003BE4FF
:109EF60075F0011224F8E4FFEFC394647480948033
:0D9F060050030F80F3900236E004F080C09D
:019F1300222B
:109F140078107C007D017BFF7A3D79C47E007F0D43
:109F24001223F1900144E07022C2877B017A007908
:109F340015128380C29C7B017A007910E490002181
:109F4400F07D0D12A1CCD29CD28722C287E490006E
:109F540010F07B017A0079101283807BFF7A3979C3
:069F640063129EBBD287D0
:019F6A0022D4
:05416B0090002BEFF0B5
:10417000782C7C007D017BFF7A3D79D17E007F0623
:104180001223F1C287900144E060030243FB7B01EC
:104190007A00792CFD12A26090002BE01225B64126
:1041A000D95541F95642195742395842595942791D
:1041B0005A42995B42595D42B95E42D95F42F96009
:1041C0004319614339AA4359AB4379AC4398AD4392
:1041D000B7AE43D6AF000043F87BFF7A39796A1255
:1041E000000E900032EFF0E4FDFF12A6AD12A6A47F
:1041F0007BFF7A39796A0243F37BFF7A39797B1244
:10420000000E900032EFF0E4FDFF12A6AD12A6A45E
:104210007BFF7A39797B0243F37BFF7A39799012FD
:10422000000E900032EFF0E4FDFF12A6AD12A6A43E
:104230007BFF7A3979900243F37BFF7A3979AA12AE
:10424000000E900032EFF0E4FDFF12A6AD12A6A41E
:104250007BFF7A3979AA0243F37BFF7A3979C3125B
:10426000000E900032EFF0E4FDFF12A6AD12A6A4FE
:104270007BFF7A3979C30243F37BFF7A3979E31202
:10428000000E900032EFF0E4FDFF12A6AD12A6A4DE
:104290007BFF7A3979E30243F37BFF7A3979F412B1
:1042A000000E900032EFF0E4FDFF12A6AD12A6A4BE
:1042B0007BFF7A3A79000243F37BFF7A3A790B125B
:1042C000000E900032EFF0E4FDFF12A6AD12A6A49E
:1042D0007BFF7A3A790B0243F37BFF7A3A7920121B
:1042E000000E900032EFF0E4FDFF12A6AD12A6A47E
:1042F0007BFF7A3A79200243F37BFF7A3A794D12B9
:10430000000E900032EFF0E4FDFF12A6AD12A6A45D
:104310007BFF7A3A794D0243F37BFF7A3A796A124E
:10432000000E900032EFF0E4FDFF12A6AD12A6A43D
:104330007BFF7A3A796A0243F37BFF7A3A798712F4
:10434000000E900032EFF0E4FDFF12A6AD12A6A41D
:104350007BFF7A3A79870243F37BFF7A3A79A61298
:10436000000E900032EFF0E4FDFF12A6AD12A6A4FD
:104370007BFF7A3A79A60243F37BFF7A3A79BF1240
:10438000000E900032EFF0E4FDFF12A6AD12A6A4DD
:104390007BFF7A3A79BF805B7BFF7A3A79D1120052
:1043A0000E900032EFF0E4FDFF12A6AD12A6A47B42
:1043B000FF7A3A79D1803C7BFF7A3A79E612000E97
:1043C000900032EFF0E4FDFF12A6AD12A6A47BFF31
:1043D0007A3A79E6801D7BFF7A3A79F612000E90E0
:1043E0000032EFF0E4FDFF12A6AD12A6A47BFF7A27
:1043F0003A79F67D0112A260D28722C28790002B03
:10440000E01225B644475544505644595744625823
:10441000446B5944735A447B5B44835D448B5E44D4
:10442000935F449B6044A36144ABAA44B3AB44BBD9
:10443000AC44C3AD44CBAE44D3AF44DBB444E3B5EA
:1044400044EBB6000044F47BFF7A3B790C0244F164
:104450007BFF7A3B79230244F17BFF7A3B793F0271
:1044600044F17BFF7A3B795F0244F17BFF7A3B7931
:104470007F807E7BFF7A3B79A580767BFF7A3B79D4
:10448000BC806E7BFF7A3B79CF80667BFF7A3B797D
:10449000F5805E7BFF7A3C791080567BFF7A3C7911
:1044A00043804E7BFF7A3C796780467BFF7A3C797C
:1044B0008B803E7BFF7A3C79B180367BFF7A3C79FA
:1044C000D1802E7BFF7A3C79EA80267BFF7A3D798A
:1044D00006801E7BFF7A3D791C80167BFF7A3D7932
:1044E00038800E7BFF7A3D795780067BFF7A3D79D5
:0644F00077129EBBD2878B
:0144F60022A3
:0E64F900900010EFF0A3EBF0A3EAF0A3E9F09F
:1065070078147C007D017BFF7A3D79D77E007F067A
:106517001223F1C287900144E060030265BD900039
:1065270010E024A560401460030265BA12A2587BEC
:10653700FF7A3D799412000E90001AEFF090001147
:10654700E0FBA3E0FAA3E0F912000E90001AE02F97
:1065570004F0E4FDFF12A6AD90001A12A6A77BFF78
:106567007A3D7994803812A2587BFF7A3D799D1243
:10657700000E90001AEFF0900011E0FBA3E0FAA3E1
:10658700E0F912000E90001AE02F04F0E4FDFF126C
:10659700A6AD90001A12A6A77BFF7A3D799D7D01D3
:1065A70012A260900011E0FBA3E0FAA3E0F97D01DD
:1065B70012A260D28722C287900010E024A560173C
:1065C700146003026658781B7C007D017BFF7A3DCF
:1065D70079A6122843803C781B7C007D017BFF7ADB
:1065E7003D79B6122843900011E0FBA3E0FAA3E03F
:1065F700F912000E90001AEFF024FFFFE434FFFEBB
:10660700900011E0FBA3E0FAA3E0F98F828E83E408
:1066170012246F900011E0F9A3E0FAA3E090005D67
:10662700C9F0A3EAF0A3E9F07B017A00791B129D78
:106637002A90005D74FFF0A3743DF0A374B4F07B5F
:10664700017A00791B129D2A7B017A00791B129E21
:03665700BBD2872C
:01665A00221D
:100026000A20434F4E5452415345D1412041435437
:1000360055414C2056454E4349444120444542458E
:100046002052454E4F564152204645434841205680
:10005600454E43494D49454E544F200A0040232101
:10006600246046625E262A003A5B3C253F58545D72
:100076003D29000D0A0A25733E20002563002564EC
:10008600000D0A0A2041435455414C2049445F4320
:100096004C49454E54453D25730D0A0A000D0A0A82
:1000A60020444947495445205355204E5545564FFF
:1000B6002049445F434C49454E54453D000D0A0ACC
:1000C600204441544F204D4F444946494341444FF3
:1000D6002049445F434C49454E54453D25730D0A1E
:1000E6000A000D0A0A2041435455414C20434F440F
:1000F6005F5041524B3D25730D0A0A000D0A0A2036
:10010600444947495445205355204E5545564F209E
:10011600434F445F5041524B3D000D0A0A20444173
:10012600544F204D4F444946494341444F20434F85
:10013600445F5041524B3D25730D0A0A000D0A0AD1
:100146002041435455414C205449454D504F5F473B
:1001560052414349413D25730D0A0A000D0A0A2002
:10016600444947495445205355204E5545564F203E
:100176005449454D504F5F4752414349413D000D5B
:100186000A0A204441544F204D4F444946494341B1
:10019600444F205449454D504F5F475241434941D2
:1001A6003D25730D0A0A000D0A0A204143545541A4
:1001B6004C2053494E5F434F42524F20494E4841CF
:1001C60042494C495441444F3D25730D0A0A000DDE
:1001D6000A0A2041435455414C2053494E5F434F30
:1001E60042524F204752415449533D25730D0A0A46
:1001F600000D0A0A2041435455414C2053494E5F95
:10020600434F42524F20475241544953205920539D
:10021600414C49444120454C204D49534D4F2044C3
:1002260049413D25730D0A0A000D0A0A2044494733
:10023600495445205355204E5545564F2053494E57
:100246005F434F42524F3D000D0A0A204143545529
:10025600414C20444542554720494E484142494C6D
:10026600495441444F3D25730D0A0A000D0A0A20E0
:1002760041435455414C204445425547204841424C
:10028600494C495441444F3D25730D0A0A000D0A55
:100296000A2044494749544520454C204E55455669
:1002A6004F2045535441444F204445204445425530
:1002B600473D000D0A0A2041435455414C205553F1
:1002C600455F4C505220494E484142494C495441A1
:1002D600444F3D25730D0A0A000D0A0A2041435476
:1002E60055414C205553455F4C5052204841424998
:1002F6004C495441444F3D25730D0A0A000D0A0A24
:100306002044494749544520454C204E5545564FB3
:100316002045535441444F204445205553455F4C96
:1003260050523D000D0A0A2041435455414C20438A
:100336004F4D5041524143494F4E20414354495637
:100346004120494E484142494C495441444F3D257C
:10035600730D0A0A000D0A0A2041435455414C20E8
:10036600434F4D5041524143494F4E20414354491A
:1003760056412020484142494C495441444F3D256D
:10038600730D0A0A000D0A0A2044494749544520BC
:10039600454C204E5545564F2045535441444F2019
:1003A600444520434F4D5041524143494F4E204111
:1003B6004354495641203D000D0A0A2041435455F5
:1003C600414C20434F4D5041524143494F4E2041ED
:1003D60043544956412020494E484142494C4954CC
:1003E60041444F3D25730D0A0A000D0A0A2050416B
:1003F6004E54414C4C41204C434420484142494CC8
:1004060049544144413D25730D0A0A000D0A0A204C
:1004160050414E54414C4C4120524153504245525A
:1004260052592020484142494C49544144413D25B6
:10043600730D0A0A000D0A0A20444947495445200B
:10044600454C204E5545564F2045535441444F2068
:100456004445204C412050414E54414C4C41203D96
:10046600000D0A0A205041534120504F522043416B
:100476004A4120504152412056414C494441522064
:100486004443544F3D25730D0A0A000D0A0A2041C4
:10049600504C494341204445534355454E544F3DE6
:1004A60025730D0A0A000D0A0A2044494749544596
:1004B60020454C204E5545564F2045535441444FF8
:1004C600204445204443544F203D000D0A0A204154
:1004D600435455414C20414E544950415353424197
:1004E600434B204D454E5355414C20494E484142C1
:1004F600494C495441444F3D25730D0A0A000D0AE3
:100506000A2041435455414C20414E5449504153D1
:10051600534241434B204D454E5355414C20484193
:1005260042494C495441444F3D25730D0A0A000D7A
:100536000A0A2044494749544520454C204E554512
:10054600564F2045535441444F20444520414E5474
:1005560049504153534241434B204D454E5355411B
:100566004C3D000D0A0A2041435455414C20414E52
:100576005449504153534241434B20204D454E531D
:1005860055414C20484142494C495441444F3D2530
:10059600730D0A0A000D0A0A2041435455414C20A6
:1005A600414444524553535F484947485F424F418F
:1005B60052443D25730D0A0A000D0A0A2044494794
:1005C600495445204C41204E55455641204144440E
:1005D600524553535F484947485F424F4152443D55
:1005E600000D0A0A2041435455414C20484F5241C0
:1005F60052494F20494E484142494C495441444F83
:100606003D25730D0A0A000D0A0A2041435455413F
:100616004C20484F524152494F20484142494C498B
:100626005441444F3D25730D0A0A000D0A0A204421
:10063600494749544520454C204E5545564F20457F
:10064600535441444F20444520484F524152494F4C
:100656003D000D0A0A2044696769746520486F7277
:10066600612030383A3030204D696E75746F7320D2
:1006760044657364653A20000D0A0A20486F72616A
:100686002050726F6772616D6164612044657364A6
:10069600653A200025633A000D0A0A204469676915
:1006A600746520486F72613A4D696E75746F732078
:1006B60048617374613A20000D0A0A20486F72611E
:1006C6002050726F6772616D616461204861737456
:1006D600613A20000D0A2044657364652020486154
:1006E6007374610D0A002025630025632020200015
:1006F6000D0A0A20446967697465206C6F7320646B
:1007060069617320612070726F6772616D6172201A
:100716004C756E6573203D20322C20004D6172743D
:100726006573203D20332C204D696572636F6C65BF
:1007360073203D20342C204A7565766573203D2054
:10074600352C2000566965726E6573203D20362C67
:100756002053616261646F203D20372C20446F6D09
:10076600696E676F203D2031203A20000D0A0A206D
:10077600446961732050726F6772616D61646F7353
:10078600203A2000204C756E6573003D2025632CB1
:1007960000204D617274657300204D696572636F48
:1007A6006C657300204A7565766573002056696529
:1007B600726E6573002053616261646F0020446F3E
:1007C6006D696E676F003D20256300204C756E6570
:1007D60073203D2050726F6772616D61646F0D0A00
:1007E60000204C756E6573203D204E6F2070726F31
:1007F6006772616D61646F0D0A00204D61727465E8
:1008060073203D2050726F6772616D61646F0D0ACF
:1008160000204D6172746573203D204E6F2070720A
:100826006F6772616D61646F0D0A00204D696572B4
:10083600636F6C6573203D2050726F6772616D61E6
:10084600646F0D0A00204D696572636F6C657320D5
:100856003D204E6F2070726F6772616D61646F0D1F
:100866000A00204A7565766573203D2050726F67D1
:1008760072616D61646F0D0A00204A756576657355
:10088600203D204E6F2070726F6772616D61646FDC
:100896000D0A0020566965726E6573203D20507200
:1008A6006F6772616D61646F0D0A0020566965722B
:1008B6006E6573203D204E6F2070726F6772616D9A
:1008C60061646F0D0A002053616261646F203D20F0
:1008D60050726F6772616D61646F0D0A002053611B
:1008E6006261646F203D204E6F2070726F67726187
:1008F6006D61646F0D0A0020446F6D696E676F202D
:100906003D2050726F6772616D61646F0D0A002041
:10091600446F6D696E676F203D204E6F2070726F59
:100926006772616D61646F0D0A000D0A0A204469E1
:100936006769746520656C206E756D65726F2064DD
:10094600656C20486F726172696F20612070726FEA
:100956006772616D6172203D20000D0A0A20507297
:100966006F6772616D617220736567756E646F2063
:10097600486F726172696F2073693D283129206E54
:100986006F3D2830293D20000D0A0A204143545569
:10099600414C2046454348412056454E43494D4922
:1009A600454E544F2050415353574F52443A2573A6
:1009B6000D0A0A000D0A0A2F3E496420526567692E
:1009C6007374726F3A002573000D0A0A2F3E506148
:1009D6007373776F72643A000D0A0A2044494749D7
:1009E6005445204C41204E554556412046454348E6
:1009F600412044452056454E43494D49454E544FA6
:100A06003D000D0A0A2025730D0A0A000D0A0A2068
:100A16002558000D0A0A2041435455414C204645AD
:100A26004348412044452056454E43494D49454E8D
:100A3600544F2050524F4752414D414441203D258D
:100A4600730D0A0A000D0A206E756D65726F2064BB
:100A5600656C20486F726172696F202070726F67D3
:100A660072616D61646F203D2025630D0A000D0AD9
:100A76002020484F524152494F20484142494C4953
:100A86005441444F20203D204F4E0D0A000D0A20B0
:100A9600446961732050726F6772616D61646F7330
:100AA6000D0A000D0A2020534547554E444F204855
:100AB6004F524152494F20484142494C49544144C2
:100AC6004F20203D204F4E0D0A000D0A205345476A
:100AD600554E444F20484F524152494F20484142BB
:100AE600494C495441444F20203D204F46460D0A6B
:100AF600000D0A2020484F524152494F204841429A
:100B0600494C495441444F20203D204F46460D0A4A
:100B1600000D0A2049445F434C49454E54455F50F9
:100B2600524F4752414D41444F203D2025730D0AF7
:100B3600000D0A20434F445F5041524B5F50524FC5
:100B46004752414D41444F203D2025730D0A000D6B
:100B56000A205449454D504F5F4752414349412071
:100B660050524F4752414D41444F203D2025730D71
:100B76000A000D0A2053494E5F434F42524F204808
:100B86004142494C495441444F203D204F4646205E
:100B96000D0A000D0A2053494E5F434F42524F2023
:100BA6003D204F4E0D0A000D0A2050524F4752412C
:100BB6004D41444F204445425547203D204F4E0D60
:100BC6000A000D0A2050524F4752414D41444F20D2
:100BD6004445425547203D204F46460D0A000D0A22
:100BE600205553455F4C5052203D204F46460D0A36
:100BF600000D0A205553455F4C5052203D204F4E64
:100C06000D0A000D0A0A2020434F4D504152414320
:100C1600494F4E20414354495641203D204F4646B8
:100C26000D0A000D0A0A20434F4D504152414349D7
:100C36004F4E2041435449564120203D204F4E0DF2
:100C46000A000D0A2050414E54414C4C41204C4361
:100C5600442050524F4752414D4144410D0A000D28
:100C66000A2050414E54414C4C412052415350426F
:100C760045525259202050524F4752414D4144410E
:100C86000D0A000D0A0A2020414E54495041535383
:100C96004241434B204D454E5355414C203D204F3C
:100CA60046460D0A000D0A0A2020414E544950417D
:100CB60053534241434B204D454E5355414C203DE5
:100CC600204F4E0D0A0041435455414C20414444A7
:100CD600524553535F484947485F424F415244206B
:100CE60050524F4752414D414441203D2025730DFE
:100CF6000A000D0A2041435455414C2046454348BD
:100D0600412044452056454E43494D49454E544F92
:100D16002050524F4752414D414441203D25730DCD
:100D26000A000D0A2049445F434C49454E5445206C
:100D36002020202D2D2D20434D4420302049646550
:100D46006E746966696361646F722064656C2063A2
:100D56006C69656E7465206D6178696D6F203235DA
:100D660035000D0A20434F445F5041524B2020204E
:100D76002020202D2D2D20434D44203120456C2050
:100D86006E756D65726F2064656C20706172717529
:100D960065616465726F206D6178696D6F203235AB
:100DA60035000D0A20545F47524143494120202017
:100DB6002020202D2D2D20434D44203220546965BE
:100DC6006D706F2073696E20636F62726F203030B2
:100DD6002C20206D6178696D6F20323535000D0A43
:100DE6002053494E5F434F42524F20202020202D52
:100DF6002D2D20434D44203320496E686162696C75
:100E0600697461646F3D20302C2047726174697388
:100E16003D2031202C20477261746973207920733C
:100E2600616C69646120656C206D69736D6F206407
:100E360069613D2032000D0A204445425547202075
:100E4600202020202020202D2D2D20434D442034ED
:100E560020486162696C69746172203D20312C20E2
:100E6600496E686162696C69746172203D20300068
:100E76000D0A205553455F4C50522020202020203B
:100E8600202D2D2D20434D44203520486162696C6C
:100E960069746172203D20312C20496E6861626957
:100EA6006C69746172203D2030000D0A20434F4D5D
:100EB6005041524143494F4E5F41435449564120A8
:100EC6002D2D2D20434D44203620486162696C69E2
:100ED600746172203D20312C20496E686162696C14
:100EE60069746172203D2030000D0A205449504F2C
:100EF6005F50414E54414C4C4120202020202D2D46
:100F06002D20434D442037202830292070616E74EF
:100F1600616C6C61206C6364202073657269652066
:100F260028312920726173706265727279206F2090
:100F3600626C7565746F6F7468000D0A20444354C3
:100F46004F5F504153415F43414A412020202020BA
:100F56002D2D2D20434D4420382028302920706126
:100F6600736120706F722063616A612028312920C5
:100F760061706C69636120656C2064657363756577
:100F86006E746F000D0A205553455F4150425F4D08
:100F9600454E5355414C202020202D2D2D20434DCC
:100FA60044203920486162696C69746172203D2071
:100FB600312C20496E686162696C69746172203DEA
:100FC6002030000D0A20414444524553535F48499E
:100FD60047485F424F415244202D2D2D20434D441A
:100FE600203130204C6120646972656363696F6EDD
:100FF60020616C74612064656C20626F617264208C
:1010060064656C206E756D65726F203520616C208D
:10101600392073696E6F207365207573612064656E
:10102600626520697220656E2030000D0A20484FE7
:10103600524152494F2020202020202020202020CD
:10104600202D2D2D20434D442031312050726F67C5
:10105600616D6120313020686F726172696F732033
:1010660064656C203120616C203130000D0A2056F9
:1010760045525F50524F4752414D4143494F4E20D2
:1010860020202D2D2D20434D44203132204D7565D5
:1010960073747261206C612070726F6772616D612A
:1010A60063696F6E000D0A20415955444120202086
:1010B6002020202020202D2D2D20434D442031336B
:1010C600204D756573747261206C6F7320636F6D4C
:1010D600616E646F73000D0A2053414C4952202003
:1010E600202020202020202D2D2D20434D4420314E
:1010F600342053616C69722064652070726F677268
:10110600616D6163696F6E000D0A0A5369737465D8
:101116006D612064652050726F6772616D616369ED
:101126006F6E207665726966696361646F72206CA2
:10113600696E74656368200D0A0D0A000D0A436F17
:101146006D616E646F206E6F2065786973746520BB
:1011560027257327003A5B3C253F58545D3D2900FF
:10116600232A594A41494D4563616D696C744B00A8
:1011760077727A32357136382D393166532E400002
:0C118600200D0A00200D0A00220D0A00B6
:1086BF005401C72F00000000000000000000000060
:1086CF00000000000000004901BE61646D696E008A
:1086DF00000000603001DB3000003100003200008C
:1086EF00330000340000350000360000370000383A
:1086FF0000003900003130003131003132003133A8
:07870F000031340031350098
:0B527600900071EBF0A3EAF0A3E9F058
:1052810078767C007D017BFF7A11795B7E007F0B54
:105291001223F178817C007D017BFF7A1179667E92
:1052A100007F101223F178917C007D017BFF7A1140
:1052B10079767E007F101223F17B017A0079AC7F31
:1052C100507E03129D957B017A0079AC12873CEFE9
:1052D1003395E0FEEF64014E60177BFF7A0079267B
:1052E10012354B78767C007D017BFF7A00796380F3
:1052F1000C78767C007D017BFF7A00796E12284361
:10530100900071E0FBA3E0FAA3E0F912000E900017
:1053110074EFF0E4A3F0900075E0FFC3940A748089
:1053210094804003025479900071E0FBA3E0FAA35A
:10533100E0F98F82758300122430FD7C0074762F92
:10534100F582E43400F583E02DFFEC339001BAF0EF
:10535100A3EFF07E00540FFFA3EEF0A3EFF0700B6C
:10536100E004F070069001BCE004F09001BCE0FEA6
:10537100A3E02480F58274003EF583E07E002DFFDA
:10538100EE3C9001BAF0A3EFF07E00540FFFA3EEC4
:10539100F0A3EFF0700BE004F070069001BCE004A4
:1053A100F09001BCE0FEA3E02490F58274003EF58C
:1053B10083E0FF9001BAE0FEA3E06FFF9001BAEE37
:1053C100F0FEA3EFF0D394FFEE940040059001BAF4
:1053D100E4F09001BAE0FEA3E0FFC3947AEE9400FA
:1053E1004015D3EF94FFEE9400500CEF547AFF90E8
:1053F10001BAE4F0A3EFF0C39001BBE09430900157
:10540100BAE09400500CA3E02440F09001BAE034DB
:1054110000F09001BAE0FEA3E0FFC3945BEE9400BC
:105421004014D3EF9460EE9400500BE02407F09009
:1054310001BAE03400F09001BAE0FEA3E0FFC394AA
:105441003AEE94004014D3EF9440EE9400500BE0F8
:1054510024F9F09001BAE034FFF09001BAA3E0FF23
:10546100900075E024A1F582E43400F583EFF0901B
:105471000075E004F0025317E49000ABF07B017A71
:035481000079A10E
:015484002205
:0B9DFB0090005AEBF0A3EAF0A3E9F09F
:109E0600E4900060F0900060E0FFC39410748094CA
:109E1600805041EF75F003A424DBF9740135F0FAA4
:109E26007B01785D7C007D01122843785D7C007D96
:109E36000190005AE0FBA3E0FAA3E0F912275AEFDB
:109E46003395E04F7006900060E0FF22900060E0DE
:069E560004F080B17FFF63
:019E5C0022E3
:08A32300E0FBA3E0FAA3E0F95E
:0BA32B00900071EBF0A3EAF0A3E9F052
:10A3360078747C007D017B017A0179BE122843780E
:10A34600747C007D01900071E0FBA3E0FAA3E0F9C4
:0EA3560012275AEF3395E04F7002FF227FFF6F
:01A3640022D6
:06A3E7007B017A007932CF
:0BA3ED00900071EBF0A3EAF0A3E9F090
:10A3F80078747C007D017BFF7A1179867E007F046A
:10A408001223F190007B7401F0A37400F0A374741C
:0FA41800F0900071E0FBA3E0FAA3E0F9027F36B9
:1092A300E0FBA3E0FAA3E02FF9EA3EFAE92401F98F
:0392B300E43AFAA0
:0B92B60090005AEBF0A3EAF0A3E9F0EF
:1092C100785D7C007D017BFF7A11798A7E007F04C5
:1092D1001223F178617C007D017BFF7A11798E7E0A
:1092E100007F041223F190005AE0FBA3E0FAA3E00F
:1092F100F9122417FFB4200C90005BE475F0011201
:1093010024F880E2EF90007BB4220D7401F0A37485
:1093110000F0A37461F080167401F0A37400F0A34F
:10932100745DF090005AE0FBA3E0FAA3E0F9127F2C
:019331003605
:019332002218
:10A82A009000B37401F0A37401F0A374C7F07BFF26
:07A83A007A00797902354B29
:089901007A0079777B01E4FD97
:0E990900900085EBF0A3EAF0A3E9F0A3EDF0E7
:1099170012A907900085E0FBA3E0FAA3E0F9EF1294
:10992700245D900088E0701D900085E0FBA3E0FABD
:10993700A3E0F91224179000B3F07BFF7A00798136
:1099470012354B80057F2A12A466900085E0FBA3A1
:10995700E0FAA3E0F9122417FF7E00900086E47571
:10996700F0011224F8900085E0FBA3E0FAA3E0F9E8
:09997700E412245DEF640D709709
:0199800022C4
:1087F700E4FDFC7FA812A4E57E00900064EEF0A3E0
:10880700EFF09000B374FFF0A37400F0A37484F04A
:10881700A3EEF0A3EFF07B017A00795A1235459069
:1088270000B37401F0A37400F0A3745AF07BFF7ACD
:1088370000798712354B7BFF7A0079A312354B7A83
:1088470000795A1299057B017A00795A1280F890BB
:108857000064EEF0A3EFF0FBE4FDFC7FA8129F821B
:10886700E4FDFC7FA812A4E57E00900064EEF0A36F
:10887700EFF09000B374FFF0A37400F0A37484F0DA
:10888700A3EEF0A3EFF07B017A00795A12354590F9
:1088970000B37401F0A37400F0A3745AF07BFF7A5D
:0688A7000079C302354B0D
:108507007D027C007FA812A4E57E00900064EEF057
:10851700A3EFF09000B374FFF0A37400F0A374848A
:10852700F0A3EEF0A3EFF07B017A00795A123545FC
:108537009000B37401F0A37400F0A3745AF07BFFAA
:108547007A0079E812354B7BFF7A01790212354BB5
:108557007B017A00795AE4FD1299097B017A007947
:108567005A1280F8900064EEF0A3EFF0FB7D027CD6
:10857700007FA8129F827D027C007FA812A4E57E5F
:1085870000900064EEF0A3EFF09000B374FFF0A347
:108597007400F0A37484F0A3EEF0A3EFF07B017AEC
:1085A70000795A1235459000B37401F0A37400F0B6
:0D85B700A3745AF07BFF7A01792002354B46
:1085C4007D047C007FA812A4E57E00900064EEF098
:1085D400A3EFF09000B374FFF0A37400F0A37484CD
:1085E400F0A3EEF0A3EFF07B017A00795A1235453F
:1085F4009000B37401F0A37400F0A3745AF07BFFED
:108604007A01794312354B7BFF7A01796212354B3B
:108614007B017A00795AE4FD1299097B017A007989
:108624005A1280F8900064EEF0A3EFF0FB7D047C16
:10863400007FA8129F827D047C007FA812A4E57E9F
:1086440000900064EEF0A3EFF09000B374FFF0A389
:108654007400F0A37484F0A3EEF0A3EFF07B017A2E
:1086640000795A1235459000B37401F0A37400F0F8
:0D867400A3745AF07BFF7A01798502354B23
:106A41007D067C007FA812A4E57E00900064EEF034
:106A5100A3EFF09000B374FFF0A37400F0A374846B
:106A6100F0A3EEF0A3EFF07B017A00795A123545DD
:106A7100900064E07002A3E070159000B304F0A3ED
:106A81007400F0A3745AF07BFF7A0179AD803590E0
:106A91000064E07004A3E0640170159000B304F099
:106AA100A37400F0A3745AF07BFF7A0179D58014A6
:106AB1009000B37401F0A37400F0A3745AF07BFF4B
:106AC1007A0179F712354B7BFF7A02792F12354B18
:106AD1007B017A00795AE4FD1299097B017A0079E8
:106AE1005A1280F8900064EEF0A3EFF0FB7D067C73
:106AF100007FA8129F827D067C007FA812A4E57EFC
:106B010000900064EEF0A3EFF09000B374FFF0A3E7
:106B11007400F0A37484F0A3EEF0A3EFF07B017A8C
:106B210000795A123545900064E07002A3E07015B7
:106B31009000B304F0A37400F0A3745AF07BFF7AC1
:106B41000179AD8035900064E07004A3E0640170C8
:106B5100159000B304F0A37400F0A3745AF07BFF06
:106B61007A0179D580149000B37401F0A37400F018
:0D6B7100A3745AF07BFF7A0179F712354BBF
:016B7E0022F4
:10776E007D087C007FA812A4E57E00900064EEF0F8
:10777E00A3EFF09000B374FFF0A37400F0A3748431
:10778E00F0A3EEF0A3EFF07B017A00795A123545A3
:10779E00900064E07002A3E070159000B304F0A3B3
:1077AE007400F0A3745AF07BFF7A02794E80149025
:1077BE0000B37401F0A37400F0A3745AF07BFF7A47
:1077CE0002797212354B7BFF7A02799412354B7B1C
:1077DE00017A00795AE4FD1299097B017A00795AEF
:1077EE001280F8900064EEF0A3EFF0FB7D087C00B1
:1077FE007FA8129F827D087C007FA812A4E57E00E0
:10780E00900064EEF0A3EFF09000B374FFF0A37459
:10781E0000F0A37484F0A3EEF0A3EFF07B017A00E6
:10782E00795A123545900064E07002A3E07015900D
:10783E0000B304F0A37400F0A3745AF07BFF7A0235
:10784E00794E80149000B37401F0A37400F0A37409
:0B785E005AF07BFF7A02797212354B62
:0178690022FC
:10786A007D0A7C007FA812A4E57E00900064EEF0F9
:10787A00A3EFF09000B374FFF0A37400F0A3748434
:10788A00F0A3EEF0A3EFF07B017A00795A123545A6
:10789A00900064E07002A3E070159000B304F0A3B6
:1078AA007400F0A3745AF07BFF7A0279B9801490BD
:1078BA0000B37401F0A37400F0A3745AF07BFF7A4A
:1078CA000279DF12354B7BFF7A03790312354B7B42
:1078DA00017A00795AE4FD1299097B017A00795AF2
:1078EA001280F8900064EEF0A3EFF0FB7D0A7C00B2
:1078FA007FA8129F827D0A7C007FA812A4E57E00E1
:10790A00900064EEF0A3EFF09000B374FFF0A3745C
:10791A0000F0A37484F0A3EEF0A3EFF07B017A00E9
:10792A00795A123545900064E07002A3E070159010
:10793A0000B304F0A37400F0A3745AF07BFF7A0238
:10794A0079B980149000B37401F0A37400F0A374A1
:0B795A005AF07BFF7A0279DF12354BF8
:0179650022FF
:107966007D0C7C007FA812A4E57E00900064EEF0FA
:10797600A3EFF09000B374FFF0A37400F0A3748437
:10798600F0A3EEF0A3EFF07B017A00795A123545A9
:10799600900064E07002A3E070159000B304F0A3B9
:1079A6007400F0A3745AF07BFF7A03792A8014904E
:1079B60000B37401F0A37400F0A3745AF07BFF7A4D
:1079C60003795B12354B7BFF7A03798B12354B7B40
:1079D600017A00795AE4FD1299097B017A00795AF5
:1079E6001280F8900064EEF0A3EFF0FB7D0C7C00B3
:1079F6007FA8129F827D0C7C007FA812A4E57E00E2
:107A0600900064EEF0A3EFF09000B374FFF0A3745F
:107A160000F0A37484F0A3EEF0A3EFF07B017A00EC
:107A2600795A123545900064E07002A3E070159013
:107A360000B304F0A37400F0A3745AF07BFF7A033A
:107A460079BE80149000B37401F0A37400F0A3749F
:0B7A56005AF07BFF7A03795B12354B7E
:017A61002202
:107A62007D0E7C007FA812A4E57E00900064EEF0FB
:107A7200A3EFF09000B374FFF0A37400F0A374843A
:107A8200F0A3EEF0A3EFF07B017A00795A123545AC
:107A9200900064E07002A3E070159000B304F0A3BC
:107AA2007400F0A3745AF07BFF7A0379F08014908B
:107AB20000B37401F0A37400F0A3745AF07BFF7A50
:107AC20004791212354B7BFF7A04793B12354B7BDA
:107AD200017A00795AE4FD1299097B017A00795AF8
:107AE2001280F8900064EEF0A3EFF0FB7D0E7C00B4
:107AF2007FA8129F827D0E7C007FA812A4E57E00E3
:107B0200900064EEF0A3EFF09000B374FFF0A37462
:107B120000F0A37484F0A3EEF0A3EFF07B017A00EF
:107B2200795A123545900064E07002A3E070159016
:107B320000B304F0A37400F0A3745AF07BFF7A033D
:107B420079F080149000B37401F0A37400F0A37470
:0B7B52005AF07BFF7A04791212354BC9
:017B5D002205
:107B5E007D0F7C007FA812A4E57E00900064EEF0FD
:107B6E00A3EFF09000B374FFF0A37400F0A374843D
:107B7E00F0A3EEF0A3EFF07B017A00795A123545AF
:107B8E00900064E07002A3E070159000B304F0A3BF
:107B9E007400F0A3745AF07BFF7A04796780149016
:107BAE0000B37401F0A37400F0A3745AF07BFF7A53
:107BBE0004799112354B7BFF7A0479AC12354B7BED
:107BCE00017A00795AE4FD1299097B017A00795AFB
:107BDE001280F8900064EEF0A3EFF0FB7D0F7C00B6
:107BEE007FA8129F827D0F7C007FA812A4E57E00E5
:107BFE00900064EEF0A3EFF09000B374FFF0A37466
:107C0E0000F0A37484F0A3EEF0A3EFF07B017A00F2
:107C1E00795A123545900064E07002A3E070159019
:107C2E0000B304F0A37400F0A3745AF07BFF7A043F
:107C3E00796780149000B37401F0A37400F0A374FC
:0B7C4E005AF07BFF7A04799112354B4D
:017C59002208
:107C5A007D157C007FA812A4E57E00900064EEF0FA
:107C6A00A3EFF09000B374FFF0A37400F0A3748440
:107C7A00F0A3EEF0A3EFF07B017A00795A123545B2
:107C8A00900064E07002A3E070159000B304F0A3C2
:107C9A007400F0A3745AF07BFF7A0479D1801490AF
:107CAA0000B37401F0A37400F0A3745AF07BFF7A56
:107CBA0005790412354B7BFF7A05793512354B7BF2
:107CCA00017A00795AE4FD1299097B017A00795AFE
:107CDA001280F8900064EEF0A3EFF0FB7D157C00B3
:107CEA007FA8129F827D157C007FA812A4E57E00E2
:107CFA00900064EEF0A3EFF09000B374FFF0A37469
:107D0A0000F0A37484F0A3EEF0A3EFF07B017A00F5
:107D1A00795A123545900064E07002A3E07015901C
:107D2A0000B304F0A37400F0A3745AF07BFF7A0442
:107D3A0079D180149000B37401F0A37400F0A37495
:0B7D4A005AF07BFF7A05796912354B77
:017D5500220B
:10801A007D127C007FA812A4E57E00900064EEF039
:10802A00A3EFF09000B374FFF0A37400F0A374847C
:10803A00F0A3EEF0A3EFF07B017A00795A123545EE
:10804A00900064E07002A3E070069000B30480051B
:10805A009000B37401F0A37400F0A3745AF07BFF8C
:10806A007A05799B12354B7BFF7A0579BF12354B1E
:10807A007B017A00795AE4FD1299097B017A007929
:10808A005A1280F8900064EEF0A3EFF0FB7D127CA8
:10809A00007FA8129F827D127C007FA812A4E57E31
:1080AA0000900064EEF0A3EFF09000B374FFF0A329
:1080BA007400F0A37484F0A3EEF0A3EFF07B017ACE
:1080CA0000795A123545900064E07002A3E0700608
:1080DA009000B30480059000B37401F0A37400F01B
:0D80EA00A3745AF07BFF7A05799B12354B89
:0180F7002266
:10A5CA009000887419F0A37432F0A3744BF0A3744A
:10A5DA0064F0A3747DF0A37496F0A374AFF0A3742F
:10A5EA00C8F0A374E1F0A374FAF0E4A3F07B017A53
:03A5FA000079885D
:01A5FD00223B
:0A6F0700900075EEF0FCA3EFF0FD22
:106F11007FA812A4E57E00900081EEF0A3EFF0902F
:106F210000B374FFF0A37400F0A37484F0A3EEF037
:106F3100A3EFF07B017A007977123545900081E06B
:106F41007002A3E070159000B304F0A37400F0A3E5
:106F51007477F07BFF7A0579E780149000B37401B0
:106F6100F0A37400F0A37477F07BFF7A06790D1219
:106F7100354B7BFF7A06793112354B7B017A0079EB
:106F810077E4FD1299097B017A0079771280F890F4
:106F91000081EEF0A3EFF0900075E0FCA3E0FDAB03
:106FA100077FA8129F82900075E0FCA3E0FD7FA8F7
:106FB10012A4E57E00900081EEF0A3EFF09000B303
:106FC10074FFF0A37400F0A37484F0A3EEF0A3EFB8
:106FD100F07B017A007977123545900081E07002EB
:106FE100A3E09000837018F0A3F09000B304F0A325
:106FF1007400F0A37477F07BFF7A0579E78017E4DA
:10700100F0A304F09000B3F0A37400F0A37477F040
:0F7011007BFF7A06790D12354B900083A3E0FFC9
:01702000224D
:08548500900075EEF0A3EFF0BA
:10548D007BFF7A06795812354B1299017BFF7A060C
:10549D00797E12354B900076E02407FD900075E083
:1054AD003400FC900077E0FB7FA8129F829000767D
:1054BD00E02407FD900075E03400FC7FA812A4E500
:1054CD007BFF7A0079819000B3EFF012354B90009D
:1054DD0076E02408FD900075E03400FC900078E043
:1054ED00FB7FA8129F82900076E02408FD90007546
:1054FD00E03400FC7FA812A4E57BFF7A06799A9030
:10550D0000B3EFF012354B900076E02409FD9000CA
:10551D0075E03400FC90007AE0FB7FA8129F82902A
:10552D000076E02409FD900075E03400FC7FA812A0
:10553D00A4E57BFF7A0079819000B3EFF012354B33
:10554D00900076E0240AFD900075E03400FC900098
:10555D007BE0FB7FA8129F82900076E0240AFD90ED
:10556D000075E03400FC7FA812A4E57BFF7A00797A
:10557D00819000B3EFF012354B7BFF7A06799E12C6
:10558D00354B1299017BFF7A0679BE12354B90008F
:10559D0076E0240BFD900075E03400FC900077E080
:1055AD00FB7FA8129F82900076E0240BFD90007582
:1055BD00E03400FC7FA812A4E57BFF7A007981908E
:1055CD0000B3EFF012354B900076E0240CFD900007
:1055DD0075E03400FC900078E0FB7FA8129F82906C
:1055ED000076E0240CFD900075E03400FC7FA812DD
:1055FD00A4E57BFF7A06799A9000B3EFF012354B54
:10560D00900076E0240DFD900075E03400FC9000D4
:10561D007AE0FB7FA8129F82900076E0240DFD902A
:10562D000075E03400FC7FA812A4E57BFF7A0079B9
:10563D00819000B3EFF012354B900076E0240EFD13
:10564D00900075E03400FC90007BE0FB7FA8129F7A
:10565D0082900076E0240EFD900075E03400FC7F12
:10566D00A812A4E57BFF7A0079819000B3EFF002D8
:02567D00354BAB
:08702100900088EEF0A3EFF0EF
:107029007BFF7A0679DA12354B900089E02407FD57
:10703900900088E03400FC7FA812A4E57BFF7A0663
:1070490079EC9000B3EFF012354B900089E02408F9
:10705900FD900088E03400FC7FA812A4E57BFF7A4C
:1070690006799A9000B3EFF012354B900089E0242D
:1070790009FD900088E03400FC7FA812A4E57BFF9D
:107089007A0079819000B3EFF012354B900089E0D6
:10709900240AFD900088E03400FC7FA812A4E57B57
:1070A900FF7A0679F09000B3EFF012354B90008922
:1070B900E0240BFD900088E03400FC7FA812A4E5D1
:1070C9007BFF7A0079819000B3EFF012354B900085
:1070D90089E0240CFD900088E03400FC7FA812A40C
:1070E900E57BFF7A06799A9000B3EFF012354B9061
:1070F9000089E0240DFD900088E03400FC7FA8128F
:10710900A4E57BFF7A0079819000B3EFF012354B4B
:10711900900089E0240EFD900088E03400FC7FA8EF
:1071290012A4E57BFF7A0079819000B3EFF0023574
:017139004B0A
:084DA500900075EEF0A3EFF0A1
:104DAD007BFF7A0679F612354B7BFF7A0779221253
:104DBD00354B7BFF7A07794A12354B7B017A0079A7
:104DCD0077E4FD1299097BFF7A07797212354BE46E
:104DDD00900082F0900082E0FFC39408748094806C
:104DED00400302505B74772FF582E43400F583E0C5
:104DFD00900083F0643270437BFF7A07798A123515
:104E0D004B900076E02401FD900075E03400FC7BB2
:104E1D00327FA8129F82900076E02401FD900075EC
:104E2D00E03400FC7FA812A4E5900081EFF07BFF39
:104E3D007A0779919000B3F012354B900082E024FF
:104E4D0077F582E43400F583E0900083F0643370ED
:104E5D00437BFF7A07799712354B900076E0240259
:104E6D00FD900075E03400FC7B337FA8129F82908B
:104E7D000076E02402FD900075E03400FC7FA8125E
:104E8D00A4E5900081EFF07BFF7A0779919000B354
:104E9D00F012354B900082E02477F582E43400F572
:104EAD0083E0900083F0643470437BFF7A07799F31
:104EBD0012354B900076E02403FD900075E0340030
:104ECD00FC7B347FA8129F82900076E02403FD9036
:104EDD000075E03400FC7FA812A4E5900081EFF08E
:104EED007BFF7A0779919000B3F012354B900082D9
:104EFD00E02477F582E43400F583E0900083F064DC
:104F0D003570437BFF7A0779AA12354B900076E016
:104F1D002404FD900075E03400FC7B357FA8129FC2
:104F2D0082900076E02404FD900075E03400FC7F53
:104F3D00A812A4E5900081EFF07BFF7A077991909C
:104F4D0000B3F012354B900082E02477F582E43403
:104F5D0000F583E0900083F0643670437BFF7A07A1
:104F6D0079B212354B900076E02405FD900075E086
:104F7D003400FC7B367FA8129F82900076E02405DA
:104F8D00FD900075E03400FC7FA812A4E59000812F
:104F9D00EFF07BFF7A0779919000B3F012354B90CB
:104FAD000082E02477F582E43400F583E0900083FD
:104FBD00F0643770437BFF7A0779BB12354B900055
:104FCD0076E02406FD900075E03400FC7B377FA869
:104FDD00129F82900076E02406FD900075E034006B
:104FED00FC7FA812A4E5900081EFF07BFF7A077992
:104FFD00919000B3F012354B900082E02477F5824A
:10500D00E43400F583E0900083F0643170377BFF6A
:10501D007A0779C312354B900075E0FCA3E0FD7B58
:10502D00317FA8129F82900075E0FCA3E0FD7FA860
:10503D0012A4E5900081EFF07BFF7A0779CC900008
:0E504D00B3F012354B900082E004F0024DE10A
:01505B002232
:086DDF00900088EEF0A3EFF034
:106DE7002401FDE43EFC7FA812A4E590008AEFF0A1
:106DF70064327BFF70067A0779D180047A0779E7D6
:106E070012354B900089E02402FD900088E03400A1
:106E1700FC7FA812A4E590008AEFF064337BFF7033
:106E2700067A08790080047A08791712354B9000A2
:106E370089E02403FD900088E03400FC7FA812A4B9
:106E4700E590008AEFF064347BFF70067A087931A9
:106E570080047A08794B12354B900089E02404FDB1
:106E6700900088E03400FC7FA812A4E590008AEF28
:106E7700F064357BFF70067A08796880047A0879B0
:106E87007F12354B900089E02405FD900088E0349F
:106E970000FC7FA812A4E590008AEFF064367BFF20
:106EA70070067A08799980047A0879B112354B907F
:106EB7000089E02406FD900088E03400FC7FA812DA
:106EC700A4E590008AEFF064377BFF70067A0879B3
:106ED700CC80047A0879E312354B900088E0FCA354
:106EE700E0FD7FA812A4E590008AEFF064317BFFF4
:0F6EF70070067A0879FD80047A09791512354BF7
:016F06002268
:1067BC0012A5CA78647C007D011228437BFF7A09FC
:1067CC00793012354B7B017A00795AE4FD12990924
:1067DC007B017A00795A1280F8EF14900074F0E083
:1067EC002464F582E43400F583E0FF7E0090006FB2
:1067FC00EEF0A3EFF0A3EEF0A3EFF0900070E02426
:10680C000FF090006FE03400F0E0FEA3E0FF126F99
:10681C0007900071E0FFA3E090006FCFF0A3EFF0C2
:10682C009000747401F0900074E0FFC394087480BD
:10683C009480501C900070E02FFD90006FE03400AD
:10684C00FC7BFF7FA8129F82900074E004F080D63E
:10685C00900071E0FEA3E0FF90006FEEF0A3EFF06C
:10686C00124DA590006FE0FEA3E0FF1254857BFF54
:10687C007A09796012354B7B017A00795AE4FD1262
:10688C0099097B017A00795A1280F8900073EFF025
:10689C00FB900070E02410FD90006FE03400FC7F52
:1068AC00A8129F82900070E02410FD90006FE034DD
:1068BC0000FC7FA812A4E5900073EFF09000B37475
:1068CC00FFF0A37400F0A37484F0A3EFF07B017AC3
:1068DC0000795A123545900073E0640170169000EF
:1068EC0070E0240AF090006FE03400F0E0FEA3E0CA
:0468FC00FF125485AE
:016900002274
:10567F007B017A00795A7F507E03129D95900074BA
:10568F007401F0A37400F0A37468F07B017A0079C1
:10569F005A1290609000B37401F0A37400F0A374D9
:1056AF0068F07BFF7A09798E12354B7BFF7A097987
:1056BF00BA12354B7B017A00795A7F007E03129D17
:1056CF00959000B37401F0A37400F0A3745AF07BAB
:1056DF00FF7A0979CC12354B7B017A00795A125235
:1056EF007678BE7C017D011228437BFF7A0979CF42
:1056FF0012354B7B017A00795A7D011299097B0192
:10570F007A00795A12A3ED900065EBF0A3EAF0A3AB
:10571F00E9F07B017A0179BE7F007E03129BE39053
:10572F00006512A323EF70837BFF7A0979DE1235B0
:10573F004B7B017A00795AE4FD1299099000B374FA
:10574F0001F0A37400F0A3745AF07BFF7A0A790872
:10575F0012354B90005AE0900068F090005BE0909B
:10576F000069F0E4A3F07B017A0079681280F89069
:10577F00006FEEF0A3EFF07BFF7A0A79129000B37F
:10578F00EEF0A3EFF012354B90006FA3E0FB7D50CE
:10579F007C037FA8129F8290005CE0900068F090DD
:1057AF00005DE0900069F0E4A3F07B017A00796876
:1057BF001280F890006FEEF0A3EFF07BFF7A0A797A
:1057CF00129000B3EEF0A3EFF012354B90006FA3E1
:1057DF00E0FB7D517C037FA8129F8290005EE090DA
:1057EF000068F090005FE0900069F0E4A3F07B01A7
:1057FF007A0079681280F890006FEEF0A3EFF07BDB
:10580F00FF7A0A79129000B3EEF0A3EFF012354B46
:10581F0090006FA3E0FB7D527C037FA8129F82E470
:10582F00FB7D537C037FA8129F827B017A00795AFC
:10583F007F507E03129D959000747401F0A3740045
:10584F00F0A37468F07B017A00795A12906090008F
:10585F00B37401F0A37400F0A37468F07BFF7A0AAD
:05586F00791902354B20
:106B7F0012A5CA78777C007D01122843E490008229
:106B8F00F0900082E0FFC3940A7480948040030267
:106B9F006CB57BFF7A0A794BEF24319000B3F0127A
:106BAF00354B900082E02477F582E43400F583E0E2
:106BBF00FF7E00900083EEF0A3EFF0A3EEF0A3EFC3
:106BCF00F0900084E0240FF0900083E03400F0E0B8
:106BDF00FCA3E0FD7FA812A4E5900087EFF09000E2
:106BEF00B374FFF0A37400F0A37484F0A3EFF07BF1
:106BFF00017A00796D123545900087E064016003DA
:106C0F00026CA37BFF7A0A797412354B7BFF7A0AE9
:106C1F00799312354B900085E0FEA3E0FF9000833F
:106C2F00EEF0A3EFF0126DDF900083E0FEA3E0FF24
:106C3F00127021900084E02410FD900083E0340056
:106C4F00FC7FA812A4E5900087EFF09000B374FFCB
:106C5F00F0A37400F0A37484F0A3EFF07B017A002B
:106C6F00796D123545900087E064017BFF701F7AC4
:106C7F000A79A912354B900084E0240AF090008322
:106C8F00E03400F0E0FEA3E0FF127021800F7A0ADB
:106C9F0079D080067BFF7A0A79F712354B90008204
:066CAF00E004F0026B900E
:016CB50022BC
:103DDD00E4FDFC7FA812A4E57E00900064EEF0A344
:103DED00EFF09000B374FFF0A37400F0A37484F0AF
:103DFD00A3EEF0A3EFF07B017A00795A12354590CE
:103E0D0000B37401F0A37400F0A3745AF07BFF7A31
:103E1D000B791712354B7D027C007FA812A4E57E2D
:103E2D0000900064EEF0A3EFF09000B374FFF0A3E8
:103E3D007400F0A37484F0A3EEF0A3EFF07B017A8D
:103E4D0000795A1235459000B37401F0A37400F057
:103E5D00A3745AF07BFF7A0B793712354B7D047CB6
:103E6D00007FA812A4E57E00900064EEF0A3EFF0B1
:103E7D009000B374FFF0A37400F0A37484F0A3EE6C
:103E8D00F0A3EFF07B017A00795A1235459000B31B
:103E9D007401F0A37400F0A3745AF07BFF7A0B79D0
:103EAD005512354B7D067C007FA812A4E57E00904F
:103EBD000064EEF0A3EFF09000B374FFF0A3740074
:103ECD00F0A37484F0A3EEF0A3EFF07B017A0079F8
:103EDD005A123545900064E07002A3E070087BFF34
:103EED007A0B79788012900064E07004A3E064018D
:103EFD0070097BFF7A0B799912354B7D087C007F19
:103F0D00A812A4E57E00900064EEF0A3EFF09000FF
:103F1D00B374FFF0A37400F0A37484F0A3EEF0A3C8
:103F2D00EFF07B017A00795A123545900064E0700C
:103F3D0004A3E064017BFF70067A0B79AD80047AEF
:103F4D000B79C812354B7D0A7C007FA812A4E57E43
:103F5D0000900064EEF0A3EFF09000B374FFF0A3B7
:103F6D007400F0A37484F0A3EEF0A3EFF07B017A5C
:103F7D0000795A123545900064E07002A3E07BFF92
:103F8D0070067A0B79E480047A0B79F712354B7D44
:103F9D000C7C007FA812A4E57E00900064EEF0A3D7
:103FAD00EFF09000B374FFF0A37400F0A37484F0ED
:103FBD00A3EEF0A3EFF07B017A00795A123545900C
:103FCD000064E07002A3E07BFF70067A0C79098033
:103FDD00047A0C792912354B7D0E7C007FA812A432
:103FED00E57E00900064EEF0A3EFF09000B374FF57
:103FFD00F0A37400F0A37484F0A3EEF0A3EFF07BB4
:10400D00017A00795A123545900064E07002A3E000
:10401D007BFF70067A0C794880047A0C796512352D
:10402D004B7D0F7C007FA812A4E57E00900064EE0E
:10403D00F0A3EFF09000B374FFF0A37400F0A3743D
:10404D0084F0A3EEF0A3EFF07B017A00795A1235DC
:10405D0045900064E07002A3E070159000B304F089
