:1088860041010C0A41013F0041014A0041014000FB
:1088960041015000410147004201410000410149A8
:0F88A600064101510341014FF2C10AC109C10B43
:03000B0002AB0144
:10AB0100C0E0C083C08290010CE06401700604F0D3
:10AB1100C28D801C90010CE014F090013FE004F024
:10AB2100900142E004F07006900141E004F0C28D12
:07AB3100D082D083D0E03296
:10AE4A00E58954F04401F589E4F58CF58AD28C221F
:05AED800C28DD2A92289
:03AEE700C2A922DB
:0BAE790012AC39EFF47002EEF460F54B
:01AE840022AB
:05A998009000E0EFF06B
:10A99D009000E0E0FF12AA8CEF3395E04F6024E4C5
:10A9AD009000E1F0A3F0C39000E2E094E89000E1A4
:10A9BD00E0940350DBA3E004F070EB9000E1E004C1
:08A9CD00F080E39000E0E0FFE0
:01A9D500225F
:0EA6B800900037EBF0A3EAF0A3E9F0A3EDF079
:10A6C600E4A3F090003AE0FFA3E0C39F5029900076
:10A6D60037E0FBA3E0FAA3E0F91224BEFF12A99823
:10A6E60090003CEFF0900038E475F00112259F9041
:07A6F600003BE004F080CC02
:01A6FD00223A
:10AE5A0012AEE212AEA112AE85C283D287C2972287
:109C090012AE4A12AED812AB9812ABEA12AE5AD2C1
:109C1900AF12AD297F217E0012ADF012ADAF7F6189
:109C290012A59912AEA820910312518012A4F31221
:109C39006BF8EF70FA90010C7403F020093F208053
:109C49000E7B017A0079E41294DE900000EFF012A5
:109C5900119220B32B7B017A0079E41293A890002A
:109C690000EFF0FD7B017A0079E412461B7B017A53
:109C79000079E4900000E0FD12A6298003121192F8
:059C8900129D9380B65E
:05AEDD004C4956450040
:0B88B50009113030303030300000007E
:0E461B00900001EBF0A3EAF0A3E9F0A3EDF0AC
:104629007D0A7C007FA812AA1790028CEFF09000F7
:1046390004E0FF64197059900001E0FBA3E0FAA3BC
:10464900E0F91224BE640270479000021224D76474
:1046590048703DFE74FF2FF582EE34FFF583122476
:10466900D76403702B900001A3A3E02403F9E43A73
:10467900FA127570EF600302492B900001E0FBA369
:10468900E0FAA3E02403F9E43AFA12984502A00FEC
:10469900900001E0FBA3E0FAA3E0F91224BE64B69E
:1046A900702890028BE004F0E0D394047480948025
:1046B900500302492B7FAE123EB8C282E490013FFB
:1046C900F0C297C28390028BF022900001E0FBA315
:1046D900E0FAA3E0F91224BEFF64B76005EF64AA0B
:1046E900705390013FE0C39414748094804008E4AF
:1046F900F0C297D282C283900143E0600302492B42
:1047090090028CE06401600302492BC3900142E0EE
:104719009458900141E09402500302492BE4F0A31C
:10472900F090014304F07BFF7AAE79DD12A7D4E45F
:10473900900143F022900001E0FBA3E0FAA3E0F925
:104749001224BE64B170057F6002481F900001E029
:10475900FBA3E0FAA3E0F91224BE64B270057F5D01
:1047690002481F900004E064017017900001E0FB0B
:10477900A3E0FAA3E0F91224BE64A170057F5A02EE
:10478900481F900004E064017016900001E0FBA34B
:10479900E0FAA3E0F91224BE640670047FAB8076C8
:1047A900900004E064017016900001E0FBA3E0FAB8
:1047B900A3E0F91224BE640770047F5F805890005B
:1047C90004E064017016900001E0FBA3E0FAA3E0A5
:1047D900F91224BE640870047F61803A900004E0F5
:1047E90064017016900001E0FBA3E0FAA3E0F9125E
:1047F90024BE640970047FAF801C900004E064014A
:104809007017900001E0FBA3E0FAA3E0F91224BEBF
:1048190064B470057F5E023EB8900004E0FF641343
:104829007038900001E0FBA3E0FAA3E0F9900001E1
:104839001224D7B456247E0074FF2FF582EE34FF7C
:10484900F5831224D764037011900001A3A3E02417
:1048590002F9E43AFA7F5B024928900004E0FF6418
:1048690006600302492B900001E0FBA3E0FAA3E0F4
:10487900F91224BE6402600302492B90000112243C
:10488900D76457600302492BFE74FF2FF582EE347B
:10489900FFF5831224D76403600302492B900001BA
:1048A900A3A39000021224D7FD7B017A0079051297
:1048B900A3E69000087420F0900001E0FBA3E0FA61
:1048C900A3E0F99000031224D7FD900001A3A3905F
:1048D90000041224D790003EF07B017A0079091276
:1048E900492C90028CE06401702112A086EFF460DB
:1048F900077FAB123EB880097B017A0079051286E1
:10490900DF7B017A0079057F5C801412A086EFF4C1
:1049190060057FAB123EB87B017A0079057F5C1296
:0249290067F035
:01492B002269
:0B94DE00900001EBF0A3EAF0A3E9F01E
:1094E900E4900005F0A3740BF090028CE064017025
:1094F90073900004F0900006E0FF900004E0C39F21
:109509005053E4FFFEFD30801DED701A0FBF0001BE
:109519000ED3EF9420EE944E40EC7D01900006E0CE
:10952900900004F080E0ED6401602A900005E004F9
:10953900F0129A72900001E0FBA3E0FAA3E0F9EFC0
:10954900122504900002E475F00112259F90000491
:10955900E004F080A0900001E0FBA3E0FAA3E0F9A9
:09956900E4122504900005E0FF66
:0195720022D6
:0EA8970090003AEBF0A3EAF0A3E9F0A3EDF095
:10A8A500E4A3F090003DE0FFA3E0C39F5024900097
:10A8B5003AE0FBA3E0FAA3E0F91224BEFF12A59942
:10A8C50090003BE475F00112259F90003EE004F0F6
:02A8D50080D130
:01A8D700225E
:0B86DF00900010EBF0A3EAF0A3E9F01C
:1086EA009000317403F090001314F012ADC690009C
:1086FA0014EFF0A37453F0900147E0900031601337
:10870A00E0FF04F074132FF582E43400F583744D0E
:10871A00F08011E0FF04F074132FF582E43400F5C1
:10872A00837443F09000317404F0900010E0FBA3CE
:10873A00E0FAA3E0F91224BEFF6021900031E024A0
:10874A0013F582E43400F583EFF0900011E475F03C
:10875A000112259F900031E004F080CE900031E0B4
:10876A00FF04F074132FF582E43400F583743AF0B1
:10877A00900031E02413F9E43400FA7B0112651BFE
:10878A00900031E0FF241DF582E43400F583743A49
:10879A00F0741E2FF582E43400F5837403F07B0134
:0B87AA007A007913EF240CFD02A89761
:0B5F0600900015EBF0A3EAF0A3E9F017
:105F11009000397403F090001B14F012ADC690008C
:105F21001CEFF0A37453F09001B0E09000396013BE
:105F3100E0FF04F0741B2FF582E43400F583744D07
:105F4100F08011E0FF04F0741B2FF582E43400F5BA
:105F5100837443F0900015E0FBA3E0FAA3E0F9900D
:105F610000051224D764026003025FF3900015A3B9
:105F7100A390000C1224D7FD7B017A00791F12A394
:105F8100E67B017A00791B12000E900039EFF0E0F8
:105F9100FF241BF582E43400F5837420F0741C2F78
:105FA100F582E43400F583E4F07B017A00791B1279
:105FB100000E900039EFF0241BF9E43400FA7B0164
:105FC100C003C002C001900015E0FBA3E0FAA3E00A
:105FD100F990000B1224D7FD900015A3A390000A9D
:105FE1001224D790003EF0D001D002D00312492CE8
:105FF100804F900018E0FBA3E0FAA3E0F91224BE61
:10600100FF900039E0FE04F0741B2EF582E43400A9
:10601100F583EFF0900019E475F00112259F9000CF
:1060210018E0FBA3E0FAA3E0F91224BE70C49000CB
:1060310039E0FF04F0741B2FF582E43400F583E4AA
:10604100F07B017A00791B12000E900039EFF0E02D
:10605100FF241BF582E43400F583743AF0741C2F9D
:10606100F9E43400FA7B0112651B7B017A00791B8C
:1060710012000E900039EFF0E0FF04F0741B2FF5D1
:1060810082E43400F583743AF0900039E0FF04F0C3
:10609100741B2FF582E43400F5837403F07B017ADD
:0B60A10000791B900039E0FD02A89779
:08000300D29412AEEAC294226D
:05A959009000C8EFF0C2
:10A95E00E4A3F0A3F09000C8E0FFA2E713F030D715
:10A96E0004D2958002C2951200039000CAE004F052
:10A97E0070069000C9E004F0C39000CAE0940890FD
:09A98E0000C9E06480948040CC13
:01A99700229D
:0997B600E475F00112259F7F8784
:0597BF009000C5EFF071
:1097C400D2967F037E0012ADF09000C5E0FF12A98F
:1097D40059E49000C6F0A3F09000C6E0FCA3E0FDBD
:1097E400C39408EC64809480504F30951690028D99
:1097F400E04480F0ED9406EC648094805005E0FF32
:10980400C313F020952090028DE0547FF0D3900094
:10981400C7E094069000C6E06480948050089002EB
:109824008DE0FFC313F01200039000C7E004F07052
:10983400A79000C6E004F0809FC29690028DE0FFDE
:019844002201
:10ABC200900013EFF0A3EDF0D2967F037E0012AD5A
:10ABD200F0900013E0FF12A959900014E0FF9000DA
:08ABE20013F012A959C29622DA
:10A8D800900011E475F00112259F900011E475F0C5
:10A8E8000112259F900011E475F00112259F900038
:10A8F80010E0FBA3E0FAA3E0F91224BEFF900001E8
:04A908001224D7FD41
:0CA90C00EF540FC454F0FFED540F4FFF48
:01A91800221C
:10757000E4FF1224BEFEC394305003027682EED3A1
:10758000943940030276829000011224D7FEC394FE
:1075900030500302767FEED39439400302767F9019
:1075A00000031224D7FEC39430500302767CEED33E
:1075B0009439400302767C9000041224D7FEC394D1
:1075C000305003027684EED39439400302768490DF
:1075D00000081224D7FEC394305003027679EED30C
:1075E0009439400302767990000B1224D7FEC3949D
:1075F000305003027676EED39439507A90000C1214
:1076000024D7FEC39430406BEED39439506590007C
:107610000E1224D7FEC394304056EED39439505006
:1076200090000F1224D7FEC394304041EED394391A
:10763000503B9000111224D7FEC39430402CEED35F
:10764000943950269000121224D7FEC3943040176C
:10765000EED3943950119000141224D7FEC3943005
:107660004022EED39439227F01227F01227F012222
:107670007F01227F01227F01227F01227F01227F61
:0476800001227F0163
:0176840022E3
:10984500900010EBF0A3EAF0A3E9F012A8F6AD073B
:109855007F8612ABC212A8D8AD077F8812ABC29023
:109865000011E475F00112259F900011E475F001D7
:1098750012259F12A8D8AD077F8C12ABC212A8D8AB
:10988500AD077F8412ABC212A8D8AD077F8212AB99
:10989500C212A8D8AD077F8012ABC2900011E47543
:1098A500F00112259F900011E475F00112259F909B
:1098B5000011E475F00112259F900010E0FBA3E074
:0F98C500FAA3E0F91224BE540FFD7F8A02ABC252
:10AD4200AE07EEC4540F540FFE6012EF540FFFE42F
:0DAD5200FDEDC39E5007740A2FFF0D80F425
:01AD5F0022D1
:10A9D600122516900072E475F00112259F90007101
:0CA9E600E0FBA3E0FAA3E0F91224BEFF9E
:10A9F200E4FEFDFCECC39F500B0DED640A7002FDFA
:10AA02000E0C80F0EEC454F054F0FEED540F4EFFE5
:01AA12002221
:10A3E600E4FFFE90003AEDF090003AE0C394647406
:10A3F6008094804007E0249CF00F80ECEF443012FC
:10A406002504740129F9E43AFA90003AE0C3940A63
:10A41600748094804007E024F6F00E80ECEE443021
:10A42600122504740129F9E43AFA90003AE044301E
:0EA43600122504740129F9E43AFAE40225041F
:0E492C0090003AEBF0A3EAF0A3E9F0A3EDF05F
:10493A00E490003FF0A3F0900042F0A3F0A3F0A3AC
:10494A00F0900041EDF054F0F0E0FFC4540FF09005
:10495A00004A12260C404000007F007E007D807CC9
:10496A004112668AC004C005C006C007900041E033
:10497A00FCE4121FD0D003D002D001D000121EC016
:10498A00C004C005C006C00790003FE0FCA3E0FDDC
:10499A00E4121FCBD003D002D001D000121DCF12D7
:1049AA00200490003FEEF0A3EFF090003DE090006D
:1049BA0041F0540FF090004A12260C400000007F8C
:1049CA00007E007D807C4112668AC004C005C00654
:1049DA00C007900041E0FCE4121FD0D003D002D0FF
:1049EA0001D000121EC0C004C005C006C007900056
:1049FA003FE0FCA3E0FDE4121FCBD003D002D001BC
:104A0A00D000121DCF12200490003FEEF0A3EFF069
:104A1A0090003EE0900041F054F0F0E0FFC4540FE3
:104A2A00F090004A12260C3F8000007F007E007D35
:104A3A00807C4112668AC004C005C006C007900087
:104A4A0041E0FCE4121FD0D003D002D001D0001202
:104A5A001EC0C004C005C006C00790003FE0FCA30A
:104A6A00E0FDE4121FCBD003D002D001D000121D0A
:104A7A00CF12200490003FEEF0A3EFF090003EE04A
:104A8A00900041F0540FF090004A12260C000000EA
:104A9A00007F007E007D807C4112668AC004C005CA
:104AAA00C006C007900041E0FCE4121FD0D003D03A
:104ABA0002D001D000121EC0C004C005C006C00743
:104ACA0090003FE0FCA3E0FDE4121FCBD003D0022C
:104ADA00D001D000121DCF12200490003FEEF0A3A7
:104AEA00EFF0C3EF9410EE9427401074F02FFF7488
:104AFA00D83EFE900042E004F080E7900042E04495
:104B0A0030FD90003AE0FBA3E0FAA3E0F9ED1225AC
:104B1A000490003BE475F00112259FC3EF94E8EE80
:104B2A009403401074182FFF74FC3EFE900043E07B
:104B3A0004F080E7900043E04430FD90003AE0FB47
:104B4A00A3E0FAA3E0F9ED12250490003BE475F026
:104B5A000112259FC3EF9464EE94004010749C2FB9
:104B6A00FF74FF3EFE900044E004F080E7900044AA
:104B7A00E04430FD90003AE0FBA3E0FAA3E0F9ED4F
:104B8A0012250490003BE475F00112259FC3EF94AF
:104B9A000AEE9400401074F62FFF74FF3EFE900058
:104BAA0045E004F080E7900045E04430FD90003A8B
:104BBA00E0FBA3E0FAA3E0F9ED12250490003BE440
:104BCA0075F00112259FEF4430FF90003AE0FBA3F5
:104BDA00E0FAA3E0F9EF12250490003BE475F00136
:104BEA0012259F90003AE0FBA3E0FAA3E0F9E40261
:024BFA00250490
:0B651B00900065EBF0A3EAF0A3E9F0AC
:106526007F8D1297BFEF54F0C4540F4430FE900095
:1065360065E0FBA3E0FAA3E0F9EE122504900066FD
:10654600E475F00112259FEF540F4430FF9000656B
:10655600E0FBA3E0FAA3E0F9EF122504900066E45D
:1065660075F00112259F7F891297BFEF54F0C4542E
:106576000F4430FE900065E0FBA3E0FAA3E0F9EEDD
:10658600122504900066E475F00112259FEF540F62
:106596004430FF900065E0FBA3E0FAA3E0F9EF12B8
:1065A60025049000661297B6EF54F0C4540F443099
:1065B600FE900065E0FBA3E0FAA3E0F9EE122504E5
:1065C600900066E475F00112259FEF540F4430FFEA
:1065D600900065E0FBA3E0FAA3E0F9EF1225049032
:1065E6000066E475F00112259F7F851297BFEF5470
:1065F600F0C4540F4430FE900065E0FBA3E0FAA31C
:10660600E0F9EE122504900066E475F00112259F6C
:10661600EF540F4430FF900065E0FBA3E0FAA3E0DF
:10662600F9EF122504900066E475F00112259F7FAC
:10663600831297BFEF54F0C4540F4430FE900065A8
:10664600E0FBA3E0FAA3E0F9EE122504900066E46D
:1066560075F00112259FEF540F4430FF900065E05E
:10666600FBA3E0FAA3E0F9EF122504900066E475B7
:10667600F00112259F900065E0FBA3E0FAA3E0F984
:04668600E402250401
:109077009000C2EBF0A3EAF0A3E9F07F8D1297BF4F
:1090870012AD429000C2E0FBA3E0FAA3E0F9EF12B1
:1090970025049000C3E475F00112259F7F8912977C
:1090A700BF12AD429000C2E0FBA3E0FAA3E0F9EFE4
:1090B7001225049000C31297B612AD429000C2E089
:1090C700FBA3E0FAA3E0F9EF1225049000C3E475CF
:1090D700F00112259F7F851297BF12AD429000C203
:1090E700E0FBA3E0FAA3E0F9EF1225049000C3E444
:1090F70075F00112259F7F831297BF12AD42900032
:10910700C2E0FBA3E0FAA3E0F9EF1225049000C345
:07911700E475F00102259F41
:0B957300900071EBF0A3EAF0A3E9F018
:10957E0012A9E3EF54F0C4540F4430FE900074E08F
:10958E00FBA3E0FAA3E0F9EE122504EF540F4430EA
:10959E00FF900074E0FBA3E0FAA3E0F9900001EF66
:1095AE0012A9D6EF54F0C4540F4430FE900074E06C
:1095BE00FBA3E0FAA3E0F9900002EE122516EF5499
:1095CE000F443090000312A9D6EF54F0C4540F4448
:1095DE0030FE900074E0FBA3E0FAA3E0F9900004E3
:1095EE00EE122516EF540F443090000512251690FA
:0695FE000006E402251640
:0B5B8400900024EBF0A3EAF0A3E9F08E
:105B8F007F891297BFEF54F0C4540F4430FE90003A
:105B9F0024E0FBA3E0FAA3E0F9EE12250490002520
:105BAF00E475F00112259FEF540F4430FF9000244D
:105BBF00E0FBA3E0FAA3E0F9EF1225049000251211
:105BCF0097B6EF54F0C4540F4430FE900024E0FB1E
:105BDF00A3E0FAA3E0F9EE122504900025E475F096
:105BEF000112259FEF540F4430FF900024E0FBA3D8
:105BFF00E0FAA3E0F9EF122504900025E475F00117
:105C0F0012259F7F851297BFEF54F0C4540F443075
:105C1F00FE900024E0FBA3E0FAA3E0F9EE122504C6
:105C2F00900025E475F00112259FEF540F4430FFCB
:105C3F00900024E0FBA3E0FAA3E0F9EF1225049013
:105C4F000025E475F00112259F7F831297BFEF5453
:105C5F00F0C4540F4430FE900024E0FBA3E0FAA3FD
:105C6F00E0F9EE122504900025E475F00112259F4E
:105C7F00EF540F4430FF900024E0FBA3E0FAA3E0C1
:105C8F00F9EF122504900025E475F00112259F7F8E
:105C9F008D1297BFEF54F0C4540F4430FE90002480
:105CAF00E0FBA3E0FAA3E0F9EE122504900025E44F
:105CBF0075F00112259FEF540F4430FF900024E040
:105CCF00FBA3E0FAA3E0F9EF122504900025E47599
:105CDF00F00112259F900024E0FBA3E0FAA3E0F966
:105CEF00742E122504900025E475F00112259F7F74
:105CFF00811297BFEF54F0C4540F4430FE9000242C
:105D0F00E0FBA3E0FAA3E0F9EE122504900025E4EE
:105D1F0075F00112259FEF540F4430FF900024E0DF
:105D2F00FBA3E0FAA3E0F9EF122504900025E47538
:105D3F00F00112259F900024E0FBA3E0FAA3E0F905
:045D4F00E402250441
:10894C00900024EBF0A3EAF0A3E9F07F8D1297BF1F
:10895C00900024E0FBA3E0FAA3E0F9EF12250490C9
:10896C000025E475F00112259F7F891297BF9000B6
:10897C0024E0FBA3E0FAA3E0F9EF12250490002514
:10898C001297B6900024E0FBA3E0FAA3E0F9EF12F3
:10899C002504900025E475F00112259F7F85129720
:1089AC00BF900024E0FBA3E0FAA3E0F9EF1225044A
:1089BC00900025E475F00112259F7F831297BF90DC
:1089CC000024E0FBA3E0FAA3E0F9EF1225049000E9
:1089DC0025E475F00112259F7F811297BF9000242A
:1089EC00E0FBA3E0FAA3E0F9EF122504900025E4E4
:1089FC0075F00112259F900024E0FBA3E0FAA3E0A0
:058A0C00F9E40225045D
:07AEA100C294C296D2952273
:0B63A200900013EBF0A3EAF0A3E9F079
:1063AD00A37401F01224BEFF3395E04F70479000A7
:1063BD0013E0FBA3E0FAA3E0F99000011224D7FF4C
:1063CD003395E04F702F9000021224D7FF3395E0E4
:1063DD004F70229000031224D7FF3395E04F7015B4
:1063ED009000041224D7FF3395E04F7008900016EB
:1063FD0004F00265157B017A0079171290779001F0
:10640D0043E0640170097B017A0079171291C59000
:10641D000013E0FBA3E0FAA3E0F91224BEFFFD3365
:10642D0095E0FC900017E0C39DEC6480F8748098B3
:10643D005003026502900017E06F600302650F9034
:10644D000013E0FBA3E0FAA3E0F99000011224D7BA
:10645D00FFFD3395E0FC900018E0C39DEC6480F8DF
:10646D007480985003026502900018E06F6003027B
:10647D00650D900013E0FBA3E0FAA3E0F990000294
:10648D001224D7FFFD3395E0FC900019E0C39DEC7D
:10649D006480F87480985002805B900019E06F70F2
:1064AD005D900013E0FBA3E0FAA3E0F99000031266
:1064BD0024D7FFFD3395E0FC90001AE0C39DEC64FA
:1064CD0080F87480985002802C90001AE0B5072C4B
:1064DD00900013E0FBA3E0FAA3E0F990000412246E
:1064ED00D7FF3395E0FE90001BE0C39FEE6480F86C
:1064FD00748098500DE4900016F0800C800480029A
:0D650D0080009000167402F0900016E0FF70
:01651A00225E
:0B8C4E009000B0EBF0A3EAF0A3E9F007
:108C59007B017A0079BB1290779000BBE0FF7E0020
:108C69007C017D6D122538AC06AD07A3E075F01EB9
:108C7900A42DFFEC35F0FEA3E07C002FFFEC3EFEB7
:108C8900E4FD9000B31226009000B0E0FBA3E0FAE7
:108C9900A3E0F99000011224D775F01EA4FDACF0F1
:108CA900C004C0051224BEFF7E007C017D6D122523
:108CB90038D0E02FFFD0E03EFE9000021224D71CEE
:108CC9002FFFEC3EFEE4FD9000B71226009000B3A2
:108CD900E0FCA3E0FDA3E0FEA3E0FFA3E0F8A3E02E
:108CE900F9A3E0FAA3E0FBC31225C340089000C131
:0F8CF9007401F08005E49000C1F09000C1E0FF2D
:018D08002248
:10309200900014ECF0A3EDF0900011EBF0A3EAF035
:0330A200A3E9F0AF
:1030A500C200C20190000B1224D7FF3395E04F6098
:1030B500030235C8900011E0FBA3E0FAA3E0F99004
:1030C500000C1224D7FF3395E04F60030235C890FA
:1030D500000D1224D7FF3395E04F60030235C890E9
:1030E500000E1224D7FF3395E04F60030235C890D8
:1030F500000F1224D7FF3395E04F60030235C890C7
:103105000014E0FEA3E0C3943CEE9400900014404C
:103115001CA3E0FB7C007D3CFF12254A90001DEFBF
:10312500F075F03CA4FFC3EB9FA3F0800BA3E090E8
:10313500001EF0E490001DF090001EE0FF700302F9
:1031450033FD900011E0FBA3E0FAA3E0F990000441
:103155001224D7FEEF2E90001CF0D3943B7480947C
:103165008050030233D2E0FF75F03C8490001FF0DD
:10317500E0FE75F03CA4FDC3EF9D90001CF09000AF
:10318500031224D7FFEE2F90001BF0D39417748001
:10319500948050030233B1E0FF75F0188490001F4E
:1031A500F0E0FE75F018A4FDC3EF9D90001BF090B4
:1031B50000021224D7FFEE2F90001AF090000112A2
:1031C50024D7FF3395E0FEEF64014E6024EF6403DE
:1031D5004E601EEF64054E6018EF64074E6012EFF7
:1031E50064084E600CEF640A4E6006EF640C4E7086
:1031F5005790001AE0D3941F748094804032E024E5
:10320500E1F0900011E0FBA3E0FAA3E0F9900001E2
:103215001224D704900019F0D3940C748094804044
:10322500241224BE04900018F0A37401F002343770
:10323500900011E0FBA3E0FAA3E0F990000112244D
:10324500D7900019F0023430900011E0FBA3E0FAAA
:10325500A3E0F99000011224D7FF3395E0FEEF6457
:10326500044E6012EF64064E600CEF64094E600672
:10327500EF640B4E702790001AE0D3941E7480946F
:1032850080400DE024E2F09000011224D70480066E
:103295009000011224D7900019F0023430900011EB
:1032A500E0FBA3E0FAA3E0F99000011224D7FF3375
:1032B50095E0FEEF64024E60030233941224BEFFD4
:1032C500FD3395E0FCED24D0FAEC3407900016F0C0
:1032D500A3CAF0C200ED64104C6023EF3395E0FE05
:1032E500EF64144E6018EF64184E6012EF641C4EC4
:1032F500600CEF64204E6006EF64244E7002D2002D
:1033050030004990001AE0FDD3941D74809480909C
:103315000011E0FBA3E0FAA3E0F940171224BE90E8
:103325000018F090001AE024E3F09000011224D771
:103335000480121224BE900018F090001AEDF0904F
:1033450000011224D7900019F002343790001AE0DA
:10335500FDD3941C748094804018E024E4F0900020
:1033650011E0FBA3E0FAA3E0F99000011224D704D1
:10337500801690001AEDF0900011E0FBA3E0FAA38F
:10338500E0F99000011224D7900019F00234309032
:10339500001AE0F0900011E0FBA3E0FAA3E0F99039
:1033A50000011224D7900019F0023430900011E08A
:1033B500FBA3E0FAA3E0F99000021224D790001ACB
:1033C500F09000011224D7900019F0805E90001152
:1033D500E0FBA3E0FAA3E0F99000031224D79000E4
:1033E5001BF09000021224D790001AF090000112F1
:1033F50024D7900019F08033900011E0FBA3E0FA88
:10340500A3E0F99000041224D790001CF09000036B
:103415001224D790001BF09000021224D790001AB6
:10342500F09000011224D7900019F01224BE9000EC
:1034350018F090001DE0FF700302358990001BE035
:103445002FF0E0FFD39417748094805003023589E0
:10345500EF75F0188490001FF0E0FE75F018A4FDDC
:10346500C3EF9D90001BF090001AE02EF09000191C
:10347500E0FF6401601EEF64036019EF64056014EA
:10348500EF6407600FEF6408600AEF640A6005EFF8
:10349500640C703590001AE0D3941F7480948050AA
:1034A50003023589E024E1F0900019E004F0E0D34F
:1034B500940C74809480900018E0400904F0A37483
:1034C50001F0023589F0023589900019E0FF6404A6
:1034D500600FEF6406600AEF64096005EF640B7026
:1034E5001F90001AE0D3941E74809480400CE02451
:1034F500E2F0900019E004023583900019E0807E27
:10350500900019E0FA6402707B900018E0FBFD7CE6
:103515000024D0FEEC3407900016F0A3CEF0C200D4
:10352500ED6410601AEBFF64146014EF6418600F0B
:10353500EF641C600AEF64206005EF64247002D21A
:103545000030002490001AE0FFD3941D748094800D
:10355500400BE024E3F0900019E004800990001A84
:10356500EFF0900019EA801690001AE0D3941C74CD
:10357500809480400FE024E4F0900019E004F0907E
:103585000018E0F0900018E0FF900011E0FBA3E0C8
:10359500FAA3E0F990000BEF122516900019E090C0
:1035A500000C12251690001AE090000D12251690B9
:1035B500001BE090000E12251690001CE090000FF5
:0335C500122516B6
:0135C80022E0
:10ADF000E4FDFCC3ED9FEC9E50070DBD00010C80EF
:01AE0000F25F
:01AE0100222E
:04AD7D00AB07AA0670
:10AD8100900000C3E5829BE5839A500A7F967E007E
:06AD910012ADF0A380EDFD
:01AD97002299
:08AAC700900012EEF0A3EFF085
:10AACF00E4A3F0A3F0900012E0FEA3E0FFC3900018
:10AADF0015E09F900014E09E50177F0A7E0012AD84
:10AAEF007D900015E004F070DC900014E004F0801D
:01AAFF00D482
:01AB00002232
:01AEEA002245
:03ACA50012AC836B
:10ACA800D20ED293D292E4FFFE209205C20EC29336
:0CACB800220FBF00010EBE04F0BF4CEDE7
:01ACC400226D
:03ACC50012AC834B
:10ACC800D293D292D20EE4FFFE209205C20EC29316
:0CACD800220FBF00010EBE02F0BF8AED8B
:01ACE400224D
:06AED200D29300C293229E
:10AC8300E4FEEEC39408748094805015EF25E0FF32
:10AC930030D704D2928002C292D29312AED20E80E7
:01ACA300E1CF
:01ACA400228D
:08AE0200ECFD7C00C293C2923A
:0AAE0A00D292D29300C292C29322AA
:09AE8F00C293C292D293D2922226
:10A54900E4FBEBFDC39408748094805038C29330C7
:10A559009216900283E04401F0ED94067480948091
:10A569005006E025E0F0D293209217900283E05440
:10A57900FEF0EBD39406748094805006E025E0F059
:0CA58900D2930B80BDC293900283E0FFD0
:01A5950022A3
:10A49D00900071E0FCA3E0FDA3E0FBA3E0FAA3E0D4
:07A4AD00F91224BEFB7FA899
:02A4B400AA07F5
:10A4B600AF05A90712AE02AF0212ACA5AF0512ACEA
:10A4C600A5AF0112AC8312ACA8AF0312AC8312ACD9
:10A4D600A812AE8F7F0D7E0012AD7DD293D2927FF1
:0DA4E600627E0012ADF07F627E0002ADF0DC
:04AA13007C007FA89C
:02AA1700AB078B
:10AA1900AF05AA0712AE02AF0312ACC5AF0512AC5F
:10AA2900C5AF0212AC8312ACC812AE0AEB04FF1216
:10AA3900AC8312ACA8C29312A54912AE8FD293D29D
:06AA490092900283E0FF81
:01AA4F0022E4
:10A4F300E4FDFC7FA812AA17900152E4F0A3EFF049
:10A503007D0212AA1390014DE4F0A3EFF07D041233
:10A51300AA1390014BE4F0A3EFF07D0612AA139067
:10A523000145E4F0A3EFF07D0812AA13900143EF75
:10A53300F07D0C12AA13900148EFF07D0E12AA13BE
:06A54300900144EFF0223C
:10A31E009000B0EEF0A3EFF0A3EBF0A3EAF0A3E908
:01A32E00F03E
:10A32F009000B0E0FCA3E0FD7FA812AA179000B246
:10A33F00E0FBA3E0FAA3E0F9EF1225049000B2E0EE
:10A34F00FBA3E0FAA3E0F91224BEFF9000B1E004F2
:10A35F00F070069000B0E004F09000B3E475F001E7
:10A36F0012259FEF70BA9000B2E0FBA3E0FAA3E0D2
:05A37F00F9E4022504D1
:10A16C00900071EEF0A3EFF0A3EBF0A3EAF0A3E9FB
:10A17C00F0900073E0FBA3E0FAA3E0F91224BE60B8
:10A18C0024B40D04E412250412A49D900072E00482
:10A19C00F07006900071E004F0900074E475F0012A
:10A1AC0012259F80CC12A49D900072E004F07006E2
:10A1BC00900071E004F0900074E475F00112259F9A
:0FA1CC00900071E0FCA3E0FDE4FB7FA802A4B4C7
:10926B0053656E736F726573204175746F2079202F
:10927B0073656E736F72312061637469766F732ED1
:10928B000053656E736F722061637469766F207320
:10929B00656E736F7231202E004465746563746163
:1092AB00646F2E2053656E736F72204175746F2E31
:1092BB000053656E736F726573206E6F20646574F7
:1092CB0065637461646F73005665686963756C6F71
:1092DB00204573706572616E646F2053616C6972A7
:1092EB002E005665686963756C6F2053616C6965F8
:1092FB006E646F2E20556E206D6F6D656E746F00F2
:0488C00041028E00E3
:07AEA800C2B5C2B6C2B72219
:07AEAF00C2B5D2B6C2B72202
:07AEB600C2B5C2B6D2B722FB
:07AEBD00D2B5C2B6D2B722E4
:07AEC400C2B5D2B6D2B722DD
:07AECB00D2B5D2B6D2B722C6
:10ACE500E4FF7DF47C01309115EFFB3395E04B706B
:0EACF5000DED1D70011CED4C70EC7F0180E830
:01AD0300222D
:10A812009000377401F012AEC4309103E004F012DC
:10A82200AECB309107900037E02402F0900037E081
:10A83200640170177D12FC7FA812AA17EF600CF456
:10A84200900037700404F08002EFF0900037E024AB
:02A8520030FFD5
:01A8540022E1
:10ADC6007D127C007FA812AA17EF6005F470027F3F
:05ADD60001EF2430FF35
:01ADDB002255
:10A0860012AEB630916112ACE5EF3395E0FEEF64A7
:10A09600014E704712AEBD20912312AEAF7BFF205A
:10A0A600910D7A92796B12A7D4E490014780227AB7
:10A0B60092798C12A7D49001477401801412AEAF26
:10A0C6007BFF2091107A9279A412A7D4900147744D
:10A0D60001F07FFF227A9279BC80067BFF7A927923
:10A0E600D312A7D47F00227BFF7A9279ED12A7D4F0
:03A0F6007F0122C5
:10AD0400E4FE12AEB630911412ACE5EFFD3395E0DB
:0EAD1400FCED64014C7002FF227F01227F01E2
:01AD2200220E
:109D9300E4900001F012AEA820916990028EE07069
:109DA30016900001E0701030B35A04F012AB6C90BF
:109DB300028E7401F0804D90028EE0640170169063
:109DC3000001E0701030B33C04F012768590028EEF
:109DD3007402F0802F90028EE064027027900001DD
:109DE300E0702130B31E04F07D0C7C007FA812AA22
:109DF30017EF640170047F5380027F4E1299EAE4E7
:0F9E030090028EF012AEA8309105E4900001F0AD
:019E1200222D
:103A4C00494E4752455345205441524A4554412012
:103A5C00005441524A4554412053494E20494E4747
:103A6C005245534F20005441524A455441204E4F29
:103A7C00205245474953545241205041474F200052
:103A8C00455843454445205449454D504F204445E5
:103A9C002047524143494120004D454E5355414C1E
:103AAC00204E4F204553544120454E2050415251F9
:103ABC005545414445524F2000444952494A4153CF
:103ACC004520412043414A4120004752414349414E
:103ADC00532E2E2E2000475241434941532E2E2E59
:103AEC00004D454E5355414C494441442056454E9A
:103AFC004349444120004D454E5355414C494441A6
:103B0C00442045584345444520484F524152494F63
:103B1C002041434552515545534520412043414A8C
:103B2C004120004E4F204553204D454E5355414C9E
:103B3C0049444144204E49205052455041474F0082
:103B4C004D454E5355414C204E4F205041474F2030
:103B5C004C4F434143494F4E20484F59005441521A
:103B6C004A455441204E4F2045532044454C20504B
:103B7C004152515545414445524F200053494E2026
:103B8C0050524553454E43494120564548494355AB
:103B9C004C415220005441524A45544120494E5602
:103BAC00414C49444120005441524A455441205310
:103BBC00494E20464F524D41544F200046554552D8
:103BCC0041204445204C494E45412000554E204D46
:103BDC004F4D454E544F20504F52204641564F5258
:103BEC002000613B38353B494E47524553452054E4
:103BFC0041524A4554410A0000613B38363B54411E
:103C0C00524A4554412053494E20494E4752455340
:103C1C004F200A0000613B38373B5441524A45540F
:103C2C0041204E4F20524547495354524120504158
:103C3C00474F0A0000613B38383B455843454445E3
:103C4C00205449454D504F2044452047524143494B
:103C5C0041200A0000613B38393B4D454E535541DC
:103C6C004C204E4F204553544120454E205041523C
:103C7C00515545414445524F0A0000613B39303B98
:103C8C00444952494A41534520412043414A410A43
:103C9C000000613B39313B475241434941532E2E81
:103CAC002E200A0000613B39333B4D454E535541A4
:103CBC004C204E4F204553544120454E20504152EC
:103CCC00515545414445524F0A0000613B39343B44
:103CDC004D454E5355414C494441442056454E4365
:103CEC004944410A0000613B39353B4D454E535523
:103CFC00414C494441442045584345444520484F94
:103D0C00524152494F20414345525155455345204C
:103D1C00412043414A410A0000613B39363B4E4F3A
:103D2C00204553204D454E5355414C494441442068
:103D3C004E49205052455041474F0A0000613B39D3
:103D4C00373B4D454E5355414C204E4F205041472B
:103D5C004F204C4F434143494F4E20484F590A0086
:103D6C0000613B39383B5441524A455441204E4F37
:103D7C002045532044454C20504152515545414417
:103D8C0045524F200A0000613B39383B53494E20C5
:103D9C0050524553454E4349412056454849435599
:103DAC004C4152200A0000613B39383B5441524A85
:103DBC0045544120494E56414C494441200A00008B
:103DCC00613B39383B5441524A4554412053494E8A
:103DDC0020464F524D41544F200A0000613B393868
:103DEC003B4655455241204445204C494E45410ADD
:103DFC000000613B39383B554E204D4F4D454E54DC
:103E0C004F20504F52204641564F520A0000613B02
:103E1C0030373BA1204D454E5355414C494441440C
:103E2C002056454E4349444120210A0000613B3055
:103E3C00363B4D454E5355414C204655455241203D
:103E4C00444520484F524152494F0A0000613B39CA
:103E5C00383B484F524152494F204E4F2050524F01
:103E6C004752414D41444F0A000057494547414E86
:103E7C00442000475241434941532000613B3932B1
:103E8C003B57494547414E443A000A00613B3931A2
:103E9C003B475241434941532000643B78783B00F7
:0C3EAC00AA8018010200AA801801020080
:053EB80090002EEFF068
:103EBD00782F7C007D017BFF7A3E79AC7E007F06FA
:103ECD001224987E017FBB7D287C0012AA507F288A
:103EDD007E001287B5900036EEF0A3EFF0C287900A
:103EED000144E060030241627B017A00792FFD12EB
:103EFD00A79290002EE012265D3F40553F60563F41
:103F0D0080573FA0583FC0593FE05A40005B3FC02B
:103F1D005D40205E40405F40606040806140A0AAEF
:103F2D0040C0AB40E0AC40FFAD411EAE413DAF00E7
:103F3D0000415F7BFF7A3A794C12000E900035EF0D
:103F4D00F0E4FDFF12AC1B12AC127BFF7A3A794CF8
:103F5D0002415A7BFF7A3A795D12000E900035EFDF
:103F6D00F0E4FDFF12AC1B12AC127BFF7A3A795DC7
:103F7D0002415A7BFF7A3A797212000E900035EFAA
:103F8D00F0E4FDFF12AC1B12AC127BFF7A3A797292
:103F9D0002415A7BFF7A3A798C12000E900035EF70
:103FAD00F0E4FDFF12AC1B12AC127BFF7A3A798C58
:103FBD0002415A7BFF7A3A79A512000E900035EF37
:103FCD00F0E4FDFF12AC1B12AC127BFF7A3A79A51F
:103FDD0002415A7BFF7A3A79C512000E900035EFF7
:103FED00F0E4FDFF12AC1B12AC127BFF7A3A79C5DF
:103FFD0002415A7BFF7A3A79D612000E900035EFC6
:10400D00F0E4FDFF12AC1B12AC127BFF7A3A79E2A1
:10401D0002415A7BFF7A3A79ED12000E900035EF8E
:10402D00F0E4FDFF12AC1B12AC127BFF7A3A79ED76
:10403D0002415A7BFF7A3B790212000E900035EF58
:10404D00F0E4FDFF12AC1B12AC127BFF7A3B790240
:10405D0002415A7BFF7A3B792F12000E900035EF0B
:10406D00F0E4FDFF12AC1B12AC127BFF7A3B792FF3
:10407D0002415A7BFF7A3B794C12000E900035EFCE
:10408D00F0E4FDFF12AC1B12AC127BFF7A3B794CB6
:10409D0002415A7BFF7A3B796912000E900035EF91
:1040AD00F0E4FDFF12AC1B12AC127BFF7A3B796979
:1040BD0002415A7BFF7A3B798812000E900035EF52
:1040CD00F0E4FDFF12AC1B12AC127BFF7A3B79883A
:1040DD0002415A7BFF7A3B79A112000E900035EF19
:1040ED00F0E4FDFF12AC1B12AC127BFF7A3B79A101
:1040FD00805B7BFF7A3B79B312000E900035EFF0B9
:10410D00E4FDFF12AC1B12AC127BFF7A3B79B3803E
:10411D003C7BFF7A3B79C812000E900035EFF0E43E
:10412D00FDFF12AC1B12AC127BFF7A3B79C8801DD0
:10413D007BFF7A3B79D812000E900035EFF0E4FD4D
:10414D00FF12AC1B12AC127BFF7A3B79D87D0112AA
:10415D00A792D28722C28790002EE012265D41AE33
:10416D005541D45641DD5741E65841EF5941F75A73
:10417D0041FF5B42075D420F5E42175F421F604287
:10418D002761422FAA4237AB423FAC4247AD424F67
:10419D00AE4257AF425FB44267B5426FB6000042C0
:1041AD0078900036E0FEA3E0AA06F8AC027D017B14
:1041BD00FF7A3B79EE1228EA900036E0FEA3E0AAE2
:1041CD0006F97B010242757BFF7A3C790502427547
:1041DD007BFF7A3C79210242757BFF7A3C79410263
:1041ED0042757BFF7A3C7961807E7BFF7A3C7987D3
:1041FD0080767BFF7A3C799E806E7BFF7A3C79B12D
:10420D0080667BFF7A3C79D7805E7BFF7A3C79F2C2
:10421D0080567BFF7A3D7925804E7BFF7A3D79492B
:10422D0080467BFF7A3D796D803E7BFF7A3D7993A9
:10423D0080367BFF7A3D79B3802E7BFF7A3D79CC3A
:10424D0080267BFF7A3D79E8801E7BFF7A3D79FEE3
:10425D0080167BFF7A3E791A800E7BFF7A3E793984
:10426D0080067BFF7A3E795912A444900036E0FE19
:0F427D00A3E0FF126D38E4900036F0A3F0D28773
:01428C00220F
:0E67F000900010EFF0A3EBF0A3EAF0A3E9F0A5
:1067FE0078147C007D017BFF7A3E79B27E007F06A5
:10680E00122498C287900144E060030268B490009D
:10681E0010E024A560401460030268B112A78A7BC1
:10682E00FF7A3E797612000E90001AEFF09000116A
:10683E00E0FBA3E0FAA3E0F912000E90001AE02F9D
:10684E0004F0E4FDFF12AC1B90001A12AC157BFF96
:10685E007A3E7976803812A78A7BFF7A3E797F124C
:10686E00000E90001AEFF0900011E0FBA3E0FAA3E7
:10687E00E0F912000E90001AE02F04F0E4FDFF1272
:10688E00AC1B90001A12AC157BFF7A3E797F7D010E
:10689E0012A792900011E0FBA3E0FAA3E0F97D01AC
:1068AE0012A792D28722C287900010E024A560170B
:1068BE0014600302694F781B7C007D017BFF7A3EDA
:1068CE0079881228EA803C781B7C007D017BFF7A58
:1068DE003E79981228EA900011E0FBA3E0FAA3E0BB
:1068EE00F912000E90001AEFF024FFFFE434FFFEC1
:1068FE00900011E0FBA3E0FAA3E0F98F828E83E40F
:10690E00122516900011E0F9A3E0FAA3E090005DC5
:10691E00C9F0A3EAF0A3E9F07B017A00791B12A279
:10692E00B390005D74FFF0A3743EF0A37496F07BF9
:10693E00017A00791B12A2B37B017A00791B12A493
:03694E0044D287A9
:016951002223
:09AC1200900035E025E0FFE4FDAF
:05AC1B0090003FEDF088
:10AC200012A998900040EFF090003FE0600AE4FF26
:08AC300012A998900040EFF01A
:01AC380022F9
:08A78A007B017A007914E4FD63
:0EA7920090003AEBF0A3EAF0A3E9F0A3EDF09B
:10A7A000E4A3F090003AE0FBA3E0FAA3E0F9900004
:10A7B0003EE0F5827583001224D7FF601090003DC3
:0DA7C000E0FD12AC1B90003EE004F080D6DE
:01A7CD002269
:0EA6FE00900024EBF0A3EAF0A3E9F0A3EDF046
:10A70C00E4900029F0900027E0FF900029E0FEC3C0
:10A71C009F5024900024E0FBA3E0FAA3E0F98E8282
:10A72C007583001224D7FF900028E0FD12AC1B901B
:07A73C000029E004F080CECB
:01A7430022F3
:0BA4440090003AEBF0A3EAF0A3E9F06F
:10A44F0012000E90003DEFF0E49001BAF090003D45
:10A45F00E0FF9001BAE0C39F503390003AE0FBA3B6
:10A46F00E0FAA3E0F91224BEFF12A99890003BE492
:10A47F0075F00112259FE4FFEFC394C87480948098
:0DA48F0050030F80F39001BAE004F080C08C
:01A49C00229D
:10A00F00900144E07022C2877B017A007915128992
:10A01F004CC29C7B017A007910E4900028F07D0DF2
:10A02F0012A6FED29CD28722C287E4900010F0784D
:10A03F00107C007D017BFF7A3E79A61228EA7B0116
:10A04F007A00791012000E74102FF9E43400FA7BA5
:10A05F0001125B8490005D74FFF0A3743EF0A37453
:10A06F0096F07B017A00791012A2B37B017A007906
:06A07F001012A444D28778
:01A0850022B8
:100026000A20434F4E5452415345D1412041435437
:1000360055414C2056454E4349444120444542458E
:100046002052454E4F564152204645434841205680
:10005600454E43494D49454E544F200A0040232101
:10006600246046625E262A003A5B3C253F58545D72
:100076003D29000D0A0A25733E20002563002564EC
:10008600000D0A0A2041435455414C2049445F4320
:100096004C49454E54453D25730D0A0A000D0A0A82
:1000A60020444947495445205355204E5545564FFF
:1000B6002049445F434C49454E54453D000D0A0ACC
:1000C600204441544F204D4F444946494341444FF3
:1000D6002049445F434C49454E54453D25730D0A1E
:1000E6000A000D0A0A2041435455414C20434F440F
:1000F6005F5041524B3D25730D0A0A000D0A0A2036
:10010600444947495445205355204E5545564F209E
:10011600434F445F5041524B3D000D0A0A20444173
:10012600544F204D4F444946494341444F20434F85
:10013600445F5041524B3D25730D0A0A000D0A0AD1
:100146002041435455414C205449454D504F5F473B
:1001560052414349413D25730D0A0A000D0A0A2002
:10016600444947495445205355204E5545564F203E
:100176005449454D504F5F4752414349413D000D5B
:100186000A0A204441544F204D4F444946494341B1
:10019600444F205449454D504F5F475241434941D2
:1001A6003D25730D0A0A000D0A0A204143545541A4
:1001B6004C2053494E5F434F42524F20494E4841CF
:1001C60042494C495441444F3D25730D0A0A000DDE
:1001D6000A0A2041435455414C2053494E5F434F30
:1001E60042524F204752415449533D25730D0A0A46
:1001F600000D0A0A2041435455414C2053494E5F95
:10020600434F42524F20475241544953205920539D
:10021600414C49444120454C204D49534D4F2044C3
:1002260049413D25730D0A0A000D0A0A2044494733
:10023600495445205355204E5545564F2053494E57
:100246005F434F42524F3D000D0A0A204143545529
:10025600414C20444542554720494E484142494C6D
:10026600495441444F3D25730D0A0A000D0A0A20E0
:1002760041435455414C204445425547204841424C
:10028600494C495441444F3D25730D0A0A000D0A55
:100296000A2044494749544520454C204E55455669
:1002A6004F2045535441444F204445204445425530
:1002B600473D000D0A0A2041435455414C205553F1
:1002C600455F4C505220494E484142494C495441A1
:1002D600444F3D25730D0A0A000D0A0A2041435476
:1002E60055414C205553455F4C5052204841424998
:1002F6004C495441444F3D25730D0A0A000D0A0A24
:100306002044494749544520454C204E5545564FB3
:100316002045535441444F204445205553455F4C96
:1003260050523D000D0A0A2041435455414C20438A
:100336004F4D5041524143494F4E20414354495637
:100346004120494E484142494C495441444F3D257C
:10035600730D0A0A000D0A0A2041435455414C20E8
:10036600434F4D5041524143494F4E20414354491A
:1003760056412020484142494C495441444F3D256D
:10038600730D0A0A000D0A0A2044494749544520BC
:10039600454C204E5545564F2045535441444F2019
:1003A600444520434F4D5041524143494F4E204111
:1003B6004354495641203D000D0A0A2041435455F5
:1003C600414C20434F4D5041524143494F4E2041ED
:1003D60043544956412020494E484142494C4954CC
:1003E60041444F3D25730D0A0A000D0A0A2050416B
:1003F6004E54414C4C41204C434420484142494CC8
:1004060049544144413D25730D0A0A000D0A0A204C
:1004160050414E54414C4C4120524153504245525A
:1004260052592020484142494C49544144413D25B6
:10043600730D0A0A000D0A0A20444947495445200B
:10044600454C204E5545564F2045535441444F2068
:100456004445204C412050414E54414C4C41203D96
:10046600000D0A0A205041534120504F522043416B
:100476004A4120504152412056414C494441522064
:100486004443544F3D25730D0A0A000D0A0A2041C4
:10049600504C494341204445534355454E544F3DE6
:1004A60025730D0A0A000D0A0A2044494749544596
:1004B60020454C204E5545564F2045535441444FF8
:1004C600204445204443544F203D000D0A0A204154
:1004D600435455414C20414E544950415353424197
:1004E600434B204D454E5355414C20494E484142C1
:1004F600494C495441444F3D25730D0A0A000D0AE3
:100506000A2041435455414C20414E5449504153D1
:10051600534241434B204D454E5355414C20484193
:1005260042494C495441444F3D25730D0A0A000D7A
:100536000A0A2044494749544520454C204E554512
:10054600564F2045535441444F20444520414E5474
:1005560049504153534241434B204D454E5355411B
:100566004C3D000D0A0A2041435455414C20414E52
:100576005449504153534241434B20204D454E531D
:1005860055414C20484142494C495441444F3D2530
:10059600730D0A0A000D0A0A2041435455414C20A6
:1005A600414444524553535F484947485F424F418F
:1005B60052443D25730D0A0A000D0A0A2044494794
:1005C600495445204C41204E55455641204144440E
:1005D600524553535F484947485F424F4152443D55
:1005E600000D0A0A2041435455414C20484F5241C0
:1005F60052494F20494E484142494C495441444F83
:100606003D25730D0A0A000D0A0A2041435455413F
:100616004C20484F524152494F20484142494C498B
:100626005441444F3D25730D0A0A000D0A0A204421
:10063600494749544520454C204E5545564F20457F
:10064600535441444F20444520484F524152494F4C
:100656003D000D0A0A2044696769746520486F7277
:10066600612030383A3030204D696E75746F7320D2
:1006760044657364653A20000D0A0A20486F72616A
:100686002050726F6772616D6164612044657364A6
:10069600653A200025633A000D0A0A204469676915
:1006A600746520486F72613A4D696E75746F732078
:1006B60048617374613A20000D0A0A20486F72611E
:1006C6002050726F6772616D616461204861737456
:1006D600613A20000D0A2044657364652020486154
:1006E6007374610D0A002025630025632020200015
:1006F6000D0A0A20446967697465206C6F7320646B
:1007060069617320612070726F6772616D6172201A
:100716004C756E6573203D20322C20004D6172743D
:100726006573203D20332C204D696572636F6C65BF
:1007360073203D20342C204A7565766573203D2054
:10074600352C2000566965726E6573203D20362C67
:100756002053616261646F203D20372C20446F6D09
:10076600696E676F203D2031203A20000D0A0A206D
:10077600446961732050726F6772616D61646F7353
:10078600203A2000204C756E6573003D2025632CB1
:1007960000204D617274657300204D696572636F48
:1007A6006C657300204A7565766573002056696529
:1007B600726E6573002053616261646F0020446F3E
:1007C6006D696E676F003D20256300204C756E6570
:1007D60073203D2050726F6772616D61646F0D0A00
:1007E60000204C756E6573203D204E6F2070726F31
:1007F6006772616D61646F0D0A00204D61727465E8
:1008060073203D2050726F6772616D61646F0D0ACF
:1008160000204D6172746573203D204E6F2070720A
:100826006F6772616D61646F0D0A00204D696572B4
:10083600636F6C6573203D2050726F6772616D61E6
:10084600646F0D0A00204D696572636F6C657320D5
:100856003D204E6F2070726F6772616D61646F0D1F
:100866000A00204A7565766573203D2050726F67D1
:1008760072616D61646F0D0A00204A756576657355
:10088600203D204E6F2070726F6772616D61646FDC
:100896000D0A0020566965726E6573203D20507200
:1008A6006F6772616D61646F0D0A0020566965722B
:1008B6006E6573203D204E6F2070726F6772616D9A
:1008C60061646F0D0A002053616261646F203D20F0
:1008D60050726F6772616D61646F0D0A002053611B
:1008E6006261646F203D204E6F2070726F67726187
:1008F6006D61646F0D0A0020446F6D696E676F202D
:100906003D2050726F6772616D61646F0D0A002041
:10091600446F6D696E676F203D204E6F2070726F59
:100926006772616D61646F0D0A000D0A0A204469E1
:100936006769746520656C206E756D65726F2064DD
:10094600656C20486F726172696F20612070726FEA
:100956006772616D6172203D20000D0A0A20507297
:100966006F6772616D617220736567756E646F2063
:10097600486F726172696F2073693D283129206E54
:100986006F3D2830293D20000D0A0A204143545569
:10099600414C2046454348412056454E43494D4922
:1009A600454E544F2050415353574F52443A2573A6
:1009B6000D0A0A000D0A0A2F3E496420526567692E
:1009C6007374726F3A002573000D0A0A2F3E506148
:1009D6007373776F72643A000D0A0A2044494749D7
:1009E6005445204C41204E554556412046454348E6
:1009F600412044452056454E43494D49454E544FA6
:100A06003D000D0A0A2025730D0A0A000D0A0A2068
:100A16002558000D0A0A2041435455414C204645AD
:100A26004348412044452056454E43494D49454E8D
:100A3600544F2050524F4752414D414441203D258D
:100A4600730D0A0A000D0A206E756D65726F2064BB
:100A5600656C20486F726172696F202070726F67D3
:100A660072616D61646F203D2025630D0A000D0AD9
:100A76002020484F524152494F20484142494C4953
:100A86005441444F20203D204F4E0D0A000D0A20B0
:100A9600446961732050726F6772616D61646F7330
:100AA6000D0A000D0A2020534547554E444F204855
:100AB6004F524152494F20484142494C49544144C2
:100AC6004F20203D204F4E0D0A000D0A205345476A
:100AD600554E444F20484F524152494F20484142BB
:100AE600494C495441444F20203D204F46460D0A6B
:100AF600000D0A2020484F524152494F204841429A
:100B0600494C495441444F20203D204F46460D0A4A
:100B1600000D0A2049445F434C49454E54455F50F9
:100B2600524F4752414D41444F203D2025730D0AF7
:100B3600000D0A20434F445F5041524B5F50524FC5
:100B46004752414D41444F203D2025730D0A000D6B
:100B56000A205449454D504F5F4752414349412071
:100B660050524F4752414D41444F203D2025730D71
:100B76000A000D0A2053494E5F434F42524F204808
:100B86004142494C495441444F203D204F4646205E
:100B96000D0A000D0A2053494E5F434F42524F2023
:100BA6003D204F4E0D0A000D0A2050524F4752412C
:100BB6004D41444F204445425547203D204F4E0D60
:100BC6000A000D0A2050524F4752414D41444F20D2
:100BD6004445425547203D204F46460D0A000D0A22
:100BE600205553455F4C5052203D204F46460D0A36
:100BF600000D0A205553455F4C5052203D204F4E64
:100C06000D0A000D0A0A2020434F4D504152414320
:100C1600494F4E20414354495641203D204F4646B8
:100C26000D0A000D0A0A20434F4D504152414349D7
:100C36004F4E2041435449564120203D204F4E0DF2
:100C46000A000D0A2050414E54414C4C41204C4361
:100C5600442050524F4752414D4144410D0A000D28
:100C66000A2050414E54414C4C412052415350426F
:100C760045525259202050524F4752414D4144410E
:100C86000D0A000D0A0A2020414E54495041535383
:100C96004241434B204D454E5355414C203D204F3C
:100CA60046460D0A000D0A0A2020414E544950417D
:100CB60053534241434B204D454E5355414C203DE5
:100CC600204F4E0D0A0041435455414C20414444A7
:100CD600524553535F484947485F424F415244206B
:100CE60050524F4752414D414441203D2025730DFE
:100CF6000A000D0A2041435455414C2046454348BD
:100D0600412044452056454E43494D49454E544F92
:100D16002050524F4752414D414441203D25730DCD
:100D26000A000D0A2049445F434C49454E5445206C
:100D36002020202D2D2D20434D4420302049646550
:100D46006E746966696361646F722064656C2063A2
:100D56006C69656E7465206D6178696D6F203235DA
:100D660035000D0A20434F445F5041524B2020204E
:100D76002020202D2D2D20434D44203120456C2050
:100D86006E756D65726F2064656C20706172717529
:100D960065616465726F206D6178696D6F203235AB
:100DA60035000D0A20545F47524143494120202017
:100DB6002020202D2D2D20434D44203220546965BE
:100DC6006D706F2073696E20636F62726F203030B2
:100DD6002C20206D6178696D6F20323535000D0A43
:100DE6002053494E5F434F42524F20202020202D52
:100DF6002D2D20434D44203320496E686162696C75
:100E0600697461646F3D20302C2047726174697388
:100E16003D2031202C20477261746973207920733C
:100E2600616C69646120656C206D69736D6F206407
:100E360069613D2032000D0A204445425547202075
:100E4600202020202020202D2D2D20434D442034ED
:100E560020486162696C69746172203D20312C20E2
:100E6600496E686162696C69746172203D20300068
:100E76000D0A205553455F4C50522020202020203B
:100E8600202D2D2D20434D44203520486162696C6C
:100E960069746172203D20312C20496E6861626957
:100EA6006C69746172203D2030000D0A20434F4D5D
:100EB6005041524143494F4E5F41435449564120A8
:100EC6002D2D2D20434D44203620486162696C69E2
:100ED600746172203D20312C20496E686162696C14
:100EE60069746172203D2030000D0A205449504F2C
:100EF6005F50414E54414C4C4120202020202D2D46
:100F06002D20434D442037202830292070616E74EF
:100F1600616C6C61206C6364202073657269652066
:100F260028312920726173706265727279206F2090
:100F3600626C7565746F6F7468000D0A20444354C3
:100F46004F5F504153415F43414A412020202020BA
:100F56002D2D2D20434D4420382028302920706126
:100F6600736120706F722063616A612028312920C5
:100F760061706C69636120656C2064657363756577
:100F86006E746F000D0A205553455F4150425F4D08
:100F9600454E5355414C202020202D2D2D20434DCC
:100FA60044203920486162696C69746172203D2071
:100FB600312C20496E686162696C69746172203DEA
:100FC6002030000D0A20414444524553535F48499E
:100FD60047485F424F415244202D2D2D20434D441A
:100FE600203130204C6120646972656363696F6EDD
:100FF60020616C74612064656C20626F617264208C
:1010060064656C206E756D65726F203520616C208D
:10101600392073696E6F207365207573612064656E
:10102600626520697220656E2030000D0A20484FE7
:10103600524152494F2020202020202020202020CD
:10104600202D2D2D20434D442031312050726F67C5
:10105600616D6120313020686F726172696F732033
:1010660064656C203120616C203130000D0A2056F9
:1010760045525F50524F4752414D4143494F4E20D2
:1010860020202D2D2D20434D44203132204D7565D5
:1010960073747261206C612070726F6772616D612A
:1010A60063696F6E000D0A20415955444120202086
:1010B6002020202020202D2D2D20434D442031336B
:1010C600204D756573747261206C6F7320636F6D4C
:1010D600616E646F73000D0A2053414C4952202003
:1010E600202020202020202D2D2D20434D4420314E
:1010F600342053616C69722064652070726F677268
:10110600616D6163696F6E000D0A0A5369737465D8
:101116006D612064652050726F6772616D616369ED
:101126006F6E207665726966696361646F72206CA2
:10113600696E74656368200D0A0D0A000D0A436F17
:101146006D616E646F206E6F2065786973746520BB
:1011560027257327003A5B3C253F58545D3D2900FF
:10116600232A594A41494D4563616D696C744B00A8
:1011760077727A32357136382D393166532E400002
:0C118600200D0A00200D0A00220D0A00B6
:1088C4005402182F00000000000000000000000007
:1088D4000000000000000049020F61646D696E0031
:1088E4000000006030022C30000031000032000033
:1088F4003300003400003500003600003700003833
:1089040000003900003130003131003132003133A0
:078914000031340031350091
:0B539A00900071EBF0A3EAF0A3E9F033
:1053A50078767C007D017BFF7A11795B7E007F0B2F
:1053B50012249878817C007D017BFF7A1179667EC5
:1053C500007F1012249878917C007D017BFF7A1173
:1053D50079767E007F101224987B017A0079AC7F64
:1053E500507E0312A31E7B017A0079AC128C4EEF1E
:1053F5003395E0FEEF64014E60177BFF7A00792656
:1054050012363478767C007D017BFF7A00796380E3
:105415000C78767C007D017BFF7A00796E1228EA94
:10542500900071E0FBA3E0FAA3E0F912000E9000F2
:1054350074EFF0E4A3F0900075E0FFC3940A748064
:105445009480400302559D900071E0FBA3E0FAA310
:10545500E0F98F827583001224D7FD7C0074762FC6
:10546500F582E43400F583E02DFFEC3390020BF078
:10547500A3EFF07E00540FFFA3EEF0A3EFF0700B47
:10548500E004F0700690020DE004F090020DE0FEDD
:10549500A3E02480F58274003EF583E07E002DFFB5
:1054A500EE3C90020BF0A3EFF07E00540FFFA3EE4D
:1054B500F0A3EFF0700BE004F0700690020DE0042D
:1054C500F090020DE0FEA3E02490F58274003EF515
:1054D50083E0FF90020BE0FEA3E06FFF90020BEE6E
:1054E500F0FEA3EFF0D394FFEE9400400590020B7D
:1054F500E4F090020BE0FEA3E0FFC3947AEE940083
:105505004015D3EF94FFEE9400500CEF547AFF90C2
:10551500020BE4F0A3EFF0C390020CE0943090028C
:105525000BE09400500CA3E02440F090020BE03413
:1055350000F090020BE0FEA3E0FFC3945BEE940045
:105545004014D3EF9460EE9400500BE02407F090E4
:10555500020BE03400F090020BE0FEA3E0FFC394E1
:105565003AEE94004014D3EF9440EE9400500BE0D3
:1055750024F9F090020BE034FFF090020BA3E0FF5A
:10558500900075E024A1F582E43400F583EFF090F6
:105595000075E004F002543BE49000ABF07B017A27
:0355A5000079A1E9
:0155A80022E0
:0BA3840090005AEBF0A3EAF0A3E9F010
:10A38F00E4900060F0900060E0FFC394107480943C
:10A39F00805041EF75F003A4242CF9740235F0FAC4
:10A3AF007B01785D7C007D011228EA785D7C007D61
:10A3BF000190005AE0FBA3E0FAA3E0F9122801EFA5
:10A3CF003395E04F7006900060E0FF22900060E050
:06A3DF0004F080B17FFFD5
:01A3E5002255
:08A85500E0FBA3E0FAA3E0F927
:0BA85D00900071EBF0A3EAF0A3E9F01B
:10A8680078747C007D017B017A02790F1228EA78DE
:10A87800747C007D01900071E0FBA3E0FAA3E0F98D
:0EA88800122801EF3395E04F7002FF227FFF90
:01A89600229F
:06A919007B017A00793297
:0BA91F00900071EBF0A3EAF0A3E9F058
:10A92A0078747C007D017BFF7A1179867E007F0432
:10A93A0012249890007B7401F0A37400F0A374743D
:0FA94A00F0900071E0FBA3E0FAA3E0F902836B49
:10972600E0FBA3E0FAA3E02FF9EA3EFAE92401F907
:03973600E43AFA18
:0B97390090005AEBF0A3EAF0A3E9F067
:10974400785D7C007D017BFF7A11798A7E007F043D
:1097540012249878617C007D017BFF7A11798E7EDA
:10976400007F0412249890005AE0FBA3E0FAA3E0DF
:10977400F91224BEFFB4200C90005BE475F00112D2
:10978400259F80E2EF90007BB4220D7401F0A37456
:1097940000F0A37461F080167401F0A37400F0A3C8
:1097A400745DF090005AE0FBA3E0FAA3E0F91283A1
:0197B4006B49
:0197B5002291
:10AD98009000B37401F0A37402F0A37418F07BFF61
:07ADA8007A007979023634CC
:089E13007A0079777B01E4FD80
:0E9E1B00900085EBF0A3EAF0A3E9F0A3EDF0D0
:109E290012AE79900085E0FBA3E0FAA3E0F9EF1206
:109E39002504900088E0701D900085E0FBA3E0FAFE
:109E4900A3E0F91224BE9000B3F07BFF7A00798178
:109E590012363480057F2A12A998900085E0FBA369
:109E6900E0FAA3E0F91224BEFF7E00900086E475B3
:109E7900F00112259F900085E0FBA3E0FAA3E0F929
:099E8900E4122504EF640D70974A
:019E920022AD
:108D0900E4FDFC7FA812AA177E00900064EEF0A390
:108D1900EFF09000B374FFF0A37400F0A37484F033
:108D2900A3EEF0A3EFF07B017A00795A12362E9068
:108D390000B37401F0A37400F0A3745AF07BFF7AB6
:108D49000079871236347BFF7A0079A31236347A98
:108D590000795A129E177B017A00795A12852D9053
:108D69000064EEF0A3EFF0FBE4FDFC7FA812A4B4CD
:108D7900E4FDFC7FA812AA177E00900064EEF0A320
:108D8900EFF09000B374FFF0A37400F0A37484F0C3
:108D9900A3EEF0A3EFF07B017A00795A12362E90F8
:108DA90000B37401F0A37400F0A3745AF07BFF7A46
:068DB9000079C30236340C
:108AD4007D027C007FA812AA177E00900064EEF04D
:108AE400A3EFF09000B374FFF0A37400F0A37484B8
:108AF400F0A3EEF0A3EFF07B017A00795A12362E40
:108B04009000B37401F0A37400F0A3745AF07BFFD7
:108B14007A0079E81236347BFF7A0179021236340E
:108B24007B017A00795AE4FD129E1B7B017A00795D
:108B34005A12852D900064EEF0A3EFF0FB7D027CC9
:108B4400007FA812A4B47D027C007FA812AA177E1D
:108B540000900064EEF0A3EFF09000B374FFF0A374
:108B64007400F0A37484F0A3EEF0A3EFF07B017A19
:108B740000795A12362E9000B37401F0A37400F0F9
:0D8B8400A3745AF07BFF7A01792002363489
:108B91007D047C007FA812AA177E00900064EEF08D
:108BA100A3EFF09000B374FFF0A37400F0A37484FA
:108BB100F0A3EEF0A3EFF07B017A00795A12362E82
:108BC1009000B37401F0A37400F0A3745AF07BFF1A
:108BD1007A0179431236347BFF7A01796212363495
:108BE1007B017A00795AE4FD129E1B7B017A0079A0
:108BF1005A12852D900064EEF0A3EFF0FB7D047C0A
:108C0100007FA812A4B47D047C007FA812AA177E5D
:108C110000900064EEF0A3EFF09000B374FFF0A3B6
:108C21007400F0A37484F0A3EEF0A3EFF07B017A5B
:108C310000795A12362E9000B37401F0A37400F03B
:0D8C4100A3745AF07BFF7A01798502363466
:106E77007D067C007FA812AA177E00900064EEF0C2
:106E8700A3EFF09000B374FFF0A37400F0A3748431
:106E9700F0A3EEF0A3EFF07B017A00795A12362EB9
:106EA700900064E07002A3E070159000B304F0A3B3
:106EB7007400F0A3745AF07BFF7A0179AD803590A6
:106EC7000064E07004A3E0640170159000B304F05F
:106ED700A37400F0A3745AF07BFF7A0179D580146C
:106EE7009000B37401F0A37400F0A3745AF07BFF11
:106EF7007A0179F71236347BFF7A02792F1236340A
:106F07007B017A00795AE4FD129E1B7B017A007996
:106F17005A12852D900064EEF0A3EFF0FB7D067CFE
:106F2700007FA812A4B47D067C007FA812AA177E52
:106F370000900064EEF0A3EFF09000B374FFF0A3AD
:106F47007400F0A37484F0A3EEF0A3EFF07B017A52
:106F570000795A12362E900064E07002A3E0701593
:106F67009000B304F0A37400F0A3745AF07BFF7A87
:106F77000179AD8035900064E07004A3E06401708E
:106F8700159000B304F0A37400F0A3745AF07BFFCC
:106F97007A0179D580149000B37401F0A37400F0DE
:0D6FA700A3745AF07BFF7A0179F71236349B
:016FB40022BA
:107BA4007D087C007FA812AA177E00900064EEF086
:107BB400A3EFF09000B374FFF0A37400F0A37484F7
:107BC400F0A3EEF0A3EFF07B017A00795A12362E7F
:107BD400900064E07002A3E070159000B304F0A379
:107BE4007400F0A3745AF07BFF7A02794E801490EB
:107BF40000B37401F0A37400F0A3745AF07BFF7A0D
:107C04000279721236347BFF7A0279941236347B0D
:107C1400017A00795AE4FD129E1B7B017A00795A9D
:107C240012852D900064EEF0A3EFF0FB7D087C003C
:107C34007FA812A4B47D087C007FA812AA177E0036
:107C4400900064EEF0A3EFF09000B374FFF0A3741F
:107C540000F0A37484F0A3EEF0A3EFF07B017A00AC
:107C6400795A12362E900064E07002A3E0701590E9
:107C740000B304F0A37400F0A3745AF07BFF7A02FB
:107C8400794E80149000B37401F0A37400F0A374CF
:0B7C94005AF07BFF7A0279721236343E
:017C9F0022C2
:107CA0007D0A7C007FA812AA177E00900064EEF087
:107CB000A3EFF09000B374FFF0A37400F0A37484FA
:107CC000F0A3EEF0A3EFF07B017A00795A12362E82
:107CD000900064E07002A3E070159000B304F0A37C
:107CE0007400F0A3745AF07BFF7A0279B980149083
:107CF00000B37401F0A37400F0A3745AF07BFF7A10
:107D00000279DF1236347BFF7A0379031236347B33
:107D1000017A00795AE4FD129E1B7B017A00795AA0
:107D200012852D900064EEF0A3EFF0FB7D0A7C003D
:107D30007FA812A4B47D0A7C007FA812AA177E0037
:107D4000900064EEF0A3EFF09000B374FFF0A37422
:107D500000F0A37484F0A3EEF0A3EFF07B017A00AF
:107D6000795A12362E900064E07002A3E0701590EC
:107D700000B304F0A37400F0A3745AF07BFF7A02FE
:107D800079B980149000B37401F0A37400F0A37467
:0B7D90005AF07BFF7A0279DF123634D4
:017D9B0022C5
:107D9C007D0C7C007FA812AA177E00900064EEF088
:107DAC00A3EFF09000B374FFF0A37400F0A37484FD
:107DBC00F0A3EEF0A3EFF07B017A00795A12362E85
:107DCC00900064E07002A3E070159000B304F0A37F
:107DDC007400F0A3745AF07BFF7A03792A80149014
:107DEC0000B37401F0A37400F0A3745AF07BFF7A13
:107DFC0003795B1236347BFF7A03798B1236347B32
:107E0C00017A00795AE4FD129E1B7B017A00795AA3
:107E1C0012852D900064EEF0A3EFF0FB7D0C7C003E
:107E2C007FA812A4B47D0C7C007FA812AA177E0038
:107E3C00900064EEF0A3EFF09000B374FFF0A37425
:107E4C0000F0A37484F0A3EEF0A3EFF07B017A00B2
:107E5C00795A12362E900064E07002A3E0701590EF
:107E6C0000B304F0A37400F0A3745AF07BFF7A0300
:107E7C0079BE80149000B37401F0A37400F0A37465
:0B7E8C005AF07BFF7A03795B1236345A
:017E970022C8
:107E98007D0E7C007FA812AA177E00900064EEF089
:107EA800A3EFF09000B374FFF0A37400F0A3748400
:107EB800F0A3EEF0A3EFF07B017A00795A12362E88
:107EC800900064E07002A3E070159000B304F0A382
:107ED8007400F0A3745AF07BFF7A0379F080149051
:107EE80000B37401F0A37400F0A3745AF07BFF7A16
:107EF8000479121236347BFF7A04793B1236347BCC
:107F0800017A00795AE4FD129E1B7B017A00795AA6
:107F180012852D900064EEF0A3EFF0FB7D0E7C003F
:107F28007FA812A4B47D0E7C007FA812AA177E0039
:107F3800900064EEF0A3EFF09000B374FFF0A37428
:107F480000F0A37484F0A3EEF0A3EFF07B017A00B5
:107F5800795A12362E900064E07002A3E0701590F2
:107F680000B304F0A37400F0A3745AF07BFF7A0303
:107F780079F080149000B37401F0A37400F0A37436
:0B7F88005AF07BFF7A047912123634A5
:017F930022CB
:107F94007D0F7C007FA812AA177E00900064EEF08B
:107FA400A3EFF09000B374FFF0A37400F0A3748403
:107FB400F0A3EEF0A3EFF07B017A00795A12362E8B
:107FC400900064E07002A3E070159000B304F0A385
:107FD4007400F0A3745AF07BFF7A047967801490DC
:107FE40000B37401F0A37400F0A3745AF07BFF7A19
:107FF4000479911236347BFF7A0479AC1236347BDF
:10800400017A00795AE4FD129E1B7B017A00795AA9
:1080140012852D900064EEF0A3EFF0FB7D0F7C0041
:108024007FA812A4B47D0F7C007FA812AA177E003B
:10803400900064EEF0A3EFF09000B374FFF0A3742B
:1080440000F0A37484F0A3EEF0A3EFF07B017A00B8
:10805400795A12362E900064E07002A3E0701590F5
:1080640000B304F0A37400F0A3745AF07BFF7A0405
:10807400796780149000B37401F0A37400F0A374C2
:0B8084005AF07BFF7A04799112363429
:01808F0022CE
:108090007D157C007FA812AA177E00900064EEF088
:1080A000A3EFF09000B374FFF0A37400F0A3748406
:1080B000F0A3EEF0A3EFF07B017A00795A12362E8E
:1080C000900064E07002A3E070159000B304F0A388
:1080D0007400F0A3745AF07BFF7A0479D180149075
:1080E00000B37401F0A37400F0A3745AF07BFF7A1C
:1080F0000579041236347BFF7A0579351236347BE4
:10810000017A00795AE4FD129E1B7B017A00795AAC
:1081100012852D900064EEF0A3EFF0FB7D157C003E
:108120007FA812A4B47D157C007FA812AA177E0038
:10813000900064EEF0A3EFF09000B374FFF0A3742E
:1081400000F0A37484F0A3EEF0A3EFF07B017A00BB
:10815000795A12362E900064E07002A3E0701590F8
:1081600000B304F0A37400F0A3745AF07BFF7A0408
:1081700079D180149000B37401F0A37400F0A3745B
:0B8180005AF07BFF7A05796912363453
:01818B0022D1
:10844F007D127C007FA812AA177E00900064EEF0C8
:10845F00A3EFF09000B374FFF0A37400F0A3748443
:10846F00F0A3EEF0A3EFF07B017A00795A12362ECB
:10847F00900064E07002A3E070069000B3048005E2
:10848F009000B37401F0A37400F0A3745AF07BFF53
:10849F007A05799B1236347BFF7A0579BF12363411
:1084AF007B017A00795AE4FD129E1B7B017A0079D9
:1084BF005A12852D900064EEF0A3EFF0FB7D127C35
:1084CF00007FA812A4B47D127C007FA812AA177E89
:1084DF0000900064EEF0A3EFF09000B374FFF0A3F0
:1084EF007400F0A37484F0A3EEF0A3EFF07B017A95
:1084FF0000795A12362E900064E07002A3E07006E5
:10850F009000B30480059000B37401F0A37400F0E1
:0D851F00A3745AF07BFF7A05799B12363465
:01852C00222C
:10AB38009000887419F0A37432F0A3744BF0A374D6
:10AB480064F0A3747DF0A37496F0A374AFF0A374BB
:10AB5800C8F0A374E1F0A374FAF0E4A3F07B017ADF
:03AB6800007988E9
:01AB6B0022C7
:0A733D00900075EEF0FCA3EFF0FDE8
:107347007FA812AA177E00900081EEF0A3EFF090BD
:1073570000B374FFF0A37400F0A37484F0A3EEF0FD
:10736700A3EFF07B017A00797712362E900081E047
:107377007002A3E070159000B304F0A37400F0A3AB
:107387007477F07BFF7A0579E780149000B3740176
:10739700F0A37400F0A37477F07BFF7A06790D12DF
:1073A70036347BFF7A0679311236347B017A0079DD
:1073B70077E4FD129E1B7B017A00797712852D9069
:1073C7000081EEF0A3EFF0900075E0FCA3E0FDABC9
:1073D700077FA812A4B4900075E0FCA3E0FD7FA886
:1073E70012AA177E00900081EEF0A3EFF09000B391
:1073F70074FFF0A37400F0A37484F0A3EEF0A3EF7E
:10740700F07B017A00797712362E900081E07002C6
:10741700A3E09000837018F0A3F09000B304F0A3EA
:107427007400F0A37477F07BFF7A0579E78017E49F
:10743700F0A304F09000B3F0A37400F0A37477F006
:0F7447007BFF7A06790D123634900083A3E0FFA5
:017456002213
:0855A900900075EEF0A3EFF095
:1055B1007BFF7A067958123634129E137BFF7A06E6
:1055C100797E123634900076E02407FD900075E074
:1055D1003400FC900077E0FB7FA812A4B490007621
:1055E100E02407FD900075E03400FC7FA812AA17A3
:1055F1007BFF7A0079819000B3EFF012363490008E
:1056010076E02408FD900075E03400FC900078E01D
:10561100FB7FA812A4B4900076E02408FD900075E9
:10562100E03400FC7FA812AA177BFF7A06799A90D2
:1056310000B3EFF0123634900076E02409FD9000BB
:1056410075E03400FC90007AE0FB7FA812A4B490CE
:105651000076E02409FD900075E03400FC7FA8127B
:10566100AA177BFF7A0079819000B3EFF0123634EC
:10567100900076E0240AFD900075E03400FC900073
:105681007BE0FB7FA812A4B4900076E0240AFD9091
:105691000075E03400FC7FA812AA177BFF7A00791D
:1056A100819000B3EFF01236347BFF7A06799E12B7
:1056B1003634129E137BFF7A0679BE12363490007F
:1056C10076E0240BFD900075E03400FC900077E05B
:1056D100FB7FA812A4B4900076E0240BFD90007526
:1056E100E03400FC7FA812AA177BFF7A0079819031
:1056F10000B3EFF0123634900076E0240CFD9000F8
:1057010075E03400FC900078E0FB7FA812A4B4900F
:105711000076E0240CFD900075E03400FC7FA812B7
:10572100AA177BFF7A06799A9000B3EFF01236340C
:10573100900076E0240DFD900075E03400FC9000AF
:105741007AE0FB7FA812A4B4900076E0240DFD90CE
:105751000075E03400FC7FA812AA177BFF7A00795C
:10576100819000B3EFF0123634900076E0240EFD04
:10577100900075E03400FC90007BE0FB7FA812A450
:10578100B4900076E0240EFD900075E03400FC7FBB
:10579100A812AA177BFF7A0079819000B3EFF0027B
:0257A10036349C
:08745700900088EEF0A3EFF0B5
:10745F007BFF7A0679DA123634900089E02407FD33
:10746F00900088E03400FC7FA812AA177BFF7A06F1
:10747F0079EC9000B3EFF0123634900089E02408D5
:10748F00FD900088E03400FC7FA812AA177BFF7ADA
:10749F0006799A9000B3EFF0123634900089E02409
:1074AF0009FD900088E03400FC7FA812AA177BFF2B
:1074BF007A0079819000B3EFF0123634900089E0B2
:1074CF00240AFD900088E03400FC7FA812AA177BE5
:1074DF00FF7A0679F09000B3EFF0123634900089FE
:1074EF00E0240BFD900088E03400FC7FA812AA175F
:1074FF007BFF7A0079819000B3EFF0123634900061
:10750F0089E0240CFD900088E03400FC7FA812AACB
:10751F00177BFF7A06799A9000B3EFF0123634900A
:10752F000089E0240DFD900088E03400FC7FA81254
:10753F00AA177BFF7A0079819000B3EFF0123634EF
:10754F00900089E0240EFD900088E03400FC7FA8B5
:10755F0012AA177BFF7A0079819000B3EFF0023601
:01756F0034E7
:084EC900900075EEF0A3EFF07C
:104ED1007BFF7A0679F61236347BFF7A0779221244
:104EE10036347BFF7A07794A1236347B017A0079AE
:104EF10077E4FD129E1B7BFF7A077972123634E448
:104F0100900082F0900082E0FFC394087480948046
:104F1100400302517F74772FF582E43400F583E07A
:104F2100900083F0643270437BFF7A07798A1236EE
:104F310034900076E02401FD900075E03400FC7BA4
:104F4100327FA812A4B4900076E02401FD90007590
:104F5100E03400FC7FA812AA17900081EFF07BFFDC
:104F61007A0779919000B3F0123634900082E024F0
:104F710077F582E43400F583E0900083F0643370C8
:104F8100437BFF7A077997123634900076E024024A
:104F9100FD900075E03400FC7B337FA812A4B4902F
:104FA1000076E02402FD900075E03400FC7FA81239
:104FB100AA17900081EFF07BFF7A0779919000B3F7
:104FC100F0123634900082E02477F582E43400F563
:104FD10083E0900083F0643470437BFF7A07799F0C
:104FE100123634900076E02403FD900075E0340021
:104FF100FC7B347FA812A4B4900076E02403FD90DA
:105001000075E03400FC7FA812AA17900081EFF030
:105011007BFF7A0779919000B3F0123634900082C9
:10502100E02477F582E43400F583E0900083F064B6
:105031003570437BFF7A0779AA123634900076E007
:105041002404FD900075E03400FC7B357FA812A498
:10505100B4900076E02404FD900075E03400FC7FFC
:10506100A812AA17900081EFF07BFF7A077991903F
:1050710000B3F0123634900082E02477F582E434F4
:1050810000F583E0900083F0643670437BFF7A077C
:1050910079B2123634900076E02405FD900075E077
:1050A1003400FC7B367FA812A4B4900076E024057E
:1050B100FD900075E03400FC7FA812AA17900081D2
:1050C100EFF07BFF7A0779919000B3F012363490BC
:1050D1000082E02477F582E43400F583E0900083D8
:1050E100F0643770437BFF7A0779BB123634900046
:1050F10076E02406FD900075E03400FC7B377FA844
:1051010012A4B4900076E02406FD900075E034000E
:10511100FC7FA812AA17900081EFF07BFF7A077934
:10512100919000B3F0123634900082E02477F5823A
:10513100E43400F583E0900083F0643170377BFF45
:105141007A0779C3123634900075E0FCA3E0FD7B49
:10515100317FA812A4B4900075E0FCA3E0FD7FA804
:1051610012AA17900081EFF07BFF7A0779CC9000AB
:0E517100B3F0123634900082E004F0024F05D5
:01517F00220D
:08721500900088EEF0A3EFF0F9
:10721D002401FDE43EFC7FA812AA1790008AEFF02E
:10722D0064327BFF70067A0779D180047A0779E79B
:10723D00123634900089E02402FD900088E034007D
:10724D00FC7FA812AA1790008AEFF064337BFF70C1
:10725D00067A08790080047A08791712363490007E
:10726D0089E02403FD900088E03400FC7FA812AA79
:10727D001790008AEFF064347BFF70067A0879313D
:10728D0080047A08794B123634900089E02404FD8D
:10729D00900088E03400FC7FA812AA1790008AEFB6
:1072AD00F064357BFF70067A08796880047A087976
:1072BD007F123634900089E02405FD900088E0347B
:1072CD0000FC7FA812AA1790008AEFF064367BFFAE
:1072DD0070067A08799980047A0879B1123634905B
:1072ED000089E02406FD900088E03400FC7FA812A0
:1072FD00AA1790008AEFF064377BFF70067A087941
:10730D00CC80047A0879E3123634900088E0FCA32F
:10731D00E0FD7FA812AA1790008AEFF064317BFF81
:0F732D0070067A0879FD80047A097915123634D2
:01733C00222E
:106AB30012AB3878647C007D011228EA7BFF7A09E7
:106AC30079301236347B017A00795AE4FD129E1B29
:106AD3007B017A00795A12852DEF14900074F0E04F
:106AE3002464F582E43400F583E0FF7E0090006FB8
:106AF300EEF0A3EFF0A3EEF0A3EFF0900070E0242C
:106B03000FF090006FE03400F0E0FEA3E0FF12739B
:106B13003D900071E0FFA3E090006FCFF0A3EFF092
:106B23009000747401F0900074E0FFC394087480C3
:106B33009480501C900070E02FFD90006FE03400B3
:106B4300FC7BFF7FA812A4B4900074E004F080D60D
:106B5300900071E0FEA3E0FF90006FEEF0A3EFF072
:106B6300124EC990006FE0FEA3E0FF1255A97BFF10
:106B73007A0979601236347B017A00795AE4FD127E
:106B83009E1B7B017A00795A12852D900073EFF0DA
:106B9300FB900070E02410FD90006FE03400FC7F58
:106BA300A812A4B4900070E02410FD90006FE034AC
:106BB30000FC7FA812AA17900073EFF09000B37443
:106BC300FFF0A37400F0A37484F0A3EFF07B017AC9
:106BD30000795A12362E900073E06401701690000B
:106BE30070E0240AF090006FE03400F0E0FEA3E0D0
:046BF300FF1255A98F
:016BF700227B
:1057A3007B017A00795A7F507E0312A31E90007406
:1057B3007401F0A37400F0A37468F07B017A00799C
:1057C3005A1295739000B37401F0A37400F0A3749C
:1057D30068F07BFF7A09798E1236347BFF7A097978
:1057E300BA1236347B017A00795A7F007E0312A302
:1057F3001E9000B37401F0A37400F0A3745AF07BFD
:10580300FF7A0979CC1236347B017A00795A125324
:105813009A780F7C027D011228EA7BFF7A0979CFFF
:105823001236347B017A00795A7D01129E1B7B016B
:105833007A00795A12A91F900065EBF0A3EAF0A34E
:10584300E9F07B017A02790F7F007E0312A16C904D
:10585300006512A855EF70837BFF7A0979DE123653
:10586300347B017A00795AE4FD129E1B9000B374D5
:1058730001F0A37400F0A3745AF07BFF7A0A79084D
:1058830012363490005AE0900068F090005BE0908C
:105893000069F0E4A3F07B017A00796812852D900A
:1058A300006FEEF0A3EFF07BFF7A0A79129000B35A
:1058B300EEF0A3EFF012363490006FA3E0FB7D50BF
:1058C3007C037FA812A4B490005CE0900068F09081
:1058D300005DE0900069F0E4A3F07B017A00796851
:1058E30012852D90006FEEF0A3EFF07BFF7A0A791B
:1058F300129000B3EEF0A3EFF012363490006FA3D2
:10590300E0FB7D517C037FA812A4B490005EE0907D
:105913000068F090005FE0900069F0E4A3F07B0181
:105923007A00796812852D90006FEEF0A3EFF07B7B
:10593300FF7A0A79129000B3EEF0A3EFF012363437
:1059430090006FA3E0FB7D527C037FA812A4B4E414
:10595300FB7D537C037FA812A4B47B017A00795AA0
:105963007F507E0312A31E9000747401F0A3740091
:10597300F0A37468F07B017A00795A129573900052
:10598300B37401F0A37400F0A37468F07BFF7A0A88
:05599300791902363411
:106FB50012AB3878777C007D011228EAE4900082D4
:106FC500F0900082E0FFC3940A748094804003022D
:106FD50070EB7BFF7A0A794BEF24319000B3F01206
:106FE5003634900082E02477F582E43400F583E0BE
:106FF500FF7E00900083EEF0A3EFF0A3EEF0A3EF89
:10700500F0900084E0240FF0900083E03400F0E07D
:10701500FCA3E0FD7FA812AA17900087EFF090006F
:10702500B374FFF0A37400F0A37484F0A3EFF07BB6
:10703500017A00796D12362E900087E064016003B5
:107045000270D97BFF7A0A79741236347BFF7A0A8B
:107055007993123634900085E0FEA3E0FF9000831B
:10706500EEF0A3EFF0127215900083E0FEA3E0FFAF
:10707500127457900084E02410FD900083E03400E2
:10708500FC7FA812AA17900087EFF09000B374FF59
:10709500F0A37400F0A37484F0A3EFF07B017A00F1
:1070A500796D12362E900087E064017BFF701F7AA0
:1070B5000A79A9123634900084E0240AF0900083FE
:1070C500E03400F0E0FEA3E0FF127457800F7A0A67
:1070D50079D080067BFF7A0A79F7123634900082E0
:0670E500E004F0026FC69A
:0170EB002282
:10428D00E4FDFC7FA812AA177E00900064EEF0A357
:10429D00EFF09000B374FFF0A37400F0A37484F0FA
:1042AD00A3EEF0A3EFF07B017A00795A12362E902F
:1042BD0000B37401F0A37400F0A3745AF07BFF7A7D
:1042CD000B79171236347D027C007FA812AA177E57
:1042DD0000900064EEF0A3EFF09000B374FFF0A334
