:106AF3004100C90A4100FC00410107004100FD00BB
:106B030041010D00410104004200FE000041010665
:0D6B13000641010E0341010CF2C10AC10947
:03000B00027D7AF9
:107D7A00C0E0C083C0829000C9E06401700604F0CC
:107D8A00C28D801C9000C9E014F09000FCE004F061
:107D9A009000FFE004F070069000FEE004F0C28D4F
:077DAA00D082D083D0E0324B
:1080E200E58954F04401F589E4F58CF58AD28C22B5
:05817000C28DD2A9221E
:03817A00C2A92275
:0B811100127EB4EFF47002EEF460F593
:01811C002240
:057C4F0090009DEFF024
:107C540090009DE0FF127D05EF3395E04F6024E432
:107C640090009EF0A3F0C390009FE094E890009EE3
:107C7400E0940350DBA3E004F070EB90009EE0047A
:087C8400F080E390009DE0FF99
:017C8C0022D5
:0E797000900034EBF0A3EAF0A3E9F0A3EDF0F1
:10797E00E4A3F0900037E0FFA3E0C39F50299000EE
:10798E0034E0FBA3E0FAA3E0F91212E1FF127C4F00
:10799E00900039EFF0900035E475F0011213B090BD
:0779AE000038E004F080CC7A
:0179B50022AF
:1080F20012817512813912811DC283D287C29722E1
:107129001280E2128170127E13127E651280F2D2F1
:10713900AF127FC57F217E0012807612804B7F615E
:107149001278991281402091031247D11277A01227
:10715900522CEF70FA9000C97403F020093F208087
:107169000E7B017A0079A1126C28900000EFF012D1
:10717900002620B32B7B017A0079A1126A5790006F
:1071890000EFF0FD7B017A0079A11236207B017AAC
:107199000079A1900000E0FD1278E1800312002639
:0571A9001272B380B674
:107CCA007072696D6172696F204243433D20000DF5
:107CDA000A0063616C63756C6F204243433D200068
:107CEA005245454E56494152207472616D61204891
:0B7CFA006F72613A20004C49564500B3
:0E362000900001EBF0A3EAF0A3E9F0A3EDF0B7
:10362E00E4A3F07D0AFC7FA8127C919001B2EFF02A
:10363E00900004E0FF641A6003023773900001E00B
:10364E00FBA3E0FAA3E0F91212E164026003023771
:10365E00739000021212FA64486003023773FE740C
:10366E00FE2FF582EE34FFF5831212FA6403600327
:10367E000237737BFF7A7C79CA127AD1900001E00F
:10368E00FBA3E0FAA3E0F99000191212FAFF1279E7
:10369E00297BFF7A7C79D9127AD1E4FC900004E080
:1036AE0014FEECC39E501F900001E0FBA3E0FAA3B2
:1036BE00E0F9AF048F827583001212FAFE900005B6
:1036CE00E06EF00C80D67BFF7A7C79DC127AD1909A
:1036DE000005E0FF1279297BFF7A7C79D9127AD125
:1036EE00900001E0FBA3E0FAA3E0F990001912129A
:1036FE00FAFF900005E0B50726E92403F9E43AFA4B
:10370E001255D3EF6003023A38900001E0FBA3E0BC
:10371E00FAA3E02403F9E43AFA126EFE027433902F
:10372E0000067402F0A37405F0A37403F0E4A3F092
:10373E007B017A0079067D0412651A7BFF7A7C790B
:10374E00EA127AD1900006E0FF127929900007E084
:10375E00FF127929900008E0FF1279297BFF7A7C0D
:10376E0079D9027AD1900001E0FBA3E0FAA3E0F947
:10377E001212E164B670289001B1E004F0E0D39427
:10378E0004748094805003023A387FAE12242AC209
:10379E0082E49000FCF0C297C2839001B1F02290B7
:1037AE000001E0FBA3E0FAA3E0F91212E1FF64B717
:1037BE006005EF64AA70539000FCE0C3941474800B
:1037CE0094804008E4F0C297D282C283900100E058
:1037DE006003023A389001B2E064016003023A38A5
:1037EE00C39000FFE094589000FEE0940250030254
:1037FE003A38E4F0A3F090010004F07BFF7A7D7973
:10380E0000127AD1E4900100F022900001E0FBA3B7
:10381E00E0FAA3E0F91212E164B170057F6002399B
:10382E002C900001E0FBA3E0FAA3E0F91212E16490
:10383E00B270057F5D02392C900004E0FF640370C6
:10384E002A900001E0FBA3E0FAA3E0F99000011238
:10385E0012FA64557015FE74FF2FF582EE34FFF5E3
:10386E00831212FA64037003027DB1900004E064C7
:10387E00017017900001E0FBA3E0FAA3E0F9121229
:10388E00E164A170057F5A02392C900004E06401B6
:10389E007016900001E0FBA3E0FAA3E0F91212E12A
:1038AE00640670047FAB8076900004E064017016AD
:1038BE00900001E0FBA3E0FAA3E0F91212E1640725
:1038CE0070047F5F8058900004E0640170169000D1
:1038DE0001E0FBA3E0FAA3E0F91212E16408700420
:1038EE007F61803A900004E064017016900001E060
:1038FE00FBA3E0FAA3E0F91212E1640970047FAFB2
:10390E00801C900004E064017017900001E0FBA39E
:10391E00E0FAA3E0F91212E164B470057F5E0224AE
:10392E002A900004E0FF64137038900001E0FBA3BE
:10393E00E0FAA3E0F99000011212FAB456247E00C8
:10394E0074FF2FF582EE34FFF5831212FA640370C2
:10395E0011900001A3A3E02402F9E43AFA7F5B027E
:10396E003A35900004E0FF64066003023A38900096
:10397E0001E0FBA3E0FAA3E0F91212E16402600396
:10398E00023A389000011212FA64576003023A3874
:10399E00FE74FF2FF582EE34FFF5831212FA6403E4
:1039AE006003023A38900001A3A39000021212FAAB
:1039BE00FD7B017A0079061277F69000097420F0EB
:1039CE00900001E0FBA3E0FAA3E0F99000031212CD
:1039DE00FAFD900001A3A39000041212FA900015B4
:1039EE00F07B017A00790A123A399001B2E0640153
:1039FE0070211275A2EFF460077FAB12242A8009A2
:103A0E007B017A00790612608C7B017A0079067F41
:103A1E005C80141275A2EFF460057FAB12242A7B32
:0A3A2E00017A0079067F5C124F81D7
:013A3800226B
:0B6C2800900001EBF0A3EAF0A3E9F0FC
:106C3300E4900005F0A3740BF09001B2E0640170DE
:106C430073900004F0900006E0FF900004E0C39FFF
:106C53005053E4FFFEFD30801DED701A0FBF00019D
:106C63000ED3EF9420EE944E40EC7D01900006E0AD
:106C7300900004F080E0ED6401602A900005E004D8
:106C8300F01270A1900001E0FBA3E0FAA3E0F9EF9A
:106C9300121327900002E475F0011213B090000460
:106CA300E004F080A0900001E0FBA3E0FAA3E0F988
:096CB300E4121327900005E0FF34
:016CBC0022B5
:0E7B0F00900033EBF0A3EAF0A3E9F0A3EDF051
:107B1D00E4A3F0900036E0FFA3E0C39F5024900053
:107B2D0033E0FBA3E0FAA3E0F91212E1FF1278991A
:107B3D00900034E475F0011213B0900037E004F0BA
:027B4D0080D1E5
:017B4F002213
:0B608C00900011EBF0A3EAF0A3E9F094
:106097009000327403F090001414F012809A90006C
:1060A70015EFF0A37453F0900104E09000326013F1
:1060B700E0FF04F074142FF582E43400F583744D87
:1060C700F08011E0FF04F074142FF582E43400F53A
:1060D700837443F09000327404F0900011E0FBA346
:1060E700E0FAA3E0F91212E1FF6021900032E02408
:1060F70014F582E43400F583EFF0900012E475F0B4
:10610700011213B0900032E004F080CE900032E02C
:10611700FF04F074142FF582E43400F583743AF029
:10612700900032E02414F9E43400FA7B011242684B
:10613700900032E0FF241EF582E43400F583743AC0
:10614700F0741F2FF582E43400F5837403F07B01AC
:0B6157007A007914EF240CFD027B0F8E
:0B3FD60090000EEBF0A3EAF0A3E9F06E
:103FE1009000327403F090001414F012809A900043
:103FF10015EFF0A37453F0900011E0FBA3E0FAA3D6
:10400100E0F99000081212FA9000326013E0FF0408
:10401100F074142FF582E43400F583744DF08011AF
:10402100E0FF04F074142FF582E43400F583744347
:10403100F090000EE0FBA3E0FAA3E0F91212E1FF19
:10404100900032E0FE04F074142EF582E43400F5A1
:1040510083EFF090000FE475F0011213B090000EA1
:10406100E0FBA3E0FAA3E0F91212E170C490003280
:10407100E0FF04F074142FF582E43400F583743A00
:10408100F0900011E0FBA3E0FAA3E0F91212E1FFC6
:10409100127F20AD077C00ED54F0FFE4C4F854F02A
:1040A100C8EFC4540F484430FF900032E0FE04F0E2
:1040B10074142EF582E43400F583EFF0ED540F44CF
:1040C10030FF900032E0FE04F074142EF582E434E7
:1040D10000F583EFF0900011E0FBA3E0FAA3E0F913
:1040E1009000011212FAFF127F207C00AD07ED54FF
:1040F100F0FFE4C4F854F0C8EFC4540F484430FF53
:10410100900032E0FE04F074142EF582E43400F5E0
:1041110083EFF0ED540F4430FF900032E0FE04F0E5
:1041210074142EF582E43400F583EFF0900011E071
:10413100FBA3E0FAA3E0F99000021212FAFF127F4A
:10414100207C00AD07ED54F0FFE4C4F854F0C8EF53
:10415100C4540F484430FF900032E0FE04F0741460
:104161002EF582E43400F583EFF0ED540F4430FF77
:10417100900032E0FE04F074142EF582E43400F570
:1041810083EFF0900011E0FBA3E0FAA3E0F99000C7
:10419100031212FAFF127F207C00AD07ED54F0FFED
:1041A100E4C4F854F0C8EFC4540F484430FF900001
:1041B10032E0FE04F074142EF582E43400F583EF4E
:1041C100F0ED540F4430FF900032E0FE04F074141F
:1041D1002EF582E43400F583EFF0900011E0FBA3AB
:1041E100E0FAA3E0F99000041212FAFF127F207C9A
:1041F10000AD07ED54F0FFE4C4F854F0C8EFC45427
:104201000F484430FF900032E0FE04F074142EF5A4
:1042110082E43400F583EFF0ED540F4430FF900059
:1042210032E0FE04F074142EF582E43400F583EFDD
:10423100F0900032E0FF04F074142FF582E43400B2
:10424100F583743AF0900032E0FF04F074142FF516
:1042510082E43400F5837403F07B017A00791490D1
:074261000032E0FD027B0FBB
:08000300D29412817DC2942207
:057BD10090003AEFF006
:107BD600E4A3F0A3F090003AE0FFA2E713F030D759
:107BE60004D2958002C29512000390003CE004F096
:107BF600700690003BE004F0C390003CE0940890CF
:097C0600003BE06480948040CC56
:017C0F002252
:096E6F00E475F0011213B07F87F5
:056E7800900037EFF06F
:106E7D00D2967F037E00128076900037E0FF127B62
:106E8D00D1E4900038F0A3F0900038E0FCA3E0FDD1
:106E9D00C39408EC64809480504F3095169001B3E4
:106EAD00E04480F0ED9406EC648094805005E0FFA2
:106EBD00C313F02095209001B3E0547FF0D39000E0
:106ECD0039E09406900038E0648094805008900179
:106EDD00B3E0FFC313F0120003900039E004F0702B
:106EED00A7900038E004F0809FC2969001B3E0FFB8
:016EFD002272
:107E3D00900014EFF0A3EDF0D2967F037E00128038
:107E4D0076900014E0FF127BD1900015E0FF9000BA
:087E5D0014F0127BD1C2962241
:107B5000900012E475F0011213B0900012E475F079
:107B6000011213B0900012E475F0011213B09000EE
:107B700011E0FBA3E0FAA3E0F91212E1FF9000018B
:047B80001212FAFDE6
:0C7B8400EF540FC454F0FFED540F4FFFFE
:017B900022D2
:1055D300E4FF1212E1FEC3943050030256E5EED30A
:1055E300943940030256E59000011212FAFEC39467
:1055F3003050030256E2EED3943940030256E29050
:1056030000031212FAFEC3943050030256DFEED3A6
:10561300943940030256DF9000041212FAFEC39439
:105623003050030256E7EED3943940030256E79015
:1056330000081212FAFEC3943050030256DCEED374
:10564300943940030256DC90000B1212FAFEC39405
:105653003050030256D9EED39439507A90000C128D
:1056630012FAFEC39430406BEED394395065900028
:105673000E1212FAFEC394304056EED394395050B2
:1056830090000F1212FAFEC394304041EED39439C6
:10569300503B9000111212FAFEC39430402CEED30B
:1056A300943950269000121212FAFEC39430401718
:1056B300EED3943950119000141212FAFEC39430B1
:1056C3004022EED39439227F01227F01227F0122DF
:1056D3007F01227F01227F01227F01227F01227F1E
:0456E30001227F0120
:0156E70022A0
:106EFE00900011EBF0A3EAF0A3E9F0127B6EAD0760
:106F0E007F86127E3D127B50AD077F88127E3D90AC
:106F1E000012E475F0011213B0900012E475F00146
:106F2E001213B0127B50AD077F8C127E3D127B5038
:106F3E00AD077F84127E3D127B50AD077F82127E9D
:106F4E003D127B50AD077F80127E3D900012E4759E
:106F5E00F0011213B0900012E475F0011213B0900C
:106F6E000012E475F0011213B0900011E0FBA3E0E3
:0F6F7E00FAA3E0F91212E1540FFD7F8A027E3D63
:107FDE00AE07EEC4540F540FFE6012EF540FFFE4C1
:0D7FEE00FDEDC39E5007740A2FFF0D80F4B7
:017FFB002263
:107F2000E4FEFDFCECC39F500B0DED640A7002FDF6
:107F30000E0C80F0EEC454F054F0FEED540F4EFFE2
:017F4000221E
:1077F600E4FFFE900011EDF0900011E0C394647474
:107806008094804007E0249CF00F80ECEF44301217
:107816001327740129F9E43AFA900011E0C3940A97
:10782600748094804007E024F6F00E80ECEE44303D
:10783600121327740129F9E43AFA900011E0443052
:0378460002132703
:0E3A3900900011EBF0A3EAF0A3E9F0A3EDF08A
:103A4700E4900016F0A3F0900019F0A3F0A3F0A300
:103A5700F0900018EDF054F0F0E0FFC4540FF09030
:103A6700002112140C404000007F007E007D807C06
:103A770041124CB6C004C005C006C007900018E04C
:103A8700FCE4120DF3D003D002D001D000120CE3F6
:103A9700C004C005C006C007900016E0FCA3E0FD07
:103AA700E4120DEED003D002D001D000120BF212B7
:103AB7000E27900016EEF0A3EFF0900014E09000B0
:103AC70018F0540FF090002112140C400000007FF2
:103AD700007E007D807C41124CB6C004C005C00644
:103AE700C007900018E0FCE4120DF3D003D002D019
:103AF70001D000120CE3C004C005C006C007900047
:103B070016E0FCA3E0FDE4120DEED003D002D001D5
:103B1700D000120BF2120E27900016EEF0A3EFF072
:103B2700900015E0900018F054F0F0E0FFC4540F37
:103B3700F090002112140C3F8000007F007E007D72
:103B4700807C41124CB6C004C005C006C007900077
:103B570018E0FCE4120DF3D003D002D001D000121C
:103B67000CE3C004C005C006C007900016E0FCA324
:103B7700E0FDE4120DEED003D002D001D000120B0D
:103B8700F2120E27900016EEF0A3EFF0900015E06A
:103B9700900018F0540FF090002112140C00000050
:103BA700007F007E007D807C41124CB6C004C005BA
:103BB700C006C007900018E0FCE4120DF3D003D054
:103BC70002D001D000120CE3C004C005C006C00734
:103BD700900016E0FCA3E0FDE4120DEED003D00246
:103BE700D001D000120BF2120E27900016EEF0A3B0
:103BF700EFF0C3EF9410EE9427401074F02FFF748A
:103C0700D83EFE900019E004F080E7900019E044E8
:103C170030FD900011E0FBA3E0FAA3E0F9ED1213E9
:103C270027900012E475F0011213B0C3EF94E8EE89
:103C37009403401074182FFF74FC3EFE90001AE0A6
:103C470004F080E790001AE04430FD900011E0FB9B
:103C5700A3E0FAA3E0F9ED121327900012E475F040
:103C6700011213B0C3EF9464EE94004010749C2FBC
:103C7700FF74FF3EFE90001BE004F080E790001BFE
:103C8700E04430FD900011E0FBA3E0FAA3E0F9ED7A
:103C9700121327900012E475F0011213B0C3EF94CA
:103CA7000AEE9400401074F62FFF74FF3EFE90005A
:103CB7001CE004F080E790001CE04430FD90001108
:103CC700E0FBA3E0FAA3E0F9ED121327900012E45A
:103CD70075F0011213B0EF4430FF900011E0FBA321
:103CE700E0FAA3E0F9EF121327900012E475F00150
:103CF7001213B0900011E0FBA3E0FAA3E0F9E4028D
:023D0700132780
:0B426800900033EBF0A3EAF0A3E9F0B4
:104273007F8D126E78EF54F0C4540F4430FE9000DB
:1042830033E0FBA3E0FAA3E0F9EE12132790003426
:10429300E475F0011213B0EF540F4430FF90003374
:1042A300E0FBA3E0FAA3E0F9EF121327900034E454
:1042B30075F0011213B07F89126E78EF54F0C45475
:1042C3000F4430FE900033E0FBA3E0FAA3E0F9EEE5
:1042D300121327900034E475F0011213B0EF540F5A
:1042E3004430FF900033E0FBA3E0FAA3E0F9EF12C0
:1042F3001327900034126E6FEF54F0C4540F443000
:10430300FE900033E0FBA3E0FAA3E0F9EE121327DB
:10431300900034E475F0011213B0EF540F4430FFF2
:10432300900033E0FBA3E0FAA3E0F9EF1213279028
:104333000034E475F0011213B07F85126E78EF54E8
:10434300F0C4540F4430FE900033E0FBA3E0FAA323
:10435300E0F9EE121327900034E475F0011213B064
:10436300EF540F4430FF900033E0FBA3E0FAA3E0E7
:10437300F9EF121327900034E475F0011213B07FA4
:1043830083126E78EF54F0C4540F4430FE90003320
:10439300E0FBA3E0FAA3E0F9EE121327900034E464
:1043A30075F0011213B0EF540F4430FF900033E067
:1043B300FBA3E0FAA3E0F9EF121327900034E475AE
:1043C300F0011213B07F81126E78EF54F0C4540FD2
:1043D3004430FE900033E0FBA3E0FAA3E0F9EE12D1
:1043E3001327900034E475F0011213B0EF540F4417
:1043F30030FF900033E0FBA3E0FAA3E0F9EF1213E0
:1044030027900034E475F0011213B07F8B126E789D
:10441300EF540F4430FF900033E0FBA3E0FAA3E036
:10442300F9EF121327900034E475F0011213B090E2
:0E4433000033E0FBA3E0FAA3E0F9E402132754
:0B44410090001EEBF0A3EAF0A3E9F0EE
:10444C007F89126E78EF54F0C4540F4430FE900004
:10445C001EE0FBA3E0FAA3E0F9EE12132790001F75
:10446C00E475F0011213B0EF540F4430FF90001EAE
:10447C00E0FBA3E0FAA3E0F9EF12132790001F1260
:10448C006E6FEF54F0C4540F4430FE90001EE0FBEE
:10449C00A3E0FAA3E0F9EE12132790001FE475F0E5
:1044AC00011213B0EF540F4430FF90001EE0FBA339
:1044BC00E0FAA3E0F9EF12132790001FE475F00166
:1044CC001213B07F8D126E78EF54F0C4540F443039
:1044DC00FE90001EE0FBA3E0FAA3E0F9EE12132716
:1044EC0090001FE475F0011213B0EF540F4430FF2D
:1044FC0090001EE0FBA3E0FAA3E0F9EF1213279063
:10450C00001FE475F0011213B07F85126E78EF5422
:10451C00F0C4540F4430FE90001EE0FBA3E0FAA35D
:10452C00E0F9EE12132790001FE475F0011213B09E
:10453C00EF540F4430FF90001EE0FBA3E0FAA3E021
:10454C00F9EF12132790001FE475F0011213B07FDE
:10455C0083126E78EF54F0C4540F4430FE90001E5A
:10456C00E0FBA3E0FAA3E0F9EE12132790001FE49E
:10457C0075F0011213B0EF540F4430FF90001EE0A1
:10458C00FBA3E0FAA3E0F9EF12132790001FE475E8
:10459C00F0011213B090001EE0FBA3E0FAA3E0F9C7
:1045AC00742E12132790001FE475F0011213B07FC4
:1045BC0081126E78EF54F0C4540F4430FE90001EFC
:1045CC00E0FBA3E0FAA3E0F9EE12132790001FE43E
:1045DC0075F0011213B0EF540F4430FF90001EE041
:1045EC00FBA3E0FAA3E0F9EF12132790001FE47588
:1045FC00F0011213B090001EE0FBA3E0FAA3E0F967
:04460C00E40213278A
:10672600900034EBF0A3EAF0A3E9F07F8D126E78C7
:10673600127FDE900034E0FBA3E0FAA3E0F9EF124B
:106746001327900035E475F0011213B07F89126E9D
:1067560078127FDE900034E0FBA3E0FAA3E0F9EFC5
:10676600121327900035126E6F127FDE900034E010
:10677600FBA3E0FAA3E0F9EF121327900035E475C6
:10678600F0011213B07F85126E78127FDE9000340E
:10679600E0FBA3E0FAA3E0F9EF121327900035E43B
:1067A60075F0011213B07F83126E78127FDE9000AF
:1067B60034E0FBA3E0FAA3E0F9EF121327900035CB
:0767C600E475F0010213B0BD
:1061620090001EEBF0A3EAF0A3E9F07F8D126E78A7
:1061720090001EE0FBA3E0FAA3E0F9EF12132790D0
:10618200001FE475F0011213B07F89126E7890003F
:106192001EE0FBA3E0FAA3E0F9EF12132790001F21
:1061A200126E6F90001EE0FBA3E0FAA3E0F9EF127B
:1061B200132790001FE475F0011213B07F85126E51
:1061C2007890001EE0FBA3E0FAA3E0F9EF12132798
:1061D20090001FE475F0011213B07F83126E789065
:1061E200001EE0FBA3E0FAA3E0F9EF1213279000F0
:1061F2001FE475F0011213B07F81126E7890001EB9
:10620200E0FBA3E0FAA3E0F9EF12132790001FE4EA
:1062120075F0011213B090001EE0FBA3E0FAA3E0B8
:05622200F9E40213275E
:07813900C294C296D2952208
:0B4B3D0090000EEBF0A3EAF0A3E9F0FB
:104B4800A37401F01212E1FF3395E04F7047900013
:104B58000EE0FBA3E0FAA3E0F99000011212FAFFBD
:104B68003395E04F702F9000021212FAFF3395E050
:104B78004F70229000031212FAFF3395E04F701520
:104B88009000041212FAFF3395E04F70089000115C
:104B980004F0024CB07B017A00791212672690016A
:104BA80000E0640170097B017A0079121268749040
:104BB800000EE0FBA3E0FAA3E0F91212E1FFFD33D7
:104BC80095E0FC900012E0C39DEC6480F874809836
:104BD8005003024C9D900012E06F6003024CAA90B3
:104BE800000EE0FBA3E0FAA3E0F99000011212FA2C
:104BF800FFFD3395E0FC900013E0C39DEC6480F862
:104C08007480985003024C9D900013E06F6003027B
:104C18004CA890000EE0FBA3E0FAA3E0F990000294
:104C28001212FAFFFD3395E0FC900014E0C39DECEE
:104C38006480F87480985002805B900014E06F7074
:104C48005D90000EE0FBA3E0FAA3E0F990000312E8
:104C580012FAFFFD3395E0FC900015E0C39DEC646B
:104C680080F87480985002802C900015E0B5072CCD
:104C780090000EE0FBA3E0FAA3E0F9900004121202
:104C8800FAFF3395E0FE900016E0C39FEE6480F8CB
:104C9800748098500DE4900011F0800C800480021C
:0D4CA80080009000117402F0900011E0FFF8
:014CB50022DC
:101EF300900011ECF0A3EDF090000EEBF0A3EAF0EC
:031F0300A3E9F05F
:101F0600C200C20190000B1212FAFF3395E04F6037
:101F16000302242990000EE0FBA3E0FAA3E0F99067
:101F2600000C1212FAFF3395E04F60030224299049
:101F3600000D1212FAFF3395E04F60030224299038
:101F4600000E1212FAFF3395E04F60030224299027
:101F5600000F1212FAFF3395E04F60030224299016
:101F66000011E0FEA3E0C3943CEE94009000114003
:101F76001CA3E0FB7C007D3CFF12135B90001AEF74
:101F8600F075F03CA4FFC3EB9FA3F0800BA3E09099
:101F9600001BF0E490001AF090001BE0FF700302B3
:101FA600225E90000EE0FBA3E0FAA3E0F9900004A5
:101FB6001212FAFEEF2E900019F0D3943B7480941F
:101FC600805003022233E0FF75F03C8490001CF041
:101FD600E0FE75F03CA4FDC3EF9D900019F0900063
:101FE600031212FAFFEE2F900018F0D394177480A4
:101FF60094805003022212E0FF75F0188490001CB2
:10200600F0E0FE75F018A4FDC3EF9D900018F09067
:1020160000021212FAFFEE2F900017F09000011244
:1020260012FAFF3395E0FEEF64014E6024EF64037D
:102036004E601EEF64054E6018EF64074E6012EFA7
:1020460064084E600CEF640A4E6006EF640C4E7036
:1020560057900017E0D3941F748094804032E02498
:10206600E1F090000EE0FBA3E0FAA3E0F990000196
:102076001212FA04900016F0D3940C7480948040E7
:10208600241212E104900015F0A37401F0022298C4
:1020960090000EE0FBA3E0FAA3E0F9900001121213
:1020A600FA900016F002229190000EE0FBA3E0FAEF
:1020B600A3E0F99000011212FAFF3395E0FEEF64F7
:1020C600044E6012EF64064E600CEF64094E600623
:1020D600EF640B4E7027900017E0D3941E74809423
:1020E60080400DE024E2F09000011212FA0480060E
:1020F6009000011212FA900016F002229190000E42
:10210600E0FBA3E0FAA3E0F99000011212FAFF3314
:1021160095E0FEEF64024E60030221F51212E1FF24
:10212600FD3395E0FCED24D0FAEC3407900013F073
:10213600A3CAF0C200ED64104C6023EF3395E0FEB5
:10214600EF64144E6018EF64184E6012EF641C4E74
:10215600600CEF64204E6006EF64244E7002D200DD
:10216600300049900017E0FDD3941D748094809050
:10217600000EE0FBA3E0FAA3E0F940171212E1908B
:102186000015F0900017E024E3F09000011212FA17
:102196000480121212E1900015F0900017EDF090F5
:1021A60000011212FA900016F0022298900017E031
:1021B600FDD3941C748094804018E024E4F09000D1
:1021C6000EE0FBA3E0FAA3E0F99000011212FA0474
:1021D6008016900017EDF090000EE0FBA3E0FAA346
:1021E600E0F99000011212FA900016F00222919086
:1021F6000017E0F090000EE0FBA3E0FAA3E0F990F0
:1022060000011212FA900016F002229190000EE0E0
:10221600FBA3E0FAA3E0F99000021212FA9000176D
:10222600F09000011212FA900016F0805E90000EF7
:10223600E0FBA3E0FAA3E0F99000031212FA900083
:1022460018F09000021212FA900017F09000011296
:1022560012FA900016F0803390000EE0FBA3E0FA2D
:10226600A3E0F99000041212FA900019F09000030E
:102276001212FA900018F09000021212FA9000174B
:10228600F09000011212FA900016F01212E190007E
:1022960015F090001AE0FF70030223EA900018E0A0
:1022A6002FF0E0FFD394177480948050030223EA42
:1022B600EF75F0188490001CF0E0FE75F018A4FD90
:1022C600C3EF9D900018F0900017E02EF0900016D6
:1022D600E0FF6401601EEF64036019EF640560149B
:1022E600EF6407600FEF6408600AEF640A6005EFA9
:1022F600640C7035900017E0D3941F74809480505E
:10230600030223EAE024E1F0900016E004F0E0D3B3
:10231600940C74809480900015E0400904F0A37436
:1023260001F00223EAF00223EA900016E0FF6404BB
:10233600600FEF6406600AEF64096005EF640B70D6
:102346001F900017E0D3941E74809480400CE02404
:10235600E2F0900016E0040223E4900016E0807E8E
:10236600900016E0FA6402707B900015E0FBFD7C9D
:102376000024D0FEEC3407900013F0A3CEF0C20088
:10238600ED6410601AEBFF64146014EF6418600FBC
:10239600EF641C600AEF64206005EF64247002D2CB
:1023A60000300024900017E0FFD3941D74809480C1
:1023B600400BE024E3F0900016E00480099000173B
:1023C600EFF0900016EA8016900017E0D3941C7484
:1023D600809480400FE024E4F0900016E004F09032
:1023E6000015E0F0900015E0FF90000EE0FBA3E082
:1023F600FAA3E0F990000BEF121339900016E09063
:10240600000C121339900017E090000D121339904A
:102416000018E090000E121339900019E090000F9A
:0324260012133955
:012429002290
:10807600E4FDFCC3ED9FEC9E50070DBD00010C8096
:01808600F207
:0180870022D6
:04801900AB07AA0601
:10801D00900000C3E5829BE5839A500A7F967E000F
:06802D00128076A380ED35
:01803300222A
:087D400090000FEEF0A3EFF03C
:107D4800E4A3F0A3F090000FE0FEA3E0FFC39000CF
:107D580012E09F900011E09E50177F0A7E0012806B
:107D680019900012E004F070DC900011E004F0803B
:017D7800D436
:017D790022E7
:01817D0022DF
:037F4100127EFEAF
:107F4400D20DD293D292E4FFFE209205C20DC293C9
:0C7F5400220FBF00010EBE04F0BF4CED78
:017F600022FE
:037F6100127EFE8F
:107F6400D293D292D20DE4FFFE209205C20DC293A9
:0C7F7400220FBF00010EBE02F0BF8AED1C
:017F800022DE
:06816A00D29300C2932233
:107EFE00E4FEEEC39408748094805015EF25E0FFE5
:107F0E0030D704D2928002C292D29312816A0E802E
:017F1E00E181
:017F1F00223F
:08808800ECFD7C00C293C292E2
:0A809000D292D29300C292C2932252
:09812700C293C292D293D29222BB
:10784900E4FBEBFDC39408748094805038C29330F4
:1078590092169001A9E04401F0ED94067480948099
:107869005006E025E0F0D2932092179001A9E05448
:10787900FEF0EBD39406748094805006E025E0F086
:0C788900D2930B80BDC2939001A9E0FFD8
:0178950022D0
:027C1000AA07C1
:107C1200AF05A907128088AF02127F41AF05127F1C
:107C220041AF01127EFE127F44AF03127EFE127F2D
:107C3200441281277F0D7E00128019D293D2927F47
:0D7C4200627E001280767F627E00028076F6
:047C8D007C007FA850
:027C9100AB073F
:107C9300AF05AA07128088AF03127F61AF05127F79
:107CA30061AF02127EFE127F64128090EB04FF121A
:107CB3007EFE127F44C293127849128127D293D257
:067CC300929001A9E0FF10
:017CC9002298
:1077A000E4FDFC7FA8127C9190010FE4F0A3EFF0C0
:1077B0007D02127C8D90010AE4F0A3EFF07D0412AB
:1077C0007C8D900108E4F0A3EFF07D06127C8D9093
:1077D0000102E4F0A3EFF07D08127C8D900100EF30
:1077E000F07D0C127C8D900105EFF07D0E127C8DEA
:0677F000900101EFF02200
:107DB10090001174FFF0E4A3F0A3F0900012E0FC36
:107DC100A3E0FDC39450EC9403501A900011E0FB22
:107DD1007FA8127C10900013E004F070DE90001276
:057DE100E004F080D673
:017DE600227A
:10691A0053656E736F726573204175746F207920A9
:10692A0073656E736F72312061637469766F732E4B
:10693A000053656E736F722061637469766F20739A
:10694A00656E736F7231202E0044657465637461DD
:10695A00646F2E2053656E736F72204175746F2EAB
:10696A000053656E736F726573206E6F2064657471
:10697A0065637461646F73005665686963756C6FEB
:10698A00204573706572616E646F2053616C697221
:10699A002E005665686963756C6F2053616C696572
:1069AA006E646F2E20556E206D6F6D656E746F006C
:046B20004101B4007B
:07814000C2B5C2B6C2B722AE
:07814700C2B5D2B6C2B72297
:07814E00C2B5C2B6D2B72290
:07815500D2B5C2B6D2B72279
:07815C00C2B5D2B6D2B72272
:07816300D2B5D2B6D2B7225B
:107F8100E4FF7DF47C01309115EFFB3395E04B70FC
:0E7F91000DED1D70011CED4C70EC7F0180E8C1
:017F9F0022BF
:10809A007F3112815C3091010F1281633091020F9E
:0180AA000FC6
:0180AB0022B2
:1075A20012814E309161127F81EF3395E0FEEF64DC
:1075B200014E70471281552091231281477BFF2093
:1075C200910D7A69791A127AD1E490010480227AB3
:1075D20069793B127AD190010474018014128147B7
:1075E2007BFF2091107A697953127AD19001047449
:1075F20001F07FFF227A69796B80067BFF7A6979D5
:1076020082127AD17F00227BFF7A69799C127AD129
:037612007F0122D3
:107FA000E4FE12814E309114127F81EFFD3395E093
:0E7FB000FCED64014C7002FF227F01227F0174
:017FBE0022A0
:1072B300E4900001F01281402091699001B4E070E4
:1072C30016900001E0701030B35A04F0127DE7907D
:1072D30001B47401F0804D9001B4E0640170169024
:1072E3000001E0701030B33C04F01256E89001B492
:1072F3007402F0802F9001B4E064027027900001C3
:10730300E0702130B31E04F07D0C7C007FA8127C5A
:1073130091EF640170047F5380027F4E127019E471
:0F7323009001B4F0128140309105E4900001F028
:017332002238
:1031E400643B000A0000494E475245534520544170
:1031F400524A45544120005441524A4554412053B7
:10320400494E20494E475245534F20005441524A9B
:10321400455441204E4F2052454749535452412072
:103224005041474F200045584345444520544945A3
:103234004D504F2044452047524143494120004DC1
:10324400454E5355414C204E4F2045535441204543
:103254004E20504152515545414445524F2000445F
:103264004952494A41534520412043414A412000A3
:10327400475241434941532E2E2E20004752414389
:103284004941532E2E2E004D454E5355414C494431
:1032940041442056454E4349444120004D454E5338
:1032A40055414C49444144204558434544452048F0
:1032B4004F524152494F2041434552515545534580
:1032C40020412043414A4120004E4F204553204D88
:1032D400454E5355414C49444144204E4920505297
:1032E400455041474F004D454E5355414C204E4F9C
:1032F400205041474F204C4F434143494F4E2048B3
:103304004F59005441524A455441204E4F20455391
:103314002044454C20504152515545414445524F5B
:10332400200053494E2050524553454E43494120B5
:103334005645484943554C415220005441524A4550
:10334400544120494E56414C494441200054415275
:103354004A4554412053494E20464F524D41544F03
:1033640020004655455241204445204C494E454194
:103374002000554E204D4F4D454E544F20504F5236
:10338400204641564F522000613B38353B494E4759
:1033940052455345205441524A4554410A00006164
:1033A4003B38363B5441524A4554412053494E2000
:1033B400494E475245534F0A0000613B38373B544E
:1033C40041524A455441204E4F2052454749535497
:1033D4005241205041474F0A0000613B38383B4579
:1033E4005843454445205449454D504F20444520B9
:1033F4004752414349410A0000613B38393B4D453E
:103404004E5355414C204E4F204553544120454E78
:1034140020504152515545414445524F0A000061E4
:103424003B39303B444952494A41534520412043AA
:10343400414A410A0000613B39313B47524143490B
:1034440041532E2E2E200A0000613B39333B4D455B
:103454004E5355414C204E4F204553544120454E28
:1034640020504152515545414445524F0A00006194
:103474003B39333B4D454E5355414C204553544104
:1034840020454E20504152515545414445524F0A22
:103494000000613B39343B4D454E5355414C494442
:1034A40041442056454E434944410A0000613B399A
:1034B400353B4D454E5355414C49444144204558B4
:1034C4004345444520484F524152494F20414345CA
:1034D40052515545534520412043414A410A000079
:1034E400613B39363B4E4F204553204D454E535595
:1034F400414C49444144204E492050524550414793
:103504004F0A0000613B39373B4D454E5355414C02
:10351400204E4F205041474F204C4F434143494F89
:103524004E20484F590A0000613B39383B54415200
:103534004A455441204E4F2045532044454C205089
:103544004152515545414445524F0A0000613B39AF
:10355400383B53494E2050524553454E4349412030
:103564005645484943554C41520A0000613B39389D
:103574003B5441524A45544120494E56414C4944DA
:1035840041200A0000613B39383B5441524A4554BA
:10359400412053494E20464F524D41544F0A00009A
:1035A400613B39383B4655455241204445204C49FE
:1035B4004E45410A0000613B39383B554E204D4F82
:1035C4004D454E544F20504F52204641564F520ABB
:1035D400000057494547414E442000475241434962
:1035E40041532000613B39323B57494547414E44E2
:1035F4003A000A6400613B39313B47524143494137
:10360400532000AA802807200000000000140000B6
:0C361400AA8018010200AA801801020020
:097E8D00900018E025E0FFE4FD7F
:057E9600900040EDF03A
:107E9B00127C4F900041EFF0900040E0600AE4FF4D
:087EAB00127C4F900041EFF042
:017EB30022AC
:087A87007B017A007915E4FD92
:0E7A8F0090003BEBF0A3EAF0A3E9F0A3EDF0CA
:107A9D00E4A3F090003BE0FBA3E0FAA3E0F9900033
:107AAD003FE0F5827583001212FAFF601090003EE0
:0D7ABD00E0FD127E9690003FE004F080D6C0
:017ACA002299
:0E79B60090001EEBF0A3EAF0A3E9F0A3EDF0C1
:1079C400E4900023F0900021E0FF900023E0FEC348
:1079D4009F502490001EE0FBA3E0FAA3E0F98E82FE
:1079E4007583001212FAFF900022E0FD127E969039
:0779F4000023E004F080CE47
:0179FB002269
:0B77450090003BEBF0A3EAF0A3E9F09A
:1077500012000E90003EEFF0E49001B5F090003E74
:10776000E02401FFE433FE9001B5E0C39FEE6480A6
:10777000F8748098502990003BE0FBA3E0FAA3E066
:10778000F91212E1FF127C4F90003FEFF090003CA5
:0F779000E475F0011213B09001B5E004F080BE73
:01779F0022C7
:1074330078117C007D017BFF7A3679077E007F0D12
:107443001212BB900101E07022C2877B017A00799E
:1074530016126162C29C7B017A007911E4900022CA
:10746300F07D0D1279B6D29CD28722C287E49000B8
:1074730011F078117C007D017BFF7A3179E41216DB
:10748300EA7B017A00791312444190006074FFF0A3
:10749300A37431F0A374E7F07B017A0079111276BB
:0C74A300157B017A007911127745D28721
:0174AF0022BA
:05242A00900011EFF02D
:10242F0078127C007D017BFF7A3679147E007F065F
:10243F001212BBE4900019F0A3F0C287900101E0E3
:10244F0060030226C17B017A007912FD127A8F9008
:10245F000011E012145D249F5524BF5624DF57242A
:10246F00FF58251F59253F5A255F5B251F5D257F87
:10247F005E259F5F25BF6025DF6125FFAA261FAB65
:10248F00263FAC265EAD267DAE269CAF000026BE55
:10249F007BFF7A3179EA12000E900018EFF0E4FD1D
:1024AF00FF127E96127E8D7BFF7A3179EA0226B972
:1024BF007BFF7A3179FB12000E900018EFF0E4FDEC
:1024CF00FF127E96127E8D7BFF7A3179FB0226B941
:1024DF007BFF7A32791012000E900018EFF0E4FDB6
:1024EF00FF127E96127E8D7BFF7A3279100226B90B
:1024FF007BFF7A32792A12000E900018EFF0E4FD7C
:10250F00FF127E96127E8D7BFF7A32792A0226B9D0
:10251F007BFF7A32794312000E900018EFF0E4FD42
:10252F00FF127E96127E8D7BFF7A3279430226B997
:10253F007BFF7A32796312000E900018EFF0E4FD02
:10254F00FF127E96127E8D7BFF7A3279630226B957
:10255F007BFF7A32797412000E900018EFF0E4FDD1
:10256F00FF127E96127E8D7BFF7A3279800226B91A
:10257F007BFF7A32798B12000E900018EFF0E4FD9A
:10258F00FF127E96127E8D7BFF7A32798B0226B9EF
:10259F007BFF7A3279A012000E900018EFF0E4FD65
:1025AF00FF127E96127E8D7BFF7A3279A00226B9BA
:1025BF007BFF7A3279CD12000E900018EFF0E4FD18
:1025CF00FF127E96127E8D7BFF7A3279CD0226B96D
:1025DF007BFF7A3279EA12000E900018EFF0E4FDDB
:1025EF00FF127E96127E8D7BFF7A3279EA0226B930
:1025FF007BFF7A33790712000E900018EFF0E4FD9D
:10260F00FF127E96127E8D7BFF7A3379070226B9F1
:10261F007BFF7A33792612000E900018EFF0E4FD5D
:10262F00FF127E96127E8D7BFF7A3379260226B9B2
:10263F007BFF7A33793F12000E900018EFF0E4FD24
:10264F00FF127E96127E8D7BFF7A33793F805B7B04
:10265F00FF7A33795112000E900018EFF0E4FDFF6E
:10266F00127E96127E8D7BFF7A337951803C7BFFF1
:10267F007A33796612000E900018EFF0E4FDFF1226
:10268F007E96127E8D7BFF7A337966801D7BFF7A73
:10269F0033797612000E900018EFF0E4FDFF127EF2
:1026AF0096127E8D7BFF7A3379767D01127A8FD2E7
:1026BF008722C287900011E012145D270755271E4D
:1026CF0056273557274C58276359277A5A27915B36
:1026DF0027A85D27D65E27ED5F280360281961279D
:1026EF00BF63282FAA2845AB285BAC2863AD288889
:1026FF00AE28ADAF000028D3900019E0FEA3E0AAEA
:10270F0006F8AC027D017BFF7A33798C0228779033
:10271F000019E0FEA3E0AA06F8AC027D017BFF7A68
:10272F003379A3022877900019E0FEA3E0AA06F8F8
:10273F00AC027D017BFF7A3379BE022877900019B6
:10274F00E0FEA3E0AA06F8AC027D017BFF7A3379A5
:10275F00DE022877900019E0FEA3E0AA06F8AC028B
:10276F007D017BFF7A3379FD022877900019E0FE17
:10277F00A3E0AA06F8AC027D017BFF7A347923022D
:10278F002877900019E0FEA3E0AA06F8AC027D01BD
:10279F007BFF7A34793A022877900019E0FEA3E0A4
:1027AF00AA06F8AC027D017BFF7A34794D022877B7
:1027BF00900019E0FEA3E0AA06F8AC027D017BFFB2
:1027CF007A347973022877900019E0FEA3E0AA0605
:1027DF00F8AC027D017BFF7A34799602287790005E
:1027EF0019E0FEA3E0AA06F8AC027D017BFF7A3464
:1027FF0079B18074900019E0FEA3E0AA06F8AC024C
:10280F007D017BFF7A3479E4805E900019E0FEA3AE
:10281F00E0AA06F8AC027D017BFF7A357908804883
:10282F00900019E0FEA3E0AA06F8AC027D017BFF41
:10283F007A35792C8032900019E0FEA3E0AA06F8D1
:10284F00AC027D017BFF7A357951801C7BFF7A3595
:10285F007970806D900019E0FEA3E0AA06F8AC0233
:10286F007D017BFF7A3579891216EA900019E0FE17
:10287F00A3E0AA06F97B018048900019E0FEA3E0CF
:10288F00AA06F8AC027D017BFF7A3579A41216EA0D
:10289F00900019E0FEA3E0AA06F97B0180239000C7
:1028AF0019E0FEA3E0AA06F8AC027D017BFF7A35A2
:1028BF0079BA1216EA900019E0FEA3E0AA06F97B96
:0628CF0001127745D287DB
:0128D50022E0
:0E4F8100900011EFF0A3EBF0A3EAF0A3E9F02B
:104F8F0078157C007D017BFF7A36791A7E007F06CB
:104F9F001212BBC287900101E060030250459000DE
:104FAF0011E024A56040146003025042127A877BFF
:104FBF00FF7A3579D612000E90001BEFF090001299
:104FCF00E0FBA3E0FAA3E0F912000E90001BE02F24
:104FDF0004F0E4FDFF127E9690001B127E907BFF83
:104FEF007A3579D68038127A877BFF7A3579DF1256
:104FFF00000E90001BEFF0900012E0FBA3E0FAA36D
:10500F00E0F912000E90001BE02F04F0E4FDFF12F8
:10501F007E9690001B127E907BFF7A3579DF7D01A3
:10502F00127A8F900012E0FBA3E0FAA3E0F97D0162
:10503F00127A8FD28722C287900011E024A56017C1
:10504F001460030250E0781C7C007D017BFF7A35F1
:10505F0079E81216EA803C781C7C007D017BFF7A90
:10506F003579F91216EA900012E0FBA3E0FAA3E0FB
:10507F00F912000E90001BEFF024FFFFE434FFFE47
:10508F00900012E0FBA3E0FAA3E0F98F828E83E495
:10509F00121339900012E0F9A3E0FAA3E090006038
:1050AF00C9F0A3EAF0A3E9F07B017A00791C12762C
:1050BF001590006074FFF0A37435F0A374F6F07BC5
:1050CF00017A00791C1276157B017A00791C127710
:0350DF0045D28730
:0150E20022AB
:10172F000D0A0A25733E20002563002564000D0A6B
:10173F000A2041435455414C2049445F434C49458D
:10174F004E54453D25730D0A0A000D0A0A204449DF
:10175F0047495445205355204E5545564F2049442F
:10176F005F434C49454E54453D000D0A0A20444104
:10177F00544F204D4F444946494341444F2049441B
:10178F005F434C49454E54453D25730D0A0A000DE4
:10179F000A0A2041435455414C20434F445F504166
:1017AF00524B3D25730D0A0A000D0A0A2044494782
:1017BF00495445205355204E5545564F20434F44CD
:1017CF005F5041524B3D000D0A0A204441544F20B7
:1017DF004D4F444946494341444F20434F445F5086
:1017EF0041524B3D25730D0A0A000D0A0A20414351
:1017FF005455414C205449454D504F5F475241433A
:10180F0049413D25730D0A0A000D0A0A2044494734
:10181F00495445205355204E5545564F2054494560
:10182F004D504F5F4752414349413D000D0A0A2039
:10183F004441544F204D4F444946494341444F2062
:10184F005449454D504F5F4752414349413D2573E0
:10185F000D0A0A000D0A0A2041435455414C2053EA
:10186F00494E5F434F42524F20494E484142494CE7
:10187F00495441444F3D25730D0A0A000D0A0A20B1
:10188F0041435455414C2053494E5F434F42524FB1
:10189F00204752415449533D25730D0A0A000D0A42
:1018AF000A2041435455414C2053494E5F434F4208
:1018BF00524F2047524154495320592053414C49CC
:1018CF00444120454C204D49534D4F204449413D03
:1018DF0025730D0A0A000D0A0A2044494749544549
:1018EF00205355204E5545564F2053494E5F434F79
:1018FF0042524F3D000D0A0A2041435455414C209E
:10190F00444542554720494E484142494C4954416C
:10191F00444F3D25730D0A0A000D0A0A2041435416
:10192F0055414C20444542554720484142494C4976
:10193F005441444F3D25730D0A0A000D0A0A2044F5
:10194F00494749544520454C204E5545564F204553
:10195F00535441444F2044452044454255473D0090
:10196F000D0A0A2041435455414C205553455F4CB5
:10197F00505220494E484142494C495441444F3DF1
:10198F0025730D0A0A000D0A0A2041435455414C94
:10199F00205553455F4C505220484142494C4954C1
:1019AF0041444F3D25730D0A0A000D0A0A20444990
:1019BF004749544520454C204E5545564F204553D9
:1019CF005441444F204445205553455F4C50523DA0
:1019DF00000D0A0A2041435455414C20434F4D50AE
:1019EF0041524143494F4E204143544956412049AA
:1019FF004E484142494C495441444F3D25730D0ACD
:101A0F000A000D0A0A2041435455414C20434F4DC3
:101A1F005041524143494F4E204143544956412072
:101A2F0020484142494C495441444F3D25730D0ACA
:101A3F000A000D0A0A2044494749544520454C20C5
:101A4F004E5545564F2045535441444F2044452051
:101A5F00434F4D5041524143494F4E20414354490A
:101A6F005641203D000D0A0A2041435455414C2058
:101A7F00434F4D5041524143494F4E2041435449EA
:101A8F0056412020494E484142494C495441444F08
:101A9F003D25730D0A0A000D0A0A2050414E54418C
:101AAF004C4C41204C434420484142494C495441FD
:101ABF0044413D25730D0A0A000D0A0A2050414E7C
:101ACF0054414C4C4120524153504245525259209F
:101ADF0020484142494C49544144413D25730D0A28
:101AEF000A000D0A0A2044494749544520454C2015
:101AFF004E5545564F2045535441444F20444520A1
:101B0F004C412050414E54414C4C41203D000D0A58
:101B1F000A205041534120504F522043414A412007
:101B2F00504152412056414C494441522044435464
:101B3F004F3D25730D0A0A000D0A0A2041504C49EA
:101B4F004341204445534355454E544F3D25730D56
:101B5F000A0A000D0A0A2044494749544520454CBA
:101B6F00204E5545564F2045535441444F20444530
:101B7F00204443544F203D000D0A2049445F434CFD
:101B8F0049454E5445202020202D2D2D20434D44D6
:101B9F002030204964656E746966696361646F7291
:101BAF002064656C20636C69656E7465206D617867
:101BBF00696D6F20323535000D0A20434F445F5059
:101BCF0041524B2020202020202D2D2D20434D44ED
:101BDF00203120456C206E756D65726F2064656CC9
:101BEF0020706172717565616465726F206D6178C7
:101BFF00696D6F20323535000D0A20545F47524111
:101C0F004349412020202020202D2D2D20434D44BD
:101C1F002032205469656D706F2073696E20636F79
:101C2F0062726F2030302C20206D6178696D6F20CB
:101C3F00323535000D0A2053494E5F434F42524F04
:101C4F0020202020202D2D2D20434D4420332049AE
:101C5F006E686162696C697461646F3D20302C201D
:101C6F004772617469733D2031202C204772617473
:101C7F00697320792073616C69646120656C206DD4
:101C8F0069736D6F206469613D2032000D0A204435
:101C9F00454255472020202020202020202D2D2D6B
:101CAF0020434D44203420486162696C697461722D
:101CBF00203D20312C20496E686162696C69746126
:101CCF0072203D2030000D0A205553455F4C505275
:101CDF00202020202020202D2D2D20434D44203545
:101CEF0020486162696C69746172203D20312C203B
:101CFF00496E686162696C69746172203D203000C1
:101D0F000D0A20434F4D5041524143494F4E5F41C1
:101D1F004354495641202D2D2D20434D442036202C
:101D2F00486162696C69746172203D20312C2049D1
:101D3F006E686162696C69746172203D2030000DBC
:101D4F000A205449504F5F50414E54414C4C412052
:101D5F00202020202D2D2D20434D442037202830AA
:101D6F00292070616E74616C6C61206C636420203B
:101D7F0073657269652028312920726173706265FD
:101D8F00727279206F20626C7565746F6F74680062
:101D9F000D0A204443544F5F504153415F43414A22
:101DAF004120202020202D2D2D20434D4420382050
:101DBF00283029207061736120706F722063616A0F
:101DCF0061202831292061706C69636120656C2066
:101DDF006465736375656E746F000D0A2041595504
:101DEF0044412020202020202020202D2D2D204355
:101DFF004D442039204D756573747261206C6F737B
:101E0F0020636F6D616E646F73000D0A2053414C38
:101E1F0049522020202020202020202D2D2D20430E
:101E2F004D442031302053616C69722064652070FD
:101E3F00726F6772616D6163696F6E000D0A0A538D
:101E4F00697374656D612064652050726F6772618C
:101E5F006D6163696F6E207665726966696361642F
:101E6F006F72206C696E74656368200D0A0D0A002D
:101E7F000D0A0A2F3E5573756172696F3A000D0A8C
:101E8F000A2F3E50617373776F72643A00313233A9
:101E9F00343536000D0A436F6D616E646F206E6FBF
:101EAF00206578697374652027257327003A5B3C9A
:101EBF00253F58545D3D2900232A594A41494D4534
:101ECF0063616D696C744B0077727A323571363895
:101EDF002D393166532E4000200D0A00200D0A00C7
:041EEF00220D0A00B6
:106B240054011E2F000000000000000000000000BF
:106B34000000000000000049011561646D696E00E9
:106B440000000060210132300000310000320000FA
:106B540033000034000035000036000037000038F0
:086B640000003900003130008F
:0B46100090005DEBF0A3EAF0A3E9F0DE
:10461B0078627C007D017BFF7A1E79BC7E007F0B6C
:10462B001212BB786D7C007D017BFF7A1E79C77EF1
:10463B00007F101212BB787D7C007D017BFF7A1E00
:10464B0079D77E007F101212BB90005DE0FBA3E0D8
:10465B00FAA3E0F912000E900060EFF0E4A3F090E3
:10466B000060E0FFA3E0FEC39F40030247CA900037
:10467B005DE0FBA3E0FAA3E0F98E827583001212D2
:10468B00FAFD7C0074622EF582E43400F583E02D94
:10469B00FFEC33900111F0A3EFF07E00540FFFA35A
:1046AB00EEF0A3EFF0700BE004F07006900113E056
:1046BB0004F0900113E0FEA3E0246CF58274003E3D
:1046CB00F583E07E002DFFEE3C900111F0A3EFF09F
:1046DB007E00540FFFA3EEF0A3EFF0700BE004F09D
:1046EB007006900113E004F0900113E0FEA3E024A8
:1046FB007CF58274003EF583E0FF900111E0FEA390
:10470B00E06FFF900111EEF0FEA3EFF0D394FFEEFC
:10471B0094004005900111E4F0900111E0FEA3E03C
:10472B00FFC3947AEE94004015D3EF94FFEE940000
:10473B00500CEF547AFF900111E4F0A3EFF0C3900B
:10474B000112E09430900111E09400500CA3E0248E
:10475B0040F0900111E03400F0900111E0FEA3E075
:10476B00FFC3945BEE94004014D3EF9460EE94007F
:10477B00500BE02407F0900111E03400F090011190
:10478B00E0FEA3E0FFC3943AEE94004014D3EF9401
:10479B0040EE9400500BE024F9F0900111E034FF4F
:1047AB00F0900111A3E0FF900061E0248DF582E40D
:1047BB003400F583EFF0900061E004F002466A7B71
:0547CB00017A00798D68
:0147D00022C6
:0B76E30090005DEBF0A3EAF0A3E9F0DB
:1076EE00E4900063F0900063E0FFC3940B74809409
:1076FE00805041EF75F003A42432F9740135F0FA8D
:10770E007B0178607C007D011216EA78607C007D3A
:10771E000190005DE0FBA3E0FAA3E0F9121601EF81
:10772E003395E04F7006900063E0FF22900063E017
:06773E0004F080B17FFFA2
:017744002222
:0B7A4200900001E0FBA3E0FAA3E0F9D4
:0B7A4D0090005DEBF0A3EAF0A3E9F06D
:107A580078607C007D017B017A0179151216EA783D
:107A6800607C007D0190005DE0FBA3E0FAA3E0F9F3
:0E7A7800121601EF3395E04F7002FF227FFFE0
:017A860022DD
:067B91007B017A0079354A
:0B7B970090005DEBF0A3EAF0A3E9F022
:107BA20078607C007D017BFF7A1E79E77E007F048E
:107BB2001212BB90006B7401F0A37400F0A3746006
:0F7BC200F090005DE0FBA3E0FAA3E0F9025ECDD6
:106DDF00E0FBA3E0FAA3E02FF9EA3EFAE92401F978
:036DEF00E43AFA89
:0B6DF20090005DEBF0A3EAF0A3E9F0D5
:106DFD0078607C007D017BFF7A1E79EB7E007F043D
:106E0D001212BB78647C007D017BFF7A1E79EF7EC8
:106E1D00007F041212BB90005DE0FBA3E0FAA3E03B
:106E2D00F91212E1FFB4200C90005EE475F001122E
:106E3D0013B080E2EF90006BB4220D7401F0A374D7
:106E4D0000F0A37464F080167401F0A37400F0A335
:106E5D007460F090005DE0FBA3E0FAA3E0F9125E30
:016E6D00CD57
:016E6E002201
:108034009000707401F0A37401F0A3741EF07BFF30
:078044007A17792F022DCC01
:087333007A0079357B01E4FDCD
:0E733B00900069EBF0A3EAF0A3E9F0A3EDF0F7
:10734900128111900069E0FBA3E0FAA3E0F9EF12C2
:10735900132790006CE0701D900069E0FBA3E0FA30
:10736900A3E0F91212E1900070F07BFF7A177937E8
:10737900122DCC80057F2A127C4F900069E0FBA377
:10738900E0FAA3E0F91212E1FF7E0090006AE475C9
:10739900F0011213B0900069E0FBA3E0FAA3E0F951
:0973A900E4121327EF640D709744
:0173B20022B8
:10646400E4FDFC7FA8127C917E00900067EEF0A30F
:10647400EFF090007074FFF0A37417F0A3743AF077
:10648400A3EEF0A3EFF07B017A00795D122DC690A4
:1064940000707401F0A37400F0A3745DF07BFF7AC4
:1064A40017793D122DCC7BFF7A177959122DCC7AAE
:1064B40000795D1273377B017A00795D125FB190C8
:1064C4000067EEF0A3EFF0FBE4FDFC7FA8127C1064
:1064D400E4FDFC7FA8127C917E00900067EEF0A39F
:1064E400EFF090007074FFF0A37417F0A3743AF007
:1064F400A3EEF0A3EFF07B017A00795D122DC69034
:1065040000707401F0A37400F0A3745DF07BFF7A53
:06651400177979022DCC7D
:1062EA007D027C007FA8127C917E00900067EEF010
:1062FA00A3EFF090007074FFF0A37417F0A3743A40
:10630A00F0A3EEF0A3EFF07B017A00795D122DC6BF
:10631A009000707401F0A37400F0A3745DF07BFF29
:10632A007A17799E122DCC7BFF7A1779B8122DCC69
:10633A007B017A00795DE4FD12733B7B017A007977
:10634A005D125FB1900067EEF0A3EFF0FB7D027C77
:10635A00007FA8127C107D027C007FA8127C917EAF
:10636A0000900067EEF0A3EFF090007074FFF0A3C6
:10637A007417F0A3743AF0A3EEF0A3EFF07B017A5E
:10638A0000795D122DC69000707401F0A37400F0BC
:0D639A00A3745DF07BFF7A1779D6022DCC3D
:1063A7007D047C007FA8127C917E00900067EEF050
:1063B700A3EFF090007074FFF0A37417F0A3743A82
:1063C700F0A3EEF0A3EFF07B017A00795D122DC602
:1063D7009000707401F0A37400F0A3745DF07BFF6C
:1063E7007A1779F9122DCC7BFF7A187918122DCCF0
:1063F7007B017A00795DE4FD12733B7B017A0079BA
:106407005D125FB1900067EEF0A3EFF0FB7D047CB7
:10641700007FA8127C107D047C007FA8127C917EEF
:1064270000900067EEF0A3EFF090007074FFF0A308
:106437007417F0A3743AF0A3EEF0A3EFF07B017AA0
:1064470000795D122DC69000707401F0A37400F0FE
:0D645700A3745DF07BFF7A18793B022DCC19
:10536C007D067C007FA8127C917E00900067EEF099
:10537C00A3EFF090007074FFF0A37417F0A3743ACD
:10538C00F0A3EEF0A3EFF07B017A00795D122DC64D
:10539C00900067E07002A3E0701590007004F0A319
:1053AC007400F0A3745DF07BFF7A187963803590FC
:1053BC000067E07004A3E06401701590007004F0C5
:1053CC00A37400F0A3745DF07BFF7A18798B8014C2
:1053DC009000707401F0A37400F0A3745DF07BFF77
:1053EC007A1879AD122DCC7BFF7A1879E5122DCC79
:1053FC007B017A00795DE4FD12733B7B017A0079C5
:10540C005D125FB1900067EEF0A3EFF0FB7D067CC0
:10541C00007FA8127C107D067C007FA8127C917EF8
:10542C0000900067EEF0A3EFF090007074FFF0A313
:10543C007417F0A3743AF0A3EEF0A3EFF07B017AAB
:10544C0000795D122DC6900067E07002A3E0701524
:10545C0090007004F0A37400F0A3745DF07BFF7AED
:10546C001879638035900067E07004A3E0640170E4
:10547C001590007004F0A37400F0A3745DF07BFF32
:10548C007A18798B80149000707401F0A37400F07A
:0D549C00A3745DF07BFF7A1879AD122DCC62
:0154A90022E0
:1058F7007D087C007FA8127C917E00900067EEF007
:10590700A3EFF090007074FFF0A37417F0A3743A3C
:10591700F0A3EEF0A3EFF07B017A00795D122DC6BC
:10592700900067E07002A3E0701590007004F0A388
:105937007400F0A3745DF07BFF7A197904801490EA
:1059470000707401F0A37400F0A3745DF07BFF7A1C
:10595700197928122DCC7BFF7A19794A122DCC7B25
:10596700017A00795DE4FD12733B7B017A00795D72
:10597700125FB1900067EEF0A3EFF0FB7D087C00AB
:105987007FA8127C107D087C007FA8127C917E0086
:10599700900067EEF0A3EFF090007074FFF0A3742F
:1059A70017F0A3743AF0A3EEF0A3EFF07B017A00AF
:1059B700795D122DC6900067E07002A3E070159024
:1059C700007004F0A37400F0A3745DF07BFF7A19F4
:1059D700790480149000707401F0A37400F0A3742C
:0B59E7005DF07BFF7A197928122DCCAF
:0159F2002292
:1059F3007D0A7C007FA8127C917E00900067EEF008
:105A0300A3EFF090007074FFF0A37417F0A3743A3F
:105A1300F0A3EEF0A3EFF07B017A00795D122DC6BF
:105A2300900067E07002A3E0701590007004F0A38B
:105A33007400F0A3745DF07BFF7A19796F80149082
:105A430000707401F0A37400F0A3745DF07BFF7A1F
:105A5300197995122DCC7BFF7A1979B9122DCC7B4C
:105A6300017A00795DE4FD12733B7B017A00795D75
:105A7300125FB1900067EEF0A3EFF0FB7D0A7C00AC
:105A83007FA8127C107D0A7C007FA8127C917E0087
:105A9300900067EEF0A3EFF090007074FFF0A37432
:105AA30017F0A3743AF0A3EEF0A3EFF07B017A00B2
:105AB300795D122DC6900067E07002A3E070159027
:105AC300007004F0A37400F0A3745DF07BFF7A19F7
:105AD300796F80149000707401F0A37400F0A374C4
:0B5AE3005DF07BFF7A197995122DCC45
:015AEE002295
:105AEF007D0C7C007FA8127C917E00900067EEF009
:105AFF00A3EFF090007074FFF0A37417F0A3743A43
:105B0F00F0A3EEF0A3EFF07B017A00795D122DC6C2
:105B1F00900067E07002A3E0701590007004F0A38E
:105B2F007400F0A3745DF07BFF7A1979E080149014
:105B3F0000707401F0A37400F0A3745DF07BFF7A22
:105B4F001A7911122DCC7BFF7A1A7941122DCC7B49
:105B5F00017A00795DE4FD12733B7B017A00795D78
:105B6F00125FB1900067EEF0A3EFF0FB7D0C7C00AD
:105B7F007FA8127C107D0C7C007FA8127C917E0088
:105B8F00900067EEF0A3EFF090007074FFF0A37435
:105B9F0017F0A3743AF0A3EEF0A3EFF07B017A00B5
:105BAF00795D122DC6900067E07002A3E07015902A
:105BBF00007004F0A37400F0A3745DF07BFF7A1AF9
:105BCF00797480149000707401F0A37400F0A374C2
:0B5BDF005DF07BFF7A1A7911122DCCCB
:015BEA002298
:105BEB007D0E7C007FA8127C917E00900067EEF00A
:105BFB00A3EFF090007074FFF0A37417F0A3743A46
:105C0B00F0A3EEF0A3EFF07B017A00795D122DC6C5
:105C1B00900067E07002A3E0701590007004F0A391
:105C2B007400F0A3745DF07BFF7A1A79A680149050
:105C3B0000707401F0A37400F0A3745DF07BFF7A25
:105C4B001A79C8122DCC7BFF7A1A79F1122DCC7BE5
:105C5B00017A00795DE4FD12733B7B017A00795D7B
:105C6B00125FB1900067EEF0A3EFF0FB7D0E7C00AE
:105C7B007FA8127C107D0E7C007FA8127C917E0089
:105C8B00900067EEF0A3EFF090007074FFF0A37438
:105C9B0017F0A3743AF0A3EEF0A3EFF07B017A00B8
:105CAB00795D122DC6900067E07002A3E07015902D
:105CBB00007004F0A37400F0A3745DF07BFF7A1AFC
:105CCB0079A680149000707401F0A37400F0A37493
:0B5CDB005DF07BFF7A1A79C8122DCC17
:015CE600229B
:105CE7007D0F7C007FA8127C917E00900067EEF00C
:105CF700A3EFF090007074FFF0A37417F0A3743A49
:105D0700F0A3EEF0A3EFF07B017A00795D122DC6C8
:105D1700900067E07002A3E0701590007004F0A394
:105D27007400F0A3745DF07BFF7A1B791D801490DB
:105D370000707401F0A37400F0A3745DF07BFF7A28
:105D47001B7947122DCC7BFF7A1B7962122DCC7BF6
:105D5700017A00795DE4FD12733B7B017A00795D7E
:105D6700125FB1900067EEF0A3EFF0FB7D0F7C00B0
:105D77007FA8127C107D0F7C007FA8127C917E008B
:105D8700900067EEF0A3EFF090007074FFF0A3743B
:105D970017F0A3743AF0A3EEF0A3EFF07B017A00BB
:105DA700795D122DC6900067E07002A3E070159030
:105DB700007004F0A37400F0A3745DF07BFF7A1BFE
:105DC700791D80149000707401F0A37400F0A3741F
:0B5DD7005DF07BFF7A1B7947122DCC9A
:015DE200229E
:107680007BFF7A1B7987122DCC7BFF7A1B79C7127F
:107690002DCC7BFF7A1C7907122DCC7BFF7A1C79CD
:1076A00043122DCC7BFF7A1C799B122DCC7BFF7A69
:1076B0001C79D5122DCC7BFF7A1D790F122DCC7B36
:1076C000FF7A1D794E122DCC7BFF7A1D799F122DEA
:1076D000CC7BFF7A1D79E9122DCC7BFF7A1E7919BC
:0376E000022DCCAC
:1047D1007BFF7A1E794B122DCC7BFF7A1E797F12DB
:1047E1002DCC127333127B91900001EBF0A3EAF010
:1047F100A3E9F07B017A00793512461090000AEBAB
:10480100F0A3EAF0A3E9F0127A42EF70CC7BFF7AD1
:104811001E798D122DCC7B017A0079357D011273C1
:104821003B127B91900001EBF0A3EAF0A3E9F07851
:10483100157C017D017BFF7A1E799C1216EA127AA2
:1048410042EF70C9024962128034127333127B91B4
:10485100900001EBF0A3EAF0A3E9F012000E900042
:1048610001126DDF900004EBF0A3EAF0A3E9F0126E
:10487100000E900004126DDF900007EBF0A3EAF048
:10488100A3E9F0900004E0FBA3E0FAA3E0F9EA4910
:104891004B60171212E1B42F11780D7C007D01904D
:1048A1000004A3A3E01216EA803D900004E0FBA3FC
:1048B100E0FAA3E0F9EA494B602D780D7C007D0117
:1048C1007B017A01791E1216EA900004E0F9A3E057
:1048D100FAA3E0900060C9F0A3EAF0A3E9F07B013C
:1048E1007A00790D127615900001E0FBA3E0FAA39E
:1048F100E0F9EA494B70030248481276E3EFB40B42
:1049010000506490490BF828287302492C0249325F
:1049110002493802493E02494402494A02495002C9
:10492100495602495C02496202498912646402489B
:10493100481262EA0248481263A702484812536CBF
:104941000248481258F70248481259F302484812DF
:104951005AEF024848125BEB024848125CE70248F2
:1049610048127680024848900001E0F9A3E0FAA3DA
:10497100E0900070C9F0A3EAF0A3E9F07BFF7A1E92
:0849810079A3122DCC02484875
:01498900220B
:107FFC004461746F7320656E766961646F73207071
:0D800C00746F20706172616C3D002564008E
:0B6A5700900001EBF0A3EAF0A3E9F0CF
:106A6200900006E4F0A374A0F0E4A3F020B379123E
:106A7200817AE4900005F0C286900004F0C2B290E0
:106A82000006805620B35A900004E0705430B40DD2
:106A9200EF1F70011EEF4E70EB04F0804490000572
:106AA200E0C3942874809480503720B408E5A09005
:106AB2000008F080F5900008E0FF900001E0FBA3E1
:106AC200E0FAA3E0F9EF121327900002E475F00157
:106AD2001213B0900005E004F0A3E0FEA3E0FF80F3
:106AE200A330B3FDD2B2D286128170900005E0FFCE
:016AF2002281
:0E651A00900034EBF0A3EAF0A3E9F0A3EDF05B
:1065280090003DF0D2B2D2B4C286E490003CF0C2F2
:10653800B290003812140C00004E2030B34990007D
:106548003CE07043C2B2D2B4900038E0FCA3E0FD56
:10655800A3E0FEA3E0FFEF24FFFFEE34FFFEED34DF
:10656800FFFDEC34FFFC900038121400900038E076
:10657800FCA3E0FDA3E0FEA3E0FFEC4D4E4F70BB93
:10658800A304F0C28280B490003CE0702920B326B6
:10659800900034E0FBA3E0FAA3E0F91212E1F5A0C1
:1065A8001280AC900035E475F0011213B0900037FA
:1065B800E014F0E070DA75A0FFD2B2D2B4D2867FD0
:0665C800627E00028076F5
:1057F8009000157403F090018A14F0900014E09062
:10580800018BF0A37415F01212E1FF900015E0FE71
:1058180004F0748A2EF582E43401F583EFF0740104
:1058280029F9E43AFA1212E170DD900015E024FD3E
:1058380090018CF0900011E0FBA3E0FAA3E0F9904E
:1058480000051212FA6030900015E0FF04F0748A27
:105858002FF582E43401F583742DF09000051212BF
:10586800FA2430FF900015E0FE04F0748A2EF582C9
:10587800E43401F583EFF0900015E0FF04F0748A3A
:105888002FF582E43401F583742EF0900011E0FBCB
:10589800A3E0FAA3E0F99000081212FA900015604C
:1058A80013E0FF04F0748A2FF582E43401F5837461
:1058B8004DF08011E0FF04F0748A2FF582E4340182
:1058C800F5837443F0C2B27B017A01798A9000159E
:1058D800E0FD12651A1281307B017A01798A900005
:0F58E80015E0FD9000387401F012752C0281302C
:103D09009000337402F0900015F0900014E09000D8
:103D190016F01212E1FF900033E0FE04F074152E44
:103D2900F582E43400F583EFF0740129F9E43AFAF5
:103D39001212E170DD900011E0FBA3E0FAA3E0F9B3
:103D49009000061212FA900033602FE0FF04F0741D
:103D5900152FF582E43400F583742DF090000612D6
:103D690012FA2430FF900033E0FE04F074152EF5AA
:103D790082E43400F583EFF08025E0FF04F0741548
:103D89002FF582E43400F583742DF0900033E0FFC1
:103D990004F074152FF582E43400F5837430F09043
:103DA9000011E0FBA3E0FAA3E0F99000091212FA6E
:103DB900540F640F90001670057443F080037473F8
:103DC900F0900033E0FF04F074152FF582E434001D
:103DD900F583742DF01212E12430FF900033E0FED8
:103DE90004F074152EF582E43400F583EFF09000A9
:103DF900011212FA2430FF900033E0FE04F074152A
:103E09002EF582E43400F583EFF09000021212FAE5
:103E19002430FF900033E0FE04F074152EF582E49F
:103E29003400F583EFF09000031212FA2430FF906A
:103E39000033E0FE04F074152EF582E43400F583B6
:103E4900EFF09000041212FA2430FF900033E0FEE4
:103E590004F074152EF582E43400F583EFF0900038
:103E690033E0FF04F074152FF582E43400F5837410
:103E79002DF0900033E02415F9E43400FA7B0112A7
:103E89006726900033E02415F582E43400F583E0D9
:103E99002430FF900033E0FE04F074152EF582E41F
:103EA9003400F583EFF0900033E02415F582E43413
:103EB90000F583E02430FF900033E0FE04F0741530
:103EC9002EF582E43400F583EFF0900033E02415F9
:103ED900F582E43400F583E02430FF900033E0FEFE
:103EE90004F074152EF582E43400F583EFF09000A8
:103EF90033E02415F582E43400F583E02430FF90A3
:103F09000033E0FE04F074152EF582E43400F583E5
:103F1900EFF0900033E02415F582E43400F583E0F6
:103F29002430FF900033E0FE04F074152EF582E48E
:103F39003400F583EFF0900033E0FF04F074152F9F
:103F4900F582E43400F583742EF0900011E0FBA3B0
:103F5900E0FAA3E0F99000081212FA900033601316
:103F6900E0FF04F074152FF582E43400F583744DF5
:103F7900F08011E0FF04F074152FF582E43400F5A8
:103F8900837443F0900033E0FF04F074152FF58239
:103F9900E43400F5837403F0C2B230B3FD7B017AD7
:103FA900007915900033E0FD12651A1281307BFF0C
:103FB9007A7F79FC127AD17B017A007915900033E6
:0D3FC900E0FDE4900038F012752C0281300C
:1080AC00C2B47F217E00128076D2B47F217E000282
:0280BC008076CC
:0670190090000EEFF0FBF9
:10701F00D2B4C286E4A3F0A312140C00003A988BEA
:10702F00A0C2B230B34390000FE0703DA3E0FCA3C9
:10703F00E0FDA3E0FEA3E0FFEF24FFFFEE34FFFE31
:10704F00ED34FFFDEC34FFFC9000101214009000A3
:10705F0010E0FCA3E0FDA3E0FEA3E0FFEC4D4E4FDC
:10706F0070C190000F04F080BA90000FE0700C20F8
:10707F00B30990000EE0F5A01280ACD2B2D2B4D218
:10708F008675A0FF7F627E001280767F627E00028F
:02709F008076F9
:0A811D00D2B4D2B2D28675A0FF22C0
:107DE7009000027402F0A37469F07B017A007904B1
:107DF7001261627F8B126E7890000AEFF0A3740312
:0C7E0700F07B017A0079027D0A02651A06
:1056E800E4900012F09000027402F0A37444F09069
:1056F800007074FFF0A37480F0A37416F090010F8B
:10570800E0FFA3E0900073CFF0A3EFF07B017A00F5
:10571800790D122DC69000117402F0900012E02449
:105728000DF582E43400F583E0FF6017900011E086
:105738002402F582E43400F583EFF0900012E004CF
:10574800F08018900011E02402F582E43400F5831B
:10575800743BF0900011E004F08008900011E00420
:10576800F080B890007074FFF0A37480F0A37416F2
:10577800F090010AE0FFA3E0900073CFF0A3EFF0F0
:105788007B017A00790D122DC6E4900012F090008A
:1057980012E0240DF582E43400F583E0FF601790F1
:1057A8000011E02402F582E43400F583EFF0900064
:1057B80012E004F08018900011E02402F582E4342D
:1057C80000F583743BF0900011E004F0800890002D
:1057D80011E004F080B8900011E0FD2402F582E4A5
:1057E8003400F5837403F07B017A00790202651AAC
:1067CD004461746F73204D462072657370756573E7
:1067DD0074613A20004461746F73204D4620456EFC
:1067ED00766961646F733A20002F2A2D2D2D2D2D82
:1067FD002D2D2D2D2D2D2D2D2D2D2D2D2D2D2D2DBC
:10680D002D2D2D2D2D2D2D2D2D2D2D2D2D2D2D2DAB
:10681D002D2D2A2F0A0D0046656368612041637492
:10682D0075616C20656E20426F6172643A20000ABA
:10683D000D0A0D00526563696265207472616D61A8
:10684D002070746F20706172616C3D20000A0D0024
:10685D006C6F6E6769747564206465206C6120745B
:07686D0072616D613A200029
:067FBF00AE07EEC313FE45
:107FC500E4FFEFD3940774809480500C0000000008
:087FD50000000000000F80EA2B
:017FDD002281
:10804B00E4FFEFD3940474809480500A0000000086
:06805B000000000F80ECA4
:0180610022FC
:037896004430FF7C
:02789900AE0738
:10789B00C2AFC290127FC50000AD06EE5401FE7060
:1078AB0004C2908002D290127FC57C01ECD3940766
:1078BB00748094805015EDC313FD5401FE7004C207
:1078CB00908002D290127FC50C80E1D290127FC5BE
:0578DB00127FC5D2AFD1
:0178E0002285
:1079FC00E490000EF0A3F0FEFBFA900100E06401AD
:107A0C007033EFC39464748094804007749C2FFF90
:107A1C000E80EFEFC3940A74809480400774F62FA5
:107A2C00FF0B80EFAA07EE127896EB127896EA44D9
:057A3C0030FF127899F3
:017A41002222
:02792900AB07AA
:10792B00900100E06401703CEB54F0C4540FFFD3A2
:10793B00940974809480400674372FFF8004743050
:10794B002FFF127899EB540FFFD394097480948016
:10795B00400674372FFF800474302FFF1278997F05
:04796B0020127899D5
:01796F0022F5
:0E752C00900034EBF0A3EAF0A3E9F0A3EDF039
:10753A00900100E06401705F128130900038E0FF32
:10754A003395E0FEEF4E7BFF60067A6779CD8004C3
:10755A007A6779E2127AD1E4900039F0900037E044
:10756A00FF900039E0C39F5024900034E0FBA3E071
:10757A00FAA3E0F91212E1FF127929900035E475B5
:10758A00F0011213B0900039E004F080CF7F0A12A4
:07759A0078997F0D1278992A
:0175A10022C7
:067ACB007BFF7A68795A86
:0B7AD10090003AEBF0A3EAF0A3E9F00C
:107ADC00E4A3F0900100E06401702790003DF09069
:107AEC00003AE0FBA3E0FAA3E0F9A3E0F58275838A
:107AFC00001212FAFF600B12789990003DE004F02E
:027B0C0080DD1A
:017B0E002254
:098130007BFF7A6779F6027AD12F
:1070A1007EFF12804B127FC5208005747FFF800414
:1070B100EE4480FF127FBFEE208005547FFF8003E6
:1070C1004480FF127FBFEE208005547FFF80034480
:1070D10080FF127FBFEE208005547FFF8003448034
:1070E100FF127FBFEE208005547FFF80034480FFA5
:1070F100127FBFEE208005547FFF80034480FF1282
:107101007FBFEE208005547FFF80034480FF127F04
:10711100BFEE208005547FFF80034480FFAE07123D
:077121007FC53080FDAF06C1
:017128002244
:10687400900018EBF0A3EAF0A3E9F07BFF7A6879C3
:1068840024127AD1900018E0FBA3E0FAA3E0F912F5
:1068940012E1FF127F201279297F2F12789990003C
:1068A40018E0FBA3E0FAA3E0F99000011212FAFF4A
:1068B400127F201279297F2F127899900018E0FB1B
:1068C400A3E0FAA3E0F99000021212FAFF127F206B
:1068D4001279297F20127899900018E0FBA3E0FA3E
:1068E400A3E0F99000031212FAFF127F2012792913
:1068F4007F3A127899900018E0FBA3E0FAA3E0F93C
:106904009000041212FAFF127F201279297BFF7A79
:0669140068793C027AD113
:05817500D290D280222F
:1078E100900001EBF0A3EAF0A3E9F0A3EDF07BFF38
:1078F1007A687941127AD1900001E0FBA3E0FAA302
:10790100E0F9A3E0FD9000387401F012752C127AB1
:10791100CB7BFF7A68795D127AD1900004E0FF1287
:087921007929127ACB028130B2
:106B6C004101AD00010F00011000010D00010E00EC
:046B7C00C10CC10B7C
:0300230002498A05
:10498A00C0E0C083C082C0D075D000C000C004C0DF
:05499A0005C006C00786
:10499F00209803024B0DC2989001ABE599F0C3E547
:1049AF000D950EFFE49400FEEF54F84E700DE0FFEE
:1049BF00E50D54072422F8A607050D9000FDE0FF32
:1049CF007E00D39432748094804005900107E4F008
:1049DF00900107E014603114605C147003024A8880
:1049EF0024036003024B08900106E0FD9001ABE049
:1049FF006D6003024B0DD20B9000FDF0F50DF50E1F
:104A0F0090010704F0024B0D9001ABE0FD9000FD0B
:104A1F00E0FC04F074CA2CF582E43400F583EDF069
:104A2F0090010CE0FD9000CAE0900107B5050280EF
:104A3F0042E4F0024B0DEF64034E9001AB701CE0AB
:104A4F00FE2402A3F09000FDE0FF04F074CA2FF5DE
:104A5F0082E43400F583EEF0024B00E0FF9000FD9E
:104A6F00E0FE04F074CA2EF582E43400F583EFF013
:104A7F009001077402F0024B0D9001ABE0FF900024
:104A8F00FDE0FE04F074CA2EF582E43400F583EFE6
:104A9F00F09001ACE014F0E070579000FDE024C8F6
:104AAF00F582E43400F583E0FF90010EE0FEEF6E37
:104ABF00703DFFFE9000FDE0FD14FCEEC39C501016
:104ACF0074CA2EF582E43400F583E06FFF0E80E4A4
:104ADF0074C92DF582E43400F583E0B5070FC20BDE
:104AEF009001ADE4F0D20A900107F08011800A80A6
:104AFF00089001077403F08005900107E4F03099E6
:104B0F001AC299E50F65106010E51054012454F88E
:0B4B1F00E6F5990510C20C8002D20CD4
:104B2A00D007D006D005D004D000D0D0D082D08310
:034B3A00D0E03296
:107E1300D310AF01C3C0D0127E65E4F50FF510F5A2
:107E23000DF50EC29FD29EC29DD29CC298C299D21A
:0A7E33000CD2ACD2BCD0D092AF222A
:107E6500D310AF01C3C0D0C299E4F50FF510C28E8F
:107E7500C2AB43878053890F438920758DF4758B79
:087E8500F4D28ED0D092AF229E
:107D0500D310AF01C3C0D09000A0EFF01280D0C354
:107D1500EF94027480948040047FFF80199000A046
:107D2500E0FFE50F54012454F8A607050F300C04B5
:0B7D3500C20CD2997F00D0D092AF2288
:107EB400D310AF01C3C0D01280BEEF70067EFF7F27
:107EC400FF800EAF0E050EEF54072422F8E6FF7E66
:067ED40000D0D092AF22A5
:1080BE00D310AF01C3C0D0C3E50D950EFFD0D09243
:0280CE00AF22DF
:1080D000D310AF01C3C0D0C3E50F9510FFD0D0922D
:0280E000AF22CD
:1028D60044697370656E7361646F72204E6F205227
:1028E6006573706F6E64652050544F20534552498E
:1028F60045202E2E2E0D0A0D0A000D0A0D0A00493E
:102906004E494349414C495A412053494E204D4F67
:1029160056494D49454E544F204552524F520D0A85
:102926000D0A00494E494349414C495A41205349F1
:102936004E204D4F56494D49454E544F204F4B0D55
:102946000A0D0A0044574C4F415020454550524FFE
:102956004D204552524F520D0A0D0A0044574C4F16
:10296600415020454550524F4D204F4B0D0A0D0A00
:1029760000434152445F494E53455243494F4E200E
:102986004552524F520D0A0D0A00434152445F49C7
:102996004E53455243494F4E204F4B0D0A0D0A00E8
:1029A6005345515F434152445F494E534552434953
:1029B6004F4E202046414C4C4F0D0A0D0A0043480D
:1029C60045434B205341545553204F4B0D0A0D0A96
:1029D600004E6F207469656E65207461726A657455
:1029E600617320656E20656C206D6563616E697329
:1029F6006D6F0D0A0D0A005665686963756C6F2068
:102A0600656E20656C206C6F6F700D0A0D0A0054A0
:102A160061726A65746120656E206C6120626F6305
:102A2600610D0A0D0A005461726A657461206C6951
:102A36007374612070617261206C65657220656EC9
:102A46002052460D0A0D0A005665686963756C6F5B
:102A5600206E6F20656E20656C206C6F6F700D0A9E
:102A66000D0A005345515F52455155455354204672
:102A7600414C4C4F0D0A0D0A0044697370656E7324
:102A860061646F72204E6F20526573706F6E64655D
:102A96002053455120524551554553542E2E2E0D47
:102AA6000A0D0A005461726A6574612076616C6968
:102AB6006461204D4635300D0A0D0A005461726A74
:102AC60065746120696E76616C696461206E6F2041
:102AD6006573204D4635300D0A0D0A004C4F4144B2
:102AE6002056455249465920454550524F4D20459E
:102AF60052524F520D0A0D0A004C4F414420564582
:102B06005249465920454550524F4D204F4B0D0ACC
:102B16000D0A005345515F52445F533142312045FF
:102B260052524F520D0A0D0A005345515F52445FEF
:102B360053314231204F4B0D0A0D0A0049445F4381
:102B46004C49454E54453A2000434F445F5041524C
:102B56004B3A005449504F204445205441524A456F
:102B66005441203120524F544143494F4E3A2000A0
:102B76005345515F52445F53314232204552524FC2
:102B8600520D0A0D0A005345515F52445F533142BC
:102B960032204F4B0D0A0D0A004552524F523A2031
:102BA60053494E20494E475245534F0D0A0D0A00D0
:102BB60053616C696461204175746F72697A6164EE
:102BC600610D0A0D0A0045786365646520542E4739
:102BD60052414349410D0A0D0A00434F4449474FAC
:102BE600204445204443544F3A20005449454D5013
:102BF6004F204445204443544F3A20002575004455
:102C060043544F2046494A412046454348412044C3
:102C160045204F55543A20004443544F20504F52BC
:102C260043454E54414A4520313030252000444327
:102C3600544F204E4F20454C20313030253A20004D
:102C46005469656D706F204772616369613A20004F
:102C56005441524A4554412053494E205041474F12
:102C66000D0A0D0A005345515F52445F53314230FD
:102C7600204552524F520D0A0D0A005345515F52DC
:102C8600445F53314230204F4B0D0A0D0A004E75FA
:102C96006D65726F205469636B65743A2000534505
:102CA600515F57525F53314232204552524F520DB7
:102CB6000A0D0A005345515F57525F533142322085
:102CC6004F4B0D0A0D0A005345515F5254415F5355
:102CD600324230204552524F520D0A0D0A005345DA
:102CE600515F5254415F53324230204F4B0D0A0D13
:102CF6000A006F6B207461726A657461206F6B2EB7
:102D06002E2E0D0A0D0A0072656C65206F66660D23
:102D16000A0D0A004E4F20454A454354205441525D
:102D26004A4554204552524F520D0A0D0A00454A53
:102D3600454354205441524A4554204F4B0D0A0DE9
:102D46000A005345515F52445F533142305F454A52
:0B2D5600454354204F4B0D0A0D0A00AE
:0D6B800041018930420153000041018800AD
:107EDA007F029000C9E064016003300A16300A117B
:107EEA00C20A9000CEE0FEB45003E4FF22EE7F0304
:037EFA00227F01E3
:017EFD002262
:1065CE00E490000EF07BFF7A2879D6127AD19001F2
:1065DE00ADE0FF127929900153A3E0FF12792990C3
:1065EE00000EE0FF1279297BFF7A297900127AD109
:1065FE00200B3A9001ADE004F0E0C3940A7480944D
:10660E00804022D2837F6E7E00127D40E49001ADE9
:10661E00F0900153F0A3F090000EF0C2837F6EFE57
:10662E00127D40803E90000E7401F0803690015431
:10663E00E004F07006900153E004F0C3900154E0C2
:10664E009403900153E09400E49001AD4010F0905B
:10665E000153F0A3F090000E04F0C20B8005F090F1
:0E666E00000EF09000C97432F090000EE0FFB4
:01667C0022FB
:10522C00900189E0700302535E24CF602214700356
:10523C000252D91470030252E42403600302536433
:10524C00C2837F331269BA9001897431F0FF221244
:10525C007EDA900001EFF03395E04F604AE0FF33C7
:10526C0095E0FEEF64024E70099001897431F002F2
:10527C00535EEF64034E7BFF701D7A297905127A19
:10528C00D17B017A0079CA9000FDE0FD9000387462
:10529C0001F012752C80077A2879D6127AD19001F8
:1052AC00897430F002535E7BFF7A297929127AD106
:1052BC007B017A0079CA9000FDE0FD900038740102
:1052CC00F012752C9001897432F002535E12667DD7
:1052DC009001897433F0FF22127EDA900001EFF016
:1052EC003395E04F6048E0FF3395E0FEEF64024EEB
:1052FC0070089001897433F08056EF64034E7BFF85
:10530C00701D7A29794A127AD17B017A0079CA9078
:10531C0000FDE0FD9000387401F012752C80077AC6
:10532C002879D6127AD19001897430F080227BFFD3
:10533C007A297962127AD17B017A0079CA9000FDC0
:10534C00E0FD9000387401F012752CE4900189F0A6
:0F535C008000900189E0FF229001897430F0FFFA
:01536B00221F
:1000260090010DE012145D007900008D0100F202CE
:1000360001040309F5040A03050223060305070361
:100046006C0803750904E50A04EE0B07A80C07B152
:100056000D08C70E08D60F0951100960110A9E1225
:100066000AA7130B9A200BA1210BC0220BCB23004E
:10007600000BE59000C9E064016003020BEAC2834D
:100086007F30126CBD803A127EDA900001EFF0608C
:1000960052E0FF7E006402700690010D04F022EF2C
:1000A60064034E70097BFF7A297977020AC71265C5
:1000B600CEEF70047F0180027F00900001EFF060B8
:1000C6000790010D7401F0221265CEEF64017004F1
:1000D6007F0180027F00900001EFF07003020BEABF
:1000E600020BB77BFF7A2979900202489000C9E09B
:1000F60064016003020BEA7F301274B08036127E10
:10010600DA900001EFF0604EE0FF7E0064027002BC
:100116008022EF64034E70097BFF7A2979A60202DA
:10012600481265CEEF70047F0180027F00900001C7
:10013600EFF0600790010D7403F0221265CEEF64B4
:100146000170047F0180027F00900001EFF07003D0
:10015600020BEA02025F7BFF7A2979C4127AD17B0D
:10016600017A0079CA9000FDE0FD9000387401F034
:1001760012752C9000D1E0643070537BFF7A297998
