:1089AF0041010C0A41013F0041014A0041014000D1
:1089BF00410150004101470042014100004101497E
:0F89CF00064101510341014FF2C10AC109C10B19
:03000B0002AC51F3
:10AC5100C0E0C083C08290010CE06401700604F082
:10AC6100C28D801C90010CE014F090013FE004F0D3
:10AC7100900142E004F07006900141E004F0C28DC1
:07AC8100D082D083D0E03245
:10AFD000E58954F04401F589E4F58CF58AD28C2298
:05B05E00C28DD2A92201
:03B06800C2A92258
:0BAFFF0012ADBFEFF47002EEF460F53D
:01B00A002223
:05AAAD009000E0EFF055
:10AAB2009000E0E0FF12ABDCEF3395E04F6024E45E
:10AAC2009000E1F0A3F0C39000E2E094E89000E18E
:10AAD200E0940350DBA3E004F070EB9000E1E004AB
:08AAE200F080E39000E0E0FFCA
:01AAEA002249
:0EA7CD00900037EBF0A3EAF0A3E9F0A3EDF063
:10A7DB00E4A3F090003AE0FFA3E0C39F5029900060
:10A7EB0037E0FBA3E0FAA3E0F91224BEFF12AAADF7
:10A7FB0090003CEFF0900038E475F00112259F902B
:07A80B00003BE004F080CCEB
:01A812002223
:10AFE00012B06312B02712B00BC283D287C297226D
:109D2B0012AFD012B05E12AD1E12AD7012AFE0D2F8
:109D3B00AF12AEAF7F217E0012AF7612AF357F61CF
:109D4B0012A6AE12B02E2091031252B412A6081214
:109D5B006D21EF70FA90010C7403F020093F208005
:109D6B000E7B017A0079E4129600900000EFF0125E
:109D7B00119220B32B7B017A0079E41294CA9000E4
:109D8B0000EFF0FD7B017A0079E4123EE07B017A73
:109D9B000079E4900000E0FD12A73E8003121192BF
:059DAB00129EB580B618
:10ABA1007072696D6172696F204243433D20000DEF
:10ABB1000A0063616C63756C6F204243433D200062
:10ABC1005245454E56494152207472616D6120488B
:0BABD1006F72613A20004C49564500AD
:0B89DE00091130303030303000000054
:0E3EE000900001EBF0A3EAF0A3E9F0A3EDF0EF
:103EEE00E4A3F07D0AFC7FA812AB2C90028CEFF0BD
:103EFE00900004E0FF641A6003024033900001E07A
:103F0E00FBA3E0FAA3E0F91224BE640260030240B0
:103F1E00339000021224D764486003024033FE74CB
:103F2E00FE2FF582EE34FFF5831224D7640360036F
:103F3E000240337BFF7AAB79A112A8E9900001E031
:103F4E00FBA3E0FAA3E0F99000191224D7FF12A701
:103F5E00867BFF7AAB79B012A8E9E4FC900004E00E
:103F6E0014FEECC39E501F900001E0FBA3E0FAA3E9
:103F7E00E0F9AF048F827583001224D7FE900005FE
:103F8E00E06EF00C80D67BFF7AAB79B312A8E99085
:103F9E000005E0FF12A7867BFF7AAB79B012A8E985
:103FAE00900001E0FBA3E0FAA3E0F99000191224BF
:103FBE00D7FF900005E0B50726E92403F9E43AFAA5
:103FCE00127699EF60030242FC900001E0FBA3E041
:103FDE00FAA3E02403F9E43AFA12996702A3C9900E
:103FEE0000067402F0A37405F0A37403F0E4A3F0CA
:103FFE007B017A0079067D04128EE87BFF7AAB791D
:10400E00C112A8E9900006E0FF12A786900007E013
:10401E00FF12A786900008E0FF12A7867BFF7AABFF
:10402E0079B002A8E9900001E0FBA3E0FAA3E0F961
:10403E001224BE64B6702890028BE004F0E0D39494
:10404E00047480948050030242FC7FAE1242FDC283
:10405E0082E490013FF0C297C28390028BF02290CF
:10406E000001E0FBA3E0FAA3E0F91224BEFF64B75F
:10407E006005EF64AA705390013FE0C394147480FE
:10408E0094804008E4F0C297D282C283900143E04C
:10409E0060030242FC90028CE0640160030242FC69
:1040AE00C3900142E09458900141E0940250030203
:1040BE0042FCE4F0A3F090014304F07BFF7AAB796D
:1040CE00D712A8E9E4900143F022900001E0FBA38F
:1040DE00E0FAA3E0F91224BE64B170057F600241DC
:1040EE00B9900001E0FBA3E0FAA3E0F91224BE644C
:1040FE00B270057F5D0241B9900004E06401701753
:10410E00900001E0FBA3E0FAA3E0F91224BE64A143
:10411E0070057F5A0241B9900004E0640170169058
:10412E000001E0FBA3E0FAA3E0F91224BE640670DE
:10413E00047FAB8076900004E0640170169000015D
:10414E00E0FBA3E0FAA3E0F91224BE640770047F3B
:10415E005F8058900004E064017016900001E0FB4F
:10416E00A3E0FAA3E0F91224BE640870047F618014
:10417E003A900004E064017016900001E0FBA3E0A9
:10418E00FAA3E0F91224BE640970047F5D801C90CE
:10419E000004E064017017900001E0FBA3E0FAA3B5
:1041AE00E0F91224BE64B470057F5E0242FD9000F9
:1041BE0004E0FF6403702A900001E0FBA3E0FAA381
:1041CE00E0F99000011224D764557015FE74FF2F8C
:1041DE00F582EE34FFF5831224D76403700302AC2C
:1041EE0088900004E0FF6413703C900001E0FBA394
:1041FE00E0FAA3E0F99000011224D764567027EF7D
:10420E0024FFFFE434FFFE8F82F5831224D764036C
:10421E0070148F828E83E4122516E92402F9E43A93
:10422E00FA7F5B0242F9900004E0FF64066003022D
:10423E0042FC900001E0FBA3E0FAA3E0F91224BED9
:10424E00640260030242FC9000011224D76457609E
:10425E00030242FCFE74FF2FF582EE34FFF583124B
:10426E0024D7640360030242FC900001A3A39000D4
:10427E00021224D7FD7B017A00790612A4FB90006E
:10428E00097420F0900001E0FBA3E0FAA3E0F9909E
:10429E0000031224D7FD900001A3A3900004122462
:1042AE00D790003EF07B017A00790A124A609002A4
:1042BE008CE06401702112A131EFF460077FAB1224
:1042CE0042FD80097B017A0079061288087B017A0B
:1042DE000079067F5C801412A131EFF460057FAB8C
:0E42EE001242FD7B017A0079067F5C126BDFC5
:0142FC00229F
:0B960000900001EBF0A3EAF0A3E9F0FA
:10960B00E4900005F0A3740BF090028CE064017001
:10961B0073900004F0900006E0FF900004E0C39FFD
:10962B005053E4FFFEFD30801DED701A0FBF00019B
:10963B000ED3EF9420EE944E40EC7D01900006E0AB
:10964B00900004F080E0ED6401602A900005E004D6
:10965B00F0129B94900001E0FBA3E0FAA3E0F9EF7A
:10966B00122504900002E475F00112259F9000046E
:10967B00E004F080A0900001E0FBA3E0FAA3E0F986
:09968B00E4122504900005E0FF43
:0196940022B3
:0EA9AC0090003AEBF0A3EAF0A3E9F0A3EDF07F
:10A9BA00E4A3F090003DE0FFA3E0C39F5024900081
:10A9CA003AE0FBA3E0FAA3E0F91224BEFF12A6AE16
:10A9DA0090003BE475F00112259F90003EE004F0E0
:02A9EA0080D11A
:01A9EC002248
:0B880800900011EBF0A3EAF0A3E9F0F0
:108813009000327403F090001414F012AF4C9000E7
:1088230015EFF0A37453F0900147E090003260130A
:10883300E0FF04F074142FF582E43400F583744DE3
:10884300F08011E0FF04F074142FF582E43400F596
:10885300837443F09000327404F0900011E0FBA3A2
:10886300E0FAA3E0F91224BEFF6021900032E02475
:1088730014F582E43400F583EFF0900012E475F010
:108883000112259F900032E004F080CE900032E088
:10889300FF04F074142FF582E43400F583743AF086
:1088A300900032E02414F9E43400FA7B0112666488
:1088B300900032E0FF241EF582E43400F583743A1D
:1088C300F0741F2FF582E43400F5837403F07B0109
:0B88D3007A007914EF240CFD02A9AC20
:0B604F00900015EBF0A3EAF0A3E9F0CD
:10605A009000397403F090001B14F012AF4C9000BA
:10606A001CEFF0A37453F09001B0E0900039601374
:10607A00E0FF04F0741B2FF582E43400F583744DBD
:10608A00F08011E0FF04F0741B2FF582E43400F570
:10609A00837443F0900015E0FBA3E0FAA3E0F990C3
:1060AA0000051224D76402600302613C900015A324
:1060BA00A390000C1224D7FD7B017A00791F12A449
:1060CA00FB7B017A00791B12000E900039EFF0E099
:1060DA00FF241BF582E43400F5837420F0741C2F2E
:1060EA00F582E43400F583E4F07B017A00791B122F
:1060FA00000E900039EFF0241BF9E43400FA7B011A
:10610A00C003C002C001900015E0FBA3E0FAA3E0BF
:10611A00F990000B1224D7FD900015A3A390000A52
:10612A001224D790003EF0D001D002D003124A6068
:10613A00804F900018E0FBA3E0FAA3E0F91224BE16
:10614A00FF900039E0FE04F0741B2EF582E434005F
:10615A00F583EFF0900019E475F00112259F900085
:10616A0018E0FBA3E0FAA3E0F91224BE70C4900081
:10617A0039E0FF04F0741B2FF582E43400F583E460
:10618A00F07B017A00791B12000E900039EFF0E0E3
:10619A00FF241BF582E43400F583743AF0741C2F53
:1061AA00F9E43400FA7B011266647B017A00791BF8
:1061BA0012000E900039EFF0E0FF04F0741B2FF587
:1061CA0082E43400F583743AF0900039E0FF04F079
:1061DA00741B2FF582E43400F5837403F07B017A93
:0B61EA0000791B900039E0FD02A9AC19
:08000300D29412B06BC29422EA
:05AA6E009000C8EFF0AC
:10AA7300E4A3F0A3F09000C8E0FFA2E713F030D7FF
:10AA830004D2958002C2951200039000CAE004F03C
:10AA930070069000C9E004F0C39000CAE0940890E7
:09AAA30000C9E06480948040CCFD
:01AAAC002287
:0998D800E475F00112259F7F8761
:0598E1009000C5EFF04E
:1098E600D2967F037E0012AF769000C5E0FF12AAE3
:1098F6006EE49000C6F0A3F09000C6E0FCA3E0FD85
:10990600C39408EC64809480504F30951690028D75
:10991600E04480F0ED9406EC648094805005E0FF0E
:10992600C313F020952090028DE0547FF0D3900071
:10993600C7E094069000C6E06480948050089002C8
:109946008DE0FFC313F01200039000C7E004F0702F
:10995600A79000C6E004F0809FC29690028DE0FFBB
:0199660022DE
:10AD4800900014EFF0A3EDF0D2967F037E0012AFCF
:10AD580076900014E0FF12AA6E900015E0FF9000B4
:08AD680014F012AA6EC296223B
:10A9ED00900012E475F00112259F900012E475F0AD
:10A9FD000112259F900012E475F00112259F900021
:10AA0D0011E0FBA3E0FAA3E0F91224BEFF900001D0
:04AA1D001224D7FD2B
:0CAA2100EF540FC454F0FFED540F4FFF32
:01AA2D002206
:10769900E4FF1224BEFEC3943050030277ABEED34D
:1076A900943940030277AB9000011224D7FEC394AA
:1076B9003050030277A8EED3943940030277A8909B
:1076C90000031224D7FEC3943050030277A5EED3EA
:1076D900943940030277A59000041224D7FEC3947D
:1076E9003050030277ADEED3943940030277AD9061
:1076F90000081224D7FEC3943050030277A2EED3B8
:10770900943940030277A290000B1224D7FEC39448
:1077190030500302779FEED39439507A90000C12BF
:1077290024D7FEC39430406BEED394395065900052
:107739000E1224D7FEC394304056EED394395050DC
:1077490090000F1224D7FEC394304041EED39439F0
:10775900503B9000111224D7FEC39430402CEED335
:10776900943950269000121224D7FEC39430401742
:10777900EED3943950119000141224D7FEC39430DB
:107789004022EED39439227F01227F01227F0122F8
:107799007F01227F01227F01227F01227F01227F37
:0477A90001227F0139
:0177AD0022B9
:10996700900011EBF0A3EAF0A3E9F012AA0BAD0700
:109977007F8612AD4812A9EDAD077F8812AD4890DA
:109987000012E475F00112259F900012E475F001B2
:1099970012259F12A9EDAD077F8C12AD4812A9EDD4
:1099A700AD077F8412AD4812A9EDAD077F8212ADD6
:1099B7004812A9EDAD077F8012AD48900012E475FB
:1099C700F00112259F900012E475F00112259F9077
:1099D7000012E475F00112259F900011E0FBA3E04F
:0F99E700FAA3E0F91224BE540FFD7F8A02AD48A7
:10AEC800AE07EEC4540F540FFE6012EF540FFFE4A8
:0DAED800FDEDC39E5007740A2FFF0D80F49E
:01AEE500224A
:10AAEB00122516900072E475F00112259F900071EB
:0CAAFB00E0FBA3E0FAA3E0F91224BEFF88
:10AB0700E4FEFDFCECC39F500B0DED640A7002FDE3
:10AB17000E0C80F0EEC454F054F0FEED540F4EFFCF
:01AB2700220B
:10A4FB00E4FFFE90003AEDF090003AE0C3946474F0
:10A50B008094804007E0249CF00F80ECEF443012E5
:10A51B002504740129F9E43AFA90003AE0C3940A4D
:10A52B00748094804007E024F6F00E80ECEE44300B
:10A53B00122504740129F9E43AFA90003AE0443008
:0EA54B00122504740129F9E43AFAE402250409
:0E4A600090003AEBF0A3EAF0A3E9F0A3EDF02A
:104A6E00E490003FF0A3F0900042F0A3F0A3F0A377
:104A7E00F0900041EDF054F0F0E0FFC4540FF090D0
:104A8E00004A12260C404000007F007E007D807C94
:104A9E00411267D3C004C005C006C007900041E0B4
:104AAE00FCE4121FD0D003D002D001D000121EC0E1
:104ABE00C004C005C006C00790003FE0FCA3E0FDA7
:104ACE00E4121FCBD003D002D001D000121DCF12A2
:104ADE00200490003FEEF0A3EFF090003DE0900038
:104AEE0041F0540FF090004A12260C400000007F57
:104AFE00007E007D807C411267D3C004C005C006D5
:104B0E00C007900041E0FCE4121FD0D003D002D0C9
:104B1E0001D000121EC0C004C005C006C007900020
:104B2E003FE0FCA3E0FDE4121FCBD003D002D00186
:104B3E00D000121DCF12200490003FEEF0A3EFF034
:104B4E0090003EE0900041F054F0F0E0FFC4540FAE
:104B5E00F090004A12260C3F8000007F007E007D00
:104B6E00807C411267D3C004C005C006C007900008
:104B7E0041E0FCE4121FD0D003D002D001D00012CD
:104B8E001EC0C004C005C006C00790003FE0FCA3D5
:104B9E00E0FDE4121FCBD003D002D001D000121DD5
:104BAE00CF12200490003FEEF0A3EFF090003EE015
:104BBE00900041F0540FF090004A12260C000000B5
:104BCE00007F007E007D807C411267D3C004C0054B
:104BDE00C006C007900041E0FCE4121FD0D003D005
:104BEE0002D001D000121EC0C004C005C006C0070E
:104BFE0090003FE0FCA3E0FDE4121FCBD003D002F7
:104C0E00D001D000121DCF12200490003FEEF0A371
:104C1E00EFF0C3EF9410EE9427401074F02FFF7452
:104C2E00D83EFE900042E004F080E7900042E0445F
:104C3E0030FD90003AE0FBA3E0FAA3E0F9ED122577
:104C4E000490003BE475F00112259FC3EF94E8EE4B
:104C5E009403401074182FFF74FC3EFE900043E046
:104C6E0004F080E7900043E04430FD90003AE0FB12
:104C7E00A3E0FAA3E0F9ED12250490003BE475F0F1
:104C8E000112259FC3EF9464EE94004010749C2F84
:104C9E00FF74FF3EFE900044E004F080E790004475
:104CAE00E04430FD90003AE0FBA3E0FAA3E0F9ED1A
:104CBE0012250490003BE475F00112259FC3EF947A
:104CCE000AEE9400401074F62FFF74FF3EFE900023
:104CDE0045E004F080E7900045E04430FD90003A56
:104CEE00E0FBA3E0FAA3E0F9ED12250490003BE40B
:104CFE0075F00112259FEF4430FF90003AE0FBA3C0
:104D0E00E0FAA3E0F9EF12250490003BE475F00100
:104D1E0012259F90003AE0FBA3E0FAA3E0F9E4022B
:024D2E0025045A
:0B666400900065EBF0A3EAF0A3E9F062
:10666F007F8D1298E1EF54F0C4540F4430FE900028
:10667F0065E0FBA3E0FAA3E0F9EE122504900066B3
:10668F00E475F00112259FEF540F4430FF90006521
:10669F00E0FBA3E0FAA3E0F9EF122504900066E413
:1066AF0075F00112259F7F891298E1EF54F0C454C1
:1066BF000F4430FE900065E0FBA3E0FAA3E0F9EE93
:1066CF00122504900066E475F00112259FEF540F18
:1066DF004430FF900065E0FBA3E0FAA3E0F9EF126E
:1066EF0025049000661298D8EF54F0C4540F44302C
:1066FF00FE900065E0FBA3E0FAA3E0F9EE1225049B
:10670F00900066E475F00112259FEF540F4430FF9F
:10671F00900065E0FBA3E0FAA3E0F9EF12250490E7
:10672F000066E475F00112259F7F851298E1EF5402
:10673F00F0C4540F4430FE900065E0FBA3E0FAA3D1
:10674F00E0F9EE122504900066E475F00112259F22
:10675F00EF540F4430FF900065E0FBA3E0FAA3E095
:10676F00F9EF122504900066E475F00112259F7F62
:10677F00831298E1EF54F0C4540F4430FE9000653B
:10678F00E0FBA3E0FAA3E0F9EE122504900066E423
:10679F0075F00112259FEF540F4430FF900065E014
:1067AF00FBA3E0FAA3E0F9EF122504900066E4756D
:1067BF00F00112259F900065E0FBA3E0FAA3E0F93A
:0467CF00E4022504B7
:1091A0009000C2EBF0A3EAF0A3E9F07F8D1298E102
:1091B00012AEC89000C2E0FBA3E0FAA3E0F9EF1200
:1091C00025049000C3E475F00112259F7F89129851
:1091D000E112AEC89000C2E0FBA3E0FAA3E0F9EF11
:1091E0001225049000C31298D812AEC89000C2E0B5
:1091F000FBA3E0FAA3E0F9EF1225049000C3E475A5
:10920000F00112259F7F851298E112AEC89000C22E
:10921000E0FBA3E0FAA3E0F9EF1225049000C3E419
:1092200075F00112259F7F831298E112AEC890005D
:10923000C2E0FBA3E0FAA3E0F9EF1225049000C31B
:07924000E475F00102259F17
:0B969500900071EBF0A3EAF0A3E9F0F5
:1096A00012AAF8EF54F0C4540F4430FE900074E056
:1096B000FBA3E0FAA3E0F9EE122504EF540F4430C7
:1096C000FF900074E0FBA3E0FAA3E0F9900001EF43
:1096D00012AAEBEF54F0C4540F4430FE900074E033
:1096E000FBA3E0FAA3E0F9900002EE122516EF5476
:1096F0000F443090000312AAEBEF54F0C4540F440F
:1097000030FE900074E0FBA3E0FAA3E0F9900004BF
:10971000EE122516EF540F443090000512251690D6
:069720000006E40225161C
:0B5CCD00900025EBF0A3EAF0A3E9F043
:105CD8007F891298E1EF54F0C4540F4430FE9000CD
:105CE80025E0FBA3E0FAA3E0F9EE122504900026D4
:105CF800E475F00112259FEF540F4430FF90002502
:105D0800E0FBA3E0FAA3E0F9EF12250490002612C5
:105D180098D8EF54F0C4540F4430FE900025E0FBAF
:105D2800A3E0FAA3E0F9EE122504900026E475F04A
:105D38000112259FEF540F4430FF900025E0FBA38C
:105D4800E0FAA3E0F9EF122504900026E475F001CB
:105D580012259F7F8D1298E1EF54F0C4540F443000
:105D6800FE900025E0FBA3E0FAA3E0F9EE1225047B
:105D7800900026E475F00112259FEF540F4430FF80
:105D8800900025E0FBA3E0FAA3E0F9EF12250490C8
:105D98000026E475F00112259F7F851298E1EF54E3
:105DA800F0C4540F4430FE900025E0FBA3E0FAA3B2
:105DB800E0F9EE122504900026E475F00112259F03
:105DC800EF540F4430FF900025E0FBA3E0FAA3E076
:105DD800F9EF122504900026E475F00112259F7F43
:105DE800831298E1EF54F0C4540F4430FE9000251C
:105DF800E0FBA3E0FAA3E0F9EE122504900026E404
:105E080075F00112259FEF540F4430FF900025E0F4
:105E1800FBA3E0FAA3E0F9EF122504900026E4754D
:105E2800F00112259F900025E0FBA3E0FAA3E0F91A
:105E3800742E122504900026E475F00112259F7F28
:105E4800811298E1EF54F0C4540F4430FE900025BD
:105E5800E0FBA3E0FAA3E0F9EE122504900026E4A3
:105E680075F00112259FEF540F4430FF900025E094
:105E7800FBA3E0FAA3E0F9EF122504900026E475ED
:105E8800F00112259F900025E0FBA3E0FAA3E0F9BA
:045E9800E4022504F7
:108A7500900025EBF0A3EAF0A3E9F07F8D1298E1D1
:108A8500900025E0FBA3E0FAA3E0F9EF122504909E
:108A95000026E475F00112259F7F891298E1900068
:108AA50025E0FBA3E0FAA3E0F9EF122504900026E8
:108AB5001298D8900025E0FBA3E0FAA3E0F9EF12A5
:108AC5002504900026E475F00112259F7F851298F4
:108AD500E1900025E0FBA3E0FAA3E0F9EF122504FD
:108AE500900026E475F00112259F7F831298E1908E
:108AF5000025E0FBA3E0FAA3E0F9EF1225049000BE
:108B050026E475F00112259F7F811298E1900025DA
:108B1500E0FBA3E0FAA3E0F9EF122504900026E4B8
:108B250075F00112259F900025E0FBA3E0FAA3E074
:058B3500F9E402250433
:07B02700C294C296D29522EB
:0B64EB00900013EBF0A3EAF0A3E9F02F
:1064F600A37401F01224BEFF3395E04F704790005D
:1065060013E0FBA3E0FAA3E0F99000011224D7FF01
:106516003395E04F702F9000021224D7FF3395E099
:106526004F70229000031224D7FF3395E04F701569
:106536009000041224D7FF3395E04F7008900016A0
:1065460004F002665E7B017A0079171291A0900131
:1065560043E0640170097B017A0079171292479033
:106566000013E0FBA3E0FAA3E0F91224BEFFFD331B
:1065760095E0FC900017E0C39DEC6480F874809869
:10658600500302664B900017E06F60030266589056
:106596000013E0FBA3E0FAA3E0F99000011224D770
:1065A600FFFD3395E0FC900018E0C39DEC6480F895
:1065B600748098500302664B900018E06F600302E7
:1065C6006656900013E0FBA3E0FAA3E0F990000200
:1065D6001224D7FFFD3395E0FC900019E0C39DEC33
:1065E6006480F87480985002805B900019E06F70A8
:1065F6005D900013E0FBA3E0FAA3E0F9900003121C
:1066060024D7FFFD3395E0FC90001AE0C39DEC64AF
:1066160080F87480985002802C90001AE0B5072C00
:10662600900013E0FBA3E0FAA3E0F9900004122423
:10663600D7FF3395E0FE90001BE0C39FEE6480F821
:10664600748098500DE4900016F0800C800480024F
:0D66560080009000167402F0900016E0FF26
:016663002214
:0B8D77009000B0EBF0A3EAF0A3E9F0DD
:108D82007B017A0079BB1291A09000BBE0FF7E00CC
:108D92007C017D6D122538AC06AD07A3E075F01E8F
:108DA200A42DFFEC35F0FEA3E07C002FFFEC3EFE8D
:108DB200E4FD9000B31226009000B0E0FBA3E0FABD
:108DC200A3E0F99000011224D775F01EA4FDACF0C7
:108DD200C004C0051224BEFF7E007C017D6D1225F9
:108DE20038D0E02FFFD0E03EFE9000021224D71CC4
:108DF2002FFFEC3EFEE4FD9000B71226009000B378
:108E0200E0FCA3E0FDA3E0FEA3E0FFA3E0F8A3E003
:108E1200F9A3E0FAA3E0FBC31225C340089000C106
:0F8E22007401F08005E49000C1F09000C1E0FF02
:018E3100221E
:10309200900014ECF0A3EDF0900011EBF0A3EAF035
:0330A200A3E9F0AF
:1030A500C200C20190000B1224D7FF3395E04F6098
:1030B500030235C8900011E0FBA3E0FAA3E0F99004
:1030C500000C1224D7FF3395E04F60030235C890FA
:1030D500000D1224D7FF3395E04F60030235C890E9
:1030E500000E1224D7FF3395E04F60030235C890D8
:1030F500000F1224D7FF3395E04F60030235C890C7
:103105000014E0FEA3E0C3943CEE9400900014404C
:103115001CA3E0FB7C007D3CFF12254A90001DEFBF
:10312500F075F03CA4FFC3EB9FA3F0800BA3E090E8
:10313500001EF0E490001DF090001EE0FF700302F9
:1031450033FD900011E0FBA3E0FAA3E0F990000441
:103155001224D7FEEF2E90001CF0D3943B7480947C
:103165008050030233D2E0FF75F03C8490001FF0DD
:10317500E0FE75F03CA4FDC3EF9D90001CF09000AF
:10318500031224D7FFEE2F90001BF0D39417748001
:10319500948050030233B1E0FF75F0188490001F4E
:1031A500F0E0FE75F018A4FDC3EF9D90001BF090B4
:1031B50000021224D7FFEE2F90001AF090000112A2
:1031C50024D7FF3395E0FEEF64014E6024EF6403DE
:1031D5004E601EEF64054E6018EF64074E6012EFF7
:1031E50064084E600CEF640A4E6006EF640C4E7086
:1031F5005790001AE0D3941F748094804032E024E5
:10320500E1F0900011E0FBA3E0FAA3E0F9900001E2
:103215001224D704900019F0D3940C748094804044
:10322500241224BE04900018F0A37401F002343770
:10323500900011E0FBA3E0FAA3E0F990000112244D
:10324500D7900019F0023430900011E0FBA3E0FAAA
:10325500A3E0F99000011224D7FF3395E0FEEF6457
:10326500044E6012EF64064E600CEF64094E600672
:10327500EF640B4E702790001AE0D3941E7480946F
:1032850080400DE024E2F09000011224D70480066E
:103295009000011224D7900019F0023430900011EB
:1032A500E0FBA3E0FAA3E0F99000011224D7FF3375
:1032B50095E0FEEF64024E60030233941224BEFFD4
:1032C500FD3395E0FCED24D0FAEC3407900016F0C0
:1032D500A3CAF0C200ED64104C6023EF3395E0FE05
:1032E500EF64144E6018EF64184E6012EF641C4EC4
:1032F500600CEF64204E6006EF64244E7002D2002D
:1033050030004990001AE0FDD3941D74809480909C
:103315000011E0FBA3E0FAA3E0F940171224BE90E8
:103325000018F090001AE024E3F09000011224D771
:103335000480121224BE900018F090001AEDF0904F
:1033450000011224D7900019F002343790001AE0DA
:10335500FDD3941C748094804018E024E4F0900020
:1033650011E0FBA3E0FAA3E0F99000011224D704D1
:10337500801690001AEDF0900011E0FBA3E0FAA38F
:10338500E0F99000011224D7900019F00234309032
:10339500001AE0F0900011E0FBA3E0FAA3E0F99039
:1033A50000011224D7900019F0023430900011E08A
:1033B500FBA3E0FAA3E0F99000021224D790001ACB
:1033C500F09000011224D7900019F0805E90001152
:1033D500E0FBA3E0FAA3E0F99000031224D79000E4
:1033E5001BF09000021224D790001AF090000112F1
:1033F50024D7900019F08033900011E0FBA3E0FA88
:10340500A3E0F99000041224D790001CF09000036B
:103415001224D790001BF09000021224D790001AB6
:10342500F09000011224D7900019F01224BE9000EC
:1034350018F090001DE0FF700302358990001BE035
:103445002FF0E0FFD39417748094805003023589E0
:10345500EF75F0188490001FF0E0FE75F018A4FDDC
:10346500C3EF9D90001BF090001AE02EF09000191C
:10347500E0FF6401601EEF64036019EF64056014EA
:10348500EF6407600FEF6408600AEF640A6005EFF8
:10349500640C703590001AE0D3941F7480948050AA
:1034A50003023589E024E1F0900019E004F0E0D34F
:1034B500940C74809480900018E0400904F0A37483
:1034C50001F0023589F0023589900019E0FF6404A6
:1034D500600FEF6406600AEF64096005EF640B7026
:1034E5001F90001AE0D3941E74809480400CE02451
:1034F500E2F0900019E004023583900019E0807E27
:10350500900019E0FA6402707B900018E0FBFD7CE6
:103515000024D0FEEC3407900016F0A3CEF0C200D4
:10352500ED6410601AEBFF64146014EF6418600F0B
:10353500EF641C600AEF64206005EF64247002D21A
:103545000030002490001AE0FFD3941D748094800D
:10355500400BE024E3F0900019E004800990001A84
:10356500EFF0900019EA801690001AE0D3941C74CD
:10357500809480400FE024E4F0900019E004F0907E
:103585000018E0F0900018E0FF900011E0FBA3E0C8
:10359500FAA3E0F990000BEF122516900019E090C0
:1035A500000C12251690001AE090000D12251690B9
:1035B500001BE090000E12251690001CE090000FF5
:0335C500122516B6
:0135C80022E0
:10AF7600E4FDFCC3ED9FEC9E50070DBD00010C8067
:01AF8600F2D8
:01AF870022A7
:04AF0300AB07AA06E8
:10AF0700900000C3E5829BE5839A500A7F967E00F6
:06AF170012AF76A380EDED
:01AF1D002211
:08AC1700900012EEF0A3EFF033
:10AC1F00E4A3F0A3F0900012E0FEA3E0FFC39000C6
:10AC2F0015E09F900014E09E50177F0A7E0012AF30
:10AC3F0003900015E004F070DC900014E004F08045
:01AC4F00D430
:01AC500022E1
:01B06B0022C2
:03AE2B0012AE095B
:10AE2E00D20ED293D292E4FFFE209205C20EC293AE
:0CAE3E00220FBF00010EBE04F0BF4CED5F
:01AE4A0022E5
:03AE4B0012AE093B
:10AE4E00D293D292D20EE4FFFE209205C20EC2938E
:0CAE5E00220FBF00010EBE02F0BF8AED03
:01AE6A0022C5
:06B05800D29300C2932216
:10AE0900E4FEEEC39408748094805015EF25E0FFAA
:10AE190030D704D2928002C292D29312B0580E80D7
:01AE2900E147
:01AE2A002205
:08AF8800ECFD7C00C293C292B3
:0AAF9000D292D29300C292C2932223
:09B01500C293C292D293D292229E
:10A65E00E4FBEBFDC39408748094805038C29330B1
:10A66E009216900283E04401F0ED9406748094807B
:10A67E005006E025E0F0D293209217900283E0542A
:10A68E00FEF0EBD39406748094805006E025E0F043
:0CA69E00D2930B80BDC293900283E0FFBA
:01A6AA00228D
:10A5B200900071E0FCA3E0FDA3E0FBA3E0FAA3E0BE
:07A5C200F91224BEFB7FA883
:02A5C900AA07DF
:10A5CB00AF05A90712AF88AF0212AE2BAF0512AEC3
:10A5DB002BAF0112AE0912AE2EAF0312AE0912AEA3
:10A5EB002E12B0157F0D7E0012AF03D293D2927F45
:0DA5FB00627E0012AF767F627E0002AF76B6
:04AB28007C007FA886
:02AB2C00AB0775
:10AB2E00AF05AA0712AF88AF0312AE4BAF0512AE38
:10AB3E004BAF0212AE0912AE4E12AF90EB04FF12E3
:10AB4E00AE0912AE2EC29312A65E12B015D293D2D9
:06AB5E0092900283E0FF6B
:01AB640022CE
:10A60800E4FDFC7FA812AB2C900152E4F0A3EFF01C
:10A618007D0212AB2890014DE4F0A3EFF07D041207
:10A62800AB2890014BE4F0A3EFF07D0612AB289025
:10A638000145E4F0A3EFF07D0812AB28900143EF49
:10A64800F07D0C12AB28900148EFF07D0E12AB287C
:06A65800900144EFF02226
:10A433009000B0EEF0A3EFF0A3EBF0A3EAF0A3E9F2
:01A44300F028
:10A444009000B0E0FCA3E0FD7FA812AB2C9000B21A
:10A45400E0FBA3E0FAA3E0F9EF1225049000B2E0D8
:10A46400FBA3E0FAA3E0F91224BEFF9000B1E004DC
:10A47400F070069000B0E004F09000B3E475F001D1
:10A4840012259FEF70BA9000B2E0FBA3E0FAA3E0BC
:05A49400F9E4022504BB
:10A21700900071EEF0A3EFF0A3EBF0A3EAF0A3E94F
:10A22700F0900073E0FBA3E0FAA3E0F91224BE600C
:10A2370024B40D04E412250412A5B2900072E004C0
:10A24700F07006900071E004F0900074E475F0017E
:10A2570012259F80CC12A5B2900072E004F0700620
:10A26700900071E004F0900074E475F00112259FEE
:0FA27700900071E0FCA3E0FDE4FB7FA802A5C905
:10AC880090001174FFF0E4A3F0A3F0900012E0FC30
:10AC9800A3E0FDC39450EC9403501A900011E0FB1C
:10ACA8007FA812A5C9900013E004F070DE9000128E
:05ACB800E004F080D66D
:01ACBD002274
:1092ED0053656E736F726573204175746F207920AD
:1092FD0073656E736F72312061637469766F732E4F
:10930D000053656E736F722061637469766F20739D
:10931D00656E736F7231202E0044657465637461E0
:10932D00646F2E2053656E736F72204175746F2EAE
:10933D000053656E736F726573206E6F2064657474
:10934D0065637461646F73005665686963756C6FEE
:10935D00204573706572616E646F2053616C697224
:10936D002E005665686963756C6F2053616C696575
:10937D006E646F2E20556E206D6F6D656E746F006F
:0489E90041028E00B9
:07B02E00C2B5C2B6C2B72291
:07B03500C2B5D2B6C2B7227A
:07B03C00C2B5C2B6D2B72273
:07B04300D2B5C2B6D2B7225C
:07B04A00C2B5D2B6D2B72255
:07B05100D2B5D2B6D2B7223E
:10AE6B00E4FF7DF47C01309115EFFB3395E04B70E3
:0EAE7B000DED1D70011CED4C70EC7F0180E8A8
:01AE890022A6
:10A927009000377401F012B04A309103E004F0123E
:10A93700B051309107900037E02402F0900037E0E3
:10A94700640170177D12FC7FA812AB2CEF600CF42A
:10A95700900037700404F08002EFF0900037E02495
:02A9670030FFBF
:01A9690022CB
:10AF4C007D127C007FA812AB2CEF6005F470027FA1
:05AF5C0001EF2430FFAD
:01AF610022CD
:10A1310012B03C30916112AE6BEF3395E0FEEF64EB
:10A14100014E704712B04320912312B0357BFF209E
:10A15100910D7A9279ED12A8E9E490014780227A73
:10A1610093790E12A8E99001477401801412B03559
:10A171007BFF2091107A93792612A8E99001477408
:10A1810001F07FFF227A93793E80067BFF7A9379F3
:10A191005512A8E97F00227BFF7A93796F12A8E913
:03A1A1007F012219
:10AE8A00E4FE12B03C30911412AE6BEFFD3395E044
:0EAE9A00FCED64014C7002FF227F01227F015B
:01AEA8002287
:109EB500E4900001F012B02E20916990028EE070BE
:109EC50016900001E0701030B35A04F012ACF29015
:109ED500028E7401F0804D90028EE0640170169040
:109EE5000001E0701030B33C04F01277AE90028EA2
:109EF5007402F0802F90028EE064027027900001BA
:109F0500E0702130B31E04F07D0C7C007FA812ABFD
:109F15002CEF640170047F5380027F4E129B0CE48A
:0F9F250090028EF012B02E309105E4900001F002
:019F3400220A
:1035C900494E4752455345205441524A455441209A
:1035D900005441524A4554412053494E20494E47CF
:1035E9005245534F20005441524A455441204E4FB1
:1035F900205245474953545241205041474F2000DA
:10360900455843454445205449454D504F2044456C
:103619002047524143494120004D454E5355414CA5
:10362900204E4F204553544120454E205041525180
:103639005545414445524F2000444952494A415356
:103649004520412043414A412000475241434941D5
:10365900532E2E2E2000475241434941532E2E2EE0
:10366900004D454E5355414C494441442056454E21
:103679004349444120004D454E5355414C4944412D
:10368900442045584345444520484F524152494FEB
:103699002041434552515545534520412043414A14
:1036A9004120004E4F204553204D454E5355414C26
:1036B90049444144204E49205052455041474F000A
:1036C9004D454E5355414C204E4F205041474F20B8
:1036D9004C4F434143494F4E20484F5900544152A2
:1036E9004A455441204E4F2045532044454C2050D3
:1036F9004152515545414445524F200053494E20AE
:1037090050524553454E4349412056454849435532
:103719004C415220005441524A45544120494E5689
:10372900414C49444120005441524A455441205397
:10373900494E20464F524D41544F2000465545525F
:1037490041204445204C494E45412000554E204DCD
:103759004F4D454E544F20504F52204641564F52DF
:103769002000613B38353B494E475245534520546B
:1037790041524A4554410A0000613B38363B5441A5
:10378900524A4554412053494E20494E47524553C8
:103799004F200A0000613B38373B5441524A455497
:1037A90041204E4F205245474953545241205041E0
:1037B900474F0A0000613B38383B4558434544456B
:1037C900205449454D504F204445204752414349D3
:1037D90041200A0000613B38393B4D454E53554164
:1037E9004C204E4F204553544120454E20504152C4
:1037F900515545414445524F0A0000613B39303B20
:10380900444952494A41534520412043414A410ACA
:103819000000613B39313B475241434941532E2E08
:103829002E200A0000613B39333B4D454E5355412B
:103839004C204E4F204553544120454E2050415273
:10384900515545414445524F0A0000613B39343BCB
:103859004D454E5355414C494441442056454E43EC
:103869004944410A0000613B39353B4D454E5355AA
:10387900414C494441442045584345444520484F1B
:10388900524152494F2041434552515545534520D4
:10389900412043414A410A0000613B39363B4E4FC2
:1038A900204553204D454E5355414C4944414420F0
:1038B9004E49205052455041474F0A0000613B395B
:1038C900373B4D454E5355414C204E4F20504147B3
:1038D9004F204C4F434143494F4E20484F590A000E
:1038E90000613B39383B5441524A455441204E4FBF
:1038F9002045532044454C2050415251554541449F
:1039090045524F200A0000613B39383B53494E204C
:1039190050524553454E4349412056454849435520
:103929004C4152200A0000613B39383B5441524A0C
:1039390045544120494E56414C494441200A000012
:10394900613B39383B5441524A4554412053494E11
:1039590020464F524D41544F200A0000613B3938EF
:103969003B4655455241204445204C494E45410A64
:103979000000613B39383B554E204D4F4D454E5463
:103989004F20504F52204641564F520A0000613B8A
:1039990030373BA1204D454E5355414C4944414494
:1039A9002056454E4349444120210A0000613B30DD
:1039B900363B4D454E5355414C20465545524120C5
:1039C900444520484F524152494F0A0000613B3952
:1039D900383B484F524152494F204E4F2050524F89
:1039E9004752414D41444F0A000057494547414E0E
:1039F900442000475241434941532000613B393239
:103A09003B57494547414E443A000A00613B393129
:103A19003B475241434941532000643B000A00009F
:103A2900AA8018010200AA80180102000000000003
:103A3900000000000000000000000000000000007D
:103A4900000000000000000000000000000000006D
:043A59000000000069
:0542FD0090002EEFF01F
:10430200782F7C007D017BFF7A3A79297E007F0637
:104312001224987E017FBB7D287C0012AB657F282A
:104322007E001288DE900036EEF0A3EFF0C2879096
:104332000144E060030245A77B017A00792FFD1258
:10434200A8A790002EE012265D43855543A556434B
:10435200C55743E55844055944255A44455B44052D
:104362005D44655E44855F44A56044C56144E5AA39
:104372004505AB4525AC4544AD4563AE4582AF002E
:104382000045A47BFF7A3579C912000E900035EF03
:10439200F0E4FDFF12ADA112AD987BFF7A3579C929
:1043A20002459F7BFF7A3579DA12000E900035EFD5
:1043B200F0E4FDFF12ADA112AD987BFF7A3579DAF8
:1043C20002459F7BFF7A3579EF12000E900035EFA0
:1043D200F0E4FDFF12ADA112AD987BFF7A3579EFC3
:1043E20002459F7BFF7A36790912000E900035EF65
:1043F200F0E4FDFF12ADA112AD987BFF7A36790988
:1044020002459F7BFF7A36792212000E900035EF2B
:10441200F0E4FDFF12ADA112AD987BFF7A3679224E
:1044220002459F7BFF7A36794212000E900035EFEB
:10443200F0E4FDFF12ADA112AD987BFF7A3679420E
:1044420002459F7BFF7A36795312000E900035EFBA
:10445200F0E4FDFF12ADA112AD987BFF7A36795FD1
:1044620002459F7BFF7A36796A12000E900035EF83
:10447200F0E4FDFF12ADA112AD987BFF7A36796AA6
:1044820002459F7BFF7A36797F12000E900035EF4E
:10449200F0E4FDFF12ADA112AD987BFF7A36797F71
:1044A20002459F7BFF7A3679AC12000E900035EF01
:1044B200F0E4FDFF12ADA112AD987BFF7A3679AC24
:1044C20002459F7BFF7A3679C912000E900035EFC4
:1044D200F0E4FDFF12ADA112AD987BFF7A3679C9E7
:1044E20002459F7BFF7A3679E612000E900035EF87
:1044F200F0E4FDFF12ADA112AD987BFF7A3679E6AA
:1045020002459F7BFF7A37790512000E900035EF46
:10451200F0E4FDFF12ADA112AD987BFF7A37790569
:1045220002459F7BFF7A37791E12000E900035EF0D
:10453200F0E4FDFF12ADA112AD987BFF7A37791E30
:10454200805B7BFF7A37793012000E900035EFF0F6
:10455200E4FDFF12ADA112AD987BFF7A377930806E
:104562003C7BFF7A37794512000E900035EFF0E47C
:10457200FDFF12ADA112AD987BFF7A377945801D00
:104582007BFF7A37795512000E900035EFF0E4FD8B
:10459200FF12ADA112AD987BFF7A3779557D0112DA
:1045A200A8A7D28722C28790002EE012265D45F38B
:1045B20055461956462257462B58463459463C5AB8
:1045C20046445B464C5D46545E465C5F46646046CC
:1045D2006C614674AA467CAB4684AC468CAD46946C
:1045E200AE469CAF46A4B446ACB546B4B60000464F
:1045F200BD900036E0FEA3E0AA06F8AC027D017B86
:10460200FF7A37796B1228EA900036E0FEA3E0AA1F
:1046120006F97B010246BA7BFF7A3779820246BAF3
:104622007BFF7A37799E0246BA7BFF7A3779BE02E0
:1046320046BA7BFF7A3779DE807E7BFF7A3879044F
:1046420080767BFF7A38791B806E7BFF7A38792EF1
:1046520080667BFF7A387954805E7BFF7A38796F87
:1046620080567BFF7A3879A2804E7BFF7A3879C6F2
:1046720080467BFF7A3879EA803E7BFF7A3979106F
:1046820080367BFF7A397930802E7BFF7A397949FF
:1046920080267BFF7A397965801E7BFF7A39797BA8
:1046A20080167BFF7A397997800E7BFF7A3979B64B
:1046B20080067BFF7A3979D612A559900036E0FE42
:0F46C200A3E0FF126E61E4900036F0A3F0D28700
:0146D10022C6
:0E6BDF00900011EFF0A3EBF0A3EAF0A3E9F0B1
:106BED0078157C007D017BFF7A3A792F7E007F0638
:106BFD00122498781C7C007D017BFF7A3A79357ED2
:106C0D00007F28122498C287900144E06003026C33
:106C1D00B6900011E024A56040146003026CB3121D
:106C2D00A89F7BFF7A3979F312000E90001BEFF0CD
:106C3D00900012E0FBA3E0FAA3E0F912000E900021
:106C4D001BE02F04F0E4FDFF12ADA190001B12AD6F
:106C5D009B7BFF7A3979F3803812A89F7BFF7A39B5
:106C6D0079FC12000E90001BEFF0900012E0FBA3D8
:106C7D00E0FAA3E0F912000E90001BE02F04F0E4FF
:106C8D00FDFF12ADA190001B12AD9B7BFF7A3979F0
:106C9D00FC7D0112A8A7900012E0FBA3E0FAA3E08F
:106CAD00F97D0112A8A7D28722C287900011E02496
:106CBD00A5601114705B781C7C007D017BFF7A3A16
:106CCD007905800C781C7C007D017BFF7A3A791563
:106CDD001228EA900012E0F9A3E0FAA3E090005D1B
:106CED00C9F0A3EAF0A3E9F07B017A00791C12A3A5
:106CFD005E90005D74FFF0A3743AF0A37413F07B03
:106D0D00017A00791C12A35E7B017A00791C12A511
:036D1D0059D287C1
:016D20002250
:09AD9800900035E025E0FFE4FD28
:05ADA100900049EDF0F7
:10ADA60012AAAD90004AEFF0900049E0600AE4FF75
:08ADB60012AAAD90004AEFF073
:01ADBE002272
:08A89F007B017A007915E4FD4C
:0EA8A700900044EBF0A3EAF0A3E9F0A3EDF07B
:10A8B500E4A3F0900044E0FBA3E0FAA3E0F99000E4
:10A8C50048E0F5827583001224D7FF601090004799
:0DA8D500E0FD12ADA1900048E004F080D637
:01A8E2002253
:0EA81300900025EBF0A3EAF0A3E9F0A3EDF02E
:10A82100E490002AF0900028E0FF90002AE0FEC3A7
:10A831009F5024900025E0FBA3E0FAA3E0F98E826B
:10A841007583001224D7FF900029E0FD12ADA1907D
:07A85100002AE004F080CEB4
:01A8580022DD
:0BA55900900044EBF0A3EAF0A3E9F04F
:10A5640012000E900047EFF0E49001BAF09000471B
:10A57400E0FF9001BAE0C39F5033900044E0FBA396
:10A58400E0FAA3E0F91224BEFF12AAAD900045E45C
:10A5940075F00112259FE4FFEFC394C87480948082
:0DA5A40050030F80F39001BAE004F080C076
:01A5B1002287
:10A3C900900144E07022C2877B017A007916128AD3
:10A3D90075C29C7B017A007911E4900029F07D0D0A
:10A3E90012A813D29CD28722C287E4900011F07878
:10A3F900117C007D017BFF7A3A79231228EA7B01DF
:10A409007A007913125CCD90005D74FFF0A3743A61
:10A41900F0A37426F07B017A00791112A35E7B0107
:09A429007A00791112A559D287BD
:01A432002207
:100026000A20434F4E5452415345D1412041435437
:1000360055414C2056454E4349444120444542458E
:100046002052454E4F564152204645434841205680
:10005600454E43494D49454E544F200A0040232101
:10006600246046625E262A003A5B3C253F58545D72
:100076003D29000D0A0A25733E20002563002564EC
:10008600000D0A0A2041435455414C2049445F4320
:100096004C49454E54453D25730D0A0A000D0A0A82
:1000A60020444947495445205355204E5545564FFF
:1000B6002049445F434C49454E54453D000D0A0ACC
:1000C600204441544F204D4F444946494341444FF3
:1000D6002049445F434C49454E54453D25730D0A1E
:1000E6000A000D0A0A2041435455414C20434F440F
:1000F6005F5041524B3D25730D0A0A000D0A0A2036
:10010600444947495445205355204E5545564F209E
:10011600434F445F5041524B3D000D0A0A20444173
:10012600544F204D4F444946494341444F20434F85
:10013600445F5041524B3D25730D0A0A000D0A0AD1
:100146002041435455414C205449454D504F5F473B
:1001560052414349413D25730D0A0A000D0A0A2002
:10016600444947495445205355204E5545564F203E
:100176005449454D504F5F4752414349413D000D5B
:100186000A0A204441544F204D4F444946494341B1
:10019600444F205449454D504F5F475241434941D2
:1001A6003D25730D0A0A000D0A0A204143545541A4
:1001B6004C2053494E5F434F42524F20494E4841CF
:1001C60042494C495441444F3D25730D0A0A000DDE
:1001D6000A0A2041435455414C2053494E5F434F30
:1001E60042524F204752415449533D25730D0A0A46
:1001F600000D0A0A2041435455414C2053494E5F95
:10020600434F42524F20475241544953205920539D
:10021600414C49444120454C204D49534D4F2044C3
:1002260049413D25730D0A0A000D0A0A2044494733
:10023600495445205355204E5545564F2053494E57
:100246005F434F42524F3D000D0A0A204143545529
:10025600414C20444542554720494E484142494C6D
:10026600495441444F3D25730D0A0A000D0A0A20E0
:1002760041435455414C204445425547204841424C
:10028600494C495441444F3D25730D0A0A000D0A55
:100296000A2044494749544520454C204E55455669
:1002A6004F2045535441444F204445204445425530
:1002B600473D000D0A0A2041435455414C205553F1
:1002C600455F4C505220494E484142494C495441A1
:1002D600444F3D25730D0A0A000D0A0A2041435476
:1002E60055414C205553455F4C5052204841424998
:1002F6004C495441444F3D25730D0A0A000D0A0A24
:100306002044494749544520454C204E5545564FB3
:100316002045535441444F204445205553455F4C96
:1003260050523D000D0A0A2041435455414C20438A
:100336004F4D5041524143494F4E20414354495637
:100346004120494E484142494C495441444F3D257C
:10035600730D0A0A000D0A0A2041435455414C20E8
:10036600434F4D5041524143494F4E20414354491A
:1003760056412020484142494C495441444F3D256D
:10038600730D0A0A000D0A0A2044494749544520BC
:10039600454C204E5545564F2045535441444F2019
:1003A600444520434F4D5041524143494F4E204111
:1003B6004354495641203D000D0A0A2041435455F5
:1003C600414C20434F4D5041524143494F4E2041ED
:1003D60043544956412020494E484142494C4954CC
:1003E60041444F3D25730D0A0A000D0A0A2050416B
:1003F6004E54414C4C41204C434420484142494CC8
:1004060049544144413D25730D0A0A000D0A0A204C
:1004160050414E54414C4C4120524153504245525A
:1004260052592020484142494C49544144413D25B6
:10043600730D0A0A000D0A0A20444947495445200B
:10044600454C204E5545564F2045535441444F2068
:100456004445204C412050414E54414C4C41203D96
:10046600000D0A0A205041534120504F522043416B
:100476004A4120504152412056414C494441522064
:100486004443544F3D25730D0A0A000D0A0A2041C4
:10049600504C494341204445534355454E544F3DE6
:1004A60025730D0A0A000D0A0A2044494749544596
:1004B60020454C204E5545564F2045535441444FF8
:1004C600204445204443544F203D000D0A0A204154
:1004D600435455414C20414E544950415353424197
:1004E600434B204D454E5355414C20494E484142C1
:1004F600494C495441444F3D25730D0A0A000D0AE3
:100506000A2041435455414C20414E5449504153D1
:10051600534241434B204D454E5355414C20484193
:1005260042494C495441444F3D25730D0A0A000D7A
:100536000A0A2044494749544520454C204E554512
:10054600564F2045535441444F20444520414E5474
:1005560049504153534241434B204D454E5355411B
:100566004C3D000D0A0A2041435455414C20414E52
:100576005449504153534241434B20204D454E531D
:1005860055414C20484142494C495441444F3D2530
:10059600730D0A0A000D0A0A2041435455414C20A6
:1005A600414444524553535F484947485F424F418F
:1005B60052443D25730D0A0A000D0A0A2044494794
:1005C600495445204C41204E55455641204144440E
:1005D600524553535F484947485F424F4152443D55
:1005E600000D0A0A2041435455414C20484F5241C0
:1005F60052494F20494E484142494C495441444F83
:100606003D25730D0A0A000D0A0A2041435455413F
:100616004C20484F524152494F20484142494C498B
:100626005441444F3D25730D0A0A000D0A0A204421
:10063600494749544520454C204E5545564F20457F
:10064600535441444F20444520484F524152494F4C
:100656003D000D0A0A2044696769746520486F7277
:10066600612030383A3030204D696E75746F7320D2
:1006760044657364653A20000D0A0A20486F72616A
:100686002050726F6772616D6164612044657364A6
:10069600653A200025633A000D0A0A204469676915
:1006A600746520486F72613A4D696E75746F732078
:1006B60048617374613A20000D0A0A20486F72611E
:1006C6002050726F6772616D616461204861737456
:1006D600613A20000D0A2044657364652020486154
:1006E6007374610D0A002025630025632020200015
:1006F6000D0A0A20446967697465206C6F7320646B
:1007060069617320612070726F6772616D6172201A
:100716004C756E6573203D20322C20004D6172743D
:100726006573203D20332C204D696572636F6C65BF
:1007360073203D20342C204A7565766573203D2054
:10074600352C2000566965726E6573203D20362C67
:100756002053616261646F203D20372C20446F6D09
:10076600696E676F203D2031203A20000D0A0A206D
:10077600446961732050726F6772616D61646F7353
:10078600203A2000204C756E6573003D2025632CB1
:1007960000204D617274657300204D696572636F48
:1007A6006C657300204A7565766573002056696529
:1007B600726E6573002053616261646F0020446F3E
:1007C6006D696E676F003D20256300204C756E6570
:1007D60073203D2050726F6772616D61646F0D0A00
:1007E60000204C756E6573203D204E6F2070726F31
:1007F6006772616D61646F0D0A00204D61727465E8
:1008060073203D2050726F6772616D61646F0D0ACF
:1008160000204D6172746573203D204E6F2070720A
:100826006F6772616D61646F0D0A00204D696572B4
:10083600636F6C6573203D2050726F6772616D61E6
:10084600646F0D0A00204D696572636F6C657320D5
:100856003D204E6F2070726F6772616D61646F0D1F
:100866000A00204A7565766573203D2050726F67D1
:1008760072616D61646F0D0A00204A756576657355
:10088600203D204E6F2070726F6772616D61646FDC
:100896000D0A0020566965726E6573203D20507200
:1008A6006F6772616D61646F0D0A0020566965722B
:1008B6006E6573203D204E6F2070726F6772616D9A
:1008C60061646F0D0A002053616261646F203D20F0
:1008D60050726F6772616D61646F0D0A002053611B
:1008E6006261646F203D204E6F2070726F67726187
:1008F6006D61646F0D0A0020446F6D696E676F202D
:100906003D2050726F6772616D61646F0D0A002041
:10091600446F6D696E676F203D204E6F2070726F59
:100926006772616D61646F0D0A000D0A0A204469E1
:100936006769746520656C206E756D65726F2064DD
:10094600656C20486F726172696F20612070726FEA
:100956006772616D6172203D20000D0A0A20507297
:100966006F6772616D617220736567756E646F2063
:10097600486F726172696F2073693D283129206E54
:100986006F3D2830293D20000D0A0A204143545569
:10099600414C2046454348412056454E43494D4922
:1009A600454E544F2050415353574F52443A2573A6
:1009B6000D0A0A000D0A0A2F3E496420526567692E
:1009C6007374726F3A002573000D0A0A2F3E506148
:1009D6007373776F72643A000D0A0A2044494749D7
:1009E6005445204C41204E554556412046454348E6
:1009F600412044452056454E43494D49454E544FA6
:100A06003D000D0A0A2025730D0A0A000D0A0A2068
:100A16002558000D0A0A2041435455414C204645AD
:100A26004348412044452056454E43494D49454E8D
:100A3600544F2050524F4752414D414441203D258D
:100A4600730D0A0A000D0A206E756D65726F2064BB
:100A5600656C20486F726172696F202070726F67D3
:100A660072616D61646F203D2025630D0A000D0AD9
:100A76002020484F524152494F20484142494C4953
:100A86005441444F20203D204F4E0D0A000D0A20B0
:100A9600446961732050726F6772616D61646F7330
:100AA6000D0A000D0A2020534547554E444F204855
:100AB6004F524152494F20484142494C49544144C2
:100AC6004F20203D204F4E0D0A000D0A205345476A
:100AD600554E444F20484F524152494F20484142BB
:100AE600494C495441444F20203D204F46460D0A6B
:100AF600000D0A2020484F524152494F204841429A
:100B0600494C495441444F20203D204F46460D0A4A
:100B1600000D0A2049445F434C49454E54455F50F9
:100B2600524F4752414D41444F203D2025730D0AF7
:100B3600000D0A20434F445F5041524B5F50524FC5
:100B46004752414D41444F203D2025730D0A000D6B
:100B56000A205449454D504F5F4752414349412071
:100B660050524F4752414D41444F203D2025730D71
:100B76000A000D0A2053494E5F434F42524F204808
:100B86004142494C495441444F203D204F4646205E
:100B96000D0A000D0A2053494E5F434F42524F2023
:100BA6003D204F4E0D0A000D0A2050524F4752412C
:100BB6004D41444F204445425547203D204F4E0D60
:100BC6000A000D0A2050524F4752414D41444F20D2
:100BD6004445425547203D204F46460D0A000D0A22
:100BE600205553455F4C5052203D204F46460D0A36
:100BF600000D0A205553455F4C5052203D204F4E64
:100C06000D0A000D0A0A2020434F4D504152414320
:100C1600494F4E20414354495641203D204F4646B8
:100C26000D0A000D0A0A20434F4D504152414349D7
:100C36004F4E2041435449564120203D204F4E0DF2
:100C46000A000D0A2050414E54414C4C41204C4361
:100C5600442050524F4752414D4144410D0A000D28
:100C66000A2050414E54414C4C412052415350426F
:100C760045525259202050524F4752414D4144410E
:100C86000D0A000D0A0A2020414E54495041535383
:100C96004241434B204D454E5355414C203D204F3C
:100CA60046460D0A000D0A0A2020414E544950417D
:100CB60053534241434B204D454E5355414C203DE5
:100CC600204F4E0D0A0041435455414C20414444A7
:100CD600524553535F484947485F424F415244206B
:100CE60050524F4752414D414441203D2025730DFE
:100CF6000A000D0A2041435455414C2046454348BD
:100D0600412044452056454E43494D49454E544F92
:100D16002050524F4752414D414441203D25730DCD
:100D26000A000D0A2049445F434C49454E5445206C
:100D36002020202D2D2D20434D4420302049646550
:100D46006E746966696361646F722064656C2063A2
:100D56006C69656E7465206D6178696D6F203235DA
:100D660035000D0A20434F445F5041524B2020204E
:100D76002020202D2D2D20434D44203120456C2050
:100D86006E756D65726F2064656C20706172717529
:100D960065616465726F206D6178696D6F203235AB
:100DA60035000D0A20545F47524143494120202017
:100DB6002020202D2D2D20434D44203220546965BE
:100DC6006D706F2073696E20636F62726F203030B2
:100DD6002C20206D6178696D6F20323535000D0A43
:100DE6002053494E5F434F42524F20202020202D52
:100DF6002D2D20434D44203320496E686162696C75
:100E0600697461646F3D20302C2047726174697388
:100E16003D2031202C20477261746973207920733C
:100E2600616C69646120656C206D69736D6F206407
:100E360069613D2032000D0A204445425547202075
:100E4600202020202020202D2D2D20434D442034ED
:100E560020486162696C69746172203D20312C20E2
:100E6600496E686162696C69746172203D20300068
:100E76000D0A205553455F4C50522020202020203B
:100E8600202D2D2D20434D44203520486162696C6C
:100E960069746172203D20312C20496E6861626957
:100EA6006C69746172203D2030000D0A20434F4D5D
:100EB6005041524143494F4E5F41435449564120A8
:100EC6002D2D2D20434D44203620486162696C69E2
:100ED600746172203D20312C20496E686162696C14
:100EE60069746172203D2030000D0A205449504F2C
:100EF6005F50414E54414C4C4120202020202D2D46
:100F06002D20434D442037202830292070616E74EF
:100F1600616C6C61206C6364202073657269652066
:100F260028312920726173706265727279206F2090
:100F3600626C7565746F6F7468000D0A20444354C3
:100F46004F5F504153415F43414A412020202020BA
:100F56002D2D2D20434D4420382028302920706126
:100F6600736120706F722063616A612028312920C5
:100F760061706C69636120656C2064657363756577
:100F86006E746F000D0A205553455F4150425F4D08
:100F9600454E5355414C202020202D2D2D20434DCC
:100FA60044203920486162696C69746172203D2071
:100FB600312C20496E686162696C69746172203DEA
:100FC6002030000D0A20414444524553535F48499E
:100FD60047485F424F415244202D2D2D20434D441A
:100FE600203130204C6120646972656363696F6EDD
:100FF60020616C74612064656C20626F617264208C
:1010060064656C206E756D65726F203520616C208D
:10101600392073696E6F207365207573612064656E
:10102600626520697220656E2030000D0A20484FE7
:10103600524152494F2020202020202020202020CD
:10104600202D2D2D20434D442031312050726F67C5
:10105600616D6120313020686F726172696F732033
:1010660064656C203120616C203130000D0A2056F9
:1010760045525F50524F4752414D4143494F4E20D2
:1010860020202D2D2D20434D44203132204D7565D5
:1010960073747261206C612070726F6772616D612A
:1010A60063696F6E000D0A20415955444120202086
:1010B6002020202020202D2D2D20434D442031336B
:1010C600204D756573747261206C6F7320636F6D4C
:1010D600616E646F73000D0A2053414C4952202003
:1010E600202020202020202D2D2D20434D4420314E
:1010F600342053616C69722064652070726F677268
:10110600616D6163696F6E000D0A0A5369737465D8
:101116006D612064652050726F6772616D616369ED
:101126006F6E207665726966696361646F72206CA2
:10113600696E74656368200D0A0D0A000D0A436F17
:101146006D616E646F206E6F2065786973746520BB
:1011560027257327003A5B3C253F58545D3D2900FF
:10116600232A594A41494D4563616D696C744B00A8
:1011760077727A32357136382D393166532E400002
:0C118600200D0A00200D0A00220D0A00B6
:1089ED005402182F000000000000000000000000DD
:1089FD000000000000000049020F61646D696E0007
:108A0D000000006030022C30000031000032000008
:108A1D003300003400003500003600003700003808
:108A2D000000390000313000313100313200313376
:078A3D000031340031350067
:0B54CE00900071EBF0A3EAF0A3E9F0FE
:1054D90078767C007D017BFF7A11795B7E007F0BFA
:1054E90012249878817C007D017BFF7A1179667E90
:1054F900007F1012249878917C007D017BFF7A113E
:1055090079767E007F101224987B017A0079AC7F2E
:10551900507E0312A4337B017A0079AC128D77EFA8
:105529003395E0FEEF64014E60177BFF7A00792620
:10553900123AC878767C007D017BFF7A0079638016
:105549000C78767C007D017BFF7A00796E1228EA5F
:10555900900071E0FBA3E0FAA3E0F912000E9000BD
:1055690074EFF0E4A3F0900075E0FFC3940A74802F
:10557900948040030256D1900071E0FBA3E0FAA3A6
:10558900E0F98F827583001224D7FD7C0074762F91
:10559900F582E43400F583E02DFFEC3390020BF043
:1055A900A3EFF07E00540FFFA3EEF0A3EFF0700B12
:1055B900E004F0700690020DE004F090020DE0FEA8
:1055C900A3E02480F58274003EF583E07E002DFF80
:1055D900EE3C90020BF0A3EFF07E00540FFFA3EE18
:1055E900F0A3EFF0700BE004F0700690020DE004F8
:1055F900F090020DE0FEA3E02490F58274003EF5E0
:1056090083E0FF90020BE0FEA3E06FFF90020BEE38
:10561900F0FEA3EFF0D394FFEE9400400590020B47
:10562900E4F090020BE0FEA3E0FFC3947AEE94004D
:105639004015D3EF94FFEE9400500CEF547AFF908D
:10564900020BE4F0A3EFF0C390020CE09430900257
:105659000BE09400500CA3E02440F090020BE034DE
:1056690000F090020BE0FEA3E0FFC3945BEE940010
:105679004014D3EF9460EE9400500BE02407F090AF
:10568900020BE03400F090020BE0FEA3E0FFC394AC
:105699003AEE94004014D3EF9440EE9400500BE09E
:1056A90024F9F090020BE034FFF090020BA3E0FF25
:1056B900900075E024A1F582E43400F583EFF090C1
:1056C9000075E004F002556FE49000ABF07B017ABD
:0356D9000079A1B4
:0156DC0022AB
:0BA4990090005AEBF0A3EAF0A3E9F0FA
:10A4A400E4900060F0900060E0FFC3941074809426
:10A4B400805041EF75F003A4242CF9740235F0FAAE
:10A4C4007B01785D7C007D011228EA785D7C007D4B
:10A4D4000190005AE0FBA3E0FAA3E0F9122801EF8F
:10A4E4003395E04F7006900060E0FF22900060E03A
:06A4F40004F080B17FFFBF
:01A4FA00223F
:08A96A00E0FBA3E0FAA3E0F911
:0BA97200900071EBF0A3EAF0A3E9F005
:10A97D0078747C007D017B017A02790F1228EA78C8
:10A98D00747C007D01900071E0FBA3E0FAA3E0F977
:0EA99D00122801EF3395E04F7002FF227FFF7A
:01A9AB002289
:06AA2E007B017A00793281
:0BAA3400900071EBF0A3EAF0A3E9F042
:10AA3F0078747C007D017BFF7A1179867E007F041C
:10AA4F0012249890007B7401F0A37400F0A3747427
:0FAA5F00F0900071E0FBA3E0FAA3E0F902849409
:10984800E0FBA3E0FAA3E02FF9EA3EFAE92401F9E4
:03985800E43AFAF5
:0B985B0090005AEBF0A3EAF0A3E9F044
:10986600785D7C007D017BFF7A11798A7E007F041A
:1098760012249878617C007D017BFF7A11798E7EB7
:10988600007F0412249890005AE0FBA3E0FAA3E0BC
:10989600F91224BEFFB4200C90005BE475F00112AF
:1098A600259F80E2EF90007BB4220D7401F0A37433
:1098B60000F0A37461F080167401F0A37400F0A3A5
:1098C600745DF090005AE0FBA3E0FAA3E0F912847D
:0198D60094FD
:0198D700226E
:10AF1E009000B37401F0A37402F0A37418F07BFFD9
:07AF2E007A007979023AC8AC
:089F35007A0079777B01E4FD5D
:0E9F3D00900085EBF0A3EAF0A3E9F0A3EDF0AD
:109F4B0012AFFF900085E0FBA3E0FAA3E0F9EF125C
:109F5B002504900088E0701D900085E0FBA3E0FADB
:109F6B00A3E0F91224BE9000B3F07BFF7A00798155
:109F7B00123AC880057F2A12AAAD900085E0FBA398
:109F8B00E0FAA3E0F91224BEFF7E00900086E47590
:109F9B00F00112259F900085E0FBA3E0FAA3E0F906
:099FAB00E4122504EF640D709727
:019FB400228A
:108E3200E4FDFC7FA812AB2C7E00900064EEF0A350
:108E4200EFF09000B374FFF0A37400F0A37484F009
:108E5200A3EEF0A3EFF07B017A00795A123AC290A6
:108E620000B37401F0A37400F0A3745AF07BFF7A8C
:108E7200007987123AC87BFF7A0079A3123AC87A3E
:108E820000795A129F397B017A00795A12865690DC
:108E92000064EEF0A3EFF0FBE4FDFC7FA812A5C98D
:108EA200E4FDFC7FA812AB2C7E00900064EEF0A3E0
:108EB200EFF09000B374FFF0A37400F0A37484F099
:108EC200A3EEF0A3EFF07B017A00795A123AC29036
:108ED20000B37401F0A37400F0A3745AF07BFF7A1C
:068EE2000079C3023AC84A
:108BFD007D027C007FA812AB2C7E00900064EEF00D
:108C0D00A3EFF09000B374FFF0A37400F0A374848D
:108C1D00F0A3EEF0A3EFF07B017A00795A123AC27D
:108C2D009000B37401F0A37400F0A3745AF07BFFAD
:108C3D007A0079E8123AC87BFF7A017902123AC8B4
:108C4D007B017A00795AE4FD129F3D7B017A007910
:108C5D005A128656900064EEF0A3EFF0FB7D027C75
:108C6D00007FA812A5C97D027C007FA812AB2C7EC7
:108C7D0000900064EEF0A3EFF09000B374FFF0A34A
:108C8D007400F0A37484F0A3EEF0A3EFF07B017AEF
:108C9D0000795A123AC29000B37401F0A37400F037
:0D8CAD00A3745AF07BFF7A017920023AC8C7
:108CBA007D047C007FA812AB2C7E00900064EEF04D
:108CCA00A3EFF09000B374FFF0A37400F0A37484D0
:108CDA00F0A3EEF0A3EFF07B017A00795A123AC2C0
:108CEA009000B37401F0A37400F0A3745AF07BFFF0
:108CFA007A017943123AC87BFF7A017962123AC83B
:108D0A007B017A00795AE4FD129F3D7B017A007952
:108D1A005A128656900064EEF0A3EFF0FB7D047CB5
:108D2A00007FA812A5C97D047C007FA812AB2C7E07
:108D3A0000900064EEF0A3EFF09000B374FFF0A38C
:108D4A007400F0A37484F0A3EEF0A3EFF07B017A31
:108D5A0000795A123AC29000B37401F0A37400F079
:0D8D6A00A3745AF07BFF7A017985023AC8A4
:106FA0007D067C007FA812AB2C7E00900064EEF082
:106FB000A3EFF09000B374FFF0A37400F0A3748407
:106FC000F0A3EEF0A3EFF07B017A00795A123AC2F7
:106FD000900064E07002A3E070159000B304F0A389
:106FE0007400F0A3745AF07BFF7A0179AD8035907C
:106FF0000064E07004A3E0640170159000B304F035
:10700000A37400F0A3745AF07BFF7A0179D5801441
:107010009000B37401F0A37400F0A3745AF07BFFE6
:107020007A0179F7123AC87BFF7A02792F123AC8AF
:107030007B017A00795AE4FD129F3D7B017A007949
:107040005A128656900064EEF0A3EFF0FB7D067CAA
:10705000007FA812A5C97D067C007FA812AB2C7EFC
:1070600000900064EEF0A3EFF09000B374FFF0A383
:107070007400F0A37484F0A3EEF0A3EFF07B017A28
:1070800000795A123AC2900064E07002A3E07015D1
:107090009000B304F0A37400F0A3745AF07BFF7A5D
:1070A0000179AD8035900064E07004A3E064017064
:1070B000159000B304F0A37400F0A3745AF07BFFA2
:1070C0007A0179D580149000B37401F0A37400F0B4
:0D70D000A3745AF07BFF7A0179F7123AC8D9
:0170DD002290
:107CCD007D087C007FA812AB2C7E00900064EEF046
:107CDD00A3EFF09000B374FFF0A37400F0A37484CD
:107CED00F0A3EEF0A3EFF07B017A00795A123AC2BD
:107CFD00900064E07002A3E070159000B304F0A34F
:107D0D007400F0A3745AF07BFF7A02794E801490C0
:107D1D0000B37401F0A37400F0A3745AF07BFF7AE2
:107D2D00027972123AC87BFF7A027994123AC87BB3
:107D3D00017A00795AE4FD129F3D7B017A00795A50
:107D4D00128656900064EEF0A3EFF0FB7D087C00E8
:107D5D007FA812A5C97D087C007FA812AB2C7E00E0
:107D6D00900064EEF0A3EFF09000B374FFF0A374F5
:107D7D0000F0A37484F0A3EEF0A3EFF07B017A0082
:107D8D00795A123AC2900064E07002A3E070159027
:107D9D0000B304F0A37400F0A3745AF07BFF7A02D1
:107DAD00794E80149000B37401F0A37400F0A374A5
:0B7DBD005AF07BFF7A027972123AC87C
:017DC8002298
:107DC9007D0A7C007FA812AB2C7E00900064EEF047
:107DD900A3EFF09000B374FFF0A37400F0A37484D0
:107DE900F0A3EEF0A3EFF07B017A00795A123AC2C0
:107DF900900064E07002A3E070159000B304F0A352
:107E09007400F0A3745AF07BFF7A0279B980149058
:107E190000B37401F0A37400F0A3745AF07BFF7AE5
:107E29000279DF123AC87BFF7A037903123AC87BD9
:107E3900017A00795AE4FD129F3D7B017A00795A53
:107E4900128656900064EEF0A3EFF0FB7D0A7C00E9
:107E59007FA812A5C97D0A7C007FA812AB2C7E00E1
:107E6900900064EEF0A3EFF09000B374FFF0A374F8
:107E790000F0A37484F0A3EEF0A3EFF07B017A0085
:107E8900795A123AC2900064E07002A3E07015902A
:107E990000B304F0A37400F0A3745AF07BFF7A02D4
:107EA90079B980149000B37401F0A37400F0A3743D
:0B7EB9005AF07BFF7A0279DF123AC812
:017EC400229B
:107EC5007D0C7C007FA812AB2C7E00900064EEF048
:107ED500A3EFF09000B374FFF0A37400F0A37484D3
:107EE500F0A3EEF0A3EFF07B017A00795A123AC2C3
:107EF500900064E07002A3E070159000B304F0A355
:107F05007400F0A3745AF07BFF7A03792A801490E9
:107F150000B37401F0A37400F0A3745AF07BFF7AE8
:107F250003795B123AC87BFF7A03798B123AC87BD7
:107F3500017A00795AE4FD129F3D7B017A00795A56
:107F4500128656900064EEF0A3EFF0FB7D0C7C00EA
:107F55007FA812A5C97D0C7C007FA812AB2C7E00E2
:107F6500900064EEF0A3EFF09000B374FFF0A374FB
:107F750000F0A37484F0A3EEF0A3EFF07B017A0088
:107F8500795A123AC2900064E07002A3E07015902D
:107F950000B304F0A37400F0A3745AF07BFF7A03D6
:107FA50079BE80149000B37401F0A37400F0A3743B
:0B7FB5005AF07BFF7A03795B123AC898
:017FC000229E
:107FC1007D0E7C007FA812AB2C7E00900064EEF049
:107FD100A3EFF09000B374FFF0A37400F0A37484D6
:107FE100F0A3EEF0A3EFF07B017A00795A123AC2C6
:107FF100900064E07002A3E070159000B304F0A358
:108001007400F0A3745AF07BFF7A0379F080149026
:1080110000B37401F0A37400F0A3745AF07BFF7AEB
:10802100047912123AC87BFF7A04793B123AC87B71
:10803100017A00795AE4FD129F3D7B017A00795A59
:10804100128656900064EEF0A3EFF0FB7D0E7C00EB
:108051007FA812A5C97D0E7C007FA812AB2C7E00E3
:10806100900064EEF0A3EFF09000B374FFF0A374FE
:1080710000F0A37484F0A3EEF0A3EFF07B017A008B
:10808100795A123AC2900064E07002A3E070159030
:1080910000B304F0A37400F0A3745AF07BFF7A03D9
:1080A10079F080149000B37401F0A37400F0A3740C
:0B80B1005AF07BFF7A047912123AC8E3
:0180BC0022A1
:1080BD007D0F7C007FA812AB2C7E00900064EEF04B
:1080CD00A3EFF09000B374FFF0A37400F0A37484D9
:1080DD00F0A3EEF0A3EFF07B017A00795A123AC2C9
:1080ED00900064E07002A3E070159000B304F0A35B
:1080FD007400F0A3745AF07BFF7A047967801490B2
:10810D0000B37401F0A37400F0A3745AF07BFF7AEE
:10811D00047991123AC87BFF7A0479AC123AC87B84
:10812D00017A00795AE4FD129F3D7B017A00795A5C
:10813D00128656900064EEF0A3EFF0FB7D0F7C00ED
:10814D007FA812A5C97D0F7C007FA812AB2C7E00E5
:10815D00900064EEF0A3EFF09000B374FFF0A37401
:10816D0000F0A37484F0A3EEF0A3EFF07B017A008E
:10817D00795A123AC2900064E07002A3E070159033
:10818D0000B304F0A37400F0A3745AF07BFF7A04DB
:10819D00796780149000B37401F0A37400F0A37498
:0B81AD005AF07BFF7A047991123AC867
:0181B80022A4
:1081B9007D157C007FA812AB2C7E00900064EEF048
:1081C900A3EFF09000B374FFF0A37400F0A37484DC
:1081D900F0A3EEF0A3EFF07B017A00795A123AC2CC
:1081E900900064E07002A3E070159000B304F0A35E
:1081F9007400F0A3745AF07BFF7A0479D18014904B
:1082090000B37401F0A37400F0A3745AF07BFF7AF1
:10821900057904123AC87BFF7A057935123AC87B89
:10822900017A00795AE4FD129F3D7B017A00795A5F
:10823900128656900064EEF0A3EFF0FB7D157C00EA
:108249007FA812A5C97D157C007FA812AB2C7E00E2
:10825900900064EEF0A3EFF09000B374FFF0A37404
:1082690000F0A37484F0A3EEF0A3EFF07B017A0091
:10827900795A123AC2900064E07002A3E070159036
:1082890000B304F0A37400F0A3745AF07BFF7A04DE
:1082990079D180149000B37401F0A37400F0A37431
:0B82A9005AF07BFF7A057969123AC891
:0182B40022A7
:108578007D127C007FA812AB2C7E00900064EEF088
:10858800A3EFF09000B374FFF0A37400F0A3748419
:10859800F0A3EEF0A3EFF07B017A00795A123AC209
:1085A800900064E07002A3E070069000B3048005B8
:1085B8009000B37401F0A37400F0A3745AF07BFF29
:1085C8007A05799B123AC87BFF7A0579BF123AC8B7
:1085D8007B017A00795AE4FD129F3D7B017A00798C
:1085E8005A128656900064EEF0A3EFF0FB7D127CE1
:1085F800007FA812A5C97D127C007FA812AB2C7E33
:1086080000900064EEF0A3EFF09000B374FFF0A3C5
:108618007400F0A37484F0A3EEF0A3EFF07B017A6A
:1086280000795A123AC2900064E07002A3E0700622
:108638009000B30480059000B37401F0A37400F0B7
:0D864800A3745AF07BFF7A05799B123AC8A3
:018655002202
:10ACBE009000887419F0A37432F0A3744BF0A3744F
:10ACCE0064F0A3747DF0A37496F0A374AFF0A37434
:10ACDE00C8F0A374E1F0A374FAF0E4A3F07B017A58
:03ACEE0000798862
:01ACF1002240
:0A746600900075EEF0FCA3EFF0FDBE
:107470007FA812AB2C7E00900081EEF0A3EFF0907D
:1074800000B374FFF0A37400F0A37484F0A3EEF0D3
:10749000A3EFF07B017A007977123AC2900081E085
:1074A0007002A3E070159000B304F0A37400F0A381
:1074B0007477F07BFF7A0579E780149000B374014C
:1074C000F0A37400F0A37477F07BFF7A06790D12B5
:1074D0003AC87BFF7A067931123AC87B017A007983
:1074E00077E4FD129F3D7B017A00797712865690F2
:1074F0000081EEF0A3EFF0900075E0FCA3E0FDAB9F
:10750000077FA812A5C9900075E0FCA3E0FD7FA845
:1075100012AB2C7E00900081EEF0A3EFF09000B350
:1075200074FFF0A37400F0A37484F0A3EEF0A3EF53
:10753000F07B017A007977123AC2900081E0700204
:10754000A3E09000837018F0A3F09000B304F0A3C0
:107550007400F0A37477F07BFF7A0579E78017E475
:10756000F0A304F09000B3F0A37400F0A37477F0DC
:0F7570007BFF7A06790D123AC8900083A3E0FFE3
:01757F0022E9
:0858DE00900075EEF0A3EFF05D
:1058E6007BFF7A067958123AC8129F357BFF7A06F3
:1058F600797E123AC8900076E02407FD900075E0A4
:105906003400FC900077E0FB7FA812A5C9900076D2
:10591600E02407FD900075E03400FC7FA812AB2C54
:105926007BFF7A0079819000B3EFF0123AC89000BD
:1059360076E02408FD900075E03400FC900078E0E5
:10594600FB7FA812A5C9900076E02408FD9000759B
:10595600E03400FC7FA812AB2C7BFF7A06799A9084
:1059660000B3EFF0123AC8900076E02409FD9000EB
:1059760075E03400FC90007AE0FB7FA812A5C99080
:105986000076E02409FD900075E03400FC7FA81243
:10599600AB2C7BFF7A0079819000B3EFF0123AC806
:1059A600900076E0240AFD900075E03400FC90003B
:1059B6007BE0FB7FA812A5C9900076E0240AFD9043
:1059C6000075E03400FC7FA812AB2C7BFF7A0079CF
:1059D600819000B3EFF0123AC87BFF7A06799E12E7
:1059E6003AC8129F357BFF7A0679BE123AC89000F4
:1059F60076E0240BFD900075E03400FC900077E023
:105A0600FB7FA812A5C9900076E0240BFD900075D7
:105A1600E03400FC7FA812AB2C7BFF7A00798190E2
:105A260000B3EFF0123AC8900076E0240CFD900027
:105A360075E03400FC900078E0FB7FA812A5C990C1
:105A46000076E0240CFD900075E03400FC7FA8127F
:105A5600AB2C7BFF7A06799A9000B3EFF0123AC826
:105A6600900076E0240DFD900075E03400FC900077
:105A76007AE0FB7FA812A5C9900076E0240DFD9080
:105A86000075E03400FC7FA812AB2C7BFF7A00790E
:105A9600819000B3EFF0123AC8900076E0240EFD34
:105AA600900075E03400FC90007BE0FB7FA812A517
:105AB600C9900076E0240EFD900075E03400FC7F6E
:105AC600A812AB2C7BFF7A0079819000B3EFF0022D
:025AD6003AC8CC
:08758000900088EEF0A3EFF08B
:107588007BFF7A0679DA123AC8900089E02407FD71
:10759800900088E03400FC7FA812AB2C7BFF7A06B1
:1075A80079EC9000B3EFF0123AC8900089E0240813
:1075B800FD900088E03400FC7FA812AB2C7BFF7A9A
:1075C80006799A9000B3EFF0123AC8900089E02447
:1075D80009FD900088E03400FC7FA812AB2C7BFFEB
:1075E8007A0079819000B3EFF0123AC8900089E0F0
:1075F800240AFD900088E03400FC7FA812AB2C7BA5
:10760800FF7A0679F09000B3EFF0123AC89000893B
:10761800E0240BFD900088E03400FC7FA812AB2C1E
:107628007BFF7A0079819000B3EFF0123AC890009E
:1076380089E0240CFD900088E03400FC7FA812ABA0
:107648002C7BFF7A06799A9000B3EFF0123AC89033
:107658000089E0240DFD900088E03400FC7FA8122A
:10766800AB2C7BFF7A0079819000B3EFF0123AC817
:10767800900089E0240EFD900088E03400FC7FA88B
:1076880012AB2C7BFF7A0079819000B3EFF0023ABD
:01769800C829
:084FFD00900075EEF0A3EFF047
:105005007BFF7A0679F6123AC87BFF7A0779221276
:105015003AC87BFF7A07794A123AC87B017A007948
:1050250077E4FD129F3D7BFF7A077972123AC8E457
:10503500900082F0900082E0FFC394087480948011
:1050450040030252B374772FF582E43400F583E010
:10505500900083F0643270437BFF7A07798A123AB5
:10506500C8900076E02401FD900075E03400FC7BDB
:10507500327FA812A5C9900076E02401FD90007545
:10508500E03400FC7FA812AB2C900081EFF07BFF91
:105095007A0779919000B3F0123AC8900082E02423
:1050A50077F582E43400F583E0900083F064337093
:1050B500437BFF7A077997123AC8900076E024027D
:1050C500FD900075E03400FC7B337FA812A5C990E4
:1050D5000076E02402FD900075E03400FC7FA81204
:1050E500AB2C900081EFF07BFF7A0779919000B3AC
:1050F500F0123AC8900082E02477F582E43400F596
:1051050083E0900083F0643470437BFF7A07799FD6
:10511500123AC8900076E02403FD900075E0340053
:10512500FC7B347FA812A5C9900076E02403FD908E
:105135000075E03400FC7FA812AB2C900081EFF0E5
:105145007BFF7A0779919000B3F0123AC8900082FC
:10515500E02477F582E43400F583E0900083F06481
:105165003570437BFF7A0779AA123AC8900076E03A
:105175002404FD900075E03400FC7B357FA812A562
:10518500C9900076E02404FD900075E03400FC7FB2
:10519500A812AB2C900081EFF07BFF7A07799190F4
:1051A50000B3F0123AC8900082E02477F582E43427
:1051B50000F583E0900083F0643670437BFF7A0747
:1051C50079B2123AC8900076E02405FD900075E0AA
:1051D5003400FC7B367FA812A5C9900076E0240533
:1051E500FD900075E03400FC7FA812AB2C90008187
:1051F500EFF07BFF7A0779919000B3F0123AC890EF
:105205000082E02477F582E43400F583E0900083A2
:10521500F0643770437BFF7A0779BB123AC8900078
:1052250076E02406FD900075E03400FC7B377FA80E
:1052350012A5C9900076E02406FD900075E03400C3
:10524500FC7FA812AB2C900081EFF07BFF7A0779E9
:10525500919000B3F0123AC8900082E02477F5826D
:10526500E43400F583E0900083F0643170377BFF10
:105275007A0779C3123AC8900075E0FCA3E0FD7B7C
:10528500317FA812A5C9900075E0FCA3E0FD7FA8B9
:1052950012AB2C900081EFF07BFF7A0779CC900060
:0E52A500B3F0123AC8900082E004F0025039D3
:0152B30022D8
:08733E00900088EEF0A3EFF0CF
:107346002401FDE43EFC7FA812AB2C90008AEFF0EE
:1073560064327BFF70067A0779D180047A0779E771
:10736600123AC8900089E02402FD900088E03400BB
:10737600FC7FA812AB2C90008AEFF064337BFF7081
:10738600067A08790080047A087917123AC89000BC
:1073960089E02403FD900088E03400FC7FA812AB4E
:1073A6002C90008AEFF064347BFF70067A087931FE
:1073B60080047A08794B123AC8900089E02404FDCB
:1073C600900088E03400FC7FA812AB2C90008AEF76
:1073D600F064357BFF70067A08796880047A08794C
:1073E6007F123AC8900089E02405FD900088E034B9
:1073F60000FC7FA812AB2C90008AEFF064367BFF6E
:1074060070067A08799980047A0879B1123AC89098
:107416000089E02406FD900088E03400FC7FA81275
:10742600AB2C90008AEFF064377BFF70067A087900
:10743600CC80047A0879E3123AC8900088E0FCA36D
:10744600E0FD7FA812AB2C90008AEFF064317BFF41
:0F74560070067A0879FD80047A097915123AC810
:017465002204
:106A9A0012ACBE78647C007D011228EA7BFF7A0979
:106AAA007930123AC87B017A00795AE4FD129F3D87
:106ABA007B017A00795A128656EF14900074F0E03E
:106ACA002464F582E43400F583E0FF7E0090006FD1
:106ADA00EEF0A3EFF0A3EEF0A3EFF0900070E02445
:106AEA000FF090006FE03400F0E0FEA3E0FF1274B4
:106AFA0066900071E0FFA3E090006FCFF0A3EFF083
:106B0A009000747401F0900074E0FFC394087480DC
:106B1A009480501C900070E02FFD90006FE03400CC
:106B2A00FC7BFF7FA812A5C9900074E004F080D610
:106B3A00900071E0FEA3E0FF90006FEEF0A3EFF08B
:106B4A00124FFD90006FE0FEA3E0FF1258DE7BFFBC
:106B5A007A097960123AC87B017A00795AE4FD12FF
:106B6A009F3D7B017A00795A128656900073EFF0A6
:106B7A00FB900070E02410FD90006FE03400FC7F71
:106B8A00A812A5C9900070E02410FD90006FE034AF
:106B9A0000FC7FA812AB2C900073EFF09000B37446
:106BAA00FFF0A37400F0A37484F0A3EFF07B017AE2
:106BBA0000795A123AC2900073E06401701690008C
:106BCA0070E0240AF090006FE03400F0E0FEA3E0E9
:046BDA00FF1258DE70
:016BDE002294
:105AD8007B017A00795A7F507E0312A433900074B8
:105AE8007401F0A37400F0A37468F07B017A007964
:105AF8005A1296959000B37401F0A37400F0A37441
:105B080068F07BFF7A09798E123AC87BFF7A0979A7
:105B1800BA123AC87B017A00795A7F007E0312A430
:105B2800339000B37401F0A37400F0A3745AF07BAF
:105B3800FF7A0979CC123AC87B017A00795A125453
:105B4800CE780F7C027D011228EA7BFF7A0979CF93
:105B5800123AC87B017A00795A7D01129F3D7B0178
:105B68007A00795A12AA34900065EBF0A3EAF0A300
:105B7800E9F07B017A02790F7F007E0312A2179069
:105B8800006512A96AEF70837BFF7A0979DE123A01
:105B9800C87B017A00795AE4FD129F3D9000B374E6
:105BA80001F0A37400F0A3745AF07BFF7A0A790815
:105BB800123AC890005AE0900068F090005BE090BC
:105BC8000069F0E4A3F07B017A00796812865690A8
:105BD800006FEEF0A3EFF07BFF7A0A79129000B322
:105BE800EEF0A3EFF0123AC890006FA3E0FB7D50EF
:105BF8007C037FA812A5C990005CE0900068F09033
:105C0800005DE0900069F0E4A3F07B017A00796818
:105C180012865690006FEEF0A3EFF07BFF7A0A79B8
:105C2800129000B3EEF0A3EFF0123AC890006FA301
:105C3800E0FB7D517C037FA812A5C990005EE0902F
:105C48000068F090005FE0900069F0E4A3F07B0149
:105C58007A00796812865690006FEEF0A3EFF07B19
:105C6800FF7A0A79129000B3EEF0A3EFF0123AC867
:105C780090006FA3E0FB7D527C037FA812A5C9E4C6
:105C8800FB7D537C037FA812A5C97B017A00795A52
:105C98007F507E0312A4339000747401F0A3740043
:105CA800F0A37468F07B017A00795A1296959000F7
:105CB800B37401F0A37400F0A37468F07BFF7A0A50
:055CC8007919023AC841
:1070DE0012ACBE78777C007D011228EAE490008223
:1070EE00F0900082E0FFC3940A7480948040030203
