:108281004100F30A4101260041013100410127006B
:108291004101370041012E00420128000041013017
:0F82A1000641013803410136F2C10AC109C10B80
:03000B00029EB59D
:109EB500C0E0C083C0829000F3E06401700604F046
:109EC500C28D801C9000F3E014F0900126E004F0B0
:109ED500900129E004F07006900128E004F0C28D9D
:079EE500D082D083D0E032EF
:10A21200E58954F04401F589E4F58CF58AD28C2263
:05A2A000C28DD2A922CD
:03A2AF00C2A9221F
:0BA24100129FEDEFF47002EEF460F5E8
:01A24C0022EF
:059D88009000BBEFF0AC
:109D8D009000BBE0FF129E40EF3395E04F6024E45E
:109D9D009000BCF0A3F0C39000BDE094E89000BC2F
:109DAD00E0940350DBA3E004F070EB9000BCE00402
:089DBD00F080E39000BBE0FF21
:019DC500227B
:0E9AEB00900034EBF0A3EAF0A3E9F0A3EDF055
:109AF900E4A3F0900037E0FFA3E0C39F5029900052
:109B090034E0FBA3E0FAA3E0F912161EFF129D88C8
:109B1900900039EFF0900035E475F0011216FF90CE
:079B29000038E004F080CCDD
:019B30002212
:10A2220012A2AA12A26912A24DC283D287C2972297
:10904C0012A21212A2A0129F4C129F9E12A222D206
:10905C00AF12A0DD7F217E0012A1A612A17B7F6141
:10906C001299CC12A270209103124E4F1299261213
:10907C0064BFEF70FA9000F37403F020093F208076
:10908C000E7B017A0079CB12899C900000EFF012D4
:10909C001A7D20B32B7B017A0079CB128866900065
:1090AC0000EFF0FD7B017A0079CB123FF57B017A62
:1090BC000079CB900000E0FD129A5C8003121A7DBF
:0590CC001291D680B6F0
:05A2A5004C4956450084
:0B82B000091130303030303000000089
:0E3FF500900001EBF0A3EAF0A3E9F0A3EDF0D9
:104003007D0A7C007FA8129E07900205EFF09000C6
:1040130004E0FF64197059900001E0FBA3E0FAA3E8
:10402300E0F912161E6402704790000212163764FC
:1040330048703DFE74FF2FF582EE34FFF5831216B0
:10404300376403702B900001A3A3E02403F9E43A3F
:10405300FA126CF8EF6003024305900001E0FBA342
:10406300E0FAA3E02403F9E43AFA128D990298796D
:10407300900001E0FBA3E0FAA3E0F912161E64B678
:104083007028900204E004F0E0D3940474809480D8
:1040930050030243057FAE123956C282E4900126D3
:1040A300F0C297C283900204F022900001E0FBA3C8
:1040B300E0FAA3E0F912161EFF64B76005EF64AAE5
:1040C3007053900126E0C39414748094804008E4F4
:1040D300F0C297D282C28390012AE06003024305B3
:1040E300900205E064016003024305C3900129E0E7
:1040F3009458900128E094025003024305E4F0A38E
:10410300F090012A04F07BFF7AA279A5129C07E4C0
:1041130090012AF022900001E0FBA3E0FAA3E0F96A
:1041230012161E64B170057F600241F9900001E030
:10413300FBA3E0FAA3E0F912161E64B270057F5DDB
:104143000241F9900004E064017017900001E0FB64
:10415300A3E0FAA3E0F912161E64A170057F5A02C8
:1041630041F9900004E064017016900001E0FBA3A4
:10417300E0FAA3E0F912161E640670047FAB8076A2
:10418300900004E064017016900001E0FBA3E0FAE4
:10419300A3E0F912161E640770047F5F8058900035
:1041A30004E064017016900001E0FBA3E0FAA3E0D1
:1041B300F912161E640870047F61803A900004E0CF
:1041C30064017016900001E0FBA3E0FAA3E0F9128A
:1041D300161E640970047FAF801C900004E0640124
:1041E3007017900001E0FBA3E0FAA3E0F912161E9A
:1041F30064B470057F5E023956900004E0FF6413D7
:104203007038900001E0FBA3E0FAA3E0F99000010D
:10421300121637B456247E0074FF2FF582EE34FF56
:10422300F58312163764037011900001A3A3E024F1
:1042330002F9E43AFA7F5B024302900004E0FF6470
:10424300066003024305900001E0FBA3E0FAA3E04C
:10425300F912161E64026003024305900001121650
:104263003764576003024305FE74FF2FF582EE3473
:10427300FFF58312163764036003024305900001C0
:10428300A3A3900002121637FD7B017A0079051271
:1042930097C09000087420F0900001E0FBA3E0FABF
:1042A300A3E0F9900003121637FD900001A3A39039
:1042B300000412163790004CF07B017A0079091242
:1042C30045FB900205E0640170211294C7EFF4608E
:1042D300077FAB12395680097B017A007905127C7E
:1042E300857B017A0079057F5C80141294C7EFF413
:1042F30060057FAB1239567B017A0079057F5C122A
:024303005F71E8
:014305002295
:0B899C00900001EBF0A3EAF0A3E9F06B
:1089A700E4900005F0A3740BF0900205E0640170F9
:1089B70073900004F0900006E0FF900004E0C39F6E
:1089C7005053E4FFFEFD30801DED701A0FBF00010C
:1089D7000ED3EF9420EE944E40EC7D01900006E01C
:1089E700900004F080E0ED6401602A900005E00447
:1089F700F0128F3C900001E0FBA3E0FAA3E0F9EF4F
:108A0700121664900002E475F0011216FF9000043C
:108A1700E004F080A0900001E0FBA3E0FAA3E0F9F6
:098A2700E4121664900005E0FF62
:018A30002223
:0B8A31009001F8EBF0A3EAF0A3E9F0DD
:108A3C00E4FF7E029000021216376403701C900152
:108A4C00F8E0FBA3E0FAA3E0F9900001121637B4AA
:108A5C005008D297E4900126F0229001F8E0FBA395
:108A6C00E0FAA3E0F9900001121637643C704A90CA
:108A7C0001F8E0FBA3E0FAA3E0F98E827583001203
:108A8C001637FD74112FF8A6050E0F8E8275830014
:108A9C00121637640370D89001F8E0FBA3E0FAA338
:108AAC00E0F98E82758300E412167674102FF8E4C8
:098ABC00F6D20B9000F3740AF0ED
:018AC500228E
:10A14C00E4FFEFC3940674809480500974112FF8C7
:07A15C0076300F80EDC20B0D
:01A1630022D9
:0E9C8700900048EBF0A3EAF0A3E9F0A3EDF0A3
:109C9500E4A3F090004BE0FFA3E0C39F50249000A5
:109CA50048E0FBA3E0FAA3E0F912161EFF1299CCD7
:109CB500900049E475F0011216FF90004CE004F0A5
:029CC50080D14C
:019CC700227A
:0B7C8500900010EBF0A3EAF0A3E9F080
:107C90009000317403F090001314F012A1CA900008
:107CA00014EFF0A37453F090012EE09000316013B4
:107CB000E0FF04F074132FF582E43400F583744D73
:107CC000F08011E0FF04F074132FF582E43400F526
:107CD000837443F09000317404F0900010E0FBA333
:107CE000E0FAA3E0F912161EFF6021900031E024B3
:107CF00013F582E43400F583EFF0900011E475F0A1
:107D0000011216FF900031E004F080CE900031E0C7
:107D1000FF04F074132FF582E43400F583743AF015
:107D2000900031E02413F9E43400FA7B01125C9DE9
:107D3000900031E0FF241DF582E43400F583743AAD
:107D4000F0741E2FF582E43400F5837403F07B0198
:0B7D50007A007913EF240CFD029C87E1
:0B3CBE00900023EBF0A3EAF0A3E9F074
:103CC9009000477403F090002914F012A1CA9000E3
:103CD9002AEFF0A37453F0900026E0FBA3E0FAA3C7
:103CE900E0F99000081216379000476013E0FF04CE
:103CF900F074292FF582E43400F583744DF08011B6
:103D0900E0FF04F074292FF582E43400F58374434D
:103D1900F0900023E0FBA3E0FAA3E0F9900005127C
:103D2900163764026003023DB8900023A3A39000F4
:103D39000C121637FD7B017A00792D1297C07B0191
:103D49007A00792912000E900047EFF0E0FF24294C
:103D5900F582E43400F5837420F0742A2FF582E4A7
:103D69003400F583E4F07B017A00792912000E9082
:103D79000047EFF02429F9E43400FA7B01C003C0BD
:103D890002C001900023E0FBA3E0FAA3E0F9900050
:103D99000B121637FD900023A3A390000A121637C1
:103DA90090004CF0D001D002D0031245FB803C902A
:103DB9000023E0FBA3E0FAA3E0F912161EFF90002E
:103DC90047E0FE04F074292EF582E43400F583EF10
:103DD900F0900024E475F0011216FF900023E0FB37
:103DE900A3E0FAA3E0F912161E70C47B017A0079E8
:103DF9002912000E900047EFF0E02429F582E434FF
:103E090000F583743AF0900026E0FBA3E0FAA3E002
:103E1900F912161EFF129DE2AD077C00ED54F0FF6A
:103E2900E4C4F854F0C8EFC4540F484430FF90007C
:103E390047E0FE04F074292EF582E43400F583EF9F
:103E4900F0ED540F4430FF900047E0FE04F0742970
:103E59002EF582E43400F583EFF0900026E0FBA311
:103E6900E0FAA3E0F9900001121637FF129DE27CF7
:103E790000AD07ED54F0FFE4C4F854F0C8EFC454A2
:103E89000F484430FF900047E0FE04F074292EF5F6
:103E990082E43400F583EFF0ED540F4430FF9000D5
:103EA90047E0FE04F074292EF582E43400F583EF2F
:103EB900F0900026E0FBA3E0FAA3E0F990000212DB
:103EC9001637FF129DE27C00AD07ED54F0FFE4C404
:103ED900F854F0C8EFC4540F484430FF900047E04D
:103EE900FE04F074292EF582E43400F583EFF0ED39
:103EF900540F4430FF900047E0FE04F074292EF57A
:103F090082E43400F583EFF0900026E0FBA3E0FAA9
:103F1900A3E0F9900003121637FF129DE27C00AD71
:103F290007ED54F0FFE4C4F854F0C8EFC4540F4847
:103F39004430FF900047E0FE04F074292EF582E436
:103F49003400F583EFF0ED540F4430FF900047E063
:103F5900FE04F074292EF582E43400F583EFF09025
:103F69000026E0FBA3E0FAA3E0F99000041216375B
:103F7900FF129DE27C00AD07ED54F0FFE4C4F85454
:103F8900F0C8EFC4540F484430FF900047E0FE04E6
:103F9900F074292EF582E43400F583EFF0ED540F27
:103FA9004430FF900047E0FE04F074292EF582E4C6
:103FB9003400F583EFF0900047E0FF04F074292FF7
:103FC900F582E43400F583743AF0900047E0FF0489
:103FD900F074292FF582E43400F5837403F07B0132
:0C3FE9007A007929900047E0FD029C87D7
:08000300D29412A2B2C29422B1
:059D49009000C8EFF0DE
:109D4E00E4A3F0A3F09000C8E0FFA2E713F030D731
:109D5E0004D2958002C2951200039000CAE004F06E
:109D6E0070069000C9E004F0C39000CAE094089019
:099D7E0000C9E06480948040CC2F
:019D870022B9
:0A8C7900EBF0A3EAF0A3E9F07F8D11
:058C83009000C5EFF0B8
:108C8800D2967F037E0012A1A69000C5E0FF129D38
:108C980049E49000C6F0A3F09000C6E0FCA3E0FD14
:108CA800C39408EC64809480504F30951690020667
:108CB800E04480F0ED9406EC648094805005E0FF79
:108CC800C313F0209520900206E0547FF0D3900063
:108CD800C7E094069000C6E0648094805008900233
:108CE80006E0FFC313F01200039000C7E004F07021
:108CF800A79000C6E004F0809FC296900206E0FFAD
:018D08002248
:109F7600900013EFF0A3EDF0D2967F037E0012A1BE
:109F8600A6900013E0FF129D49900014E0FF900098
:089F960013F0129D49C296224E
:109CC800900011E475F0011216FF900011E475F090
:109CD800011216FF900011E475F0011216FF9000B2
:109CE80010E0FBA3E0FAA3E0F912161EFF900001B2
:049CF800121637FD0C
:0C9CFC00EF540FC454F0FFED540F4FFF65
:019D08002238
:106CF800E4FF12161EFEC394305003026E0AEED350
:106D080094394003026E0A900001121637FEC394AC
:106D1800305003026E07EED394394003026E079099
:106D28000003121637FEC394305003026E04EED3EC
:106D380094394003026E04900004121637FEC3947F
:106D4800305003026E0CEED394394003026E0C905F
:106D58000008121637FEC394305003026E01EED3BA
:106D680094394003026E0190000B121637FEC3944B
:106D7800305003026DFEEED39439507A90000C1215
:106D88001637FEC39430406BEED3943950659000AB
:106D98000E121637FEC394304056EED39439505035
:106DA80090000F121637FEC394304041EED3943949
:106DB800503B900011121637FEC39430402CEED38E
:106DC80094395026900012121637FEC3943040179B
:106DD800EED394395011900014121637FEC3943034
:106DE8004022EED39439227F01227F01227F0122A3
:106DF8007F01227F01227F01227F01227F01227FE2
:046E080001227F01E3
:016E0C002263
:108D9900900010EBF0A3EAF0A3E9F0129CE6AD070E
:108DA9007F86129F76129CC8AD077F88129F7690A6
:108DB9000011E475F0011216FF900011E475F0013D
:108DC9001216FF129CC8AD077F8C129F76129CC8A1
:108DD900AD077F84129F76129CC8AD077F82129FD0
:108DE90076129CC8AD077F80129F76900011E475BA
:108DF900F0011216FF900011E475F0011216FF90B0
:108E09000011E475F0011216FF900010E0FBA3E0D9
:0F8E1900FAA3E0F912161E540FFD7F8A029F760E
:10A0F600AE07EEC4540F540FFE6012EF540FFFE488
:0DA10600FDEDC39E5007740A2FFF0D80F47D
:01A113002229
:109DC600121676900072E475F0011216FF9000717B
:0C9DD600E0FBA3E0FAA3E0F912161EFF68
:109DE200E4FEFDFCECC39F500B0DED640A7002FD16
:109DF2000E0C80F0EEC454F054F0FEED540F4EFF02
:019E0200223D
:1097C000E4FFFE900048EDF0900048E0C39464741C
:1097D0008094804007E0249CF00F80ECEF4430122E
:1097E0001664740129F9E43AFA900048E0C3940A37
:1097F000748094804007E024F6F00E80ECEE443054
:10980000121664740129F9E43AFA900048E04430F1
:0E981000121664740129F9E43AFAE4021664AF
:0E45FB00900048EBF0A3EAF0A3E9F0A3EDF086
:10460900E490004DF0A3F0900050F0A3F0A3F0A3C4
:10461900F090004FEDF054F0F0E0FFC4540FF0902B
:10462900005812176C404000007F007E007D807C9E
:1046390041125E0BC004C005C006C00790004FE0E0
:10464900FCE4121130D003D002D001D000121020A6
:10465900C004C005C006C00790004DE0FCA3E0FD02
:10466900E412112BD003D002D001D000120F2F1267
:10467900116490004DEEF0A3EFF090004BE0900034
:104689004FF0540FF090005812176C400000007F53
:10469900007E007D807C41125E0BC004C005C0060F
:1046A900C00790004FE0FCE4121130D003D002D0D3
:1046B90001D000121020C004C005C006C007900038
:1046C9004DE0FCA3E0FDE412112BD003D002D00190
:1046D900D000120F2F12116490004DEEF0A3EFF0ED
:1046E90090004CE090004FF054F0F0E0FFC4540FFC
:1046F900F090005812176C3F8000007F007E007D0B
:10470900807C41125E0BC004C005C006C007900042
:104719004FE0FCE4121130D003D002D001D00012D6
:104729001020C004C005C006C00790004DE0FCA3DE
:10473900E0FDE412112BD003D002D001D000120FFA
:104749002F12116490004DEEF0A3EFF090004CE0B1
:1047590090004FF0540FF090005812176C000000B1
:10476900007F007E007D807C41125E0BC004C00585
:10477900C006C00790004FE0FCE4121130D003D00E
:1047890002D001D000121020C004C005C006C00725
:1047990090004DE0FCA3E0FDE412112BD003D00200
:1047A900D001D000120F2F12116490004DEEF0A32A
:1047B900EFF0C3EF9410EE9427401074F02FFF74BC
:1047C900D83EFE900050E004F080E7900050E044AD
:1047D90030FD900048E0FBA3E0FAA3E0F9ED1216E2
:1047E90064900049E475F0011216FFC3EF94E8EEF6
:1047F9009403401074182FFF74FC3EFE900051E0A2
:1048090004F080E7900051E04430FD900048E0FB5F
:10481900A3E0FAA3E0F9ED121664900049E475F0FB
:10482900011216FFC3EF9464EE94004010749C2F9C
:10483900FF74FF3EFE900052E004F080E7900052C2
:10484900E04430FD900048E0FBA3E0FAA3E0F9ED75
:10485900121664900049E475F0011216FFC3EF9433
:104869000AEE9400401074F62FFF74FF3EFE90008C
:1048790053E004F080E7900053E04430FD90004895
:10488900E0FBA3E0FAA3E0F9ED121664900049E415
:1048990075F0011216FFEF4430FF900048E0FBA3CA
:1048A900E0FAA3E0F9EF121664900049E475F0010B
:1048B9001216FF900048E0FBA3E0FAA3E0F9E40236
:0248C900166473
:035C9D009000650F
:105CA000128C79EF54F0C4540F4430FE900065E03C
:105CB000FBA3E0FAA3E0F9EE121664900066E47527
:105CC000F0011216FFEF540F4430FF900065E0FB27
:105CD000A3E0FAA3E0F9EF121664900066E475F011
:105CE000011216FF7F89128C83EF54F0C4540F44C5
:105CF00030FE900065E0FBA3E0FAA3E0F9EE121697
:105D000064900066E475F0011216FFEF540F443002
:105D1000FF900065E0FBA3E0FAA3E0F9EF12166440
:105D2000900066E475F0011216FF7F87128C83EFF6
:105D300054F0C4540F4430FE900065E0FBA3E0FA39
:105D4000A3E0F9EE121664900066E475F0011216F5
:105D5000FFEF540F4430FF900065E0FBA3E0FAA38F
:105D6000E0F9EF121664900066E475F0011216FF78
:105D70007F85128C83EF54F0C4540F4430FE9000A2
:105D800065E0FBA3E0FAA3E0F9EE1216649000666A
:105D9000E475F0011216FFEF540F4430FF900065D8
:105DA000E0FBA3E0FAA3E0F9EF121664900066E4CA
:105DB00075F0011216FF7F83128C83EF54F0C454E8
:105DC0000F4430FE900065E0FBA3E0FAA3E0F9EE9B
:105DD000121664900066E475F0011216FFEF540F7E
:105DE0004430FF900065E0FBA3E0FAA3E0F9EF1276
:105DF0001664900066E475F0011216FF900065E0ED
:0B5E0000FBA3E0FAA3E0F9E402166443
:1085DD009000C2128C7912A0F69000C2E0FBA3E0CD
:1085ED00FAA3E0F9EF1216649000C3E475F00112DE
:1085FD0016FF7F89128C8312A0F69000C2E0FBA3B8
:10860D00E0FAA3E0F9EF1216649000C3E475F001EF
:10861D001216FF7F87128C8312A0F69000C2E0FB2A
:10862D00A3E0FAA3E0F9EF1216649000C3E475F02D
:10863D00011216FF7F85128C8312A0F69000C2E006
:10864D00FBA3E0FAA3E0F9EF1216649000C3E47502
:10865D00F0011216FF7F83128C8312A0F69000C2D8
:10866D00E0FBA3E0FAA3E0F9EF1216649000C3E477
:06867D0075F0010216FF7A
:0B8AC600900071EBF0A3EAF0A3E9F0D0
:108AD100129DD3EF54F0C4540F4430FE900074E063
:108AE100FBA3E0FAA3E0F9EE121664EF540F443051
:108AF100FF900074E0FBA3E0FAA3E0F9900001EF1E
:108B0100129DC6EF54F0C4540F4430FE900074E03F
:108B1100FBA3E0FAA3E0F9900002EE121676EF54FF
:108B21000F4430900003129DC6EF54F0C4540F441B
:108B310030FE900074E0FBA3E0FAA3E0F99000049A
:108B4100EE121676EF540F4430900005121676900F
:068B51000006E4021676A6
:107D5B0090001D128C7990001DE0FBA3E0FAA3E0CC
:107D6B00F9EF12166490001EE475F0011216FF7FF6
:107D7B0089128C8390001DE0FBA3E0FAA3E0F9EFDE
:107D8B0012166490001EE475F0011216FF7F871225
:107D9B008C8390001DE0FBA3E0FAA3E0F9EF121631
:107DAB006490001EE475F0011216FF7F85128C8320
:107DBB0090001DE0FBA3E0FAA3E0F9EF121664902C
:107DCB00001EE475F0011216FF7F83128C83900066
:107DDB001DE0FBA3E0FAA3E0F9EF12166490001E7E
:107DEB00E475F0011216FF7F81128C8390001DE069
:107DFB00FBA3E0FAA3E0F9EF12166490001EE47502
:107E0B00F0011216FF90001DE0FBA3E0FAA3E0F9CE
:047E1B00E402166403
:07A26900C294C296D29522B7
:0B5B240090000EEBF0A3EAF0A3E9F004
:105B2F00A37401F012161EFF3395E04F70479000DB
:105B3F000EE0FBA3E0FAA3E0F9900001121637FF85
:105B4F003395E04F702F900002121637FF3395E018
:105B5F004F7022900003121637FF3395E04F7015E8
:105B6F00900004121637FF3395E04F700890001124
:105B7F0004F0025C977B017A0079121285DD9001A7
:105B8F002AE0640170097B017A00791212868390F2
:105B9F00000EE0FBA3E0FAA3E0F912161EFFFD339F
:105BAF0095E0FC900012E0C39DEC6480F87480983F
:105BBF005003025C84900012E06F6003025C9190CE
:105BCF00000EE0FBA3E0FAA3E0F9900001121637F4
:105BDF00FFFD3395E0FC900013E0C39DEC6480F86B
:105BEF007480985003025C84900013E06F6003028E
:105BFF005C8F90000EE0FBA3E0FAA3E0F9900002A7
:105C0F00121637FFFD3395E0FC900014E0C39DECB6
:105C1F006480F87480985002805B900014E06F707D
:105C2F005D90000EE0FBA3E0FAA3E0F990000312F1
:105C3F001637FFFD3395E0FC900015E0C39DEC6433
:105C4F0080F87480985002802C900015E0B5072CD6
:105C5F0090000EE0FBA3E0FAA3E0F9900004121607
:105C6F0037FF3395E0FE900016E0C39FEE6480F897
:105C7F00748098500DE4900011F0800C8004800225
:0D5C8F0080009000117402F0900011E0FF01
:015C9C0022E5
:0B805C009000B0EBF0A3EAF0A3E9F005
:108067007B017A0079BB1285DD9000BBE0FF7E00C3
:108077007C017D6D121698AC06AD07A3E075F01E66
:10808700A42DFFEC35F0FEA3E07C002FFFEC3EFEB5
:10809700E4FD9000B31217609000B0E0FBA3E0FA94
:1080A700A3E0F990000112163775F01EA4FDACF09D
:1080B700C004C00512161EFF7E007C017D6D1216DE
:1080C70098D0E02FFFD0E03EFE9000021216371C3A
:1080D7002FFFEC3EFEE4FD9000B71217609000B34F
:1080E700E0FCA3E0FDA3E0FEA3E0FFA3E0F8A3E02C
:1080F700F9A3E0FAA3E0FBC312172340089000C1DD
:0F8107007401F08005E49000C1F09000C1E0FF2A
:018116002246
:102B6B00900011ECF0A3EDF090000EEBF0A3EAF067
:032B7B00A3E9F0DB
:102B7E00C200C20190000B121637FF3395E04F6072
:102B8E00030230A190000EE0FBA3E0FAA3E0F9905F
:102B9E00000C121637FF3395E04F60030230A19000
:102BAE00000D121637FF3395E04F60030230A190EF
:102BBE00000E121637FF3395E04F60030230A190DE
:102BCE00000F121637FF3395E04F60030230A190CD
:102BDE000011E0FEA3E0C3943CEE9400900011407F
:102BEE001CA3E0FB7C007D3CFF1216AA90001AEF9E
:102BFE00F075F03CA4FFC3EB9FA3F0800BA3E09015
:102C0E00001BF0E490001AF090001BE0FF7003022E
:102C1E002ED690000EE0FBA3E0FAA3E0F99000049C
:102C2E00121637FEEF2E900019F0D3943B74809459
:102C3E00805003022EABE0FF75F03C8490001CF038
:102C4E00E0FE75F03CA4FDC3EF9D900019F09000DE
:102C5E0003121637FFEE2F900018F0D394177480DE
:102C6E0094805003022E8AE0FF75F0188490001CA9
:102C7E00F0E0FE75F018A4FDC3EF9D900018F090E3
:102C8E000002121637FFEE2F900017F0900001127F
:102C9E001637FF3395E0FEEF64014E6024EF6403B8
:102CAE004E601EEF64054E6018EF64074E6012EF23
:102CBE0064084E600CEF640A4E6006EF640C4E70B2
:102CCE0057900017E0D3941F748094804032E02414
:102CDE00E1F090000EE0FBA3E0FAA3E0F990000112
:102CEE0012163704900016F0D3940C748094804022
:102CFE002412161E04900015F0A37401F0022F107A
:102D0E0090000EE0FBA3E0FAA3E0F990000112168A
:102D1E0037900016F0022F0990000EE0FBA3E0FAA8
:102D2E00A3E0F9900001121637FF3395E0FEEF6431
:102D3E00044E6012EF64064E600CEF64094E60069E
:102D4E00EF640B4E7027900017E0D3941E7480949E
:102D5E0080400DE024E2F090000112163704800648
:102D6E00900001121637900016F0022F0990000EF7
:102D7E00E0FBA3E0FAA3E0F9900001121637FF334F
:102D8E0095E0FEEF64024E6003022E6D12161EFFDA
:102D9E00FD3395E0FCED24D0FAEC3407900013F0EF
:102DAE00A3CAF0C200ED64104C6023EF3395E0FE31
:102DBE00EF64144E6018EF64184E6012EF641C4EF0
:102DCE00600CEF64204E6006EF64244E7002D20059
:102DDE00300049900017E0FDD3941D7480948090CC
:102DEE00000EE0FBA3E0FAA3E0F9401712161E90C6
:102DFE000015F0900017E024E3F090000112163752
:102E0E0004801212161E900015F0900017EDF0902F
:102E1E000001121637900016F0022F10900017E0E6
:102E2E00FDD3941C748094804018E024E4F090004C
:102E3E000EE0FBA3E0FAA3E0F990000112163704AE
:102E4E008016900017EDF090000EE0FBA3E0FAA3C1
:102E5E00E0F9900001121637900016F0022F09903B
:102E6E000017E0F090000EE0FBA3E0FAA3E0F9906B
:102E7E000001121637900016F0022F0990000EE096
:102E8E00FBA3E0FAA3E0F9900002121637900017A8
:102E9E00F0900001121637900016F0805E90000E32
:102EAE00E0FBA3E0FAA3E0F99000031216379000BE
:102EBE0018F0900002121637900017F090000112D1
:102ECE001637900016F0803390000EE0FBA3E0FA68
:102EDE00A3E0F9900004121637900019F090000349
:102EEE00121637900018F090000212163790001745
:102EFE00F0900001121637900016F012161E900078
:102F0E0015F090001AE0FF7003023062900018E096
:102F1E002FF0E0FFD3941774809480500302306238
:102F2E00EF75F0188490001CF0E0FE75F018A4FD0B
:102F3E00C3EF9D900018F0900017E02EF090001651
:102F4E00E0FF6401601EEF64036019EF6405601416
:102F5E00EF6407600FEF6408600AEF640A6005EF24
:102F6E00640C7035900017E0D3941F7480948050D9
:102F7E0003023062E024E1F0900016E004F0E0D3AA
:102F8E00940C74809480900015E0400904F0A374B2
:102F9E0001F0023062F0023062900016E0FF64042D
:102FAE00600FEF6406600AEF64096005EF640B7052
:102FBE001F900017E0D3941E74809480400CE02480
:102FCE00E2F0900016E00402305C900016E0807E85
:102FDE00900016E0FA6402707B900015E0FBFD7C19
:102FEE000024D0FEEC3407900013F0A3CEF0C20004
:102FFE00ED6410601AEBFF64146014EF6418600F38
:10300E00EF641C600AEF64206005EF64247002D246
:10301E0000300024900017E0FFD3941D748094803C
:10302E00400BE024E3F0900016E0048009900017B6
:10303E00EFF0900016EA8016900017E0D3941C74FF
:10304E00809480400FE024E4F0900016E004F090AD
:10305E000015E0F0900015E0FF90000EE0FBA3E0FD
:10306E00FAA3E0F990000BEF121676900016E0909E
:10307E00000C121676900017E090000D1216769046
:10308E000018E090000E121676900019E090000FD6
:03309E0012167691
:0130A100220C
:10A1A600E4FDFCC3ED9FEC9E50070DBD00010C8045
:01A1B600F2B6
:01A1B7002285
:04A13100AB07AA06C8
:10A13500900000C3E5829BE5839A500A7F967E00D6
:06A1450012A1A6A380EDAB
:01A14B0022F1
:089E7B0090000FEEF0A3EFF0E0
:109E8300E4A3F0A3F090000FE0FEA3E0FFC3900073
:109E930012E09F900011E09E50177F0A7E0012A1EE
:109EA30031900012E004F070DC900011E004F080C7
:019EB300D4DA
:019EB400228B
:01A2B2002289
:03A0590012A0371B
:10A05C00D20ED293D292E4FFFE209205C20EC2938E
:0CA06C00220FBF00010EBE04F0BF4CED3F
:01A0780022C5
:03A0790012A037FB
:10A07C00D293D292D20EE4FFFE209205C20EC2936E
:0CA08C00220FBF00010EBE02F0BF8AEDE3
:01A0980022A5
:06A29A00D29300C29322E2
:10A03700E4FEEEC39408748094805015EF25E0FF8A
:10A0470030D704D2928002C292D29312A29A0E8083
:01A05700E127
:01A0580022E5
:08A1B800ECFD7C00C293C29291
:0AA1C000D292D29300C292C2932201
:09A25700C293C292D293D292226A
:10997C00E4FBEBFDC39408748094805038C29330A0
:10998C0092169001FCE04401F0ED940674809480F2
:10999C005006E025E0F0D2932092179001FCE054A1
:1099AC00FEF0EBD39406748094805006E025E0F032
:0C99BC00D2930B80BDC2939001FCE0FF31
:0199C800227C
:1098D000900071E0FCA3E0FDA3E0FBA3E0FAA3E0AD
:0798E000F912161EFB7FA820
:0298E700AA07CE
:1098E900AF05A90712A1B8AF0212A059AF0512A07E
:1098F90059AF0112A03712A05CAF0312A03712A012
:109909005C12A2577F0D7E0012A131D293D2927FB1
:0D991900627E0012A1A67F627E0002A1A660
:049E03007C007FA8B8
:029E0700AB07A7
:109E0900AF05AA0712A1B8AF0312A079AF0512A036
:109E190079AF0212A03712A07C12A1C0EB04FF1285
:109E2900A03712A05CC29312997C12A257D293D286
:069E3900929001FCE0FF25
:019E3F002200
:10992600E4FDFC7FA8129E07900139E4F0A3EFF056
:109936007D02129E03900134E4F0A3EFF07D041241
:109946009E03900132E4F0A3EFF07D06129E039091
:10995600012CE4F0A3EFF07D08129E0390012AEF9C
:10996600F07D0C129E0390012FEFF07D0E129E03E8
:0699760090012BEFF0222E
:1096F8009000B0EEF0A3EFF0A3EBF0A3EAF0A3E93B
:01970800F070
:109709009000B0E0FCA3E0FD7FA8129E079000B294
:10971900E0FBA3E0FAA3E0F9EF1216649000B2E0CF
:10972900FBA3E0FAA3E0F912161EFF9000B1E004D2
:10973900F070069000B0E004F09000B3E475F00119
:109749001216FFEF70BA9000B2E0FBA3E0FAA3E0B3
:05975900F9E4021664B2
:10961E00900071EEF0A3EFF0A3EBF0A3EAF0A3E954
:10962E00F0900073E0FBA3E0FAA3E0F912161E60BF
:10963E0024B40D04E41216641298D0900072E00463
:10964E00F07006900071E004F0900074E475F00183
:10965E001216FF80CC1298D0900072E004F07006C3
:10966E00900071E004F0900074E475F0011216FFA2
:0F967E00900071E0FCA3E0FDE4FB7FA80298E7F9
:1087290053656E736F726573204175746F2079207C
:1087390073656E736F72312061637469766F732E1E
:108749000053656E736F722061637469766F20736D
:10875900656E736F7231202E0044657465637461B0
:10876900646F2E2053656E736F72204175746F2E7E
:108779000053656E736F726573206E6F2064657444
:1087890065637461646F73005665686963756C6FBE
:10879900204573706572616E646F2053616C6972F4
:1087A9002E005665686963756C6F2053616C696545
:1087B9006E646F2E20556E206D6F6D656E746F003F
:0482BB004102070075
:07A27000C2B5C2B6C2B7225D
:07A27700C2B5D2B6C2B72246
:07A27E00C2B5C2B6D2B7223F
:07A28500D2B5C2B6D2B72228
:07A28C00C2B5D2B6D2B72221
:07A29300D2B5D2B6D2B7220A
:10A09900E4FF7DF47C01309115EFFB3395E04B70C3
:0EA0A9000DED1D70011CED4C70EC7F0180E888
:01A0B7002286
:10A1CA007F3112A28C3091010F12A2933091020FAB
:01A1DA000F75
:01A1DB002261
:1094C70012A27E30916112A099EF3395E0FEEF640E
:1094D700014E704712A28520912312A2777BFF20AD
:1094E700910D7A877929129C07E490012E80227AC0
:1094F70087794A129C0790012E7401801412A27773
:109507007BFF2091107A877962129C0790012E7455
:1095170001F07FFF227A87797A80067BFF7A877945
:1095270091129C077F00227BFF7A8779AB129C07F9
:039537007F01228F
:10A0B800E4FE12A27E30911412A099EFFD3395E0D0
:0EA0C800FCED64014C7002FF227F01227F013B
:01A0D6002267
:1091D600E4900001F012A270209169900207E070FD
:1091E60016900001E0701030B35A04F0129F2090E0
:1091F60002077401F0804D900207E064017016903A
:109206000001E0701030B33C04F0126F22900207A8
:109216007402F0802F900207E0640270279000012C
:10922600E0702130B31E04F07D0C7C007FA8129EF6
:1092360007EF640170047F5380027F4E128EB4E400
:0F924600900207F012A270309105E4900001F041
:0192550022F6
:10352500643B686F726100494E47524553452054CC
:1035350041524A45544120005441524A4554412084
:1035450053494E20494E475245534F20005441524E
:103555004A455441204E4F20524547495354524104
:10356500205041474F200045584345444520544984
:10357500454D504F20444520475241434941200085
:103585004D454E5355414C204E4F204553544120F7
:10359500454E20504152515545414445524F20001A
:1035A500444952494A41534520412043414A41201B
:1035B50000475241434941532E2E2E200047524188
:1035C500434941532E2E2E004D454E5355414C49EE
:1035D5004441442056454E4349444120004D454E03
:1035E5005355414C494441442045584345444520A1
:1035F500484F524152494F20414345525155455339
:103605004520412043414A4120004E4F204553204B
:103615004D454E5355414C49444144204E49205057
:1036250052455041474F004D454E5355414C204E54
:103635004F205041474F204C4F434143494F4E2067
:10364500484F59005441524A455441204E4F204558
:10365500532044454C205041525155454144455213
:103665004F200053494E2050524553454E43494142
:10367500205645484943554C415220005441524A31
:1036850045544120494E56414C494441200054413E
:10369500524A4554412053494E20464F524D4154BC
:1036A5004F20004655455241204445204C494E4542
:1036B500412000554E204D4F4D454E544F20504F03
:1036C50052204641564F522000613B38353B494E0A
:1036D5004752455345205441524A4554410A0D002D
:1036E50000613B38363B5441524A455441205349C9
:1036F5004E20494E475245534F200A0D0000613B6D
:1037050038373B5441524A455441204E4F2052458B
:10371500474953545241205041474F0A0D0000611B
:103725003B38383B455843454445205449454D5061
:103735004F20444520475241434941200A0D00008E
:10374500613B38393B4D454E5355414C204E4F203A
:103755004553544120454E20504152515545414411
:1037650045524F0A0D0000613B39303B44495249EF
:103775004A41534520412043414A410A0D00006119
:103785003B39313B475241434941532E2E2E200AA6
:103795000D0000613B39333B4D454E5355414C209F
:1037A5004E4F204553544120454E205041525155CE
:1037B50045414445524F0A0D0000613B39343B4DAC
:1037C500454E5355414C494441442056454E434985
:1037D50044410A0D0000613B39353B4D454E53557B
:1037E500414C494441442045584345444520484FB0
:1037F500524152494F204143455251554553452069
:10380500412043414A410A0D0000613B39363B4E98
:103815004F204553204D454E5355414C4944414455
:10382500204E49205052455041474F0A0D00006136
:103835003B39373B4D454E5355414C204E4F20505B
:1038450041474F204C4F434143494F4E20484F5924
:103855000A0D0000613B39383B5441524A455441F9
:10386500204E4F2045532044454C20504152515540
:1038750045414445524F200A0D0000613B39383B14
:1038850053494E2050524553454E434941205645D4
:10389500484943554C4152200A0D0000613B3938D7
:1038A5003B5441524A45544120494E56414C4944A6
:1038B50041200A0D0000613B39383B5441524A45CD
:1038C50054412053494E20464F524D41544F200AF2
:1038D5000D0000613B39383B465545524120444572
:1038E500204C494E45410A0D0000613B39383B5596
:1038F5004E204D4F4D454E544F20504F522046417E
:10390500564F520A0D000057494547414E44200085
:10391500475241434941532000613B39323B5749A6
:103925004547414E443A000A6400613B39313B4703
:103935005241434941532000AA8028072000000036
:103945000000140000AA8018010200AA80180102D4
:013955000071
:099FC600900019E025E0FFE4FD24
:059FCF0090003FEDF0E1
:109FD400129D88900040EFF090003FE0600AE4FF9B
:089FE400129D88900040EFF08F
:019FEC002252
:089BBD007B017A007914E4FD3C
:0E9BC50090003AEBF0A3EAF0A3E9F0A3EDF074
:109BD300E4A3F090003AE0FBA3E0FAA3E0F99000DD
:109BE3003EE0F582758300121637FF601090003D4A
:0D9BF300E0FD129FCF90003EE004F080D610
:019C00002241
:0E9B310090001DEBF0A3EAF0A3E9F0A3EDF025
:109B3F00E4900022F0900020E0FF900022E0FEC3AE
:109B4F009F502490001DE0FBA3E0FAA3E0F98E8262
:109B5F00758300121637FF900021E0FD129FCF9002
:079B6F000022E004F080CEAB
:019B760022CC
:0B981E0090003AEBF0A3EAF0A3E9F0A1
:1098290012000E90003DEFF0E4900208F090003D28
:10983900E02401FFE433FE900208E0C39FEE648058
:10984900F8748098502990003AE0FBA3E0FAA3E06D
:10985900F912161EFF129D8890003EEFF090003B12
:0F986900E475F0011216FF900208E004F080BED3
:0198780022CD
:1098790078107C007D017BFF7A39793D7E007F0D70
:109889001215F890012BE07022C2877B017A0079CA
:1098990015127D5BC29C7B017A007910E49000214E
:1098A900F07D0D129B31D29CD28722C287E49000B1
:1098B90010F07B017A007910127D5B7BFF7A357994
:0698C9002512981ED28753
:0198CF002276
:05395600900012EFF0EB
:10395B0078137C007D017BFF7A39794A7E007F06E4
:10396B001215F8C28790012BE06003023BE67B0146
:10397B007A007913FD129BC5900012E01217BD3926
:10398B00C45539E4563A04573A24583A44593A64E0
:10399B005A3A845B3A445D3AA45E3AC45F3AE460B7
:1039AB003B04613B24AA3B44AB3B64AC3B83AD3B48
:1039BB00A2AE3BC1AF00003BE37BFF7A35792C1203
:1039CB00000E900019EFF0E4FDFF129FCF129FC67F
:1039DB007BFF7A35792C023BDE7BFF7A35793D1202
:1039EB00000E900019EFF0E4FDFF129FCF129FC65F
:1039FB007BFF7A35793D023BDE7BFF7A35795212BC
:103A0B00000E900019EFF0E4FDFF129FCF129FC63E
:103A1B007BFF7A357952023BDE7BFF7A35796C126C
:103A2B00000E900019EFF0E4FDFF129FCF129FC61E
:103A3B007BFF7A35796C023BDE7BFF7A3579851219
:103A4B00000E900019EFF0E4FDFF129FCF129FC6FE
:103A5B007BFF7A357985023BDE7BFF7A3579A512C0
:103A6B00000E900019EFF0E4FDFF129FCF129FC6DE
:103A7B007BFF7A3579A5023BDE7BFF7A3579B6126F
:103A8B00000E900019EFF0E4FDFF129FCF129FC6BE
:103A9B007BFF7A3579C2023BDE7BFF7A3579CD121B
:103AAB00000E900019EFF0E4FDFF129FCF129FC69E
:103ABB007BFF7A3579CD023BDE7BFF7A3579E212DB
:103ACB00000E900019EFF0E4FDFF129FCF129FC67E
:103ADB007BFF7A3579E2023BDE7BFF7A36790F1278
:103AEB00000E900019EFF0E4FDFF129FCF129FC65E
:103AFB007BFF7A36790F023BDE7BFF7A36792C120D
:103B0B00000E900019EFF0E4FDFF129FCF129FC63D
:103B1B007BFF7A36792C023BDE7BFF7A36794912B2
:103B2B00000E900019EFF0E4FDFF129FCF129FC61D
:103B3B007BFF7A367949023BDE7BFF7A3679681256
:103B4B00000E900019EFF0E4FDFF129FCF129FC6FD
:103B5B007BFF7A367968023BDE7BFF7A36798112FE
:103B6B00000E900019EFF0E4FDFF129FCF129FC6DD
:103B7B007BFF7A367981805B7BFF7A3679931200F3
:103B8B000E900019EFF0E4FDFF129FCF129FC67B42
:103B9B00FF7A367993803C7BFF7A3679A812000E38
:103BAB00900019EFF0E4FDFF129FCF129FC67BFF31
:103BBB007A3679A8801D7BFF7A3679B812000E9081
:103BCB000019EFF0E4FDFF129FCF129FC67BFF7A27
:103BDB003679B87D01129BC5D28722C2879000121D
:103BEB00E01217BD3C29553C32563C3A573C4258E3
:103BFB003C4A593C525A3C5A5B3C625D3C6A5E3CC7
:103C0B00725F3C7A603C82613C8AAA3C92AB3C9AE4
:103C1B00AC3CA2AD3CAAAE3CB2AF00003CBB7BFFC0
:103C2B007A3679CE023CB87BFF7A3679E6807E7B9A
:103C3B00FF7A37790380767BFF7A377924806E7B26
:103C4B00FF7A37794580667BFF7A37796C805E7BAC
:103C5B00FF7A37798480567BFF7A377998804E7B51
:103C6B00FF7A3779BF80467BFF7A3779DB803E7BE3
:103C7B00FF7A38790F80367BFF7A387934802E7B48
:103C8B00FF7A38795980267BFF7A387980801E7BC2
:103C9B00FF7A3879A180167BFF7A3879BB800E7B4F
:103CAB00FF7A3879D880067BFF7A3879EF12981E25
:023CBB00D287AE
:013CBD0022E4
:0E5F7100900010EFF0A3EBF0A3EAF0A3E9F02C
:105F7F0078147C007D017BFF7A3979507E007F0693
:105F8F001215F8C28790012BE06003026035900074
:105F9F0010E024A56040146003026032129BBD7BA9
:105FAF00FF7A39790C12000E90001AEFF090001161
:105FBF00E0FBA3E0FAA3E0F912000E90001AE02F25
:105FCF0004F0E4FDFF129FCF90001A129FC97BFFD0
:105FDF007A39790C8038129BBD7BFF7A397915128B
:105FEF00000E90001AEFF0900011E0FBA3E0FAA36F
:105FFF00E0F912000E90001AE02F04F0E4FDFF12FA
:10600F009FCF90001A129FC97BFF7A3979157D01B6
:10601F00129BC5900011E0FBA3E0FAA3E0F97D010C
:10602F00129BC5D28722C287900010E024A560176B
:10603F001460030260D0781B7C007D017BFF7A39EE
:10604F00791E121A4A803C781B7C007D017BFF7AF7
:10605F0039792F121A4A900011E0FBA3E0FAA3E05E
:10606F00F912000E90001AEFF024FFFFE434FFFE48
:10607F00900011E0FBA3E0FAA3E0F98F828E83E496
:10608F00121676900011E0F9A3E0FAA3E090005DFC
:10609F00C9F0A3EAF0A3E9F07B017A00791B12960D
:1060AF008D90005D74FFF0A37439F0A3742CF07B16
:1060BF00017A00791B12968D7B017A00791B129859
:0360CF001ED28757
:0160D20022AB
:10002600402321246046625E262A003A5B3C253F37
:1000360058545D3D29000D0A0A25733E20002563AC
:10004600002564000D0A0A2041435455414C2049BD
:10005600445F434C49454E54453D25730D0A0A00FD
:100066000D0A0A20444947495445205355204E5508
:1000760045564F2049445F434C49454E54453D0043
:100086000D0A0A204441544F204D4F4449464943E6
:1000960041444F2049445F434C49454E54453D2514
:1000A600730D0A0A000D0A0A2041435455414C209B
:1000B600434F445F5041524B3D25730D0A0A000DD4
:1000C6000A0A20444947495445205355204E554570
:1000D600564F20434F445F5041524B3D000D0A0A94
:1000E600204441544F204D4F444946494341444FD3
:1000F60020434F445F5041524B3D25730D0A0A0081
:100106000D0A0A2041435455414C205449454D504F
:100116004F5F4752414349413D25730D0A0A000D81
:100126000A0A20444947495445205355204E55450F
:10013600564F205449454D504F5F47524143494120
:100146003D000D0A0A204441544F204D4F44494674
:10015600494341444F205449454D504F5F47524112
:100166004349413D25730D0A0A000D0A0A20414301
:100176005455414C2053494E5F434F42524F2049FC
:100186004E484142494C495441444F3D25730D0A5E
:100196000A000D0A0A2041435455414C2053494E4A
:1001A6005F434F42524F204752415449533D2573B6
:1001B6000D0A0A000D0A0A2041435455414C2053AA
:1001C600494E5F434F42524F2047524154495320B4
:1001D600592053414C49444120454C204D49534DEB
:1001E6004F204449413D25730D0A0A000D0A0A2095
:1001F600444947495445205355204E5545564F20AE
:1002060053494E5F434F42524F3D000D0A0A20416B
:10021600435455414C20444542554720494E484198
:1002260042494C495441444F3D25730D0A0A000D7D
:100236000A0A2041435455414C2044454255472023
:10024600484142494C495441444F3D25730D0A0AE1
:10025600000D0A0A2044494749544520454C204E82
:100266005545564F2045535441444F20444520445C
:10027600454255473D000D0A0A2041435455414C1D
:10028600205553455F4C505220494E484142494CF7
:10029600495441444F3D25730D0A0A000D0A0A20B0
:1002A60041435455414C205553455F4C50522048CC
:1002B6004142494C495441444F3D25730D0A0A00B9
:1002C6000D0A0A2044494749544520454C204E55BD
:1002D60045564F2045535441444F204445205553DD
:1002E600455F4C50523D000D0A0A2041435455418A
:1002F6004C20434F4D5041524143494F4E204143BC
:100306005449564120494E484142494C495441447A
:100316004F3D25730D0A0A000D0A0A204143545524
:10032600414C20434F4D5041524143494F4E20418D
:1003360043544956412020484142494C495441447E
:100346004F3D25730D0A0A000D0A0A204449474904
:10035600544520454C204E5545564F204553544153
:10036600444F20444520434F4D5041524143494F4D
:100376004E20414354495641203D000D0A0A204172
:10038600435455414C20434F4D5041524143494FF0
:100396004E204143544956412020494E4841424946
:1003A6004C495441444F3D25730D0A0A000D0A0A73
:1003B6002050414E54414C4C41204C43442048412E
:1003C60042494C49544144413D25730D0A0A000DEA
:1003D6000A0A2050414E54414C4C41205241535040
:1003E60042455252592020484142494C49544144C1
:1003F600413D25730D0A0A000D0A0A204449474962
:10040600544520454C204E5545564F2045535441A2
:10041600444F204445204C412050414E54414C4CC1
:1004260041203D000D0A0A205041534120504F52B1
:100436002043414A4120504152412056414C4944B3
:100446004152204443544F3D25730D0A0A000D0ABC
:100456000A2041504C494341204445534355454E9B
:10046600544F3D25730D0A0A000D0A0A20444947D8
:1004760049544520454C204E5545564F204553542A
:1004860041444F204445204443544F203D000D0A2B
:100496000A2041435455414C20484F524152494F3E
:1004A60020494E484142494C495441444F3D2573E9
:1004B6000D0A0A000D0A0A2041435455414C2048B2
:1004C6004F524152494F20484142494C49544144B8
:1004D6004F3D25730D0A0A000D0A0A204449474973
:1004E600544520454C204E5545564F2045535441C2
:1004F600444F20444520484F524152494F3D000D3C
:100506000A0A2044696769746520486F7261203061
:10051600383A3030204D696E75746F7320446573B8
:1005260064653A20000D0A0A20486F7261205072F5
:100536006F6772616D6164612044657364653A201A
:100546000025633A000D0A0A20446967697465202C
:10055600486F72613A4D696E75746F7320486173A6
:1005660074613A20000D0A0A20486F7261205072A9
:100576006F6772616D6164612048617374613A20CE
:10058600000D0A2044657364652020486173746118
:100596000D0A00202563002563202020000D0A0A8D
:1005A60020446967697465206C6F732064696173A0
:1005B60020612070726F6772616D6172204C756E7A
:1005C6006573203D20322C20004D617274657320C6
:1005D6003D20332C204D696572636F6C6573203D39
:1005E60020342C204A7565766573203D20352C20F5
:1005F60000566965726E6573203D20362C20536166
:100606006261646F203D20372C20446F6D696E67F0
:100616006F203D2031203A20000D0A0A20446961EE
:10062600732050726F6772616D61646F73203A2038
:1006360000204C756E6573003D2025632C00204D0F
:10064600617274657300204D696572636F6C6573C2
:1006560000204A75657665730020566965726E6579
:1006660073002053616261646F0020446F6D696E90
:10067600676F003D20256300204C756E6573203D35
:100686002050726F6772616D61646F0D0A00204CB5
:10069600756E6573203D204E6F2070726F677261B4
:1006A6006D61646F0D0A00204D6172746573203DA3
:1006B6002050726F6772616D61646F0D0A00204D84
:1006C6006172746573203D204E6F2070726F677281
:1006D600616D61646F0D0A00204D696572636F6C10
:1006E6006573203D2050726F6772616D61646F0D96
:1006F6000A00204D696572636F6C6573203D204E5C
:100706006F2070726F6772616D61646F0D0A0020F1
:100716004A7565766573203D2050726F6772616D0C
:1007260061646F0D0A00204A7565766573203D2069
:100736004E6F2070726F6772616D61646F0D0A0093
:1007460020566965726E6573203D2050726F677220
:10075600616D61646F0D0A0020566965726E65737E
:10076600203D204E6F2070726F6772616D61646FFD
:100776000D0A002053616261646F203D2050726F44
:100786006772616D61646F0D0A0020536162616476
:100796006F203D204E6F2070726F6772616D6164CD
:1007A6006F0D0A0020446F6D696E676F203D205003
:1007B600726F6772616D61646F0D0A0020446F6D20
:1007C600696E676F203D204E6F2070726F67726191
:1007D6006D61646F0D0A000D0A0A20446967697429
:1007E6006520656C206E756D65726F2064656C2082
:1007F600486F726172696F20612070726F677261F3
:100806006D6172203D20000D0A0A2050726F6772DA
:10081600616D617220736567756E646F20486F72D3
:100826006172696F2073693D283129206E6F3D28FA
:1008360030293D20000D0A0A2041435455414C20E1
:1008460046454348412056454E43494D49454E5439
:100856004F2050415353574F52443A25730D0A0ABD
:10086600000D0A0A2F3E4964205265676973747247
:100876006F3A002573000D0A0A2F3E506173737795
:100886006F72643A000D0A0A2044494749544520CC
:100896004C41204E5545564120464543484120444B
:1008A600452056454E43494D49454E544F3D000D52
:1008B6000A0A2025730D0A0A000D0A0A2025580087
:1008C6000D0A0A2041435455414C204645434841B0
:1008D6002044452056454E43494D49454E544F20E8
:1008E60050524F4752414D414441203D25730D0A18
:1008F6000A000D0A206E756D65726F2064656C20A6
:10090600486F726172696F202070726F6772616DD5
:1009160061646F203D2025630D0A000D0A202048E2
:100926004F524152494F20484142494C4954414453
:100936004F20203D204F4E0D0A000D0A20446961CC
:10094600732050726F6772616D61646F730D0A0078
:100956000D0A2020534547554E444F20484F5241DB
:1009660052494F20484142494C495441444F202066
:100976003D204F4E0D0A000D0A20534547554E4463
:100986004F20484F524152494F20484142494C4915
:100996005441444F20203D204F46460D0A000D0A83
:1009A6002020484F524152494F20484142494C4924
:1009B6005441444F20203D204F46460D0A000D0A63
:1009C6002049445F434C49454E54455F50524F477A
:1009D60052414D41444F203D2025730D0A000D0A1A
:1009E60020434F445F5041524B5F50524F47524154
:1009F6004D41444F203D2025730D0A000D0A205419
:100A060049454D504F5F4752414349412050524F4F
:100A16004752414D41444F203D2025730D0A000D9C
:100A26000A2053494E5F434F42524F2048414249A4
:100A36004C495441444F203D204F4646200D0A0064
:100A46000D0A2053494E5F434F42524F203D204FDF
:100A56004E0D0A000D0A2050524F4752414D414457
:100A66004F204445425547203D204F4E0D0A000D6C
:100A76000A2050524F4752414D41444F204445426F
:100A86005547203D204F46460D0A000D0A20555376
:100A9600455F4C5052203D204F46460D0A000D0A38
:100AA600205553455F4C5052203D204F4E0D0A00B5
:100AB6000D0A0A2020434F4D5041524143494F4EA3
:100AC60020414354495641203D204F46460D0A00D9
:100AD6000D0A0A20434F4D5041524143494F4E2083
:100AE60041435449564120203D204F4E0D0A000DEA
:100AF6000A2050414E54414C4C41204C4344205016
:100B0600524F4752414D4144410D0A000D0A2050B3
:100B1600414E54414C4C4120524153504245525251
:100B260059202050524F4752414D4144410D0A0031
:100B36000D0A2041435455414C2046454348412027
:100B460044452056454E43494D49454E544F205045
:100B5600524F4752414D414441203D25730D0A00F5
:100B66000D0A2049445F434C49454E5445202020F8
:100B7600202D2D2D20434D442030204964656E7470
:100B86006966696361646F722064656C20636C6971
:100B9600656E7465206D6178696D6F20323535003C
:100BA6000D0A20434F445F5041524B202020202005
:100BB600202D2D2D20434D44203120456C206E756F
:100BC6006D65726F2064656C207061727175656108
:100BD6006465726F206D6178696D6F2032353500FE
:100BE6000D0A20545F4752414349412020202020CE
:100BF600202D2D2D20434D442032205469656D70E3
:100C06006F2073696E20636F62726F2030302C2004
:100C1600206D6178696D6F20323535000D0A2053DD
:100C2600494E5F434F42524F20202020202D2D2D2C
:100C360020434D44203320496E686162696C6974B3
:100C460061646F3D20302C204772617469733D20CA
:100C560031202C2047726174697320792073616C8E
:100C660069646120656C206D69736D6F20646961CC
:100C76003D2032000D0A20444542554720202020C1
:100C860020202020202D2D2D20434D442034204887
:100C96006162696C69746172203D20312C20496E55
:100CA600686162696C69746172203D2030000D0ACA
:100CB600205553455F4C5052202020202020202DC7
:100CC6002D2D20434D44203520486162696C69749E
:100CD6006172203D20312C20496E686162696C6921
:100CE600746172203D2030000D0A20434F4D504163
:100CF600524143494F4E5F414354495641202D2DA1
:100D06002D20434D44203620486162696C69746128
:100D160072203D20312C20496E686162696C6974CD
:100D26006172203D2030000D0A205449504F5F501B
:100D3600414E54414C4C4120202020202D2D2D2069
:100D4600434D442037202830292070616E74616C31
:100D56006C61206C6364202073657269652028319C
:100D66002920726173706265727279206F20626CDD
:100D76007565746F6F7468000D0A204443544F5FA5
:100D8600504153415F43414A4120202020202D2DD0
:100D96002D20434D4420382028302920706173616E
:100DA60020706F722063616A61202831292061708A
:100DB6006C69636120656C206465736375656E7428
:100DC6006F000D0A20484F524152494F20202020E3
:100DD60020202020202020202D2D2D20434D442072
:100DE600392050726F67616D6120313020686F72F3
:100DF6006172696F732064656C203120616C2031EB
:100E060030000D0A205645525F50524F4752414D11
:100E16004143494F4E2020202D2D2D20434D442067
:100E26003130204D756573747261206C612070726B
:100E36006F6772616D6163696F6E000D0A204159BB
:100E46005544412020202020202020202D2D2D20FB
:100E5600434D44203131204D756573747261206CA9
:100E66006F7320636F6D616E646F73000D0A20539C
:100E7600414C49522020202020202020202D2D2D9D
:100E860020434D442031322053616C6972206465E1
:100E96002070726F6772616D6163696F6E000D0A13
:100EA6000A53697374656D612064652050726F67BB
:100EB60072616D6163696F6E2076657269666963DA
:100EC60061646F72206C696E74656368200D0A0D2B
:100ED6000A000D0A436F6D616E646F206E6F2065A8
:100EE60078697374652027257327003A5B3C253F94
:100EF60058545D3D2900232A594A41494D456361AD
:100F06006D696C744B0077727A32357136382D39CB
:100F16003166532E4000200D0A00200D0A00220DD6
:020F26000A00BF
:1082BF0054019C2F0000000000000000000000008F
:1082CF000000000000000049019361646D696E00B9
:1082DF00000000602A01B0300000310000320000C1
:1082EF00330000340000350000360000370000383E
:1082FF0000003900003130003131003132003133AC
:01830F00006D
:0B505700900071EBF0A3EAF0A3E9F079
:1050620078767C007D017BFF7A0E79F17E007F0BE2
:105072001215F878817C007D017BFF7A0E79FC7E27
:10508200007F101215F878917C007D017BFF7A0F6A
:10509200790C7E007F101215F87B017A0079AC7FC3
:1050A200507E031296F87B017A0079AC12805CEF95
:1050B2003395E0FEEF64014E78767C007D017BFF44
:1050C20060067A00792680047A007931121A4A90B1
:1050D2000071E0FBA3E0FAA3E0F912000E90007465
:1050E200EFF0E4A3F0900075E0FFC3940A7480949B
:1050F200804003025249900071E0FBA3E0FAA3E072
:10510200F98F82758300121637FD7C0074762FF5B5
:1051120082E43400F583E02DFFEC3390018FF0A39D
:10512200EFF07E00540FFFA3EEF0A3EFF0700BE060
:1051320004F07006900191E004F0900191E0FEA36A
:10514200E02480F58274003EF583E07E002DFFEEC0
:105152003C90018FF0A3EFF07E00540FFFA3EEF01E
:10516200A3EFF0700BE004F07006900191E004F000
:10517200900191E0FEA3E02490F58274003EF58355
:10518200E0FF90018FE0FEA3E06FFF90018FEEF051
:10519200FEA3EFF0D394FFEE9400400590018FE45C
:1051A200F090018FE0FEA3E0FFC3947AEE940040FA
:1051B20015D3EF94FFEE9400500CEF547AFF900158
:1051C2008FE4F0A3EFF0C3900190E0943090018F50
:1051D200E09400500CA3E02440F090018FE03400F2
:1051E200F090018FE0FEA3E0FFC3945BEE940040D9
:1051F20014D3EF9460EE9400500BE02407F090017A
:105202008FE03400F090018FE0FEA3E0FFC3943AF8
:10521200EE94004014D3EF9440EE9400500BE0243F
:10522200F9F090018FE034FFF090018FA3E0FF903E
:105232000075E024A1F582E43400F583EFF09000DC
:1052420075E004F00250E7E49000ABF07B017A00D5
:0252520079A140
:015254002237
:0B975E0090005AEBF0A3EAF0A3E9F042
:10976900E4900060F0900060E0FFC3940E74809470
:10977900805041EF75F003A424B0F9740135F0FA73
:109789007B01785D7C007D01121A4A785D7C007D41
:109799000190005AE0FBA3E0FAA3E0F9121961EF86
:1097A9003395E04F7006900060E0FF22900060E082
:0697B90004F080B17FFF07
:0197BF002287
:089C4500E0FBA3E0FAA3E0F943
:0B9C4D00900071EBF0A3EAF0A3E9F037
:109C580078747C007D017B017A017993121A4A7825
:109C6800747C007D01900071E0FBA3E0FAA3E0F9A9
:0E9C7800121961EF3395E04F7002FF227FFF5B
:019C860022BB
:069D09007B017A007932B3
:0B9D0F00900071EBF0A3EAF0A3E9F074
:109D1A0078747C007D017BFF7A0F791C7E007F04BA
:109D2A001215F890007B7401F0A37400F0A3747408
:0F9D3A00F0900071E0FBA3E0FAA3E0F90279EFEB
:108D0900E0FBA3E0FAA3E02FF9EA3EFAE92401F92E
:038D1900E43AFA3F
:0B8D1C0090005AEBF0A3EAF0A3E9F08E
:108D2700785D7C007D017BFF7A0F79207E007F04D0
:108D37001215F878617C007D017BFF7A0F79247E1C
:108D4700007F041215F890005AE0FBA3E0FAA3E0B5
:108D5700F912161EFFB4200C90005BE475F00112A7
:108D670016FF80E2EF90007BB4220D7401F0A3742C
:108D770000F0A37461F080167401F0A37400F0A3EF
:108D8700745DF090005AE0FBA3E0FAA3E0F91279D2
:018D9700EFEC
:018D980022B8
:10A1640090008E7401F0A37401F0A3749CF07BFF43
:07A174007A00793C02310D75
:089256007A0079777B01E4FD49
:0E925E00900085EBF0A3EAF0A3E9F0A3EDF099
:10926C0012A241900085E0FBA3E0FAA3E0F9EF1213
:10927C001664900088E0701D900085E0FBA3E0FA76
:10928C00A3E0F912161E90008EF07BFF7A00794451
:10929C0012310D80057F2A129D88900085E0FBA37A
:1092AC00E0FAA3E0F912161EFF7E00900086E4752A
:1092BC00F0011216FF900085E0FBA3E0FAA3E0F9A1
:0992CC00E4121664EF640D7097C2
:0192D5002276
:10811700E4FDFC7FA8129E077E00900064EEF0A3AA
:10812700EFF090008E74FFF0A37400F0A37447F093
:10813700A3EEF0A3EFF07B017A00795A1231079092
:10814700008E7401F0A37400F0A3745AF07BFF7AD9
:1081570000794A12310D7BFF7A00796612310D7A68
:1081670000795A12925A7B017A00795A127AD3907F
:108177000064EEF0A3EFF0FBE4FDFC7FA81298E7A4
:10818700E4FDFC7FA8129E077E00900064EEF0A33A
:10819700EFF090008E74FFF0A37400F0A37447F023
:1081A700A3EEF0A3EFF07B017A00795A1231079022
:1081B700008E7401F0A37400F0A3745AF07BFF7A69
:0681C70000798602310D73
:107EE2007D027C007FA8129E077E00900064EEF067
:107EF200A3EFF090008E74FFF0A37400F0A3744718
:107F0200F0A3EEF0A3EFF07B017A00795A12310769
:107F120090008E7401F0A37400F0A3745AF07BFFFA
:107F22007A0079AB12310D7BFF7A0079C512310DDF
:107F32007B017A00795AE4FD12925E7B017A007924
:107F42005A127AD3900064EEF0A3EFF0FB7D027C2C
:107F5200007FA81298E77D027C007FA8129E077E10
:107F620000900064EEF0A3EFF090008E74FFF0A397
:107F72007400F0A37447F0A3EEF0A3EFF07B017A54
:107F820000795A12310790008E7401F0A37400F048
:0D7F9200A3745AF07BFF7A0079E302310DF1
:107F9F007D047C007FA8129E077E00900064EEF0A7
:107FAF00A3EFF090008E74FFF0A37400F0A374475A
:107FBF00F0A3EEF0A3EFF07B017A00795A123107AC
:107FCF0090008E7401F0A37400F0A3745AF07BFF3D
:107FDF007A01790612310D7BFF7A01792512310D65
:107FEF007B017A00795AE4FD12925E7B017A007967
:107FFF005A127AD3900064EEF0A3EFF0FB7D047C6D
:10800F00007FA81298E77D047C007FA8129E077E50
:10801F0000900064EEF0A3EFF090008E74FFF0A3D9
:10802F007400F0A37447F0A3EEF0A3EFF07B017A96
:10803F0000795A12310790008E7401F0A37400F08A
:0D804F00A3745AF07BFF7A01794802310DCD
:1065FF007D067C007FA8129E077E00900064EEF05F
:10660F00A3EFF090008E74FFF0A37400F0A3744713
:10661F00F0A3EEF0A3EFF07B017A00795A12310765
:10662F00900064E07002A3E0701590008E04F0A358
:10663F007400F0A3745AF07BFF7A01797080359063
:10664F000064E07004A3E06401701590008E04F004
:10665F00A37400F0A3745AF07BFF7A017998801429
:10666F0090008E7401F0A37400F0A3745AF07BFFB6
:10667F007A0179BA12310D7BFF7A0179F212310D5D
:10668F007B017A00795AE4FD12925E7B017A0079E0
:10669F005A127AD3900064EEF0A3EFF0FB7D067CE4
:1066AF00007FA81298E77D067C007FA8129E077EC8
:1066BF0000900064EEF0A3EFF090008E74FFF0A353
:1066CF007400F0A37447F0A3EEF0A3EFF07B017A10
:1066DF0000795A123107900064E07002A3E0701540
:1066EF0090008E04F0A37400F0A3745AF07BFF7A2D
:1066FF000179708035900064E07004A3E06401704C
:10670F001590008E04F0A37400F0A3745AF07BFF71
:10671F007A017998801490008E7401F0A37400F0C0
:0D672F00A3745AF07BFF7A0179BA12310D84
:01673C00223A
:10722F007D087C007FA8129E077E00900064EEF020
:10723F00A3EFF090008E74FFF0A37400F0A37447D7
:10724F00F0A3EEF0A3EFF07B017A00795A12310729
:10725F00900064E07002A3E0701590008E04F0A31C
:10726F007400F0A3745AF07BFF7A027911801490A6
:10727F00008E7401F0A37400F0A3745AF07BFF7AB0
:10728F0002793512310D7BFF7A02795712310D7B5E
:10729F00017A00795AE4FD12925E7B017A00795AE5
:1072AF00127AD3900064EEF0A3EFF0FB7D087C0020
:1072BF007FA81298E77D087C007FA8129E077E00AA
:1072CF00900064EEF0A3EFF090008E74FFF0A374C3
:1072DF0000F0A37447F0A3EEF0A3EFF07B017A0068
:1072EF00795A123107900064E07002A3E070159094
:1072FF00008E04F0A37400F0A3745AF07BFF7A029F
:10730F007911801490008E7401F0A37400F0A374AF
:0B731F005AF07BFF7A02793512310D25
:01732A002240
:10732B007D0A7C007FA8129E077E00900064EEF021
:10733B00A3EFF090008E74FFF0A37400F0A37447DA
:10734B00F0A3EEF0A3EFF07B017A00795A1231072C
:10735B00900064E07002A3E0701590008E04F0A31F
:10736B007400F0A3745AF07BFF7A02797C8014903E
:10737B00008E7401F0A37400F0A3745AF07BFF7AB3
:10738B000279A212310D7BFF7A0279C612310D7B85
:10739B00017A00795AE4FD12925E7B017A00795AE8
:1073AB00127AD3900064EEF0A3EFF0FB7D0A7C0021
:1073BB007FA81298E77D0A7C007FA8129E077E00AB
:1073CB00900064EEF0A3EFF090008E74FFF0A374C6
:1073DB0000F0A37447F0A3EEF0A3EFF07B017A006B
:1073EB00795A123107900064E07002A3E070159097
:1073FB00008E04F0A37400F0A3745AF07BFF7A02A2
:10740B00797C801490008E7401F0A37400F0A37447
:0B741B005AF07BFF7A0279A212310DBB
:017426002243
:107427007D0C7C007FA8129E077E00900064EEF022
:10743700A3EFF090008E74FFF0A37400F0A37447DD
:10744700F0A3EEF0A3EFF07B017A00795A1231072F
:10745700900064E07002A3E0701590008E04F0A322
:107467007400F0A3745AF07BFF7A0279ED801490D0
:10747700008E7401F0A37400F0A3745AF07BFF7AB6
:1074870003791E12310D7BFF7A03794E12310D7B82
:10749700017A00795AE4FD12925E7B017A00795AEB
:1074A700127AD3900064EEF0A3EFF0FB7D0C7C0022
:1074B7007FA81298E77D0C7C007FA8129E077E00AC
:1074C700900064EEF0A3EFF090008E74FFF0A374C9
:1074D70000F0A37447F0A3EEF0A3EFF07B017A006E
:1074E700795A123107900064E07002A3E07015909A
:1074F700008E04F0A37400F0A3745AF07BFF7A03A4
:107507007981801490008E7401F0A37400F0A37445
:0B7517005AF07BFF7A03791E12310D41
:017522002246
:107523007D0E7C007FA8129E077E00900064EEF023
:10753300A3EFF090008E74FFF0A37400F0A37447E0
:10754300F0A3EEF0A3EFF07B017A00795A12310732
:10755300900064E07002A3E0701590008E04F0A325
:107563007400F0A3745AF07BFF7A0379B38014900C
:10757300008E7401F0A37400F0A3745AF07BFF7AB9
:107583000379D512310D7BFF7A0379FE12310D7B1E
:10759300017A00795AE4FD12925E7B017A00795AEE
:1075A300127AD3900064EEF0A3EFF0FB7D0E7C0023
:1075B3007FA81298E77D0E7C007FA8129E077E00AD
:1075C300900064EEF0A3EFF090008E74FFF0A374CC
:1075D30000F0A37447F0A3EEF0A3EFF07B017A0071
:1075E300795A123107900064E07002A3E07015909D
:1075F300008E04F0A37400F0A3745AF07BFF7A03A7
:1076030079B3801490008E7401F0A37400F0A37416
:0B7613005AF07BFF7A0379D512310D8D
:01761E002249
:10761F007D0F7C007FA8129E077E00900064EEF025
:10762F00A3EFF090008E74FFF0A37400F0A37447E3
:10763F00F0A3EEF0A3EFF07B017A00795A12310735
:10764F00900064E07002A3E0701590008E04F0A328
:10765F007400F0A3745AF07BFF7A04792A80149097
:10766F00008E7401F0A37400F0A3745AF07BFF7ABC
:10767F0004795412310D7BFF7A04796F12310D7B2F
:10768F00017A00795AE4FD12925E7B017A00795AF1
:10769F00127AD3900064EEF0A3EFF0FB7D0F7C0025
:1076AF007FA81298E77D0F7C007FA8129E077E00AF
:1076BF00900064EEF0A3EFF090008E74FFF0A374CF
:1076CF0000F0A37447F0A3EEF0A3EFF07B017A0074
:1076DF00795A123107900064E07002A3E0701590A0
:1076EF00008E04F0A37400F0A3745AF07BFF7A04A9
:1076FF00792A801490008E7401F0A37400F0A374A3
:0B770F005AF07BFF7A04795412310D10
:01771A00224C
:109EEC009000887419F0A37432F0A3744BF0A3742F
:109EFC0064F0A3747DF0A37496F0A374AFF0A37414
:109F0C00C8F0A374E1F0A374FAF0E4A3F07B017A37
:039F1C0000798841
:019F1F00221F
:0A6AC500900075EEF0FCA3EFF0FD69
:106ACF007FA8129E077E00900081EEF0A3EFF0905A
:106ADF00008E74FFF0A37400F0A37447F0A3EEF0E0
:106AEF00A3EFF07B017A007977123107900081E0F4
:106AFF007002A3E0701590008E04F0A37400F0A351
:106B0F007477F07BFF7A047994801490008E74016F
:106B1F00F0A37400F0A37477F07BFF7A0479BA12B4
:106B2F00310D7BFF7A0479DE12310D7B017A00790A
:106B3F0077E4FD12925E7B017A007977127AD39017
:106B4F000081EEF0A3EFF0900075E0FCA3E0FDAB49
:106B5F00077FA81298E7900075E0FCA3E0FD7FA8DF
:106B6F00129E077E00900081EEF0A3EFF090008E52
:106B7F0074FFF0A37400F0A37447F0A3EEF0A3EF3B
:106B8F00F07B017A007977123107900081E0700273
:106B9F00A3E09000837018F0A3F090008E04F0A390
:106BAF007400F0A37477F07BFF7A0479948017E474
:106BBF00F0A304F090008EF0A37400F0A37477F0AC
:0F6BCF007BFF7A0479BA12310D900083A3E0FFA7
:016BDE002294
:08525500900075EEF0A3EFF0EC
:10525D007BFF7A05790512310D1292567BFF7A0587
:10526D00792B12310D900076E02407FD900075E04A
:10527D003400FC900077E0FB7FA81298E790007651
:10528D00E02407FD900075E03400FC7FA8129E0716
:10529D007BFF7A00794490008EEFF012310D900073
:1052AD0076E02408FD900075E03400FC900078E075
:1052BD00FB7FA81298E7900076E02408FD9000751A
:1052CD00E03400FC7FA8129E077BFF7A057947909A
:1052DD00008EEFF012310D900076E02409FD900064
:1052ED0075E03400FC90007AE0FB7FA81298E790FF
:1052FD000076E02409FD900075E03400FC7FA812D3
:10530D009E077BFF7A00794490008EEFF012310DED
:10531D00900076E0240AFD900075E03400FC9000CA
:10532D007BE0FB7FA81298E7900076E0240AFD90C1
:10533D000075E03400FC7FA8129E077BFF7A007990
:10534D004490008EEFF012310D7BFF7A05794B12F0
:10535D00310D1292567BFF7A05796B12310D90004B
:10536D0076E0240BFD900075E03400FC900077E0B2
:10537D00FB7FA81298E7900076E0240BFD90007556
:10538D00E03400FC7FA8129E077BFF7A00794490E1
:10539D00008EEFF012310D900076E0240CFD9000A0
:1053AD0075E03400FC900078E0FB7FA81298E79040
:1053BD000076E0240CFD900075E03400FC7FA8120F
:1053CD009E077BFF7A05794790008EEFF012310D25
:1053DD00900076E0240DFD900075E03400FC900007
:1053ED007AE0FB7FA81298E7900076E0240DFD90FF
:1053FD000075E03400FC7FA8129E077BFF7A0079D0
:10540D004490008EEFF012310D900076E0240EFDE9
:10541D00900075E03400FC90007BE0FB7FA81298B3
:10542D00E7900076E0240EFD900075E03400FC7FDF
:10543D00A8129E077BFF7A00794490008EEFF00250
:02544D00310D1F
:086BDF00900088EEF0A3EFF036
:106BE7007BFF7A05798712310D900089E02407FD34
:106BF700900088E03400FC7FA8129E077BFF7A058F
:106C0700799990008EEFF012310D900089E02408F9
:106C1700FD900088E03400FC7FA8129E077BFF7A76
:106C270005794790008EEFF012310D900089E0242E
:106C370009FD900088E03400FC7FA8129E077BFFC7
:106C47007A00794490008EEFF012310D900089E0C0
:106C5700240AFD900088E03400FC7FA8129E077B81
:106C6700FF7A05799D90008EEFF012310D90008923
:106C7700E0240BFD900088E03400FC7FA8129E07FB
:106C87007BFF7A00794490008EEFF012310D90006F
:106C970089E0240CFD900088E03400FC7FA8129E58
:106CA700077BFF7A05794790008EEFF012310D9040
:106CB7000089E0240DFD900088E03400FC7FA812D5
:106CC7009E077BFF7A00794490008EEFF012310D1A
:106CD700900089E0240EFD900088E03400FC7FA836
:106CE700129E077BFF7A00794490008EEFF0023105
:016CF7000D8F
:084B9800900075EEF0A3EFF0B0
:104BA0007BFF7A0579A312310D7BFF7A0579CF124D
:104BB000310D7BFF7A0579F712310D7B017A00798F
:104BC00077E4FD12925E7BFF7A06791F12310DE4C5
:104BD000900082F0900082E0FFC39408748094807B
:104BE0004003024E4E74772FF582E43400F583E0E3
:104BF000900083F0643270437BFF7A06793712317C
:104C00000D900076E02401FD900075E03400FC7BFF
:104C1000327FA81298E7900076E02401FD9000759D
:104C2000E03400FC7FA8129E07900081EFF07BFF2C
:104C30007A06793E90008EF012310D900082E024C9
:104C400077F582E43400F583E0900083F0643370FC
:104C5000437BFF7A06794412310D900076E02402FE
:104C6000FD900075E03400FC7B337FA81298E7903C
:104C70000076E02402FD900075E03400FC7FA8126D
:104C80009E07900081EFF07BFF7A06793E90008EC0
:104C9000F012310D900082E02477F582E43400F5C3
:104CA00083E0900083F0643470437BFF7A06794C94
:104CB00012310D900076E02403FD900075E0340081
:104CC000FC7B347FA81298E7900076E02403FD90E7
:104CD0000075E03400FC7FA8129E07900081EFF081
:104CE0007BFF7A06793E90008EF012310D900082A3
:104CF000E02477F582E43400F583E0900083F064EB
:104D00003570437BFF7A06795712310D900076E0BB
:104D10002404FD900075E03400FC7B357FA81298D8
:104D2000E7900076E02404FD900075E03400FC7FFD
:104D3000A8129E07900081EFF07BFF7A06793E90E3
:104D4000008EF012310D900082E02477F582E43479
:104D500000F583E0900083F0643670437BFF7A06B1
:104D6000795F12310D900076E02405FD900075E02A
:104D70003400FC7B367FA81298E7900076E024058B
:104D8000FD900075E03400FC7FA8129E0790008122
:104D9000EFF07BFF7A06793E90008EF012310D9095
:104DA0000082E02477F582E43400F583E09000830C
:104DB000F0643770437BFF7A06796812310D9000FA
:104DC00076E02406FD900075E03400FC7B377FA878
:104DD0001298E7900076E02406FD900075E034001C
:104DE000FC7FA8129E07900081EFF07BFF7A067986
:104DF0003E90008EF012310D900082E02477F58213
:104E0000E43400F583E0900083F0643170377BFF79
:104E10007A06797012310D900075E0FCA3E0FD7BFD
:104E2000317FA81298E7900075E0FCA3E0FD7FA811
:104E3000129E07900081EFF07BFF7A06797990004F
:0E4E40008EF012310D900082E004F0024BD48F
:014E4E002241
:08699D00900088EEF0A3EFF07A
:1069A5002401FDE43EFC7FA8129E0790008AEFF0CB
:1069B50064327BFF70067A06797E80047A067994C4
:1069C50012310D900089E02402FD900088E034002A
:1069D500FC7FA8129E0790008AEFF064337BFF705E
:1069E500067A0679AD80047A0679C412310D9000D5
:1069F50089E02403FD900088E03400FC7FA8129E06
:106A05000790008AEFF064347BFF70067A0679DE22
:106A150080047A0679F812310D900089E02404FD8E
:106A2500900088E03400FC7FA8129E0790008AEF52
:106A3500F064357BFF70067A07791580047A07794B
:106A45002C12310D900089E02405FD900088E0347A
:106A550000FC7FA8129E0790008AEFF064367BFF4A
:106A650070067A07794680047A07795E12310D90AF
:106A75000089E02406FD900088E03400FC7FA81220
:106A85009E0790008AEFF064377BFF70067A0779DE
:106A95007980047A07799012310D900088E0FCA383
:106AA500E0FD7FA8129E0790008AEFF064317BFF1E
:0F6AB50070067A0779AA80047A0779C212310D28
:016AC40022AF
:10637A00129EEC78647C007D01121A4A7BFF7A0730
:10638A0079DD12310D7B017A00795AE4FD12925EB1
:10639A007B017A00795A127AD3EF14900074F0E0F4
:1063AA002464F582E43400F583E0FF7E0090006FF8
:1063BA00EEF0A3EFF0A3EEF0A3EFF0900070E0246C
:1063CA000FF090006FE03400F0E0FEA3E0FF126AE5
:1063DA00C5900071E0FFA3E090006FCFF0A3EFF04B
:1063EA009000747401F0900074E0FFC39408748004
:1063FA009480501C900070E02FFD90006FE03400F4
:10640A00FC7BFF7FA81298E7900074E004F080D626
:10641A00900071E0FEA3E0FF90006FEEF0A3EFF0B2
:10642A00124B9890006FE0FEA3E0FF1252557BFFDB
:10643A007A08790D12310D7B017A00795AE4FD123E
:10644A00925E7B017A00795A127AD3900073EFF048
:10645A00FB900070E02410FD90006FE03400FC7F98
:10646A00A81298E7900070E02410FD90006FE034C5
:10647A0000FC7FA8129E07900073EFF090008E74C4
:10648A00FFF0A37400F0A37447F0A3EFF07B017A46
:10649A0000795A123107900073E064017016900077
:1064AA0070E0240AF090006FE03400F0E0FEA3E010
:0464BA00FF12525526
:0164BE0022BB
:10544F007B017A00795A7F507E031296F890007490
:10545F007401F0A37400F0A37468F07B017A0079F3
:10546F005A128AC690008E7401F0A37400F0A374D0
:10547F0068F07BFF7A08793B12310D7BFF7A087950
:10548F006712310D7B017A00795A7F007E031296E5
:10549F00F890008E7401F0A37400F0A3745AF07B9F
:1054AF00FF7A08797912310D7B017A00795A1250FF
:1054BF005778937C017D01121A4A7BFF7A08797C19
:1054CF0012310D7B017A00795A7D0112925E7B01B8
:1054DF007A00795A129D0F900065EBF0A3EAF0A3C2
:1054EF00E9F07B017A0179937F007E0312961E907B
:1054FF000065129C45EF70837BFF7A08798B123120
:10550F000D7B017A00795AE4FD12925E90008E7441
:10551F0001F0A37400F0A3745AF07BFF7A0879B5F9
:10552F0012310D90005AE0900068F090005BE0900F
:10553F000069F0E4A3F07B017A007968127AD390C6
:10554F00006FEEF0A3EFF07BFF7A0879BF90008E2B
:10555F00EEF0A3EFF012310D90006FA3E0FB7D5042
:10556F007C037FA81298E790005CE0900068F090B1
:10557F00005DE0900069F0E4A3F07B017A007968A8
:10558F00127AD390006FEEF0A3EFF07BFF7A0879D9
:10559F00BF90008EEEF0A3EFF012310D90006FA3CD
:1055AF00E0FB7D517C037FA81298E790005EE090AE
:1055BF000068F090005FE0900069F0E4A3F07B01D9
:1055CF007A007968127AD390006FEEF0A3EFF07B38
:1055DF00FF7A0879BF90008EEEF0A3EFF012310D35
:1055EF0090006FA3E0FB7D527C037FA81298E7E445
:1055FF00FB7D537C037FA81298E77B017A00795AD1
:10560F007F507E031296F89000747401F0A374001B
:10561F00F0A37468F07B017A00795A128AC6900061
:10562F008E7401F0A37400F0A37468F07BFF7A0806
:05563F0079C602310DE7
:10673D00129EEC78777C007D01121A4AE49000825B
:10674D00F0900082E0FFC3940A74809480400302AD
:10675D0068737BFF7A0879F8EF243190008EF01280
:10676D00310D900082E02477F582E43400F583E06A
:10677D00FF7E00900083EEF0A3EFF0A3EEF0A3EF09
:10678D00F0900084E0240FF0900083E03400F0E0FE
:10679D00FCA3E0FD7FA8129E07900087EFF090000C
:1067AD008E74FFF0A37400F0A37447F0A3EFF07B99
:1067BD00017A00796D123107900087E06401600362
:1067CD000268617BFF7A09792112310D7BFF7A090D
:1067DD00794012310D900085E0FEA3E0FF9000831B
:1067ED00EEF0A3EFF012699D900083E0FEA3E0FFB1
:1067FD00126BDF900084E02410FD900083E03400E4
:10680D00FC7FA8129E07900087EFF090008E74FF1A
:10681D00F0A37400F0A37447F0A3EFF07B017A00AE
:10682D00796D123107900087E064017BFF701F7A4C
:10683D0009795612310D900084E0240AF0900083FE
:10684D00E03400F0E0FEA3E0FF126BDF800F7A0969
:10685D00797D80067BFF7A0979A412310D90008233
:06686D00E004F002674E9A
:016873002202
:10430600E4FDFC7FA8129E077E00900064EEF0A3F9
:10431600EFF090008E74FFF0A37400F0A37447F0E2
:10432600A3EEF0A3EFF07B017A00795A12310790E1
:10433600008E7401F0A37400F0A3745AF07BFF7A28
:104346000979C412310D7D027C007FA8129E077E7A
:1043560000900064EEF0A3EFF090008E74FFF0A3DF
:104366007400F0A37447F0A3EEF0A3EFF07B017A9C
:1043760000795A12310790008E7401F0A37400F090
:10438600A3745AF07BFF7A0979E412310D7D047C1F
:10439600007FA8129E077E00900064EEF0A3EFF067
:1043A60090008E74FFF0A37400F0A37447F0A3EEA0
:1043B600F0A3EFF07B017A00795A12310790008E54
:1043C6007401F0A37400F0A3745AF07BFF7A0A79A3
:1043D6000212310D7D067C007FA8129E077E00909A
:1043E6000064EEF0A3EFF090008E74FFF0A374006B
:1043F600F0A37447F0A3EEF0A3EFF07B017A007907
:104406005A123107900064E07002A3E070087BFF47
:104416007A0A79258012900064E07004A3E06401B2
:1044260070097BFF7A0A794612310D7D087C007F80
:10443600A8129E077E00900064EEF0A3EFF09000B5
:104446008E74FFF0A37400F0A37447F0A3EEF0A3FC
:10445600EFF07B017A00795A123107900064E07020
:1044660004A3E064017BFF70067A0A795A80047A15
:104476000A797512310D7D0A7C007FA8129E077E8F
:1044860000900064EEF0A3EFF090008E74FFF0A3AE
:104496007400F0A37447F0A3EEF0A3EFF07B017A6B
:1044A60000795A123107900064E07002A3E07BFFA6
:1044B60070067A0A799180047A0A79A412310D7D00
:1044C6000C7C007FA8129E077E00900064EEF0A38D
:1044D600EFF090008E74FFF0A37400F0A37447F021
:1044E600A3EEF0A3EFF07B017A00795A1231079020
:1044F6000064E07002A3E07BFF70067A0A79B6805A
:10450600047A0A79D612310D7D0E7C007FA8129EA0
:10451600077E00900064EEF0A3EFF090008E74FF2B
:10452600F0A37400F0A37447F0A3EEF0A3EFF07BC2
:10453600017A00795A123107900064E07002A3E014
:104546007BFF70067A0A79F580047A0B79121231AC
:104556000D7D0F7C007FA8129E077E00900064EE02
:10456600F0A3EFF090008E74FFF0A37400F0A37434
:1045760047F0A3EEF0A3EFF07B017A00795A1231EF
:1045860007900064E07002A3E0701590008E04F0BE
:10459600A37400F0A3745AF07BFF7A04792A80147E
:1045A60090008E7401F0A37400F0A3745AF07BFFA0
:1045B6007A04795412310D12673D7B017A00795ADB
:1045C6007F507E031296F89000747401F0A3740075
:1045D600F0A37466F07B017A00795A128AC69000BD
:1045E6008E7401F0A37400F0A37466F07BFF7A0B5F
:0545F600793602310DD1
:109452007BFF7A0B796612310D7BFF7A0B79A612AC
:10946200310D7BFF7A0B79E612310D7BFF7A0C7995
:109472002212310D7BFF7A0C797A12310D7BFF7A41
:109482000C79B412310D7BFF7A0C79EE12310D7B1F
:10949200FF7A0D792D12310D7BFF7A0D797E123113
:1094A2000D7BFF7A0D79C812310D7BFF7A0E790898
:1094B20012310D7BFF7A0E794112310D7BFF7A0E4C
:0594C200797202310D7A
:109A14007B017A00795A125C9DE4900064F07B012A
:109A24007A00795A12505778937C017D01121A4AB0
:109A34007B017A0179937F007E0312961E90019335
:109A44007414F0740BF07414F0E4F07B017A01796F
:089A5400937F507E0302961E71
:104E4F007BFF7A0E79A412310D7D137C007FA8129F
:104E5F009E07EF600D129A14E4FB7D13FC7FA812DE
:104E6F0098E77BFF7A08796712310D7B017A007919
:104E7F00327F007E031296F8E490003CF090008E93
:104E8F0004F0A37400F0A37432F07BFF7A087979F1
:104E9F0012310D7B017A00793212505778937C01D1
:104EAF007D01121A4A7BFF7A08797C12310D7B0142
:104EBF007A0079327D0112925E129D09900001EB0A
:104ECF00F0A3EAF0A3E9F07B017A0179937F007EEA
:104EDF000312961E900001129C45EF708502502917
:104EEF0012A1647B017A007932E4FD12925E129D69
:104EFF0009900001EBF0A3EAF0A3E9F012000E9085
:104F0F000001128D09900004EBF0A3EAF0A3E9F081
:104F1F0012000E900004128D09900007EBF0A3EA27
:104F2F00F0A3E9F0900004E0FBA3E0FAA3E0F9EAB4
:104F3F00494B601712161EB42F11780A7C007D01A1
:104F4F00900004A3A3E0121A4A803D900004E0FBF6
:104F5F00A3E0FAA3E0F9EA494B602D780A7C007DC3
:104F6F00017B017A01799C121A4A900004E0F9A39F
:104F7F00E0FAA3E090005DC9F0A3EAF0A3E9F07BAB
:104F8F00017A00790A12968D900001E0FBA3E0FAF6
:104F9F00A3E0F9EA494B7003024EEF12975EEFB4AC
:104FAF000E004003025035904FBDF8282873024F72
:104FBF00E7024FED024FF3024FF9024FFF02500588
:104FCF0002500B02501102501702501D02502302C3
:104FDF00502902505602502F128117024EEF127EA7
