:10881B0041010C0A41013F0041014A004101400066
:10882B004101500041014700420141000041014913
:0F883B00064101510341014FF2C10AC109C10BAE
:03000B0002AA96B0
:10AA9600C0E0C083C08290010CE06401700604F03F
:10AAA600C28D801C90010CE014F090013FE004F090
:10AAB600900142E004F07006900141E004F0C28D7E
:07AAC600D082D083D0E03202
:10ADDB00E58954F04401F589E4F58CF58AD28C228F
:05AE6900C28DD2A922F8
:03AE7800C2A9224A
:0BAE0A0012ABCEEFF47002EEF460F526
:01AE1500221A
:05A92D009000E0EFF0D6
:10A932009000E0E0FF12AA21EF3395E04F6024E49B
:10A942009000E1F0A3F0C39000E2E094E89000E10F
:10A95200E0940350DBA3E004F070EB9000E1E0042C
:08A96200F080E39000E0E0FF4B
:01A96A0022CA
:0EA64D00900037EBF0A3EAF0A3E9F0A3EDF0E4
:10A65B00E4A3F090003AE0FFA3E0C39F50299000E1
:10A66B0037E0FBA3E0FAA3E0F9122468FF12A92D4F
:10A67B0090003CEFF0900038E475F0011225499002
:07A68B00003BE004F080CC6D
:01A6920022A5
:10ADEB0012AE7312AE3212AE16C283D287C2972244
:109B9E0012ADDB12AE6912AB2D12AB7F12ADEBD252
:109BAE00AF12ACBE7F217E0012AD6F12AD447F614D
:109BBE0012A52E12AE3920910312511512A488123D
:109BCE006B8DEF70FA90010C7403F020093F20802A
:109BDE000E7B017A0079E4129473900000EFF0127C
:109BEE00119220B32B7B017A0079E412933D900001
:109BFE0000EFF0FD7B017A0079E41245B07B017A2B
:109C0E000079E4900000E0FD12A5BE8003121192CF
:059C1E00129D2880B634
:05AE6E004C49564500AF
:0B884A000911303030303030000000E9
:0E45B000900001EBF0A3EAF0A3E9F0A3EDF018
:1045BE007D0A7C007FA812A9AC90028CEFF09000CF
:1045CE0004E0FF64197059900001E0FBA3E0FAA328
:1045DE00E0F912246864027047900002122481648C
:1045EE0048703DFE74FF2FF582EE34FFF5831224E2
:1045FE00816403702B900001A3A3E02403F9E43A35
:10460E00FA127505EF60030248C0900001E0FBA3AB
:10461E00E0FAA3E02403F9E43AFA1297DA029FA42F
:10462E00900001E0FBA3E0FAA3E0F912246864B65F
:10463E00702890028BE004F0E0D394047480948090
:10464E0050030248C07FAE123E4DC282E490013F3D
:10465E00F0C297C28390028BF022900001E0FBA380
:10466E00E0FAA3E0F9122468FF64B76005EF64AACC
:10467E00705390013FE0C39414748094804008E41A
:10468E00F0C297D282C283900143E060030248C019
:10469E0090028CE0640160030248C0C3900142E0C6
:1046AE009458900141E0940250030248C0E4F0A3F4
:1046BE00F090014304F07BFF7AAE796E12A769E4A5
:1046CE00900143F022900001E0FBA3E0FAA3E0F991
:1046DE0012246864B170057F600247B4900001E057
:1046EE00FBA3E0FAA3E0F912246864B270057F5DC3
:1046FE000247B4900004E064017017900001E0FBE3
:10470E00A3E0FAA3E0F912246864A170057F5A02AF
:10471E0047B4900004E064017016900001E0FBA322
:10472E00E0FAA3E0F9122468640670047FAB807689
:10473E00900004E064017016900001E0FBA3E0FA23
:10474E00A3E0F9122468640770047F5F805890001C
:10475E0004E064017016900001E0FBA3E0FAA3E010
:10476E00F9122468640870047F61803A900004E0B6
:10477E0064017016900001E0FBA3E0FAA3E0F912C9
:10478E002468640970047FAF801C900004E064010B
:10479E007017900001E0FBA3E0FAA3E0F912246881
:1047AE0064B470057F5E023E4D900004E0FF64131A
:1047BE007038900001E0FBA3E0FAA3E0F99000014D
:1047CE00122481B456247E0074FF2FF582EE34FF3E
:1047DE00F58312248164037011900001A3A3E024D9
:1047EE0002F9E43AFA7F5B0248BD900004E0FF64F0
:1047FE000660030248C0900001E0FBA3E0FAA3E0CC
:10480E00F9122468640260030248C0900001122469
:10481E0081645760030248C0FE74FF2FF582EE34A8
:10482E00FFF583122481640360030248C0900001E7
:10483E00A3A3900002122481FD7B017A0079051258
:10484E00A37B9000087420F0900001E0FBA3E0FA37
:10485E00A3E0F9900003122481FD900001A3A39020
:10486E00000412248190003EF07B017A0079091237
:10487E0048C190028CE06401702112A01BEFF4601D
:10488E00077FAB123E4D80097B017A0079051286B7
:10489E00747B017A0079057F5C801412A01BEFF403
:1048AE0060057FAB123E4D7B017A0079057F5C126D
:0248BE0067850C
:0148C00022D5
:0B947300900001EBF0A3EAF0A3E9F089
:10947E00E4900005F0A3740BF090028CE064017090
:10948E0073900004F0900006E0FF900004E0C39F8C
:10949E005053E4FFFEFD30801DED701A0FBF00012A
:1094AE000ED3EF9420EE944E40EC7D01900006E03A
:1094BE00900004F080E0ED6401602A900005E00465
:1094CE00F0129A07900001E0FBA3E0FAA3E0F9EF97
:1094DE001224AE900002E475F001122549900004AA
:1094EE00E004F080A0900001E0FBA3E0FAA3E0F915
:0994FE00E41224AE900005E0FF29
:019507002241
:0EA82C0090003AEBF0A3EAF0A3E9F0A3EDF000
:10A83A00E4A3F090003DE0FFA3E0C39F5024900002
:10A84A003AE0FBA3E0FAA3E0F9122468FF12A52E6E
:10A85A0090003BE475F00112254990003EE004F0B7
:02A86A0080D19B
:01A86C0022C9
:0B867400900010EBF0A3EAF0A3E9F087
:10867F009000317403F090001314F012AD9390003A
:10868F0014EFF0A37453F0900147E09000316013A2
:10869F00E0FF04F074132FF582E43400F583744D7A
:1086AF00F08011E0FF04F074132FF582E43400F52D
:1086BF00837443F09000317404F0900010E0FBA33A
:1086CF00E0FAA3E0F9122468FF6021900031E02462
:1086DF0013F582E43400F583EFF0900011E475F0A8
:1086EF0001122549900031E004F080CE900031E076
:1086FF00FF04F074132FF582E43400F583743AF01D
:10870F00900031E02413F9E43400FA7B011264B0D5
:10871F00900031E0FF241DF582E43400F583743AB4
:10872F00F0741E2FF582E43400F5837403F07B019F
:0B873F007A007913EF240CFD02A82C37
:0B5E9B00900015EBF0A3EAF0A3E9F083
:105EA6009000397403F090001B14F012AD9390002B
:105EB6001CEFF0A37453F09001B0E090003960132A
:105EC600E0FF04F0741B2FF582E43400F583744D73
:105ED600F08011E0FF04F0741B2FF582E43400F526
:105EE600837443F0900015E0FBA3E0FAA3E0F99079
:105EF600000512248164026003025F88900015A3E6
:105F0600A390000C122481FD7B017A00791F12A355
:105F16007B7B017A00791B12000E900039EFF0E0CE
:105F2600FF241BF582E43400F5837420F0741C2FE3
:105F3600F582E43400F583E4F07B017A00791B12E4
:105F4600000E900039EFF0241BF9E43400FA7B01CF
:105F5600C003C002C001900015E0FBA3E0FAA3E075
:105F6600F990000B122481FD900015A3A390000A5E
:105F760012248190003EF0D001D002D0031248C115
:105F8600804F900018E0FBA3E0FAA3E0F912246822
:105F9600FF900039E0FE04F0741B2EF582E4340015
:105FA600F583EFF0900019E475F001122549900091
:105FB60018E0FBA3E0FAA3E0F912246870C490008D
:105FC60039E0FF04F0741B2FF582E43400F583E416
:105FD600F07B017A00791B12000E900039EFF0E099
:105FE600FF241BF582E43400F583743AF0741C2F09
:105FF600F9E43400FA7B011264B07B017A00791B64
:1060060012000E900039EFF0E0FF04F0741B2FF53C
:1060160082E43400F583743AF0900039E0FF04F02E
:10602600741B2FF582E43400F5837403F07B017A48
:0B60360000791B900039E0FD02A82C4F
:08000300D29412AE7BC29422DC
:05A8EE009000C8EFF02E
:10A8F300E4A3F0A3F09000C8E0FFA2E713F030D781
:10A9030004D2958002C2951200039000CAE004F0BD
:10A9130070069000C9E004F0C39000CAE094089068
:09A9230000C9E06480948040CC7E
:01A92C002208
:09974B00E475F0011225497F8745
:059754009000C5EFF0DC
:10975900D2967F037E0012AD6F9000C5E0FF12A87C
:10976900EEE49000C6F0A3F09000C6E0FCA3E0FD93
:10977900C39408EC64809480504F30951690028D04
:10978900E04480F0ED9406EC648094805005E0FF9D
:10979900C313F020952090028DE0547FF0D3900000
:1097A900C7E094069000C6E0648094805008900257
:1097B9008DE0FFC313F01200039000C7E004F070BE
:1097C900A79000C6E004F0809FC29690028DE0FF4A
:0197D900226D
:10AB5700900013EFF0A3EDF0D2967F037E0012ADC5
:10AB67006F900013E0FF12A8EE900014E0FF900032
:08AB770013F012A8EEC29622B1
:10A86D00900011E475F001122549900011E475F086
:10A87D0001122549900011E475F00112254990004F
:10A88D0010E0FBA3E0FAA3E0F9122468FF900001A9
:04A89D00122481FD03
:0CA8A100EF540FC454F0FFED540F4FFFB4
:01A8AD002288
:10750500E4FF122468FEC394305003027617EED3CD
:1075150094394003027617900001122481FEC3942A
:10752500305003027614EED394394003027614905A
:107535000003122481FEC394305003027611EED36A
:1075450094394003027611900004122481FEC394FD
:10755500305003027619EED3943940030276199020
:107565000008122481FEC39430500302760EEED338
:107575009439400302760E90000B122481FEC394C9
:1075850030500302760BEED39439507A90000C12EA
:107595002481FEC39430406BEED39439506590003E
:1075A5000E122481FEC394304056EED394395050C8
:1075B50090000F122481FEC394304041EED39439DC
:1075C500503B900011122481FEC39430402CEED321
:1075D50094395026900012122481FEC3943040172E
:1075E500EED394395011900014122481FEC39430C7
:1075F5004022EED39439227F01227F01227F01228E
:107605007F01227F01227F01227F01227F01227FCC
:0476150001227F01CE
:01761900224E
:1097DA00900010EBF0A3EAF0A3E9F012A88BAD0712
:1097EA007F8612AB5712A86DAD077F8812AB5790D0
:1097FA000011E475F001122549900011E475F00199
:10980A0012254912A86DAD077F8C12AB5712A86DAD
:10981A00AD077F8412AB5712A86DAD077F8212ABDA
:10982A005712A86DAD077F8012AB57900011E475EF
:10983A00F001122549900011E475F00112254990B2
:10984A000011E475F001122549900010E0FBA3E035
:0F985A00FAA3E0F9122468540FFD7F8A02AB577E
:10ACD700AE07EEC4540F540FFE6012EF540FFFE49B
:0DACE700FDEDC39E5007740A2FFF0D80F491
:01ACF400223D
:10A96B001224C0900072E475F00112254990007119
:0CA97B00E0FBA3E0FAA3E0F9122468FF5F
:10A98700E4FEFDFCECC39F500B0DED640A7002FD65
:10A997000E0C80F0EEC454F054F0FEED540F4EFF51
:01A9A700228D
:10A37B00E4FFFE90003AEDF090003AE0C394647471
:10A38B008094804007E0249CF00F80ECEF44301267
:10A39B0024AE740129F9E43AFA90003AE0C3940A26
:10A3AB00748094804007E024F6F00E80ECEE44308D
:10A3BB001224AE740129F9E43AFA90003AE04430E1
:0EA3CB001224AE740129F9E43AFAE40224AE39
:0E48C10090003AEBF0A3EAF0A3E9F0A3EDF0CB
:1048CF00E490003FF0A3F0900042F0A3F0A3F0A318
:1048DF00F0900041EDF054F0F0E0FFC4540FF09071
:1048EF00004A1225B6404000007F007E007D807C8C
:1048FF004112661FC004C005C006C007900041E00A
:10490F00FCE4121F7AD003D002D001D000121E6A2D
:10491F00C004C005C006C00790003FE0FCA3E0FD47
:10492F00E4121F75D003D002D001D000121D7912EE
:10493F001FAE90003FEEF0A3EFF090003DE090002F
:10494F0041F0540FF090004A1225B6400000007F4E
:10495F00007E007D807C4112661FC004C005C0062A
:10496F00C007900041E0FCE4121F7AD003D002D0C0
:10497F0001D000121E6AC004C005C006C007900017
:10498F003FE0FCA3E0FDE4121F75D003D002D0017D
:10499F00D000121D79121FAE90003FEEF0A3EFF082
:1049AF0090003EE0900041F054F0F0E0FFC4540F4F
:1049BF00F090004A1225B63F8000007F007E007DF8
:1049CF00807C4112661FC004C005C006C00790005E
:1049DF0041E0FCE4121F7AD003D002D001D00012C4
:1049EF001E6AC004C005C006C00790003FE0FCA3CC
:1049FF00E0FDE4121F75D003D002D001D000121DCC
:104A0F0079121FAE90003FEEF0A3EFF090003EE062
:104A1F00900041F0540FF090004A1225B6000000AC
:104A2F00007F007E007D807C4112661FC004C005A0
:104A3F00C006C007900041E0FCE4121F7AD003D0FB
:104A4F0002D001D000121E6AC004C005C006C00704
:104A5F0090003FE0FCA3E0FDE4121F75D003D002ED
:104A6F00D001D000121D79121FAE90003FEEF0A3BF
:104A7F00EFF0C3EF9410EE9427401074F02FFF74F3
:104A8F00D83EFE900042E004F080E7900042E04400
:104A9F0030FD90003AE0FBA3E0FAA3E0F9ED122419
:104AAF00AE90003BE475F001122549C3EF94E8EE98
:104ABF009403401074182FFF74FC3EFE900043E0E7
:104ACF0004F080E7900043E04430FD90003AE0FBB3
:104ADF00A3E0FAA3E0F9ED1224AE90003BE475F0E9
:104AEF0001122549C3EF9464EE94004010749C2F7B
:104AFF00FF74FF3EFE900044E004F080E790004416
:104B0F00E04430FD90003AE0FBA3E0FAA3E0F9EDBA
:104B1F001224AE90003BE475F001122549C3EF94C7
:104B2F000AEE9400401074F62FFF74FF3EFE9000C3
:104B3F0045E004F080E7900045E04430FD90003AF6
:104B4F00E0FBA3E0FAA3E0F9ED1224AE90003BE402
:104B5F0075F001122549EF4430FF90003AE0FBA3B6
:104B6F00E0FAA3E0F9EF1224AE90003BE475F001F8
:104B7F0012254990003AE0FBA3E0FAA3E0F9E40222
:024B8F0024AE52
:0B64B000900065EBF0A3EAF0A3E9F018
:1064BB007F8D129754EF54F0C4540F4430FE90006C
:1064CB0065E0FBA3E0FAA3E0F9EE1224AE900066C0
:1064DB00E475F001122549EF540F4430FF9000652D
:1064EB00E0FBA3E0FAA3E0F9EF1224AE900066E420
:1064FB0075F0011225497F89129754EF54F0C4545B
:10650B000F4430FE900065E0FBA3E0FAA3E0F9EE48
:10651B001224AE900066E475F001122549EF540F7A
:10652B004430FF900065E0FBA3E0FAA3E0F9EF1223
:10653B0024AE90006612974BEF54F0C4540F4430C6
:10654B00FE900065E0FBA3E0FAA3E0F9EE1224AEA7
:10655B00900066E475F001122549EF540F4430FFAB
:10656B00900065E0FBA3E0FAA3E0F9EF1224AE90F4
:10657B000066E475F0011225497F85129754EF549C
:10658B00F0C4540F4430FE900065E0FBA3E0FAA387
:10659B00E0F9EE1224AE900066E475F00112254985
:1065AB00EF540F4430FF900065E0FBA3E0FAA3E04B
:1065BB00F9EF1224AE900066E475F0011225497FC5
:1065CB0083129754EF54F0C4540F4430FE9000657F
:1065DB00E0FBA3E0FAA3E0F9EE1224AE900066E430
:1065EB0075F001122549EF540F4430FF900065E020
:1065FB00FBA3E0FAA3E0F9EF1224AE900066E4757A
:10660B00F001122549900065E0FBA3E0FAA3E0F945
:04661B00E40224AEC3
:10900C009000C2EBF0A3EAF0A3E9F07F8D12975425
:10901C0012ACD79000C2E0FBA3E0FAA3E0F9EF1288
:10902C0024AE9000C3E475F0011225497F89129794
:10903C005412ACD79000C2E0FBA3E0FAA3E0F9EF26
:10904C001224AE9000C312974B12ACD79000C2E022
:10905C00FBA3E0FAA3E0F9EF1224AE9000C3E47591
:10906C00F0011225497F8512975412ACD79000C29B
:10907C00E0FBA3E0FAA3E0F9EF1224AE9000C3E406
:10908C0075F0011225497F8312975412ACD79000CA
:10909C00C2E0FBA3E0FAA3E0F9EF1224AE9000C308
:0790AC00E475F00102254903
:0B950800900071EBF0A3EAF0A3E9F083
:1095130012A978EF54F0C4540F4430FE900074E065
:10952300FBA3E0FAA3E0F9EE1224AEEF540F4430AC
:10953300FF900074E0FBA3E0FAA3E0F9900001EFD1
:1095430012A96BEF54F0C4540F4430FE900074E042
:10955300FBA3E0FAA3E0F9900002EE1224C0EF545B
:109563000F443090000312A96BEF54F0C4540F441E
:1095730030FE900074E0FBA3E0FAA3E0F99000044E
:10958300EE1224C0EF540F44309000051224C09013
:069593000006E40224C002
:0B5B1900900024EBF0A3EAF0A3E9F0F9
:105B24007F89129754EF54F0C4540F4430FE900010
:105B340024E0FBA3E0FAA3E0F9EE1224AE900025E2
:105B4400E475F001122549EF540F4430FF9000240E
:105B5400E0FBA3E0FAA3E0F9EF1224AE90002512D3
:105B6400974BEF54F0C4540F4430FE900024E0FBF4
:105B7400A3E0FAA3E0F9EE1224AE900025E475F058
:105B840001122549EF540F4430FF900024E0FBA399
:105B9400E0FAA3E0F9EF1224AE900025E475F001D9
:105BA4001225497F85129754EF54F0C4540F4430A2
:105BB400FE900024E0FBA3E0FAA3E0F9EE1224AE89
:105BC400900025E475F001122549EF540F4430FF8D
:105BD400900024E0FBA3E0FAA3E0F9EF1224AE90D6
:105BE4000025E475F0011225497F83129754EF5480
:105BF400F0C4540F4430FE900024E0FBA3E0FAA369
:105C0400E0F9EE1224AE900025E475F00112254966
:105C1400EF540F4430FF900024E0FBA3E0FAA3E02C
:105C2400F9EF1224AE900025E475F0011225497FA6
:105C34008D129754EF54F0C4540F4430FE90002456
:105C4400E0FBA3E0FAA3E0F9EE1224AE900025E411
:105C540075F001122549EF540F4430FF900024E001
:105C6400FBA3E0FAA3E0F9EF1224AE900025E4755B
:105C7400F001122549900024E0FBA3E0FAA3E0F927
:105C8400742E1224AE900025E475F0011225497F8C
:105C940081129754EF54F0C4540F4430FE90002402
:105CA400E0FBA3E0FAA3E0F9EE1224AE900025E4B1
:105CB40075F001122549EF540F4430FF900024E0A1
:105CC400FBA3E0FAA3E0F9EF1224AE900025E475FB
:105CD400F001122549900024E0FBA3E0FAA3E0F9C7
:045CE400E40224AE04
:1088E100900024EBF0A3EAF0A3E9F07F8D129754F6
:1088F100900024E0FBA3E0FAA3E0F9EF1224AE908C
:108901000025E475F0011225497F891297549000E2
:1089110024E0FBA3E0FAA3E0F9EF1224AE900025D6
:1089210012974B900024E0FBA3E0FAA3E0F9EF12C9
:1089310024AE900025E475F0011225497F85129738
:1089410054900024E0FBA3E0FAA3E0F9EF1224AE77
:10895100900025E475F0011225497F831297549008
:108961000024E0FBA3E0FAA3E0F9EF1224AE9000AB
:1089710025E475F0011225497F8112975490002456
:10898100E0FBA3E0FAA3E0F9EF1224AE900025E4A6
:1089910075F001122549900024E0FBA3E0FAA3E061
:0589A100F9E40224AE20
:07AE3200C294C296D29522E2
:0B633700900013EBF0A3EAF0A3E9F0E4
:10634200A37401F0122468FF3395E04F7047900068
:1063520013E0FBA3E0FAA3E0F9900001122481FF0D
:106362003395E04F702F900002122481FF3395E0A5
:106372004F7022900003122481FF3395E04F701575
:10638200900004122481FF3395E04F7008900016AC
:1063920004F00264AA7B017A00791712900C900132
:1063A20043E0640170097B017A00791712915A90D7
:1063B2000013E0FBA3E0FAA3E0F9122468FFFD3327
:1063C20095E0FC900017E0C39DEC6480F87480981F
:1063D2005003026497900017E06F60030264A49078
:1063E2000013E0FBA3E0FAA3E0F99000011224817C
:1063F200FFFD3395E0FC900018E0C39DEC6480F84B
:106402007480985003026497900018E06F60030252
:1064120064A2900013E0FBA3E0FAA3E0F99000026B
:10642200122481FFFD3395E0FC900019E0C39DEC3E
:106432006480F87480985002805B900019E06F705D
:106442005D900013E0FBA3E0FAA3E0F990000312D1
:106452002481FFFD3395E0FC90001AE0C39DEC64BB
:1064620080F87480985002802C90001AE0B5072CB6
:10647200900013E0FBA3E0FAA3E0F99000041224D9
:1064820081FF3395E0FE90001BE0C39FEE6480F82D
:10649200748098500DE4900016F0800C8004800205
:0D64A20080009000167402F0900016E0FFDC
:0164AF0022CA
:0B8BE3009000B0EBF0A3EAF0A3E9F073
:108BEE007B017A0079BB12900C9000BBE0FF7E00F7
:108BFE007C017D6D1224E2AC06AD07A3E075F01E7C
:108C0E00A42DFFEC35F0FEA3E07C002FFFEC3EFE22
:108C1E00E4FD9000B31225AA9000B0E0FBA3E0FAA9
:108C2E00A3E0F990000112248175F01EA4FDACF0B2
:108C3E00C004C005122468FF7E007C017D6D1224E5
:108C4E00E2D0E02FFFD0E03EFE9000021224811C05
:108C5E002FFFEC3EFEE4FD9000B71225AA9000B364
:108C6E00E0FCA3E0FDA3E0FEA3E0FFA3E0F8A3E099
:108C7E00F9A3E0FAA3E0FBC312256D40089000C1F2
:0F8C8E007401F08005E49000C1F09000C1E0FF98
:018C9D0022B4
:10302700900014ECF0A3EDF0900011EBF0A3EAF0A0
:03303700A3E9F01A
:10303A00C200C20190000B122481FF3395E04F6059
:10304A000302355D900011E0FBA3E0FAA3E0F990DA
:10305A00000C122481FF3395E04F600302355D9026
:10306A00000D122481FF3395E04F600302355D9015
:10307A00000E122481FF3395E04F600302355D9004
:10308A00000F122481FF3395E04F600302355D90F3
:10309A000014E0FEA3E0C3943CEE940090001440B8
:1030AA001CA3E0FB7C007D3CFF1224F490001DEF82
:1030BA00F075F03CA4FFC3EB9FA3F0800BA3E09054
:1030CA00001EF0E490001DF090001EE0FF70030265
:1030DA003392900011E0FBA3E0FAA3E0F990000418
:1030EA00122481FEEF2E90001CF0D3943B7480943E
:1030FA00805003023367E0FF75F03C8490001FF0B4
:10310A00E0FE75F03CA4FDC3EF9D90001CF090001A
:10311A0003122481FFEE2F90001BF0D394177480C2
:10312A0094805003023346E0FF75F0188490001F24
:10313A00F0E0FE75F018A4FDC3EF9D90001BF0901F
:10314A000002122481FFEE2F90001AF09000011263
:10315A002481FF3395E0FEEF64014E6024EF64039F
:10316A004E601EEF64054E6018EF64074E6012EF62
:10317A0064084E600CEF640A4E6006EF640C4E70F1
:10318A005790001AE0D3941F748094804032E02450
:10319A00E1F0900011E0FBA3E0FAA3E0F99000014E
:1031AA0012248104900019F0D3940C748094804006
:1031BA002412246804900018F0A37401F00233CC9E
:1031CA00900011E0FBA3E0FAA3E0F99000011224B9
:1031DA0081900019F00233C5900011E0FBA3E0FAD8
:1031EA00A3E0F9900001122481FF3395E0FEEF6419
:1031FA00044E6012EF64064E600CEF64094E6006DE
:10320A00EF640B4E702790001AE0D3941E748094DA
:10321A0080400DE024E2F09000011224810480062F
:10322A00900001122481900019F00233C590001118
:10323A00E0FBA3E0FAA3E0F9900001122481FF3336
:10324A0095E0FEEF64024E6003023329122468FF00
:10325A00FD3395E0FCED24D0FAEC3407900016F02B
:10326A00A3CAF0C200ED64104C6023EF3395E0FE70
:10327A00EF64144E6018EF64184E6012EF641C4E2F
:10328A00600CEF64204E6006EF64244E7002D20098
:10329A0030004990001AE0FDD3941D748094809008
:1032AA000011E0FBA3E0FAA3E0F9401712246890AA
:1032BA000018F090001AE024E3F090000112248133
:1032CA00048012122468900018F090001AEDF09011
:1032DA000001122481900019F00233CC90001AE008
:1032EA00FDD3941C748094804018E024E4F090008C
:1032FA0011E0FBA3E0FAA3E0F99000011224810493
:10330A00801690001AEDF0900011E0FBA3E0FAA3FA
:10331A00E0F9900001122481900019F00233C5905F
:10332A00001AE0F0900011E0FBA3E0FAA3E0F990A4
:10333A000001122481900019F00233C5900011E0B7
:10334A00FBA3E0FAA3E0F990000212248190001A8C
:10335A00F0900001122481900019F0805E90001113
:10336A00E0FBA3E0FAA3E0F99000031224819000A5
:10337A001BF090000212248190001AF090000112B2
:10338A002481900019F08033900011E0FBA3E0FA49
:10339A00A3E0F990000412248190001CF09000032D
:1033AA0012248190001BF090000212248190001ACE
:1033BA00F0900001122481900019F0122468900004
:1033CA0018F090001DE0FF700302351E90001BE00C
:1033DA002FF0E0FFD3941774809480500302351EB7
:1033EA00EF75F0188490001FF0E0FE75F018A4FD48
:1033FA00C3EF9D90001BF090001AE02EF090001988
:10340A00E0FF6401601EEF64036019EF6405601455
:10341A00EF6407600FEF6408600AEF640A6005EF63
:10342A00640C703590001AE0D3941F748094805015
:10343A000302351EE024E1F0900019E004F0E0D325
:10344A00940C74809480900018E0400904F0A374EE
:10345A0001F002351EF002351E900019E0FF6404E7
:10346A00600FEF6406600AEF64096005EF640B7091
:10347A001F90001AE0D3941E74809480400CE024BC
:10348A00E2F0900019E004023518900019E0807EFD
:10349A00900019E0FA6402707B900018E0FBFD7C52
:1034AA000024D0FEEC3407900016F0A3CEF0C20040
:1034BA00ED6410601AEBFF64146014EF6418600F77
:1034CA00EF641C600AEF64206005EF64247002D286
:1034DA000030002490001AE0FFD3941D7480948079
:1034EA00400BE024E3F0900019E004800990001AF0
:1034FA00EFF0900019EA801690001AE0D3941C7439
:10350A00809480400FE024E4F0900019E004F090E9
:10351A000018E0F0900018E0FF900011E0FBA3E033
:10352A00FAA3E0F990000BEF1224C0900019E09082
:10353A00000C1224C090001AE090000D1224C090D2
:10354A00001BE090000E1224C090001CE090000FB7
:03355A001224C078
:01355D00224B
:10AD6F00E4FDFCC3ED9FEC9E50070DBD00010C8070
:01AD7F00F2E1
:01AD800022B0
:04AD1200AB07AA06DB
:10AD1600900000C3E5829BE5839A500A7F967E00E9
:06AD260012AD6FA380EDE9
:01AD2C002204
:08AA5C00900012EEF0A3EFF0F0
:10AA6400E4A3F0A3F0900012E0FEA3E0FFC3900083
:10AA740015E09F900014E09E50177F0A7E0012ADEF
:10AA840012900015E004F070DC900014E004F080F3
:01AA9400D4ED
:01AA9500229E
:01AE7B0022B4
:03AC3A0012AC1841
:10AC3D00D20ED293D292E4FFFE209205C20EC293A1
:0CAC4D00220FBF00010EBE04F0BF4CED52
:01AC590022D8
:03AC5A0012AC1821
:10AC5D00D293D292D20EE4FFFE209205C20EC29381
:0CAC6D00220FBF00010EBE02F0BF8AEDF6
:01AC790022B8
:06AE6300D29300C293220D
:10AC1800E4FEEEC39408748094805015EF25E0FF9D
:10AC280030D704D2928002C292D29312AE630E80C1
:01AC3800E13A
:01AC390022F8
:08AD8100ECFD7C00C293C292BC
:0AAD8900D292D29300C292C293222C
:09AE2000C293C292D293D2922295
:10A4DE00E4FBEBFDC39408748094805038C2933033
:10A4EE009216900283E04401F0ED940674809480FD
:10A4FE005006E025E0F0D293209217900283E054AC
:10A50E00FEF0EBD39406748094805006E025E0F0C4
:0CA51E00D2930B80BDC293900283E0FF3B
:01A52A00220E
:10A43200900071E0FCA3E0FDA3E0FBA3E0FAA3E03F
:07A44200F9122468FB7FA85A
:02A44900AA0760
:10A44B00AF05A90712AD81AF0212AC3AAF0512AC42
:10A45B003AAF0112AC1812AC3DAF0312AC1812ACF0
:10A46B003D12AE207F0D7E0012AD12D293D2927FA1
:0DA47B00627E0012AD6F7F627E0002AD6F49
:04A9A8007C007FA808
:02A9AC00AB07F7
:10A9AE00AF05AA0712AD81AF0312AC5AAF0512ACB8
:10A9BE005AAF0212AC1812AC5D12AD89EB04FF1245
:10A9CE00AC1812AC3DC29312A4DE12AE20D293D2BA
:06A9DE0092900283E0FFED
:01A9E4002250
:10A48800E4FDFC7FA812A9AC900152E4F0A3EFF020
:10A498007D0212A9A890014DE4F0A3EFF07D04120B
:10A4A800A9A890014BE4F0A3EFF07D0612A9A890AB
:10A4B8000145E4F0A3EFF07D0812A9A8900143EF4D
:10A4C800F07D0C12A9A8900148EFF07D0E12A9A802
:06A4D800900144EFF022A8
:10A2B3009000B0EEF0A3EFF0A3EBF0A3EAF0A3E974
:01A2C300F0AA
:10A2C4009000B0E0FCA3E0FD7FA812A9AC9000B21E
:10A2D400E0FBA3E0FAA3E0F9EF1224AE9000B2E0B1
:10A2E400FBA3E0FAA3E0F9122468FF9000B1E004B4
:10A2F400F070069000B0E004F09000B3E475F00153
:10A30400122549EF70BA9000B2E0FBA3E0FAA3E093
:05A31400F9E40224AE93
:10A10100900071EEF0A3EFF0A3EBF0A3EAF0A3E966
:10A11100F0900073E0FBA3E0FAA3E0F91224686079
:10A1210024B40D04E41224AE12A432900072E004AF
:10A13100F07006900071E004F0900074E475F00195
:10A1410012254980CC12A432900072E004F070060E
:10A15100900071E004F0900074E475F0011225495B
:0FA16100900071E0FCA3E0FDE4FB7FA802A4499D
:1092000053656E736F726573204175746F2079209A
:1092100073656E736F72312061637469766F732E3C
:109220000053656E736F722061637469766F20738B
:10923000656E736F7231202E0044657465637461CE
:10924000646F2E2053656E736F72204175746F2E9C
:109250000053656E736F726573206E6F2064657462
:1092600065637461646F73005665686963756C6FDC
:10927000204573706572616E646F2053616C697212
:109280002E005665686963756C6F2053616C696563
:109290006E646F2E20556E206D6F6D656E746F005D
:0488550041028E004E
:07AE3900C2B5C2B6C2B72288
:07AE4000C2B5D2B6C2B72271
:07AE4700C2B5C2B6D2B7226A
:07AE4E00D2B5C2B6D2B72253
:07AE5500C2B5D2B6D2B7224C
:07AE5C00D2B5D2B6D2B72235
:10AC7A00E4FF7DF47C01309115EFFB3395E04B70D6
:0EAC8A000DED1D70011CED4C70EC7F0180E89B
:01AC98002299
:10A7A7009000377401F012AE55309103E004F012B7
:10A7B700AE5C309107900037E02402F0900037E05C
:10A7C700640170177D12FC7FA812A9ACEF600CF42E
:10A7D700900037700404F08002EFF0900037E02417
:02A7E70030FF41
:01A7E900224D
:10AD93007D127C007FA812A9ACEF6005F470027FDE
:01ADA30001AE
:01ADA400228C
:10A01B0012AE4730916112AC7AEF3395E0FEEF64EC
:10A02B00014E704712AE4E20912312AE407BFF20A3
:10A03B00910D7A92790012A769E490014780227AF8
:10A04B0092792112A7699001477401801412AE40D6
:10A05B007BFF2091107A92793912A769900147748E
:10A06B0001F07FFF227A92795180067BFF7A9279F9
:10A07B006812A7697F00227BFF7A92798212A76907
:03A08B007F012230
:10AC9900E4FE12AE4730911412AC7AEFFD3395E021
:0EACA900FCED64014C7002FF227F01227F014E
:01ACB700227A
:109D2800E4900001F012AE3920916990028EE07043
:109D380016900001E0701030B35A04F012AB019095
:109D4800028E7401F0804D90028EE06401701690CE
:109D58000001E0701030B33C04F012761A90028EC5
:109D68007402F0802F90028EE06402702790000148
:109D7800E0702130B31E04F07D0C7C007FA812A98E
:109D8800ACEF640170047F5380027F4E12997FE428
:0F9D980090028EF012AE39309105E4900001F088
:019DA7002299
:1039E100494E4752455345205441524A455441207E
:1039F100005441524A4554412053494E20494E47B3
:103A01005245534F20005441524A455441204E4F94
:103A1100205245474953545241205041474F2000BD
:103A2100455843454445205449454D504F20444550
:103A31002047524143494120004D454E5355414C89
:103A4100204E4F204553544120454E205041525164
:103A51005545414445524F2000444952494A41533A
:103A61004520412043414A412000475241434941B9
:103A7100532E2E2E2000475241434941532E2E2EC4
:103A8100004D454E5355414C494441442056454E05
:103A91004349444120004D454E5355414C49444111
:103AA100442045584345444520484F524152494FCF
:103AB1002041434552515545534520412043414AF8
:103AC1004120004E4F204553204D454E5355414C0A
:103AD10049444144204E49205052455041474F00EE
:103AE1004D454E5355414C204E4F205041474F209C
:103AF1004C4F434143494F4E20484F590054415286
:103B01004A455441204E4F2045532044454C2050B6
:103B11004152515545414445524F200053494E2091
:103B210050524553454E4349412056454849435516
:103B31004C415220005441524A45544120494E566D
:103B4100414C49444120005441524A45544120537B
:103B5100494E20464F524D41544F20004655455243
:103B610041204445204C494E45412000554E204DB1
:103B71004F4D454E544F20504F52204641564F52C3
:103B81002000613B38353B494E475245534520544F
:103B910041524A4554410A0000613B38363B544189
:103BA100524A4554412053494E20494E47524553AC
:103BB1004F200A0000613B38373B5441524A45547B
:103BC10041204E4F205245474953545241205041C4
:103BD100474F0A0000613B38383B4558434544454F
:103BE100205449454D504F204445204752414349B7
:103BF10041200A0000613B38393B4D454E53554148
:103C01004C204E4F204553544120454E20504152A7
:103C1100515545414445524F0A0000613B39303B03
:103C2100444952494A41534520412043414A410AAE
:103C31000000613B39313B475241434941532E2EEC
:103C41002E200A0000613B39333B4D454E5355410F
:103C51004C204E4F204553544120454E2050415257
:103C6100515545414445524F0A0000613B39343BAF
:103C71004D454E5355414C494441442056454E43D0
:103C81004944410A0000613B39353B4D454E53558E
:103C9100414C494441442045584345444520484FFF
:103CA100524152494F2041434552515545534520B8
:103CB100412043414A410A0000613B39363B4E4FA6
:103CC100204553204D454E5355414C4944414420D4
:103CD1004E49205052455041474F0A0000613B393F
:103CE100373B4D454E5355414C204E4F2050414797
:103CF1004F204C4F434143494F4E20484F590A00F2
:103D010000613B39383B5441524A455441204E4FA2
:103D11002045532044454C20504152515545414482
:103D210045524F200A0000613B39383B53494E2030
:103D310050524553454E4349412056454849435504
:103D41004C4152200A0000613B39383B5441524AF0
:103D510045544120494E56414C494441200A0000F6
:103D6100613B39383B5441524A4554412053494EF5
:103D710020464F524D41544F200A0000613B3938D3
:103D81003B4655455241204445204C494E45410A48
:103D91000000613B39383B554E204D4F4D454E5447
:103DA1004F20504F52204641564F520A0000613B6E
:103DB10030373BA1204D454E5355414C4944414478
:103DC1002056454E4349444120210A0000613B30C1
:103DD100363B4D454E5355414C20465545524120A9
:103DE100444520484F524152494F0A0000613B3936
:103DF100383B484F524152494F204E4F2050524F6D
:103E01004752414D41444F0A000057494547414EF1
:103E1100442000475241434941532000613B39321C
:103E21003B57494547414E443A000A00613B39310D
:103E31003B475241434941532000643B78783B0062
:0C3E4100AA8018010200AA8018010200EB
:053E4D0090002EEFF0D3
:103E5200782F7C007D017BFF7A3E79417E007F06D0
:103E62001224427E017FBB7D287C0012A9E57F28B7
:103E72007E0012874A900036EEF0A3EFF0C28790E0
:103E82000144E060030240F77B017A00792FFD12C2
:103E9200A72790002EE01226073ED5553EF5563F45
:103EA20015573F35583F55593F755A3F955B3F551A
:103EB2005D3FB55E3FD55F3FF5604015614035AA75
:103EC2004055AB4075AC4094AD40B3AE40D2AF006C
:103ED2000040F47BFF7A3979E112000E900035EF51
:103EE200F0E4FDFF12ABB012ABA77BFF7A3979E1A8
:103EF2000240EF7BFF7A3979F212000E900035EF23
:103F0200F0E4FDFF12ABB012ABA77BFF7A3979F276
:103F12000240EF7BFF7A3A790712000E900035EFEC
:103F2200F0E4FDFF12ABB012ABA77BFF7A3A790740
:103F32000240EF7BFF7A3A792112000E900035EFB2
:103F4200F0E4FDFF12ABB012ABA77BFF7A3A792106
:103F52000240EF7BFF7A3A793A12000E900035EF79
:103F6200F0E4FDFF12ABB012ABA77BFF7A3A793ACD
:103F72000240EF7BFF7A3A795A12000E900035EF39
:103F8200F0E4FDFF12ABB012ABA77BFF7A3A795A8D
:103F92000240EF7BFF7A3A796B12000E900035EF08
:103FA200F0E4FDFF12ABB012ABA77BFF7A3A797750
:103FB2000240EF7BFF7A3A798212000E900035EFD1
:103FC200F0E4FDFF12ABB012ABA77BFF7A3A798225
:103FD2000240EF7BFF7A3A799712000E900035EF9C
:103FE200F0E4FDFF12ABB012ABA77BFF7A3A7997F0
:103FF2000240EF7BFF7A3A79C412000E900035EF4F
:10400200F0E4FDFF12ABB012ABA77BFF7A3A79C4A2
:104012000240EF7BFF7A3A79E112000E900035EF11
:10402200F0E4FDFF12ABB012ABA77BFF7A3A79E165
:104032000240EF7BFF7A3A79FE12000E900035EFD4
:10404200F0E4FDFF12ABB012ABA77BFF7A3A79FE28
:104052000240EF7BFF7A3B791D12000E900035EF94
:10406200F0E4FDFF12ABB012ABA77BFF7A3B791DE8
:104072000240EF7BFF7A3B793612000E900035EF5B
:10408200F0E4FDFF12ABB012ABA77BFF7A3B7936AF
:10409200805B7BFF7A3B794812000E900035EFF08F
:1040A200E4FDFF12ABB012ABA77BFF7A3B794880ED
:1040B2003C7BFF7A3B795D12000E900035EFF0E415
:1040C200FDFF12ABB012ABA77BFF7A3B795D801D7F
:1040D2007BFF7A3B796D12000E900035EFF0E4FD24
:1040E200FF12ABB012ABA77BFF7A3B796D7D011259
:1040F200A727D28722C28790002EE01226074143CB
:1041020055416956417257417B58418459418C5AF5
:1041120041945B419C5D41A45E41AC5F41B460410E
:10412200BC6141C4AA41CCAB41D4AC41DCAD41E459
:10413200AE41ECAF41F4B441FCB54204B6000042DA
:104142000D900036E0FEA3E0AA06F8AC027D017BEA
:10415200FF7A3B7983122894900036E0FEA3E0AA0E
:1041620006F97B0102420A7BFF7A3B799A02420AF4
:104172007BFF7A3B79B602420A7BFF7A3B79D60211
:10418200420A7BFF7A3B79F6807E7BFF7A3C791C80
:1041920080767BFF7A3C7933806E7BFF7A3C79466E
:1041A20080667BFF7A3C796C805E7BFF7A3C798704
:1041B20080567BFF7A3C79BA804E7BFF7A3C79DE6F
:1041C20080467BFF7A3D7902803E7BFF7A3D7928EB
:1041D20080367BFF7A3D7948802E7BFF7A3D79617C
:1041E20080267BFF7A3D797D801E7BFF7A3D799325
:1041F20080167BFF7A3D79AF800E7BFF7A3D79CEC8
:1042020080067BFF7A3D79EE12A3D9900036E0FE5C
:0F421200A3E0FF126CCDE4900036F0A3F0D2874A
:01422100227A
:0E678500900010EFF0A3EBF0A3EAF0A3E9F010
:1067930078147C007D017BFF7A3E79477E007F067B
:1067A300122442C287900144E060030268499000CA
:1067B30010E024A5604014600302684612A71F7B03
:1067C300FF7A3E790B12000E90001AEFF090001141
:1067D300E0FBA3E0FAA3E0F912000E90001AE02F09
:1067E30004F0E4FDFF12ABB090001A12ABAA7BFFDA
:1067F3007A3E790B803812A71F7BFF7A3E791412F9
:10680300000E90001AEFF0900011E0FBA3E0FAA352
:10681300E0F912000E90001AE02F04F0E4FDFF12DD
:10682300ABB090001A12ABAA7BFF7A3E79147D01BC
:1068330012A727900011E0FBA3E0FAA3E0F97D0182
:1068430012A727D28722C287900010E024A56017E1
:106853001460030268E4781B7C007D017BFF7A3EB1
:10686300791D122894803C781B7C007D017BFF7A84
:106873003E792D122894900011E0FBA3E0FAA3E0E7
:10688300F912000E90001AEFF024FFFFE434FFFE2C
:10689300900011E0FBA3E0FAA3E0F98F828E83E47A
:1068A3001224C0900011E0F9A3E0FAA3E090005D88
:1068B300C9F0A3EAF0A3E9F07B017A00791B12A2E5
:1068C3004890005D74FFF0A3743EF0A3742BF07B3B
:1068D300017A00791B12A2487B017A00791B12A36B
:0368E300D9D28780
:0168E600228F
:09ABA700900035E025E0FFE4FD1B
:05ABB00090003FEDF0F4
:10ABB50012A92D900040EFF090003FE0600AE4FFFD
:08ABC50012A92D900040EFF0F1
:01ABCD002265
:08A71F007B017A007914E4FDCE
:0EA7270090003AEBF0A3EAF0A3E9F0A3EDF006
:10A73500E4A3F090003AE0FBA3E0FAA3E0F990006F
:10A745003EE0F582758300122481FF601090003D84
:0DA75500E0FD12ABB090003EE004F080D6B5
:01A7620022D4
:0EA69300900024EBF0A3EAF0A3E9F0A3EDF0B1
:10A6A100E4900029F0900027E0FF900029E0FEC32C
:10A6B1009F5024900024E0FBA3E0FAA3E0F98E82EE
:10A6C100758300122481FF900028E0FD12ABB09049
:07A6D1000029E004F080CE37
:01A6D800225F
:0BA3D90090003AEBF0A3EAF0A3E9F0DB
:10A3E40012000E90003DEFF0E49001BAF090003DB1
:10A3F400E0FF9001BAE0C39F503390003AE0FBA322
:10A40400E0FAA3E0F9122468FF12A92D90003BE4BE
:10A4140075F001122549E4FFEFC394C87480948059
:0DA4240050030F80F39001BAE004F080C0F7
:01A431002208
:109FA400900144E07022C2877B017A0079151288FF
:109FB400E1C29C7B017A007910E4900028F07D0DC9
:109FC40012A693D29CD28722C287E4900010F07824
:109FD400107C007D017BFF7A3E793B1228947B0143
:109FE4007A00791012000E74102FF9E43400FA7B11
:109FF40001125B1990005D74FFF0A3743EF0A3742A
:10A004002BF07B017A00791012A2487B017A007947
:06A014001012A3D9D2874F
:01A01A002223
:100026000A20434F4E5452415345D1412041435437
:1000360055414C2056454E4349444120444542458E
:100046002052454E4F564152204645434841205680
:10005600454E43494D49454E544F200A0040232101
:10006600246046625E262A003A5B3C253F58545D72
:100076003D29000D0A0A25733E20002563002564EC
:10008600000D0A0A2041435455414C2049445F4320
:100096004C49454E54453D25730D0A0A000D0A0A82
:1000A60020444947495445205355204E5545564FFF
:1000B6002049445F434C49454E54453D000D0A0ACC
:1000C600204441544F204D4F444946494341444FF3
:1000D6002049445F434C49454E54453D25730D0A1E
:1000E6000A000D0A0A2041435455414C20434F440F
:1000F6005F5041524B3D25730D0A0A000D0A0A2036
:10010600444947495445205355204E5545564F209E
:10011600434F445F5041524B3D000D0A0A20444173
:10012600544F204D4F444946494341444F20434F85
:10013600445F5041524B3D25730D0A0A000D0A0AD1
:100146002041435455414C205449454D504F5F473B
:1001560052414349413D25730D0A0A000D0A0A2002
:10016600444947495445205355204E5545564F203E
:100176005449454D504F5F4752414349413D000D5B
:100186000A0A204441544F204D4F444946494341B1
:10019600444F205449454D504F5F475241434941D2
:1001A6003D25730D0A0A000D0A0A204143545541A4
:1001B6004C2053494E5F434F42524F20494E4841CF
:1001C60042494C495441444F3D25730D0A0A000DDE
:1001D6000A0A2041435455414C2053494E5F434F30
:1001E60042524F204752415449533D25730D0A0A46
:1001F600000D0A0A2041435455414C2053494E5F95
:10020600434F42524F20475241544953205920539D
:10021600414C49444120454C204D49534D4F2044C3
:1002260049413D25730D0A0A000D0A0A2044494733
:10023600495445205355204E5545564F2053494E57
:100246005F434F42524F3D000D0A0A204143545529
:10025600414C20444542554720494E484142494C6D
:10026600495441444F3D25730D0A0A000D0A0A20E0
:1002760041435455414C204445425547204841424C
:10028600494C495441444F3D25730D0A0A000D0A55
:100296000A2044494749544520454C204E55455669
:1002A6004F2045535441444F204445204445425530
:1002B600473D000D0A0A2041435455414C205553F1
:1002C600455F4C505220494E484142494C495441A1
:1002D600444F3D25730D0A0A000D0A0A2041435476
:1002E60055414C205553455F4C5052204841424998
:1002F6004C495441444F3D25730D0A0A000D0A0A24
:100306002044494749544520454C204E5545564FB3
:100316002045535441444F204445205553455F4C96
:1003260050523D000D0A0A2041435455414C20438A
:100336004F4D5041524143494F4E20414354495637
:100346004120494E484142494C495441444F3D257C
:10035600730D0A0A000D0A0A2041435455414C20E8
:10036600434F4D5041524143494F4E20414354491A
:1003760056412020484142494C495441444F3D256D
:10038600730D0A0A000D0A0A2044494749544520BC
:10039600454C204E5545564F2045535441444F2019
:1003A600444520434F4D5041524143494F4E204111
:1003B6004354495641203D000D0A0A2041435455F5
:1003C600414C20434F4D5041524143494F4E2041ED
:1003D60043544956412020494E484142494C4954CC
:1003E60041444F3D25730D0A0A000D0A0A2050416B
:1003F6004E54414C4C41204C434420484142494CC8
:1004060049544144413D25730D0A0A000D0A0A204C
:1004160050414E54414C4C4120524153504245525A
:1004260052592020484142494C49544144413D25B6
:10043600730D0A0A000D0A0A20444947495445200B
:10044600454C204E5545564F2045535441444F2068
:100456004445204C412050414E54414C4C41203D96
:10046600000D0A0A205041534120504F522043416B
:100476004A4120504152412056414C494441522064
:100486004443544F3D25730D0A0A000D0A0A2041C4
:10049600504C494341204445534355454E544F3DE6
:1004A60025730D0A0A000D0A0A2044494749544596
:1004B60020454C204E5545564F2045535441444FF8
:1004C600204445204443544F203D000D0A0A204154
:1004D600435455414C20414E544950415353424197
:1004E600434B204D454E5355414C20494E484142C1
:1004F600494C495441444F3D25730D0A0A000D0AE3
:100506000A2041435455414C20414E5449504153D1
:10051600534241434B204D454E5355414C20484193
:1005260042494C495441444F3D25730D0A0A000D7A
:100536000A0A2044494749544520454C204E554512
:10054600564F2045535441444F20444520414E5474
:1005560049504153534241434B204D454E5355411B
:100566004C3D000D0A0A2041435455414C20414E52
:100576005449504153534241434B20204D454E531D
:1005860055414C20484142494C495441444F3D2530
:10059600730D0A0A000D0A0A2041435455414C20A6
:1005A600414444524553535F484947485F424F418F
:1005B60052443D25730D0A0A000D0A0A2044494794
:1005C600495445204C41204E55455641204144440E
:1005D600524553535F484947485F424F4152443D55
:1005E600000D0A0A2041435455414C20484F5241C0
:1005F60052494F20494E484142494C495441444F83
:100606003D25730D0A0A000D0A0A2041435455413F
:100616004C20484F524152494F20484142494C498B
:100626005441444F3D25730D0A0A000D0A0A204421
:10063600494749544520454C204E5545564F20457F
:10064600535441444F20444520484F524152494F4C
:100656003D000D0A0A2044696769746520486F7277
:10066600612030383A3030204D696E75746F7320D2
:1006760044657364653A20000D0A0A20486F72616A
:100686002050726F6772616D6164612044657364A6
:10069600653A200025633A000D0A0A204469676915
:1006A600746520486F72613A4D696E75746F732078
:1006B60048617374613A20000D0A0A20486F72611E
:1006C6002050726F6772616D616461204861737456
:1006D600613A20000D0A2044657364652020486154
:1006E6007374610D0A002025630025632020200015
:1006F6000D0A0A20446967697465206C6F7320646B
:1007060069617320612070726F6772616D6172201A
:100716004C756E6573203D20322C20004D6172743D
:100726006573203D20332C204D696572636F6C65BF
:1007360073203D20342C204A7565766573203D2054
:10074600352C2000566965726E6573203D20362C67
:100756002053616261646F203D20372C20446F6D09
:10076600696E676F203D2031203A20000D0A0A206D
:10077600446961732050726F6772616D61646F7353
:10078600203A2000204C756E6573003D2025632CB1
:1007960000204D617274657300204D696572636F48
:1007A6006C657300204A7565766573002056696529
:1007B600726E6573002053616261646F0020446F3E
:1007C6006D696E676F003D20256300204C756E6570
:1007D60073203D2050726F6772616D61646F0D0A00
:1007E60000204C756E6573203D204E6F2070726F31
:1007F6006772616D61646F0D0A00204D61727465E8
:1008060073203D2050726F6772616D61646F0D0ACF
:1008160000204D6172746573203D204E6F2070720A
:100826006F6772616D61646F0D0A00204D696572B4
:10083600636F6C6573203D2050726F6772616D61E6
:10084600646F0D0A00204D696572636F6C657320D5
:100856003D204E6F2070726F6772616D61646F0D1F
:100866000A00204A7565766573203D2050726F67D1
:1008760072616D61646F0D0A00204A756576657355
:10088600203D204E6F2070726F6772616D61646FDC
:100896000D0A0020566965726E6573203D20507200
:1008A6006F6772616D61646F0D0A0020566965722B
:1008B6006E6573203D204E6F2070726F6772616D9A
:1008C60061646F0D0A002053616261646F203D20F0
:1008D60050726F6772616D61646F0D0A002053611B
:1008E6006261646F203D204E6F2070726F67726187
:1008F6006D61646F0D0A0020446F6D696E676F202D
:100906003D2050726F6772616D61646F0D0A002041
:10091600446F6D696E676F203D204E6F2070726F59
:100926006772616D61646F0D0A000D0A0A204469E1
:100936006769746520656C206E756D65726F2064DD
:10094600656C20486F726172696F20612070726FEA
:100956006772616D6172203D20000D0A0A20507297
:100966006F6772616D617220736567756E646F2063
:10097600486F726172696F2073693D283129206E54
:100986006F3D2830293D20000D0A0A204143545569
:10099600414C2046454348412056454E43494D4922
:1009A600454E544F2050415353574F52443A2573A6
:1009B6000D0A0A000D0A0A2F3E496420526567692E
:1009C6007374726F3A002573000D0A0A2F3E506148
:1009D6007373776F72643A000D0A0A2044494749D7
:1009E6005445204C41204E554556412046454348E6
:1009F600412044452056454E43494D49454E544FA6
:100A06003D000D0A0A2025730D0A0A000D0A0A2068
:100A16002558000D0A0A2041435455414C204645AD
:100A26004348412044452056454E43494D49454E8D
:100A3600544F2050524F4752414D414441203D258D
:100A4600730D0A0A000D0A206E756D65726F2064BB
:100A5600656C20486F726172696F202070726F67D3
:100A660072616D61646F203D2025630D0A000D0AD9
:100A76002020484F524152494F20484142494C4953
:100A86005441444F20203D204F4E0D0A000D0A20B0
:100A9600446961732050726F6772616D61646F7330
:100AA6000D0A000D0A2020534547554E444F204855
:100AB6004F524152494F20484142494C49544144C2
:100AC6004F20203D204F4E0D0A000D0A205345476A
:100AD600554E444F20484F524152494F20484142BB
:100AE600494C495441444F20203D204F46460D0A6B
:100AF600000D0A2020484F524152494F204841429A
:100B0600494C495441444F20203D204F46460D0A4A
:100B1600000D0A2049445F434C49454E54455F50F9
:100B2600524F4752414D41444F203D2025730D0AF7
:100B3600000D0A20434F445F5041524B5F50524FC5
:100B46004752414D41444F203D2025730D0A000D6B
:100B56000A205449454D504F5F4752414349412071
:100B660050524F4752414D41444F203D2025730D71
:100B76000A000D0A2053494E5F434F42524F204808
:100B86004142494C495441444F203D204F4646205E
:100B96000D0A000D0A2053494E5F434F42524F2023
:100BA6003D204F4E0D0A000D0A2050524F4752412C
:100BB6004D41444F204445425547203D204F4E0D60
:100BC6000A000D0A2050524F4752414D41444F20D2
:100BD6004445425547203D204F46460D0A000D0A22
:100BE600205553455F4C5052203D204F46460D0A36
:100BF600000D0A205553455F4C5052203D204F4E64
:100C06000D0A000D0A0A2020434F4D504152414320
:100C1600494F4E20414354495641203D204F4646B8
:100C26000D0A000D0A0A20434F4D504152414349D7
:100C36004F4E2041435449564120203D204F4E0DF2
:100C46000A000D0A2050414E54414C4C41204C4361
:100C5600442050524F4752414D4144410D0A000D28
:100C66000A2050414E54414C4C412052415350426F
:100C760045525259202050524F4752414D4144410E
:100C86000D0A000D0A0A2020414E54495041535383
:100C96004241434B204D454E5355414C203D204F3C
:100CA60046460D0A000D0A0A2020414E544950417D
:100CB60053534241434B204D454E5355414C203DE5
:100CC600204F4E0D0A0041435455414C20414444A7
:100CD600524553535F484947485F424F415244206B
:100CE60050524F4752414D414441203D2025730DFE
:100CF6000A000D0A2041435455414C2046454348BD
:100D0600412044452056454E43494D49454E544F92
:100D16002050524F4752414D414441203D25730DCD
:100D26000A000D0A2049445F434C49454E5445206C
:100D36002020202D2D2D20434D4420302049646550
:100D46006E746966696361646F722064656C2063A2
:100D56006C69656E7465206D6178696D6F203235DA
:100D660035000D0A20434F445F5041524B2020204E
:100D76002020202D2D2D20434D44203120456C2050
:100D86006E756D65726F2064656C20706172717529
:100D960065616465726F206D6178696D6F203235AB
:100DA60035000D0A20545F47524143494120202017
:100DB6002020202D2D2D20434D44203220546965BE
:100DC6006D706F2073696E20636F62726F203030B2
:100DD6002C20206D6178696D6F20323535000D0A43
:100DE6002053494E5F434F42524F20202020202D52
:100DF6002D2D20434D44203320496E686162696C75
:100E0600697461646F3D20302C2047726174697388
:100E16003D2031202C20477261746973207920733C
:100E2600616C69646120656C206D69736D6F206407
:100E360069613D2032000D0A204445425547202075
:100E4600202020202020202D2D2D20434D442034ED
:100E560020486162696C69746172203D20312C20E2
:100E6600496E686162696C69746172203D20300068
:100E76000D0A205553455F4C50522020202020203B
:100E8600202D2D2D20434D44203520486162696C6C
:100E960069746172203D20312C20496E6861626957
:100EA6006C69746172203D2030000D0A20434F4D5D
:100EB6005041524143494F4E5F41435449564120A8
:100EC6002D2D2D20434D44203620486162696C69E2
:100ED600746172203D20312C20496E686162696C14
:100EE60069746172203D2030000D0A205449504F2C
:100EF6005F50414E54414C4C4120202020202D2D46
:100F06002D20434D442037202830292070616E74EF
:100F1600616C6C61206C6364202073657269652066
:100F260028312920726173706265727279206F2090
:100F3600626C7565746F6F7468000D0A20444354C3
:100F46004F5F504153415F43414A412020202020BA
:100F56002D2D2D20434D4420382028302920706126
:100F6600736120706F722063616A612028312920C5
:100F760061706C69636120656C2064657363756577
:100F86006E746F000D0A205553455F4150425F4D08
:100F9600454E5355414C202020202D2D2D20434DCC
:100FA60044203920486162696C69746172203D2071
:100FB600312C20496E686162696C69746172203DEA
:100FC6002030000D0A20414444524553535F48499E
:100FD60047485F424F415244202D2D2D20434D441A
:100FE600203130204C6120646972656363696F6EDD
:100FF60020616C74612064656C20626F617264208C
:1010060064656C206E756D65726F203520616C208D
:10101600392073696E6F207365207573612064656E
:10102600626520697220656E2030000D0A20484FE7
:10103600524152494F2020202020202020202020CD
:10104600202D2D2D20434D442031312050726F67C5
:10105600616D6120313020686F726172696F732033
:1010660064656C203120616C203130000D0A2056F9
:1010760045525F50524F4752414D4143494F4E20D2
:1010860020202D2D2D20434D44203132204D7565D5
:1010960073747261206C612070726F6772616D612A
:1010A60063696F6E000D0A20415955444120202086
:1010B6002020202020202D2D2D20434D442031336B
:1010C600204D756573747261206C6F7320636F6D4C
:1010D600616E646F73000D0A2053414C4952202003
:1010E600202020202020202D2D2D20434D4420314E
:1010F600342053616C69722064652070726F677268
:10110600616D6163696F6E000D0A0A5369737465D8
:101116006D612064652050726F6772616D616369ED
:101126006F6E207665726966696361646F72206CA2
:10113600696E74656368200D0A0D0A000D0A436F17
:101146006D616E646F206E6F2065786973746520BB
:1011560027257327003A5B3C253F58545D3D2900FF
:10116600232A594A41494D4563616D696C744B00A8
:1011760077727A32357136382D393166532E400002
:0C118600200D0A00200D0A00220D0A00B6
:108859005402182F00000000000000000000000072
:108869000000000000000049020F61646D696E009C
:108879000000006030022C3000003100003200009E
:10888900330000340000350000360000370000389E
:10889900000039000031300031310031320031330C
:0788A90000313400313500FD
:0B532F00900071EBF0A3EAF0A3E9F09E
:10533A0078767C007D017BFF7A11795B7E007F0B9A
:10534A0012244278817C007D017BFF7A1179667E86
:10535A00007F1012244278917C007D017BFF7A1134
:10536A0079767E007F101224427B017A0079AC7F25
:10537A00507E0312A2B37B017A0079AC128BE3EF61
:10538A003395E0FEEF64014E60177BFF7A007926C1
:10539A001235C978767C007D017BFF7A00796380BB
:1053AA000C78767C007D017BFF7A00796E12289456
:1053BA00900071E0FBA3E0FAA3E0F912000E90005E
:1053CA0074EFF0E4A3F0900075E0FFC3940A7480D0
:1053DA0094804003025532900071E0FBA3E0FAA3E7
:1053EA00E0F98F82758300122481FD7C0074762F88
:1053FA00F582E43400F583E02DFFEC3390020BF0E4
:10540A00A3EFF07E00540FFFA3EEF0A3EFF0700BB2
:10541A00E004F0700690020DE004F090020DE0FE48
:10542A00A3E02480F58274003EF583E07E002DFF20
:10543A00EE3C90020BF0A3EFF07E00540FFFA3EEB8
:10544A00F0A3EFF0700BE004F0700690020DE00498
:10545A00F090020DE0FEA3E02490F58274003EF580
:10546A0083E0FF90020BE0FEA3E06FFF90020BEED9
:10547A00F0FEA3EFF0D394FFEE9400400590020BE8
:10548A00E4F090020BE0FEA3E0FFC3947AEE9400EE
:10549A004015D3EF94FFEE9400500CEF547AFF902E
:1054AA00020BE4F0A3EFF0C390020CE094309002F8
:1054BA000BE09400500CA3E02440F090020BE0347F
:1054CA0000F090020BE0FEA3E0FFC3945BEE9400B1
:1054DA004014D3EF9460EE9400500BE02407F09050
:1054EA00020BE03400F090020BE0FEA3E0FFC3944D
:1054FA003AEE94004014D3EF9440EE9400500BE03F
:10550A0024F9F090020BE034FFF090020BA3E0FFC5
:10551A00900075E024A1F582E43400F583EFF09061
:10552A000075E004F00253D0E49000ABF07B017AFE
:03553A000079A154
:01553D00224B
:0BA3190090005AEBF0A3EAF0A3E9F07B
:10A32400E4900060F0900060E0FFC39410748094A7
:10A33400805041EF75F003A4242CF9740235F0FA2F
:10A344007B01785D7C007D01122894785D7C007D22
:10A354000190005AE0FBA3E0FAA3E0F91227ABEF67
:10A364003395E04F7006900060E0FF22900060E0BB
:06A3740004F080B17FFF40
:01A37A0022C0
:08A7EA00E0FBA3E0FAA3E0F993
:0BA7F200900071EBF0A3EAF0A3E9F087
:10A7FD0078747C007D017B017A02790F12289478A0
:10A80D00747C007D01900071E0FBA3E0FAA3E0F9F8
:0EA81D001227ABEF3395E04F7002FF227FFF52
:01A82B00220A
:06A8AE007B017A00793203
:0BA8B400900071EBF0A3EAF0A3E9F0C4
:10A8BF0078747C007D017BFF7A1179867E007F049E
:10A8CF0012244290007B7401F0A37400F0A37474FF
:0FA8DF00F0900071E0FBA3E0FAA3E0F902830020
:1096BB00E0FBA3E0FAA3E02FF9EA3EFAE92401F973
:0396CB00E43AFA84
:0B96CE0090005AEBF0A3EAF0A3E9F0D3
:1096D900785D7C007D017BFF7A11798A7E007F04A9
:1096E90012244278617C007D017BFF7A11798E7E9C
:1096F900007F0412244290005AE0FBA3E0FAA3E0A1
:10970900F9122468FFB4200C90005BE475F0011293
:10971900254980E2EF90007BB4220D7401F0A37417
:1097290000F0A37461F080167401F0A37400F0A333
:10973900745DF090005AE0FBA3E0FAA3E0F912830C
:01974900001F
:01974A0022FC
:10AD2D009000B37401F0A37402F0A37418F07BFFCC
:07AD3D007A0079790235C9A3
:089DA8007A0079777B01E4FDEC
:0E9DB000900085EBF0A3EAF0A3E9F0A3EDF03C
:109DBE0012AE0A900085E0FBA3E0FAA3E0F9EF12E1
:109DCE0024AE900088E0701D900085E0FBA3E0FAC1
:109DDE00A3E0F91224689000B3F07BFF7A0079813A
:109DEE001235C980057F2A12A92D900085E0FBA3AC
:109DFE00E0FAA3E0F9122468FF7E00900086E47575
:109E0E00F001122549900085E0FBA3E0FAA3E0F9EA
:099E1E00E41224AEEF640D70970C
:019E27002218
:108C9E00E4FDFC7FA812A9AC7E00900064EEF0A368
:108CAE00EFF09000B374FFF0A37400F0A37484F09F
:108CBE00A3EEF0A3EFF07B017A00795A1235C39040
:108CCE0000B37401F0A37400F0A3745AF07BFF7A22
:108CDE000079871235C97BFF7A0079A31235C97ADC
:108CEE0000795A129DAC7B017A00795A1284C29097
:108CFE000064EEF0A3EFF0FBE4FDFC7FA812A449A4
:108D0E00E4FDFC7FA812A9AC7E00900064EEF0A3F7
:108D1E00EFF09000B374FFF0A37400F0A37484F02E
:108D2E00A3EEF0A3EFF07B017A00795A1235C390CF
:108D3E0000B37401F0A37400F0A3745AF07BFF7AB1
:068D4E000079C30235C9E3
:108A69007D027C007FA812A9AC7E00900064EEF024
:108A7900A3EFF09000B374FFF0A37400F0A3748423
:108A8900F0A3EEF0A3EFF07B017A00795A1235C317
:108A99009000B37401F0A37400F0A3745AF07BFF43
:108AA9007A0079E81235C97BFF7A0179021235C952
:108AB9007B017A00795AE4FD129DB07B017A007935
:108AC9005A1284C2900064EEF0A3EFF0FB7D027CA1
:108AD900007FA812A4497D027C007FA812A9AC7E60
:108AE90000900064EEF0A3EFF09000B374FFF0A3E0
:108AF9007400F0A37484F0A3EEF0A3EFF07B017A85
:108B090000795A1235C39000B37401F0A37400F0D0
:0D8B1900A3745AF07BFF7A0179200235C960
:108B26007D047C007FA812A9AC7E00900064EEF064
:108B3600A3EFF09000B374FFF0A37400F0A3748465
:108B4600F0A3EEF0A3EFF07B017A00795A1235C359
:108B56009000B37401F0A37400F0A3745AF07BFF85
:108B66007A0179431235C97BFF7A0179621235C9D8
:108B76007B017A00795AE4FD129DB07B017A007977
:108B86005A1284C2900064EEF0A3EFF0FB7D047CE1
:108B9600007FA812A4497D047C007FA812A9AC7EA0
:108BA60000900064EEF0A3EFF09000B374FFF0A322
:108BB6007400F0A37484F0A3EEF0A3EFF07B017AC7
:108BC60000795A1235C39000B37401F0A37400F013
:0D8BD600A3745AF07BFF7A0179850235C93E
:106E0C007D067C007FA812A9AC7E00900064EEF099
:106E1C00A3EFF09000B374FFF0A37400F0A374849C
:106E2C00F0A3EEF0A3EFF07B017A00795A1235C390
:106E3C00900064E07002A3E070159000B304F0A31E
:106E4C007400F0A3745AF07BFF7A0179AD80359011
:106E5C000064E07004A3E0640170159000B304F0CA
:106E6C00A37400F0A3745AF07BFF7A0179D58014D7
:106E7C009000B37401F0A37400F0A3745AF07BFF7C
:106E8C007A0179F71235C97BFF7A02792F1235C94D
:106E9C007B017A00795AE4FD129DB07B017A00796E
:106EAC005A1284C2900064EEF0A3EFF0FB7D067CD6
:106EBC00007FA812A4497D067C007FA812A9AC7E95
:106ECC0000900064EEF0A3EFF09000B374FFF0A319
:106EDC007400F0A37484F0A3EEF0A3EFF07B017ABE
:106EEC0000795A1235C3900064E07002A3E070156B
:106EFC009000B304F0A37400F0A3745AF07BFF7AF3
:106F0C000179AD8035900064E07004A3E0640170F9
:106F1C00159000B304F0A37400F0A3745AF07BFF37
:106F2C007A0179D580149000B37401F0A37400F049
:0D6F3C00A3745AF07BFF7A0179F71235C972
:016F49002225
:107B39007D087C007FA812A9AC7E00900064EEF05D
:107B4900A3EFF09000B374FFF0A37400F0A3748462
:107B5900F0A3EEF0A3EFF07B017A00795A1235C356
:107B6900900064E07002A3E070159000B304F0A3E4
:107B79007400F0A3745AF07BFF7A02794E80149056
:107B890000B37401F0A37400F0A3745AF07BFF7A78
:107B99000279721235C97BFF7A0279941235C97B51
:107BA900017A00795AE4FD129DB07B017A00795A75
:107BB9001284C2900064EEF0A3EFF0FB7D087C0014
:107BC9007FA812A4497D087C007FA812A9AC7E0079
:107BD900900064EEF0A3EFF09000B374FFF0A3748B
:107BE90000F0A37484F0A3EEF0A3EFF07B017A0018
:107BF900795A1235C3900064E07002A3E0701590C1
:107C090000B304F0A37400F0A3745AF07BFF7A0266
:107C1900794E80149000B37401F0A37400F0A3743A
:0B7C29005AF07BFF7A0279721235C915
:017C3400222D
:107C35007D0A7C007FA812A9AC7E00900064EEF05E
:107C4500A3EFF09000B374FFF0A37400F0A3748465
:107C5500F0A3EEF0A3EFF07B017A00795A1235C359
:107C6500900064E07002A3E070159000B304F0A3E7
:107C75007400F0A3745AF07BFF7A0279B9801490EE
:107C850000B37401F0A37400F0A3745AF07BFF7A7B
:107C95000279DF1235C97BFF7A0379031235C97B77
:107CA500017A00795AE4FD129DB07B017A00795A78
:107CB5001284C2900064EEF0A3EFF0FB7D0A7C0015
:107CC5007FA812A4497D0A7C007FA812A9AC7E007A
:107CD500900064EEF0A3EFF09000B374FFF0A3748E
:107CE50000F0A37484F0A3EEF0A3EFF07B017A001B
:107CF500795A1235C3900064E07002A3E0701590C4
:107D050000B304F0A37400F0A3745AF07BFF7A0269
:107D150079B980149000B37401F0A37400F0A374D2
:0B7D25005AF07BFF7A0279DF1235C9AB
:017D30002230
:107D31007D0C7C007FA812A9AC7E00900064EEF05F
:107D4100A3EFF09000B374FFF0A37400F0A3748468
:107D5100F0A3EEF0A3EFF07B017A00795A1235C35C
:107D6100900064E07002A3E070159000B304F0A3EA
:107D71007400F0A3745AF07BFF7A03792A8014907F
:107D810000B37401F0A37400F0A3745AF07BFF7A7E
:107D910003795B1235C97BFF7A03798B1235C97B75
:107DA100017A00795AE4FD129DB07B017A00795A7B
:107DB1001284C2900064EEF0A3EFF0FB7D0C7C0016
:107DC1007FA812A4497D0C7C007FA812A9AC7E007B
:107DD100900064EEF0A3EFF09000B374FFF0A37491
:107DE10000F0A37484F0A3EEF0A3EFF07B017A001E
:107DF100795A1235C3900064E07002A3E0701590C7
:107E010000B304F0A37400F0A3745AF07BFF7A036B
:107E110079BE80149000B37401F0A37400F0A374D0
:0B7E21005AF07BFF7A03795B1235C931
:017E2C002233
:107E2D007D0E7C007FA812A9AC7E00900064EEF060
:107E3D00A3EFF09000B374FFF0A37400F0A374846B
:107E4D00F0A3EEF0A3EFF07B017A00795A1235C35F
:107E5D00900064E07002A3E070159000B304F0A3ED
:107E6D007400F0A3745AF07BFF7A0379F0801490BC
:107E7D0000B37401F0A37400F0A3745AF07BFF7A81
:107E8D000479121235C97BFF7A04793B1235C97B0F
:107E9D00017A00795AE4FD129DB07B017A00795A7E
:107EAD001284C2900064EEF0A3EFF0FB7D0E7C0017
:107EBD007FA812A4497D0E7C007FA812A9AC7E007C
:107ECD00900064EEF0A3EFF09000B374FFF0A37494
:107EDD0000F0A37484F0A3EEF0A3EFF07B017A0021
:107EED00795A1235C3900064E07002A3E0701590CA
:107EFD0000B304F0A37400F0A3745AF07BFF7A036F
:107F0D0079F080149000B37401F0A37400F0A374A1
:0B7F1D005AF07BFF7A0479121235C97C
:017F28002236
:107F29007D0F7C007FA812A9AC7E00900064EEF062
:107F3900A3EFF09000B374FFF0A37400F0A374846E
:107F4900F0A3EEF0A3EFF07B017A00795A1235C362
:107F5900900064E07002A3E070159000B304F0A3F0
:107F69007400F0A3745AF07BFF7A04796780149047
:107F790000B37401F0A37400F0A3745AF07BFF7A84
:107F89000479911235C97BFF7A0479AC1235C97B22
:107F9900017A00795AE4FD129DB07B017A00795A81
:107FA9001284C2900064EEF0A3EFF0FB7D0F7C0019
:107FB9007FA812A4497D0F7C007FA812A9AC7E007E
:107FC900900064EEF0A3EFF09000B374FFF0A37497
:107FD90000F0A37484F0A3EEF0A3EFF07B017A0024
:107FE900795A1235C3900064E07002A3E0701590CD
:107FF90000B304F0A37400F0A3745AF07BFF7A0471
:10800900796780149000B37401F0A37400F0A3742D
:0B8019005AF07BFF7A0479911235C900
:018024002239
:108025007D157C007FA812A9AC7E00900064EEF05F
:10803500A3EFF09000B374FFF0A37400F0A3748471
:10804500F0A3EEF0A3EFF07B017A00795A1235C365
:10805500900064E07002A3E070159000B304F0A3F3
:108065007400F0A3745AF07BFF7A0479D1801490E0
:1080750000B37401F0A37400F0A3745AF07BFF7A87
:108085000579041235C97BFF7A0579351235C97B27
:10809500017A00795AE4FD129DB07B017A00795A84
:1080A5001284C2900064EEF0A3EFF0FB7D157C0016
:1080B5007FA812A4497D157C007FA812A9AC7E007B
:1080C500900064EEF0A3EFF09000B374FFF0A3749A
:1080D50000F0A37484F0A3EEF0A3EFF07B017A0027
:1080E500795A1235C3900064E07002A3E0701590D0
:1080F50000B304F0A37400F0A3745AF07BFF7A0474
:1081050079D180149000B37401F0A37400F0A374C6
:0B8115005AF07BFF7A0579691235C92A
:01812000223C
:1083E4007D127C007FA812A9AC7E00900064EEF0A0
:1083F400A3EFF09000B374FFF0A37400F0A37484AF
:10840400F0A3EEF0A3EFF07B017A00795A1235C3A2
:10841400900064E07002A3E070069000B30480054D
:108424009000B37401F0A37400F0A3745AF07BFFBE
:108434007A05799B1235C97BFF7A0579BF1235C954
:108444007B017A00795AE4FD129DB07B017A0079B0
:108454005A1284C2900064EEF0A3EFF0FB7D127C0C
:10846400007FA812A4497D127C007FA812A9AC7ECB
:1084740000900064EEF0A3EFF09000B374FFF0A35B
:108484007400F0A37484F0A3EEF0A3EFF07B017A00
:1084940000795A1235C3900064E07002A3E07006BC
:1084A4009000B30480059000B37401F0A37400F04D
:0D84B400A3745AF07BFF7A05799B1235C93D
:0184C1002298
:10AACD009000887419F0A37432F0A3744BF0A37442
:10AADD0064F0A3747DF0A37496F0A374AFF0A37427
:10AAED00C8F0A374E1F0A374FAF0E4A3F07B017A4B
:03AAFD0000798855
:01AB00002232
:0A72D200900075EEF0FCA3EFF0FD54
:1072DC007FA812A9AC7E00900081EEF0A3EFF09095
:1072EC0000B374FFF0A37400F0A37484F0A3EEF069
:1072FC00A3EFF07B017A0079771235C3900081E01F
:10730C007002A3E070159000B304F0A37400F0A316
:10731C007477F07BFF7A0579E780149000B37401E1
:10732C00F0A37400F0A37477F07BFF7A06790D124A
:10733C0035C97BFF7A0679311235C97B017A007920
:10734C0077E4FD129DB07B017A0079771284C290AC
:10735C000081EEF0A3EFF0900075E0FCA3E0FDAB34
:10736C00077FA812A449900075E0FCA3E0FD7FA85C
:10737C0012A9AC7E00900081EEF0A3EFF09000B368
:10738C0074FFF0A37400F0A37484F0A3EEF0A3EFE9
:10739C00F07B017A0079771235C3900081E070029E
:1073AC00A3E09000837018F0A3F09000B304F0A356
:1073BC007400F0A37477F07BFF7A0579E78017E40B
:1073CC00F0A304F09000B3F0A37400F0A37477F072
:0F73DC007BFF7A06790D1235C9900083A3E0FF7D
:0173EB00227F
:08553E00900075EEF0A3EFF000
:105546007BFF7A0679581235C9129DA87BFF7A0629
:10555600797E1235C9900076E02407FD900075E04B
:105566003400FC900077E0FB7FA812A449900076F7
:10557600E02407FD900075E03400FC7FA812A9AC7A
:105586007BFF7A0079819000B3EFF01235C9900065
:1055960076E02408FD900075E03400FC900078E089
:1055A600FB7FA812A449900076E02408FD900075C0
:1055B600E03400FC7FA812A9AC7BFF7A06799A90AA
:1055C60000B3EFF01235C9900076E02409FD900093
:1055D60075E03400FC90007AE0FB7FA812A44990A5
:1055E6000076E02409FD900075E03400FC7FA812E7
:1055F600A9AC7BFF7A0079819000B3EFF01235C930
:10560600900076E0240AFD900075E03400FC9000DE
:105616007BE0FB7FA812A449900076E0240AFD9067
:105626000075E03400FC7FA812A9AC7BFF7A0079F4
:10563600819000B3EFF01235C97BFF7A06799E128E
:1056460035C9129DA87BFF7A0679BE1235C990002E
:1056560076E0240BFD900075E03400FC900077E0C6
:10566600FB7FA812A449900076E0240BFD900075FC
:10567600E03400FC7FA812A9AC7BFF7A0079819008
:1056860000B3EFF01235C9900076E0240CFD9000CF
:1056960075E03400FC900078E0FB7FA812A44990E6
:1056A6000076E0240CFD900075E03400FC7FA81223
:1056B600A9AC7BFF7A06799A9000B3EFF01235C950
:1056C600900076E0240DFD900075E03400FC90001B
:1056D6007AE0FB7FA812A449900076E0240DFD90A5
:1056E6000075E03400FC7FA812A9AC7BFF7A007934
:1056F600819000B3EFF01235C9900076E0240EFDDC
:10570600900075E03400FC90007BE0FB7FA812A4BB
:1057160049900076E0240EFD900075E03400FC7F91
:10572600A812A9AC7BFF7A0079819000B3EFF00252
:0257360035C973
:0873EC00900088EEF0A3EFF021
:1073F4007BFF7A0679DA1235C9900089E02407FD0B
:10740400900088E03400FC7FA812A9AC7BFF7A06C8
:1074140079EC9000B3EFF01235C9900089E02408AC
:10742400FD900088E03400FC7FA812A9AC7BFF7AB1
:1074340006799A9000B3EFF01235C9900089E024E0
:1074440009FD900088E03400FC7FA812A9AC7BFF02
:107454007A0079819000B3EFF01235C9900089E089
:10746400240AFD900088E03400FC7FA812A9AC7BBC
:10747400FF7A0679F09000B3EFF01235C9900089D5
:10748400E0240BFD900088E03400FC7FA812A9AC36
:107494007BFF7A0079819000B3EFF01235C9900038
:1074A40089E0240CFD900088E03400FC7FA812A938
:1074B400AC7BFF7A06799A9000B3EFF01235C9904D
:1074C4000089E0240DFD900088E03400FC7FA812C0
:1074D400A9AC7BFF7A0079819000B3EFF01235C933
:1074E400900089E0240EFD900088E03400FC7FA821
:1074F40012A9AC7BFF7A0079819000B3EFF00235DA
:01750400C9BD
:084E5E00900075EEF0A3EFF0E7
:104E66007BFF7A0679F61235C97BFF7A077922121B
:104E760035C97BFF7A07794A1235C97B017A0079F1
:104E860077E4FD129DB07BFF7A0779721235C9E48B
:104E9600900082F0900082E0FFC3940874809480B2
:104EA600400302511474772FF582E43400F583E051
:104EB600900083F0643270437BFF7A07798A12355B
:104EC600C9900076E02401FD900075E03400FC7B7B
:104ED600327FA812A449900076E02401FD90007567
:104EE600E03400FC7FA812A9AC900081EFF07BFFB4
:104EF6007A0779919000B3F01235C9900082E024C8
:104F060077F582E43400F583E0900083F064337033
:104F1600437BFF7A0779971235C9900076E0240221
:104F2600FD900075E03400FC7B337FA812A4499005
:104F36000076E02402FD900075E03400FC7FA812A4
:104F4600A9AC900081EFF07BFF7A0779919000B3CE
:104F5600F01235C9900082E02477F582E43400F53A
:104F660083E0900083F0643470437BFF7A07799F77
:104F76001235C9900076E02403FD900075E03400F8
:104F8600FC7B347FA812A449900076E02403FD90B0
:104F96000075E03400FC7FA812A9AC900081EFF008
:104FA6007BFF7A0779919000B3F01235C9900082A1
:104FB600E02477F582E43400F583E0900083F06422
:104FC6003570437BFF7A0779AA1235C9900076E0DF
:104FD6002404FD900075E03400FC7B357FA812A404
:104FE60049900076E02404FD900075E03400FC7FD3
:104FF600A812A9AC900081EFF07BFF7A0779919017
:1050060000B3F01235C9900082E02477F582E434CB
:1050160000F583E0900083F0643670437BFF7A07E7
:1050260079B21235C9900076E02405FD900075E04E
:105036003400FC7B367FA812A449900076E0240554
:10504600FD900075E03400FC7FA812A9AC900081A9
:10505600EFF07BFF7A0779919000B3F01235C99093
:105066000082E02477F582E43400F583E090008343
:10507600F0643770437BFF7A0779BB1235C990001D
:1050860076E02406FD900075E03400FC7B377FA8AF
:1050960012A449900076E02406FD900075E03400E5
:1050A600FC7FA812A9AC900081EFF07BFF7A07790C
:1050B600919000B3F01235C9900082E02477F58212
:1050C600E43400F583E0900083F0643170377BFFB1
:1050D6007A0779C31235C9900075E0FCA3E0FD7B21
:1050E600317FA812A449900075E0FCA3E0FD7FA8DB
:1050F60012A9AC900081EFF07BFF7A0779CC900083
:0E510600B3F01235C9900082E004F0024E9A18
:015114002278
:0871AA00900088EEF0A3EFF065
:1071B2002401FDE43EFC7FA812A9AC90008AEFF006
:1071C20064327BFF70067A0779D180047A0779E707
:1071D2001235C9900089E02402FD900088E0340055
:1071E200FC7FA812A9AC90008AEFF064337BFF7099
:1071F200067A08790080047A0879171235C9900056
:1072020089E02403FD900088E03400FC7FA812A9E5
:10721200AC90008AEFF064347BFF70067A08793113
:1072220080047A08794B1235C9900089E02404FD64
:10723200900088E03400FC7FA812A9AC90008AEF8D
:10724200F064357BFF70067A08796880047A0879E1
:107252007F1235C9900089E02405FD900088E03452
:1072620000FC7FA812A9AC90008AEFF064367BFF85
:1072720070067A08799980047A0879B11235C99032
:107282000089E02406FD900088E03400FC7FA8120B
:10729200A9AC90008AEFF064377BFF70067A087918
:1072A200CC80047A0879E31235C9900088E0FCA307
:1072B200E0FD7FA812A9AC90008AEFF064317BFF59
:0F72C20070067A0879FD80047A0979151235C9AA
:0172D100229A
:106A480012AACD78647C007D011228947BFF7A0914
:106A580079301235C97B017A00795AE4FD129DB06C
:106A68007B017A00795A1284C2EF14900074F0E026
:106A78002464F582E43400F583E0FF7E0090006F23
:106A8800EEF0A3EFF0A3EEF0A3EFF0900070E02497
:106A98000FF090006FE03400F0E0FEA3E0FF127208
:106AA800D2900071E0FFA3E090006FCFF0A3EFF069
:106AB8009000747401F0900074E0FFC3940874802F
:106AC8009480501C900070E02FFD90006FE034001F
:106AD800FC7BFF7FA812A449900074E004F080D6E4
:106AE800900071E0FEA3E0FF90006FEEF0A3EFF0DE
:106AF800124E5E90006FE0FEA3E0FF12553E7BFF52
:106B08007A0979601235C97B017A00795AE4FD1255
:106B18009DB07B017A00795A1284C2900073EFF01D
:106B2800FB900070E02410FD90006FE03400FC7FC3
:106B3800A812A449900070E02410FD90006FE03482
:106B480000FC7FA812A9AC900073EFF09000B3741A
:106B5800FFF0A37400F0A37484F0A3EFF07B017A34
:106B680000795A1235C3900073E0640170169000E2
:106B780070E0240AF090006FE03400F0E0FEA3E03B
:046B8800FF12553E65
:016B8C0022E6
:105738007B017A00795A7F507E0312A2B3900074DD
:105748007401F0A37400F0A37468F07B017A007907
:105758005A1295089000B37401F0A37400F0A37472
:1057680068F07BFF7A09798E1235C97BFF7A09794F
:10577800BA1235C97B017A00795A7F007E0312A2DA
:10578800B39000B37401F0A37400F0A3745AF07BD3
:10579800FF7A0979CC1235C97B017A00795A1253FC
:1057A8002F780F7C027D011228947BFF7A0979CF2C
:1057B8001235C97B017A00795A7D01129DB07B01AF
:1057C8007A00795A12A8B4900065EBF0A3EAF0A326
:1057D800E9F07B017A02790F7F007E0312A1019024
:1057E800006512A7EAEF70837BFF7A0979DE12352C
:1057F800C97B017A00795AE4FD129DB09000B37418
:1058080001F0A37400F0A3745AF07BFF7A0A7908B8
:105818001235C990005AE0900068F090005BE09063
:105828000069F0E4A3F07B017A0079681284C290E1
:10583800006FEEF0A3EFF07BFF7A0A79129000B3C5
:10584800EEF0A3EFF01235C990006FA3E0FB7D5096
:105858007C037FA812A44990005CE0900068F09057
:10586800005DE0900069F0E4A3F07B017A007968BC
:105878001284C290006FEEF0A3EFF07BFF7A0A79F2
:10588800129000B3EEF0A3EFF01235C990006FA3A9
:10589800E0FB7D517C037FA812A44990005EE09054
:1058A8000068F090005FE0900069F0E4A3F07B01ED
:1058B8007A0079681284C290006FEEF0A3EFF07B53
:1058C800FF7A0A79129000B3EEF0A3EFF01235C90F
:1058D80090006FA3E0FB7D527C037FA812A449E4EB
:1058E800FB7D537C037FA812A4497B017A00795A77
:1058F8007F507E0312A2B39000747401F0A3740069
:10590800F0A37468F07B017A00795A129508900028
:10591800B37401F0A37400F0A37468F07BFF7A0AF3
:0559280079190235C9E8
:106F4A0012AACD78777C007D01122894E490008201
:106F5A00F0900082E0FFC3940A7480948040030298
:106F6A0070807BFF7A0A794BEF24319000B3F012DC
:106F7A0035C9900082E02477F582E43400F583E095
:106F8A00FF7E00900083EEF0A3EFF0A3EEF0A3EFF4
:106F9A00F0900084E0240FF0900083E03400F0E0E9
:106FAA00FCA3E0FD7FA812A9AC900087EFF0900047
:106FBA00B374FFF0A37400F0A37484F0A3EFF07B22
:106FCA00017A00796D1235C3900087E0640160038D
:106FDA0002706E7BFF7A0A79741235C97BFF7A0ACE
:106FEA0079931235C9900085E0FEA3E0FF900083F3
:106FFA00EEF0A3EFF01271AA900083E0FEA3E0FF87
:10700A001273EC900084E02410FD900083E03400B9
:10701A00FC7FA812A9AC900087EFF09000B374FF30
:10702A00F0A37400F0A37484F0A3EFF07B017A005C
:10703A00796D1235C3900087E064017BFF701F7A77
:10704A000A79A91235C9900084E0240AF0900083D5
:10705A00E03400F0E0FEA3E0FF1273EC800F7A0A3E
:10706A0079D080067BFF7A0A79F71235C9900082B7
:06707A00E004F0026F5B70
:0170800022ED
:10422200E4FDFC7FA812A9AC7E00900064EEF0A32E
:10423200EFF09000B374FFF0A37400F0A37484F065
:10424200A3EEF0A3EFF07B017A00795A1235C39006
:1042520000B37401F0A37400F0A3745AF07BFF7AE8
:104262000B79171235C97D027C007FA812A9AC7E9A
:1042720000900064EEF0A3EFF09000B374FFF0A39F
