:108115004100F30A410126004101310041012700D8
:108125004101370041012E00420128000041013084
:0D8135000641013803410136F2C10AC109BB
:03000B000298A5B3
:1098A500C0E0C083C0829000F3E06401700604F05C
:1098B500C28D801C9000F3E014F0900126E004F0C6
:1098C500900129E004F07006900128E004F0C28DB3
:0798D500D082D083D0E03205
:109BEA00E58954F04401F589E4F58CF58AD28C2292
:059C7800C28DD2A922FB
:039C8700C2A9224D
:0B9C19001299DDEFF47002EEF460F52C
:019C2400221D
:059778009000BBEFF0C2
:10977D009000BBE0FF129830EF3395E04F6024E48A
:10978D009000BCF0A3F0C39000BDE094E89000BC45
:10979D00E0940350DBA3E004F070EB9000BCE00418
:0897AD00F080E39000BBE0FF37
:0197B5002291
:0E94DB00900034EBF0A3EAF0A3E9F0A3EDF06B
:1094E900E4A3F0900037E0FFA3E0C39F5029900068
:1094F90034E0FBA3E0FAA3E0F9122236FF129778D1
:10950900900039EFF0900035E475F00112231790BF
:079519000038E004F080CCF3
:019520002228
:109BFA00129C82129C41129C25C283D287C2972250
:108A4700129BEA129C7812993C12998E129BFAD2C9
:108A5700AF129ACD7F217E00129B7E129B537F61BE
:108A67001293BC129C48209103124F001292C3121A
:108A77006246EF70FA9000F37403F020093F2080FC
:108A87000E7B017A0079CB12842C900000EFF01254
:108A97000F2820B32B7B017A0079CB1282F6900046
:108AA70000EFF0FD7B017A0079CB123E147B017A4F
:108AB7000079CB900000E0FD12944C8003120F2840
:058AC700128BD180B606
:059C7D004C49564500B2
:0E3E1400900001EBF0A3EAF0A3E9F0A3EDF0BB
:103E22007D0A7C007FA81297F79001FCEFF09000CA
:103E320004E0FF64197059900001E0FBA3E0FAA3CB
:103E4200E0F91222366402704790000212224F6497
:103E520048703DFE74FF2FF582EE34FFF583122287
:103E62004F6403702B900001A3A3E02403F9E43A0A
:103E7200FA126A7FEF6003024124900001E0FBA383
:103E8200E0FAA3E02403F9E43AFA128794029216C4
:103E9200900001E0FBA3E0FAA3E0F912223664B637
:103EA20070289001FBE004F0E0D3940474809480C5
:103EB20050030241247FAE123AACC282E490012642
:103EC200F0C297C2839001FBF022900001E0FBA3B5
:103ED200E0FAA3E0F9122236FF64B76005EF64AAA4
:103EE2007053900126E0C39414748094804008E4D7
:103EF200F0C297D282C28390012AE0600302412479
:103F02009001FCE064016003024124C3900129E0B6
:103F12009458900128E094025003024124E4F0A353
:103F2200F090012A04F07BFF7A9C797D1295F7E4E8
:103F320090012AF022900001E0FBA3E0FAA3E0F94D
:103F420012223664B170057F60024018900001E0D1
:103F5200FBA3E0FAA3E0F912223664B270057F5D9A
:103F6200024018900004E064017017900001E0FB29
:103F7200A3E0FAA3E0F912223664A170057F5A0287
:103F82004018900004E064017016900001E0FBA369
:103F9200E0FAA3E0F9122236640670047FAB807661
:103FA200900004E064017016900001E0FBA3E0FAC7
:103FB200A3E0F9122236640770047F5F80589000F4
:103FC20004E064017016900001E0FBA3E0FAA3E0B4
:103FD200F9122236640870047F61803A900004E08E
:103FE20064017016900001E0FBA3E0FAA3E0F9126D
:103FF2002236640970047FAF801C900004E06401E3
:104002007017900001E0FBA3E0FAA3E0F912223658
:1040120064B470057F5E023AAC900004E0FF641362
:104022007038900001E0FBA3E0FAA3E0F9900001F0
:1040320012224FB456247E0074FF2FF582EE34FF15
:10404200F58312224F64037011900001A3A3E024B0
:1040520002F9E43AFA7F5B024121900004E0FF6436
:10406200066003024124900001E0FBA3E0FAA3E012
:10407200F9122236640260030241249000011222E6
:104082004F64576003024124FE74FF2FF582EE3421
:10409200FFF58312224F6403600302412490000162
:1040A200A3A390000212224FFD7B017A0079051230
:1040B20093199000087420F0900001E0FBA3E0FA4D
:1040C200A3E0F990000312224FFD900001A3A390F8
:1040D200000412224F900014F07B017A0079091239
:1040E200441A9001FCE064017021128EC2EFF46068
:1040F200077FAB123AAC80097B017A00790512770F
:10410200227B017A0079057F5C8014128EC2EFF463
:1041120060057FAB123AAC7B017A0079057F5C12B5
:024122005CF54A
:014124002278
:0B842C00900001EBF0A3EAF0A3E9F0E0
:10843700E4900005F0A3740BF09001FCE064017078
:1084470073900004F0900006E0FF900004E0C39FE3
:108457005053E4FFFEFD30801DED701A0FBF000181
:108467000ED3EF9420EE944E40EC7D01900006E091
:10847700900004F080E0ED6401602A900005E004BC
:10848700F0128937900001E0FBA3E0FAA3E0F9EFCF
:1084970012227C900002E475F00112231790000469
:1084A700E004F080A0900001E0FBA3E0FAA3E0F96C
:0984B700E412227C900005E0FFB4
:0184C0002299
:0E967700900033EBF0A3EAF0A3E9F0A3EDF0CE
:10968500E4A3F0900036E0FFA3E0C39F50249000D0
:1096950033E0FBA3E0FAA3E0F9122236FF1293BCF4
:1096A500900034E475F001122317900037E004F0C0
:0296B50080D162
:0196B7002290
:0B772200900010EBF0A3EAF0A3E9F0E8
:10772D009000317403F090001314F0129BA290009E
:10773D0014EFF0A37453F090012EE090003160131C
:10774D00E0FF04F074132FF582E43400F583744DDB
:10775D00F08011E0FF04F074132FF582E43400F58E
:10776D00837443F09000317404F0900010E0FBA39B
:10777D00E0FAA3E0F9122236FF6021900031E024F7
:10778D0013F582E43400F583EFF0900011E475F009
:10779D0001122317900031E004F080CE900031E00B
:1077AD00FF04F074132FF582E43400F583743AF07E
:1077BD00900031E02413F9E43400FA7B01125A21D0
:1077CD00900031E0FF241DF582E43400F583743A16
:1077DD00F0741E2FF582E43400F5837403F07B0101
:0B77ED007A007913EF240CFD02967760
:0B4C6E0090000EEBF0A3EAF0A3E9F0C9
:104C79009000327403F090001414F0129BA290007B
:104C890015EFF0A37453F0900011E0FBA3E0FAA331
:104C9900E0F990000812224F9000326013E0FF04FF
:104CA900F074142FF582E43400F583744DF080110B
:104CB900E0FF04F074142FF582E43400F5837443A3
:104CC900F090000EE0FBA3E0FAA3E0F9122236FF10
:104CD900900032E0FE04F074142EF582E43400F5FD
:104CE90083EFF090000FE475F00112231790000E86
:104CF900E0FBA3E0FAA3E0F912223670C490003277
:104D0900E0FF04F074142FF582E43400F583743A5B
:104D1900F0900011E0FBA3E0FAA3E0F9122236FFBC
:104D29001297D2AD077C00ED54F0FFE4C4F854F0BB
:104D3900C8EFC4540F484430FF900032E0FE04F03D
:104D490074142EF582E43400F583EFF0ED540F442A
:104D590030FF900032E0FE04F074142EF582E43442
:104D690000F583EFF0900011E0FBA3E0FAA3E0F96E
:104D790090000112224FFF1297D27C00AD07ED542B
:104D8900F0FFE4C4F854F0C8EFC4540F484430FFAE
:104D9900900032E0FE04F074142EF582E43400F53C
:104DA90083EFF0ED540F4430FF900032E0FE04F041
:104DB90074142EF582E43400F583EFF0900011E0CD
:104DC900FBA3E0FAA3E0F990000212224FFF129729
:104DD900D27C00AD07ED54F0FFE4C4F854F0C8EFFD
:104DE900C4540F484430FF900032E0FE04F07414BC
:104DF9002EF582E43400F583EFF0ED540F4430FFD3
:104E0900900032E0FE04F074142EF582E43400F5CB
:104E190083EFF0900011E0FBA3E0FAA3E0F9900022
:104E29000312224FFF1297D27C00AD07ED54F0FF19
:104E3900E4C4F854F0C8EFC4540F484430FF90005C
:104E490032E0FE04F074142EF582E43400F583EFA9
:104E5900F0ED540F4430FF900032E0FE04F074147A
:104E69002EF582E43400F583EFF0900011E0FBA306
:104E7900E0FAA3E0F990000412224FFF1297D27CC6
:104E890000AD07ED54F0FFE4C4F854F0C8EFC45482
:104E99000F484430FF900032E0FE04F074142EF500
:104EA90082E43400F583EFF0ED540F4430FF9000B5
:104EB90032E0FE04F074142EF582E43400F583EF39
:104EC900F0900032E0FF04F074142FF582E434000E
:104ED900F583743AF0900032E0FF04F074142FF572
:104EE90082E43400F5837403F07B017A007914902D
:074EF9000032E0FD02967794
:08000300D294129C8AC29422DF
:059739009000C8EFF0F4
:10973E00E4A3F0A3F09000C8E0FFA2E713F030D747
:10974E0004D2958002C2951200039000CAE004F084
:10975E0070069000C9E004F0C39000CAE09408902F
:09976E0000C9E06480948040CC45
:0197770022CF
:0A867400EBF0A3EAF0A3E9F07F8D1C
:05867E009000C5EFF0C3
:10868300D2967F037E00129B7E9000C5E0FF129777
:1086930039E49000C6F0A3F09000C6E0FCA3E0FD2F
:1086A300C39408EC64809480504F3095169001FD7C
:1086B300E04480F0ED9406EC648094805005E0FF84
:1086C300C313F02095209001FDE0547FF0D3900078
:1086D300C7E094069000C6E064809480500890013F
:1086E300FDE0FFC313F01200039000C7E004F07035
:1086F300A79000C6E004F0809FC2969001FDE0FFC2
:018703002253
:10996600900013EFF0A3EDF0D2967F037E00129BDA
:109976007E900013E0FF129739900014E0FF9000EC
:0899860013F0129739C296227A
:1096B800900011E475F001122317900011E475F081
:1096C80001122317900011E475F00112231790007E
:1096D80010E0FBA3E0FAA3E0F9122236FF900001A4
:0496E80012224FFDFE
:0C96EC00EF540FC454F0FFED540F4FFF7B
:0196F800224F
:106A7F00E4FF122236FEC394305003026B91EED323
:106A8F0094394003026B9190000112224FFEC39480
:106A9F00305003026B8EEED394394003026B8E900D
:106AAF00000312224FFEC394305003026B8BEED3C0
:106ABF0094394003026B8B90000412224FFEC39453
:106ACF00305003026B93EED394394003026B9390D3
:106ADF00000812224FFEC394305003026B88EED38E
:106AEF0094394003026B8890000B12224FFEC3941F
:106AFF00305003026B85EED39439507A90000C120C
:106B0F00224FFEC39430406BEED394395065900002
:106B1F000E12224FFEC394304056EED3943950508C
:106B2F0090000F12224FFEC394304041EED39439A0
:106B3F00503B90001112224FFEC39430402CEED3E5
:106B4F009439502690001212224FFEC394304017F2
:106B5F00EED39439501190001412224FFEC394308B
:106B6F004022EED39439227F01227F01227F01221E
:106B7F007F01227F01227F01227F01227F01227F5D
:046B8F0001227F015F
:016B930022DF
:10879400900010EBF0A3EAF0A3E9F01296D6AD072F
:1087A4007F861299661296B8AD077F8812996690F3
:1087B4000011E475F001122317900011E475F00123
:1087C4001223171296B8AD077F8C1299661296B8C9
:1087D400AD077F841299661296B8AD077F8212990D
:1087E400661296B8AD077F80129966900011E47501
:1087F400F001122317900011E475F0011223179071
:108804000011E475F001122317900010E0FBA3E0BF
:0F881400FAA3E0F9122236540FFD7F8A0299660B
:109AE600AE07EEC4540F540FFE6012EF540FFFE49E
:0D9AF600FDEDC39E5007740A2FFF0D80F494
:019B0300223F
:1097B60012228E900072E475F00112231790007148
:0C97C600E0FBA3E0FAA3E0F9122236FF5A
:1097D200E4FEFDFCECC39F500B0DED640A7002FD2C
:1097E2000E0C80F0EEC454F054F0FEED540F4EFF18
:0197F2002254
:10931900E4FFFE900010EDF0900010E0C394647437
:109329008094804007E0249CF00F80ECEF443012D9
:10933900227C740129F9E43AFA900010E0C3940AF6
:10934900748094804007E024F6F00E80ECEE4430FF
:1093590012227C740129F9E43AFA900010E04430B1
:0393690002227C61
:0E441A00900010EBF0A3EAF0A3E9F0A3EDF0A0
:10442800E4900015F0A3F0900018F0A3F0A3F0A317
:10443800F0900017EDF054F0F0E0FFC4540FF09046
:104448000020122384404000007F007E007D807C95
:1044580041125B8FC004C005C006C007900017E07A
:10446800FCE4121D48D003D002D001D000121C3841
:10447800C004C005C006C007900015E0FCA3E0FD1D
:10448800E4121D43D003D002D001D000121B471202
:104498001D7C900015EEF0A3EFF0900013E0900063
:1044A80017F0540FF0900020122384400000007F82
:1044B800007E007D807C41125B8FC004C005C00671
:1044C800C007900017E0FCE4121D48D003D002D0CA
:1044D80001D000121C38C004C005C006C0079000F7
:1044E80015E0FCA3E0FDE4121D43D003D002D00187
:1044F800D000121B47121D7C900015EEF0A3EFF0C0
:10450800900014E0900017F054F0F0E0FFC4540F4E
:10451800F09000201223843F8000007F007E007D01
:10452800807C41125B8FC004C005C006C0079000A4
:1045380017E0FCE4121D48D003D002D001D00012CD
:104548001C38C004C005C006C007900015E0FCA3D5
:10455800E0FDE4121D43D003D002D001D000121BAD
:1045680047121D7C900015EEF0A3EFF0900014E0C8
:10457800900017F0540FF0900020122384000000E0
:10458800007F007E007D807C41125B8FC004C005E7
:10459800C006C007900017E0FCE4121D48D003D005
:1045A80002D001D000121C38C004C005C006C007E4
:1045B800900015E0FCA3E0FDE4121D43D003D002F7
:1045C800D001D000121B47121D7C900015EEF0A3FD
:1045D800EFF0C3EF9410EE9427401074F02FFF749F
:1045E800D83EFE900018E004F080E7900018E04400
:1045F80030FD900010E0FBA3E0FAA3E0F9ED1222F1
:104608007C900011E475F001122317C3EF94E8EED3
:104618009403401074182FFF74FC3EFE900019E0BC
:1046280004F080E7900019E04430FD900010E0FBB2
:10463800A3E0FAA3E0F9ED12227C900011E475F0F2
:1046480001122317C3EF9464EE94004010749C2F5A
:10465800FF74FF3EFE90001AE004F080E790001A15
:10466800E04430FD900010E0FBA3E0FAA3E0F9ED90
:1046780012227C900011E475F001122317C3EF9405
:104688000AEE9400401074F62FFF74FF3EFE90006F
:104698001BE004F080E790001BE04430FD90001020
:1046A800E0FBA3E0FAA3E0F9ED12227C900011E40C
:1046B80075F001122317EF4430FF900010E0FBA3C0
:1046C800E0FAA3E0F9EF12227C900011E475F00102
:1046D800122317900010E0FBA3E0FAA3E0F9E4022C
:0246E800227C32
:035A21009000658D
:105A2400128674EF54F0C4540F4430FE900065E0C5
:105A3400FBA3E0FAA3E0F9EE12227C900066E47581
:105A4400F001122317EF540F4430FF900065E0FB80
:105A5400A3E0FAA3E0F9EF12227C900066E475F06B
:105A6400011223177F8912867EEF54F0C4540F4429
:105A740030FE900065E0FBA3E0FAA3E0F9EE122209
:105A84007C900066E475F001122317EF540F443044
:105A9400FF900065E0FBA3E0FAA3E0F9EF12227C9B
:105AA400900066E475F0011223177F8712867EEF5B
:105AB40054F0C4540F4430FE900065E0FBA3E0FAB8
:105AC400A3E0F9EE12227C900066E475F001122343
:105AD40017EF540F4430FF900065E0FBA3E0FAA3F6
:105AE400E0F9EF12227C900066E475F001122317AE
:105AF4007F8512867EEF54F0C4540F4430FE90002C
:105B040065E0FBA3E0FAA3E0F9EE12227C900066C4
:105B1400E475F001122317EF540F4430FF90006531
:105B2400E0FBA3E0FAA3E0F9EF12227C900066E424
:105B340075F0011223177F8312867EEF54F0C4544C
:105B44000F4430FE900065E0FBA3E0FAA3E0F9EE19
:105B540012227C900066E475F001122317EF540FB3
:105B64004430FF900065E0FBA3E0FAA3E0F9EF12F4
:105B7400227C900066E475F001122317900065E022
:0B5B8400FBA3E0FAA3E0F9E402227C9E
:107FC9009000C2128674129AE69000C2E0FBA3E008
:107FD900FAA3E0F9EF12227C9000C3E475F00112D4
:107FE90023177F8912867E129AE69000C2E0FBA3CE
:107FF900E0FAA3E0F9EF12227C9000C3E475F001E6
:108009001223177F8712867E129AE69000C2E0FB40
:10801900A3E0FAA3E0F9EF12227C9000C3E475F023
:10802900011223177F8512867E129AE69000C2E01C
:10803900FBA3E0FAA3E0F9EF12227C9000C3E475F8
:10804900F0011223177F8312867E129AE69000C2EE
:10805900E0FBA3E0FAA3E0F9EF12227C9000C3E46D
:0680690075F0010223176F
:0B84C100900071EBF0A3EAF0A3E9F0DB
:1084CC001297C3EF54F0C4540F4430FE900074E084
:1084DC00FBA3E0FAA3E0F9EE12227CEF540F443038
:1084EC00FF900074E0FBA3E0FAA3E0F9900001EF29
:1084FC001297B6EF54F0C4540F4430FE900074E061
:10850C00FBA3E0FAA3E0F9900002EE12228EEF54E6
:10851C000F44309000031297B6EF54F0C4540F443C
:10852C0030FE900074E0FBA3E0FAA3E0F9900004A5
:10853C00EE12228EEF540F443090000512228E90D2
:06854C000006E402228E8D
:1077F80090001D12867490001DE0FBA3E0FAA3E040
:10780800F9EF12227C90001EE475F0011223177F15
:107818008912867E90001DE0FBA3E0FAA3E0F9EF51
:1078280012227C90001EE475F0011223177F871244
:10783800867E90001DE0FBA3E0FAA3E0F9EF122298
:107848007C90001EE475F0011223177F8512867E56
:1078580090001DE0FBA3E0FAA3E0F9EF12227C9070
:10786800001EE475F0011223177F8312867E9000B4
:107878001DE0FBA3E0FAA3E0F9EF12227C90001EC2
:10788800E475F0011223177F8112867E90001DE0B7
:10789800FBA3E0FAA3E0F9EF12227C90001EE47546
:1078A800F00112231790001DE0FBA3E0FAA3E0F912
:0478B800E402227C48
:079C4100C294C296D29522E5
:0B58A80090000EEBF0A3EAF0A3E9F083
:1058B300A37401F0122236FF3395E04F7047900036
:1058C3000EE0FBA3E0FAA3E0F990000112224FFFE0
:1058D3003395E04F702F90000212224FFF3395E073
:1058E3004F702290000312224FFF3395E04F701543
:1058F30090000412224FFF3395E04F70089000117F
:1059030004F0025A1B7B017A007912127FC99001BD
:105913002AE0640170097B017A00791212806F908A
:10592300000EE0FBA3E0FAA3E0F9122236FFFD33F9
:1059330095E0FC900012E0C39DEC6480F8748098BD
:105943005003025A08900012E06F6003025A159048
:10595300000EE0FBA3E0FAA3E0F990000112224F4E
:10596300FFFD3395E0FC900013E0C39DEC6480F8E9
:105973007480985003025A08900013E06F6003028A
:105983005A1390000EE0FBA3E0FAA3E0F9900002A3
:1059930012224FFFFD3395E0FC900014E0C39DEC11
:1059A3006480F87480985002805B900014E06F70FC
:1059B3005D90000EE0FBA3E0FAA3E0F99000031270
:1059C300224FFFFD3395E0FC900015E0C39DEC648E
:1059D30080F87480985002802C900015E0B5072C55
:1059E30090000EE0FBA3E0FAA3E0F990000412227A
:1059F3004FFF3395E0FE900016E0C39FEE6480F8FE
:105A0300748098500DE4900011F0800C80048002A3
:0D5A130080009000117402F0900011E0FF7F
:015A20002263
:0B7AF9009000B0EBF0A3EAF0A3E9F06E
:107B04007B017A0079BB127FC99000BBE0FF7E0045
:107B14007C017D6D1222B0AC06AD07A3E075F01EAA
:107B2400A42DFFEC35F0FEA3E07C002FFFEC3EFE1D
:107B3400E4FD9000B31223789000B0E0FBA3E0FAD8
:107B4400A3E0F990000112224F75F01EA4FDACF0E1
:107B5400C004C005122236FF7E007C017D6D122216
:107B6400B0D0E02FFFD0E03EFE90000212224F1C66
:107B74002FFFEC3EFEE4FD9000B71223789000B393
:107B8400E0FCA3E0FDA3E0FEA3E0FFA3E0F8A3E094
:107B9400F9A3E0FAA3E0FBC312233B40089000C121
:0F7BA4007401F08005E49000C1F09000C1E0FF93
:017BB30022AF
:102CC100900011ECF0A3EDF090000EEBF0A3EAF010
:032CD100A3E9F084
:102CD400C200C20190000B12224FFF3395E04F60F7
:102CE400030231F790000EE0FBA3E0FAA3E0F990B1
:102CF400000C12224FFF3395E04F60030231F7902E
:102D0400000D12224FFF3395E04F60030231F7901C
:102D1400000E12224FFF3395E04F60030231F7900B
:102D2400000F12224FFF3395E04F60030231F790FA
:102D34000011E0FEA3E0C3943CEE94009000114027
:102D44001CA3E0FB7C007D3CFF1222C290001AEF22
:102D5400F075F03CA4FFC3EB9FA3F0800BA3E090BD
:102D6400001BF0E490001AF090001BE0FF700302D7
:102D7400302C90000EE0FBA3E0FAA3E0F9900004ED
:102D840012224FFEEF2E900019F0D3943B748094DE
:102D9400805003023001E0FF75F03C8490001CF089
:102DA400E0FE75F03CA4FDC3EF9D900019F0900087
:102DB4000312224FFFEE2F900018F0D39417748063
:102DC40094805003022FE0E0FF75F0188490001CFB
:102DD400F0E0FE75F018A4FDC3EF9D900018F0908C
:102DE400000212224FFFEE2F900017F09000011204
:102DF400224FFF3395E0FEEF64014E6024EF64033D
:102E04004E601EEF64054E6018EF64074E6012EFCB
:102E140064084E600CEF640A4E6006EF640C4E705A
:102E240057900017E0D3941F748094804032E024BC
:102E3400E1F090000EE0FBA3E0FAA3E0F9900001BA
:102E440012224F04900016F0D3940C7480948040A6
:102E54002412223604900015F0A37401F0023066A7
:102E640090000EE0FBA3E0FAA3E0F9900001122227
:102E74004F900016F002305F90000EE0FBA3E0FAE2
:102E8400A3E0F990000112224FFF3395E0FEEF64B6
:102E9400044E6012EF64064E600CEF64094E600647
:102EA400EF640B4E7027900017E0D3941E74809447
:102EB40080400DE024E2F090000112224F048006CD
:102EC40090000112224F900016F002305F90000E25
:102ED400E0FBA3E0FAA3E0F990000112224FFF33D4
:102EE40095E0FEEF64024E6003022FC3122236FF08
:102EF400FD3395E0FCED24D0FAEC3407900013F098
:102F0400A3CAF0C200ED64104C6023EF3395E0FED9
:102F1400EF64144E6018EF64184E6012EF641C4E98
:102F2400600CEF64204E6006EF64244E7002D20001
:102F3400300049900017E0FDD3941D748094809074
:102F4400000EE0FBA3E0FAA3E0F94017122236904A
:102F54000015F0900017E024E3F090000112224FD6
:102F6400048012122236900015F0900017EDF090B4
:102F7400000112224F900016F0023066900017E014
:102F8400FDD3941C748094804018E024E4F09000F5
:102F94000EE0FBA3E0FAA3E0F990000112224F0433
:102FA4008016900017EDF090000EE0FBA3E0FAA36A
:102FB400E0F990000112224F900016F002305F9069
:102FC4000017E0F090000EE0FBA3E0FAA3E0F99014
:102FD400000112224F900016F002305F90000EE0C4
:102FE400FBA3E0FAA3E0F990000212224F9000172D
:102FF400F090000112224F900016F0805E90000EB7
:10300400E0FBA3E0FAA3E0F990000312224F900042
:1030140018F090000212224F900017F09000011255
:10302400224F900016F0803390000EE0FBA3E0FAEC
:10303400A3E0F990000412224F900019F0900003CD
:1030440012224F900018F090000212224F900017A5
:10305400F090000112224F900016F01222369000D8
:1030640015F090001AE0FF70030231B8900018E0E8
:103074002FF0E0FFD394177480948050030231B88A
:10308400EF75F0188490001CF0E0FE75F018A4FDB4
:10309400C3EF9D900018F0900017E02EF0900016FA
:1030A400E0FF6401601EEF64036019EF64056014BF
:1030B400EF6407600FEF6408600AEF640A6005EFCD
:1030C400640C7035900017E0D3941F748094805082
:1030D400030231B8E024E1F0900016E004F0E0D3FC
:1030E400940C74809480900015E0400904F0A3745B
:1030F40001F00231B8F00231B8900016E0FF640428
:10310400600FEF6406600AEF64096005EF640B70FA
:103114001F900017E0D3941E74809480400CE02428
:10312400E2F0900016E0040231B2900016E0807ED6
:10313400900016E0FA6402707B900015E0FBFD7CC1
:103144000024D0FEEC3407900013F0A3CEF0C200AC
:10315400ED6410601AEBFF64146014EF6418600FE0
:10316400EF641C600AEF64206005EF64247002D2EF
:1031740000300024900017E0FFD3941D74809480E5
:10318400400BE024E3F0900016E00480099000175F
:10319400EFF0900016EA8016900017E0D3941C74A8
:1031A400809480400FE024E4F0900016E004F09056
:1031B4000015E0F0900015E0FF90000EE0FBA3E0A6
:1031C400FAA3E0F990000BEF12228E900016E09023
:1031D400000C12228E900017E090000D12228E90A7
:1031E4000018E090000E12228E900019E090000F5B
:0331F40012228E16
:0131F70022B5
:109B7E00E4FDFCC3ED9FEC9E50070DBD00010C8073
:019B8E00F2E4
:019B8F0022B3
:049B2100AB07AA06DE
:109B2500900000C3E5829BE5839A500A7F967E00EC
:069B3500129B7EA380EDEF
:019B3B002207
:08986B0090000FEEF0A3EFF0F6
:10987300E4A3F0A3F090000FE0FEA3E0FFC3900089
:1098830012E09F900011E09E50177F0A7E00129B0A
:1098930021900012E004F070DC900011E004F080ED
:0198A300D4F0
:0198A40022A1
:019C8A0022B7
:039A4900129A2747
:109A4C00D20DD293D292E4FFFE209205C20DC293A6
:0C9A5C00220FBF00010EBE04F0BF4CED55
:019A680022DB
:039A6900129A2727
:109A6C00D293D292D20DE4FFFE209205C20DC29386
:0C9A7C00220FBF00010EBE02F0BF8AEDF9
:019A880022BB
:069C7200D29300C2932210
:109A2700E4FEEEC39408748094805015EF25E0FFA0
:109A370030D704D2928002C292D293129C720E80C7
:019A4700E13D
:019A480022FB
:089B9000ECFD7C00C293C292BF
:0A9B9800D292D29300C292C293222F
:099C2F00C293C292D293D2922298
:10936C00E4FBEBFDC39408748094805038C29330B6
:10937C0092169001F3E04401F0ED94067480948011
:10938C005006E025E0F0D2932092179001F3E054C0
:10939C00FEF0EBD39406748094805006E025E0F048
:0C93AC00D2930B80BDC2939001F3E0FF50
:0193B8002292
:10926D00900071E0FCA3E0FDA3E0FBA3E0FAA3E016
:07927D00F9122236FB7FA865
:02928400AA0737
:10928600AF05A907129B90AF02129A49AF05129A31
:1092960049AF01129A27129A4CAF03129A27129AD3
:1092A6004C129C2F7F0D7E00129B21D293D2927F6F
:0D92B600627E00129B7E7F627E00029B7E26
:0497F3007C007FA8CF
:0297F700AB07BE
:1097F900AF05AA07129B90AF03129A69AF05129A97
:1098090069AF02129A27129A6C129B98EB04FF1205
:109819009A27129A4CC29312936C129C2FD293D20C
:06982900929001F3E0FF44
:01982F002216
:1092C300E4FDFC7FA81297F7900139E4F0A3EFF0D7
:1092D3007D021297F3900134E4F0A3EFF07D0412C2
:1092E30097F3900132E4F0A3EFF07D061297F39029
:1092F300012CE4F0A3EFF07D081297F390012AEF1D
:10930300F07D0C1297F390012FEFF07D0E1297F37F
:0693130090012BEFF02297
:1090F3009000B0EEF0A3EFF0A3EBF0A3EAF0A3E946
:01910300F07B
:109104009000B0E0FCA3E0FD7FA81297F79000B2B6
:10911400E0FBA3E0FAA3E0F9EF12227C9000B2E0B6
:10912400FBA3E0FAA3E0F9122236FF9000B1E004B9
:10913400F070069000B0E004F09000B3E475F00124
:10914400122317EF70BA9000B2E0FBA3E0FAA3E099
:05915400F9E402227C99
:10901900900071EEF0A3EFF0A3EBF0A3EAF0A3E95F
:10902900F0900073E0FBA3E0FAA3E0F912223660A6
:1090390024B40D04E412227C12926D900072E004B3
:10904900F07006900071E004F0900074E475F0018E
:1090590012231780CC12926D900072E004F0700612
:10906900900071E004F0900074E475F00112231788
:0F907900900071E0FCA3E0FDE4FB7FA80292846D
:1081B90053656E736F726573204175746F207920F2
:1081C90073656E736F72312061637469766F732E94
:1081D9000053656E736F722061637469766F2073E3
:1081E900656E736F7231202E004465746563746126
:1081F900646F2E2053656E736F72204175746F2EF4
:108209000053656E736F726573206E6F20646574B9
:1082190065637461646F73005665686963756C6F33
:10822900204573706572616E646F2053616C697269
:108239002E005665686963756C6F2053616C6965BA
:108249006E646F2E20556E206D6F6D656E746F00B4
:048142004101FE00F9
:079C4800C2B5C2B6C2B7228B
:079C4F00C2B5D2B6C2B72274
:079C5600C2B5C2B6D2B7226D
:079C5D00D2B5C2B6D2B72256
:079C6400C2B5D2B6D2B7224F
:079C6B00D2B5D2B6D2B72238
:109A8900E4FF7DF47C01309115EFFB3395E04B70D9
:0E9A99000DED1D70011CED4C70EC7F0180E89E
:019AA700229C
:109BA2007F31129C643091010F129C6B3091020F35
:019BB2000FA3
:019BB300228F
:108EC200129C56309161129A89EF3395E0FEEF645D
:108ED200014E7047129C5D209123129C4F7BFF2014
:108EE200910D7A8179B91295F7E490012E80227A58
:108EF2008179DA1295F790012E74018014129C4F39
:108F02007BFF2091107A8179F21295F790012E74ED
:108F120001F07FFF227A82790A80067BFF7A8279CA
:108F2200211295F77F00227BFF7A82793B1295F717
:038F32007F01229A
:109AA800E4FE129C56309114129A89EFFD3395E02A
:0E9AB800FCED64014C7002FF227F01227F0151
:019AC600227D
:108BD100E4900001F0129C482091699001FEE07040
:108BE10016900001E0701030B35A04F01299109001
:108BF10001FE7401F0804D9001FEE0640170169059
:108C01000001E0701030B33C04F0126B949001FE4F
:108C11007402F0802F9001FEE06402702790000141
:108C2100E0702130B31E04F07D0C7C007FA8129708
:108C3100F7EF640170047F5380027F4E1288AFE426
:0F8C41009001FEF0129C48309105E4900001F084
:018C50002201
:10367B00643B686F726100494E4752455345205475
:10368B0041524A45544120005441524A455441202D
:10369B0053494E20494E475245534F2000544152F7
:1036AB004A455441204E4F205245474953545241AD
:1036BB00205041474F20004558434544452054492D
:1036CB00454D504F2044452047524143494120002E
:1036DB004D454E5355414C204E4F204553544120A0
:1036EB00454E20504152515545414445524F2000C3
:1036FB00444952494A41534520412043414A4120C4
:10370B0000475241434941532E2E2E200047524130
:10371B00434941532E2E2E004D454E5355414C4996
:10372B004441442056454E4349444120004D454EAB
:10373B005355414C49444144204558434544452049
:10374B00484F524152494F204143455251554553E1
:10375B004520412043414A4120004E4F20455320F4
:10376B004D454E5355414C49444144204E49205000
:10377B0052455041474F004D454E5355414C204EFD
:10378B004F205041474F204C4F434143494F4E2010
:10379B00484F59005441524A455441204E4F204501
:1037AB00532044454C2050415251554541444552BC
:1037BB004F200053494E2050524553454E434941EB
:1037CB00205645484943554C415220005441524ADA
:1037DB0045544120494E56414C49444120005441E7
:1037EB00524A4554412053494E20464F524D415465
:1037FB004F20004655455241204445204C494E45EB
:10380B00412000554E204D4F4D454E544F20504FAB
:10381B0052204641564F522000613B38353B494EB2
:10382B004752455345205441524A4554410A0D00D5
:10383B0000613B38363B5441524A45544120534971
:10384B004E20494E475245534F200A0D0000613B15
:10385B0038373B5441524A455441204E4F20524534
:10386B00474953545241205041474F0A0D000061C4
:10387B003B38383B455843454445205449454D500A
:10388B004F20444520475241434941200A0D000037
:10389B00613B38393B4D454E5355414C204E4F20E3
:1038AB004553544120454E205041525155454144BA
:1038BB0045524F0A0D0000613B39303B4449524998
:1038CB004A41534520412043414A410A0D000061C2
:1038DB003B39313B475241434941532E2E2E200A4F
:1038EB000D0000613B39333B4D454E5355414C2048
:1038FB004E4F204553544120454E20504152515577
:10390B0045414445524F0A0D0000613B39343B4D54
:10391B00454E5355414C494441442056454E43492D
:10392B0044410A0D0000613B39353B4D454E535523
:10393B00414C494441442045584345444520484F58
:10394B00524152494F204143455251554553452011
:10395B00412043414A410A0D0000613B39363B4E41
:10396B004F204553204D454E5355414C49444144FE
:10397B00204E49205052455041474F0A0D000061DF
:10398B003B39373B4D454E5355414C204E4F205004
:10399B0041474F204C4F434143494F4E20484F59CD
:1039AB000A0D0000613B39383B5441524A455441A2
:1039BB00204E4F2045532044454C205041525155E9
:1039CB0045414445524F200A0D0000613B39383BBD
:1039DB0053494E2050524553454E4349412056457D
:1039EB00484943554C4152200A0D0000613B393880
:1039FB003B5441524A45544120494E56414C49444F
:103A0B0041200A0D0000613B39383B5441524A4575
:103A1B0054412053494E20464F524D41544F200A9A
:103A2B000D0000613B39383B46554552412044451A
:103A3B00204C494E45410A0D0000613B39383B553E
:103A4B004E204D4F4D454E544F20504F5220464126
:103A5B00564F520A0D000057494547414E4420002E
:103A6B00475241434941532000613B39323B57494F
:103A7B004547414E443A000A6400613B39313B47AC
:103A8B005241434941532000AA80280720000000DF
:103A9B000000140000AA8018010200AA801801027D
:013AAB00001A
:0999B600900017E025E0FFE4FD3C
:0599BF0090003FEDF0F7
:1099C400129778900040EFF090003FE0600AE4FFC7
:0899D400129778900040EFF0BB
:0199DC002268
:0895AD007B017A007914E4FD52
:0E95B50090003AEBF0A3EAF0A3E9F0A3EDF08A
:1095C300E4A3F090003AE0FBA3E0FAA3E0F99000F3
:1095D3003EE0F58275830012224FFF601090003D3C
:0D95E300E0FD1299BF90003EE004F080D63C
:0195F0002258
:0E95210090001DEBF0A3EAF0A3E9F0A3EDF03B
:10952F00E4900022F0900020E0FF900022E0FEC3C4
:10953F009F502490001DE0FBA3E0FAA3E0F98E8278
:10954F0075830012224FFF900021E0FD1299BF900A
:07955F000022E004F080CEC1
:0195660022E2
:0B91BB0090003AEBF0A3EAF0A3E9F00B
:1091C60012000E90003DEFF0E49001FFF090003D9C
:1091D600E02401FFE433FE9001FFE0C39FEE6480CC
:1091E600F8748098502990003AE0FBA3E0FAA3E0D7
:1091F600F9122236FF12977890003EEFF090003B6E
:0F920600E475F0011223179001FFE004F080BE21
:019215002236
:1092160078107C007D017BFF7A3A79937E007F0D82
:1092260012221090012BE07022C2877B017A00790E
:10923600151277F8C29C7B017A007910E490002120
:10924600F07D0D129521D29CD28722C287E4900030
:1092560010F07B017A0079101277F87BFF7A367965
:069266007B1291BBD287D0
:01926C0022DF
:053AAC00900010EFF096
:103AB10078117C007D017BFF7A3A79A07E007F0638
:103AC100122210C28790012BE06003023D3C7B0172
:103AD1007A007911FD1295B5900010E01223D53BC3
:103AE1001A553B3A563B5A573B7A583B9A593BBA7F
:103AF1005A3BDA5B3B9A5D3BFA5E3C1A5F3C3A60AB
:103B01003C5A613C7AAA3C9AAB3CBAAC3CD9AD3C3C
:103B1100F8AE3D17AF00003D397BFF7A367982124E
:103B2100000E900017EFF0E4FDFF1299BF1299B655
:103B31007BFF7A367982023D347BFF7A36799312A4
:103B4100000E900017EFF0E4FDFF1299BF1299B635
:103B51007BFF7A367993023D347BFF7A3679A8125E
:103B6100000E900017EFF0E4FDFF1299BF1299B615
:103B71007BFF7A3679A8023D347BFF7A3679C2120F
:103B8100000E900017EFF0E4FDFF1299BF1299B6F5
:103B91007BFF7A3679C2023D347BFF7A3679DB12BC
:103BA100000E900017EFF0E4FDFF1299BF1299B6D5
:103BB1007BFF7A3679DB023D347BFF7A3679FB1263
:103BC100000E900017EFF0E4FDFF1299BF1299B6B5
:103BD1007BFF7A3679FB023D347BFF7A37790C1211
:103BE100000E900017EFF0E4FDFF1299BF1299B695
:103BF1007BFF7A377918023D347BFF7A37792312BC
:103C0100000E900017EFF0E4FDFF1299BF1299B674
:103C11007BFF7A377923023D347BFF7A377938127B
:103C2100000E900017EFF0E4FDFF1299BF1299B654
:103C31007BFF7A377938023D347BFF7A3779651219
:103C4100000E900017EFF0E4FDFF1299BF1299B634
:103C51007BFF7A377965023D347BFF7A37798212AF
:103C6100000E900017EFF0E4FDFF1299BF1299B614
:103C71007BFF7A377982023D347BFF7A37799F1255
:103C8100000E900017EFF0E4FDFF1299BF1299B6F4
:103C91007BFF7A37799F023D347BFF7A3779BE12F9
:103CA100000E900017EFF0E4FDFF1299BF1299B6D4
:103CB1007BFF7A3779BE023D347BFF7A3779D712A1
:103CC100000E900017EFF0E4FDFF1299BF1299B6B4
:103CD1007BFF7A3779D7805B7BFF7A3779E91200EE
:103CE1000E900017EFF0E4FDFF1299BF1299B67B19
:103CF100FF7A3779E9803C7BFF7A3779FE12000E33
:103D0100900017EFF0E4FDFF1299BF1299B67BFF07
:103D11007A3779FE801D7BFF7A38790E12000E907A
:103D21000017EFF0E4FDFF1299BF1299B67BFF7AFD
:103D310038790E7D011295B5D28722C28790001085
:103D4100E01223D53D7F553D88563D90573D98580B
:103D51003DA0593DA85A3DB05B3DB85D3DC05E3DBB
:103D6100C85F3DD0603DD8613DE0AA3DE8AB3DF084
:103D7100AC3DF8AD3E00AE3E08AF00003E117BFF0A
:103D81007A387924023E0E7BFF7A38793C807E7B3B
:103D9100FF7A38795980767BFF7A38797A806E7B21
:103DA100FF7A38799B80667BFF7A3879C2805E7BA7
:103DB100FF7A3879DA80567BFF7A3879EE804E7B4C
:103DC100FF7A39791580467BFF7A397931803E7BDC
:103DD100FF7A39796580367BFF7A39798A802E7B43
:103DE100FF7A3979AF80267BFF7A3979D6801E7BBD
:103DF100FF7A3979F780167BFF7A3A7911800E7B49
:103E0100FF7A3A792E80067BFF7A3A79451291BB87
:023E1100D28756
:013E1300228C
:0E5CF500900010EFF0A3EBF0A3EAF0A3E9F0AB
:105D030078147C007D017BFF7A3A79A67E007F06BA
:105D1300122210C28790012BE06003025DB990004C
:105D230010E024A56040146003025DB61295AD7BBC
:105D3300FF7A3A796212000E90001AEFF090001188
:105D4300E0FBA3E0FAA3E0F912000E90001AE02FA3
:105D530004F0E4FDFF1299BF90001A1299B97BFF7A
:105D63007A3A796280381295AD7BFF7A3A796B1271
:105D7300000E90001AEFF0900011E0FBA3E0FAA3ED
:105D8300E0F912000E90001AE02F04F0E4FDFF1278
:105D930099BF90001A1299B97BFF7A3A796B7D010A
:105DA3001295B5900011E0FBA3E0FAA3E0F97D01A1
:105DB3001295B5D28722C287900010E024A5601700
:105DC300146003025E54781B7C007D017BFF7A3AEA
:105DD3007974122662803C781B7C007D017BFF7AFC
:105DE3003A7985122662900011E0FBA3E0FAA3E062
:105DF300F912000E90001AEFF024FFFFE434FFFEC7
:105E0300900011E0FBA3E0FAA3E0F98F828E83E414
:105E130012228E900011E0F9A3E0FAA3E090005D56
:105E2300C9F0A3EAF0A3E9F07B017A00791B129091
:105E33008890005D74FFF0A3743AF0A37482F07B42
:105E4300017A00791B1290887B017A00791B1291E9
:035E5300BBD28738
:015E56002229
:10002600402321246046625E262A003A5B3C253F37
:1000360058545D3D29000D0A0A25733E20002563AC
:10004600002564000D0A0A2041435455414C2049BD
:10005600445F434C49454E54453D25730D0A0A00FD
:100066000D0A0A20444947495445205355204E5508
:1000760045564F2049445F434C49454E54453D0043
:100086000D0A0A204441544F204D4F4449464943E6
:1000960041444F2049445F434C49454E54453D2514
:1000A600730D0A0A000D0A0A2041435455414C209B
:1000B600434F445F5041524B3D25730D0A0A000DD4
:1000C6000A0A20444947495445205355204E554570
:1000D600564F20434F445F5041524B3D000D0A0A94
:1000E600204441544F204D4F444946494341444FD3
:1000F60020434F445F5041524B3D25730D0A0A0081
:100106000D0A0A2041435455414C205449454D504F
:100116004F5F4752414349413D25730D0A0A000D81
:100126000A0A20444947495445205355204E55450F
:10013600564F205449454D504F5F47524143494120
:100146003D000D0A0A204441544F204D4F44494674
:10015600494341444F205449454D504F5F47524112
:100166004349413D25730D0A0A000D0A0A20414301
:100176005455414C2053494E5F434F42524F2049FC
:100186004E484142494C495441444F3D25730D0A5E
:100196000A000D0A0A2041435455414C2053494E4A
:1001A6005F434F42524F204752415449533D2573B6
:1001B6000D0A0A000D0A0A2041435455414C2053AA
:1001C600494E5F434F42524F2047524154495320B4
:1001D600592053414C49444120454C204D49534DEB
:1001E6004F204449413D25730D0A0A000D0A0A2095
:1001F600444947495445205355204E5545564F20AE
:1002060053494E5F434F42524F3D000D0A0A20416B
:10021600435455414C20444542554720494E484198
:1002260042494C495441444F3D25730D0A0A000D7D
:100236000A0A2041435455414C2044454255472023
:10024600484142494C495441444F3D25730D0A0AE1
:10025600000D0A0A2044494749544520454C204E82
:100266005545564F2045535441444F20444520445C
:10027600454255473D000D0A0A2041435455414C1D
:10028600205553455F4C505220494E484142494CF7
:10029600495441444F3D25730D0A0A000D0A0A20B0
:1002A60041435455414C205553455F4C50522048CC
:1002B6004142494C495441444F3D25730D0A0A00B9
:1002C6000D0A0A2044494749544520454C204E55BD
:1002D60045564F2045535441444F204445205553DD
:1002E600455F4C50523D000D0A0A2041435455418A
:1002F6004C20434F4D5041524143494F4E204143BC
:100306005449564120494E484142494C495441447A
:100316004F3D25730D0A0A000D0A0A204143545524
:10032600414C20434F4D5041524143494F4E20418D
:1003360043544956412020484142494C495441447E
:100346004F3D25730D0A0A000D0A0A204449474904
:10035600544520454C204E5545564F204553544153
:10036600444F20444520434F4D5041524143494F4D
:100376004E20414354495641203D000D0A0A204172
:10038600435455414C20434F4D5041524143494FF0
:100396004E204143544956412020494E4841424946
:1003A6004C495441444F3D25730D0A0A000D0A0A73
:1003B6002050414E54414C4C41204C43442048412E
:1003C60042494C49544144413D25730D0A0A000DEA
:1003D6000A0A2050414E54414C4C41205241535040
:1003E60042455252592020484142494C49544144C1
:1003F600413D25730D0A0A000D0A0A204449474962
:10040600544520454C204E5545564F2045535441A2
:10041600444F204445204C412050414E54414C4CC1
:1004260041203D000D0A0A205041534120504F52B1
:100436002043414A4120504152412056414C4944B3
:100446004152204443544F3D25730D0A0A000D0ABC
:100456000A2041504C494341204445534355454E9B
:10046600544F3D25730D0A0A000D0A0A20444947D8
:1004760049544520454C204E5545564F204553542A
:1004860041444F204445204443544F203D000D0A2B
:100496000A2041435455414C20484F524152494F3E
:1004A60020494E484142494C495441444F3D2573E9
:1004B6000D0A0A000D0A0A2041435455414C2048B2
:1004C6004F524152494F20484142494C49544144B8
:1004D6004F3D25730D0A0A000D0A0A204449474973
:1004E600544520454C204E5545564F2045535441C2
:1004F600444F20444520484F524152494F3D000D3C
:100506000A0A2044696769746520486F7261203061
:10051600383A3030204D696E75746F7320446573B8
:1005260064653A20000D0A0A20486F7261205072F5
:100536006F6772616D6164612044657364653A201A
:100546000025633A000D0A0A20446967697465202C
:10055600486F72613A4D696E75746F7320486173A6
:1005660074613A20000D0A0A20486F7261205072A9
:100576006F6772616D6164612048617374613A20CE
:10058600000D0A2044657364652020486173746118
:100596000D0A00202563002563202020000D0A0A8D
:1005A60020446967697465206C6F732064696173A0
:1005B60020612070726F6772616D6172204C756E7A
:1005C6006573203D20322C20004D617274657320C6
:1005D6003D20332C204D696572636F6C6573203D39
:1005E60020342C204A7565766573203D20352C20F5
:1005F60000566965726E6573203D20362C20536166
:100606006261646F203D20372C20446F6D696E67F0
:100616006F203D2031203A20000D0A0A20446961EE
:10062600732050726F6772616D61646F73203A2038
:1006360000204C756E6573003D2025632C00204D0F
:10064600617274657300204D696572636F6C6573C2
:1006560000204A75657665730020566965726E6579
:1006660073002053616261646F0020446F6D696E90
:10067600676F003D20256300204C756E6573203D35
:100686002050726F6772616D61646F0D0A00204CB5
:10069600756E6573203D204E6F2070726F677261B4
:1006A6006D61646F0D0A00204D6172746573203DA3
:1006B6002050726F6772616D61646F0D0A00204D84
:1006C6006172746573203D204E6F2070726F677281
:1006D600616D61646F0D0A00204D696572636F6C10
:1006E6006573203D2050726F6772616D61646F0D96
:1006F6000A00204D696572636F6C6573203D204E5C
:100706006F2070726F6772616D61646F0D0A0020F1
:100716004A7565766573203D2050726F6772616D0C
:1007260061646F0D0A00204A7565766573203D2069
:100736004E6F2070726F6772616D61646F0D0A0093
:1007460020566965726E6573203D2050726F677220
:10075600616D61646F0D0A0020566965726E65737E
:10076600203D204E6F2070726F6772616D61646FFD
:100776000D0A002053616261646F203D2050726F44
:100786006772616D61646F0D0A0020536162616476
:100796006F203D204E6F2070726F6772616D6164CD
:1007A6006F0D0A0020446F6D696E676F203D205003
:1007B600726F6772616D61646F0D0A0020446F6D20
:1007C600696E676F203D204E6F2070726F67726191
:1007D6006D61646F0D0A000D0A0A20446967697429
:1007E6006520656C206E756D65726F2064656C2082
:1007F600486F726172696F20612070726F677261F3
:100806006D6172203D20000D0A0A2050726F6772DA
:10081600616D617220736567756E646F20486F72D3
:100826006172696F2073693D283129206E6F3D28FA
:1008360030293D20000D0A0A2041435455414C20E1
:1008460046454348412056454E43494D49454E5439
:100856004F2050415353574F52443A25730D0A0ABD
:10086600000D0A0A2F3E4964205265676973747247
:100876006F3A002573000D0A0A2F3E506173737795
:100886006F72643A000D0A0A2044494749544520CC
:100896004C41204E5545564120464543484120444B
:1008A600452056454E43494D49454E544F3D000D52
:1008B6000A0A2025730D0A0A000D0A0A2025580087
:1008C6000D0A0A2041435455414C204645434841B0
:1008D6002044452056454E43494D49454E544F20E8
:1008E60050524F4752414D414441203D25730D0A18
:1008F6000A000D0A206E756D65726F2064656C20A6
:10090600486F726172696F202070726F6772616DD5
:1009160061646F203D2025630D0A000D0A202048E2
:100926004F524152494F20484142494C4954414453
:100936004F20203D204F4E0D0A000D0A20446961CC
:10094600732050726F6772616D61646F730D0A0078
:100956000D0A2020534547554E444F20484F5241DB
:1009660052494F20484142494C495441444F202066
:100976003D204F4E0D0A000D0A20534547554E4463
:100986004F20484F524152494F20484142494C4915
:100996005441444F20203D204F46460D0A000D0A83
:1009A6002020484F524152494F20484142494C4924
:1009B6005441444F20203D204F46460D0A000D0A63
:1009C6002049445F434C49454E54455F50524F477A
:1009D60052414D41444F203D2025730D0A000D0A1A
:1009E60020434F445F5041524B5F50524F47524154
:1009F6004D41444F203D2025730D0A000D0A205419
:100A060049454D504F5F4752414349412050524F4F
:100A16004752414D41444F203D2025730D0A000D9C
:100A26000A2053494E5F434F42524F2048414249A4
:100A36004C495441444F203D204F4646200D0A0064
:100A46000D0A2053494E5F434F42524F203D204FDF
:100A56004E0D0A000D0A2050524F4752414D414457
:100A66004F204445425547203D204F4E0D0A000D6C
:100A76000A2050524F4752414D41444F204445426F
:100A86005547203D204F46460D0A000D0A20555376
:100A9600455F4C5052203D204F46460D0A000D0A38
:100AA600205553455F4C5052203D204F4E0D0A00B5
:100AB6000D0A0A2020434F4D5041524143494F4EA3
:100AC60020414354495641203D204F46460D0A00D9
:100AD6000D0A0A20434F4D5041524143494F4E2083
:100AE60041435449564120203D204F4E0D0A000DEA
:100AF6000A2050414E54414C4C41204C4344205016
:100B0600524F4752414D4144410D0A000D0A2050B3
:100B1600414E54414C4C4120524153504245525251
:100B260059202050524F4752414D4144410D0A0031
:100B36000D0A2041435455414C2046454348412027
:100B460044452056454E43494D49454E544F205045
:100B5600524F4752414D414441203D25730D0A00F5
:100B66000D0A2049445F434C49454E5445202020F8
:100B7600202D2D2D20434D442030204964656E7470
:100B86006966696361646F722064656C20636C6971
:100B9600656E7465206D6178696D6F20323535003C
:100BA6000D0A20434F445F5041524B202020202005
:100BB600202D2D2D20434D44203120456C206E756F
:100BC6006D65726F2064656C207061727175656108
:100BD6006465726F206D6178696D6F2032353500FE
:100BE6000D0A20545F4752414349412020202020CE
:100BF600202D2D2D20434D442032205469656D70E3
:100C06006F2073696E20636F62726F2030302C2004
:100C1600206D6178696D6F20323535000D0A2053DD
:100C2600494E5F434F42524F20202020202D2D2D2C
:100C360020434D44203320496E686162696C6974B3
:100C460061646F3D20302C204772617469733D20CA
:100C560031202C2047726174697320792073616C8E
:100C660069646120656C206D69736D6F20646961CC
:100C76003D2032000D0A20444542554720202020C1
:100C860020202020202D2D2D20434D442034204887
:100C96006162696C69746172203D20312C20496E55
:100CA600686162696C69746172203D2030000D0ACA
:100CB600205553455F4C5052202020202020202DC7
:100CC6002D2D20434D44203520486162696C69749E
:100CD6006172203D20312C20496E686162696C6921
:100CE600746172203D2030000D0A20434F4D504163
:100CF600524143494F4E5F414354495641202D2DA1
:100D06002D20434D44203620486162696C69746128
:100D160072203D20312C20496E686162696C6974CD
:100D26006172203D2030000D0A205449504F5F501B
:100D3600414E54414C4C4120202020202D2D2D2069
:100D4600434D442037202830292070616E74616C31
:100D56006C61206C6364202073657269652028319C
:100D66002920726173706265727279206F20626CDD
:100D76007565746F6F7468000D0A204443544F5FA5
:100D8600504153415F43414A4120202020202D2DD0
:100D96002D20434D4420382028302920706173616E
:100DA60020706F722063616A61202831292061708A
:100DB6006C69636120656C206465736375656E7428
:100DC6006F000D0A20484F524152494F20202020E3
:100DD60020202020202020202D2D2D20434D442072
:100DE600392050726F67616D6120313020686F72F3
:100DF6006172696F732064656C203120616C2031EB
:100E060030000D0A205645525F50524F4752414D11
:100E16004143494F4E2020202D2D2D20434D442067
:100E26003130204D756573747261206C612070726B
:100E36006F6772616D6163696F6E000D0A204159BB
:100E46005544412020202020202020202D2D2D20FB
:100E5600434D44203131204D756573747261206CA9
:100E66006F7320636F6D616E646F73000D0A20539C
:100E7600414C49522020202020202020202D2D2D9D
:100E860020434D442031322053616C6972206465E1
:100E96002070726F6772616D6163696F6E000D0A13
:100EA6000A53697374656D612064652050726F67BB
:100EB60072616D6163696F6E2076657269666963DA
:100EC60061646F72206C696E74656368200D0A0D2B
:100ED6000A000D0A436F6D616E646F206E6F2065A8
:100EE60078697374652027257327003A5B3C253F94
:100EF60058545D3D2900232A594A41494D456361AD
:100F06006D696C744B0077727A32357136382D39CB
:100F16003166532E4000200D0A00200D0A00220DD6
:020F26000A00BF
:108146005401482F0000000000000000000000005D
:108156000000000000000049013F61646D696E0087
:10816600000000602A015C3000003100003200008F
:1081760033000034000035000036000037000038B8
:108186000000390000313000313100313200313326
:0181960000E8
:0B510800900071EBF0A3EAF0A3E9F0C7
:1051130078767C007D017BFF7A0E79F17E007F0B30
:1051230012221078817C007D017BFF7A0E79FC7E50
:10513300007F1012221078917C007D017BFF7A0F93
:10514300790C7E007F101222107B017A0079AC7FEC
:10515300507E031290F37B017A0079AC127AF9EF57
:105163003395E0FEEF64014E78767C007D017BFF92
:1051730060067A00792680047A00793112266290DB
:105183000071E0FBA3E0FAA3E0F912000E900074B3
:10519300EFF0E4A3F0900075E0FFC3940A748094E9
:1051A3008040030252FA900071E0FBA3E0FAA3E00F
:1051B300F98F8275830012224FFD7C0074762FF5E0
:1051C30082E43400F583E02DFFEC3390013BF0A340
:1051D300EFF07E00540FFFA3EEF0A3EFF0700BE0AF
:1051E30004F0700690013DE004F090013DE0FEA361
:1051F300E02480F58274003EF583E07E002DFFEE0F
:105203003C90013BF0A3EFF07E00540FFFA3EEF0C0
:10521300A3EFF0700BE004F0700690013DE004F0A2
:1052230090013DE0FEA3E02490F58274003EF583F7
:10523300E0FF90013BE0FEA3E06FFF90013BEEF047
:10524300FEA3EFF0D394FFEE9400400590013BE4FE
:10525300F090013BE0FEA3E0FFC3947AEE9400409C
:1052630015D3EF94FFEE9400500CEF547AFF9001A6
:105273003BE4F0A3EFF0C390013CE0943090013B9A
:10528300E09400500CA3E02440F090013BE0340094
:10529300F090013BE0FEA3E0FFC3945BEE9400407B
:1052A30014D3EF9460EE9400500BE02407F09001C8
:1052B3003BE03400F090013BE0FEA3E0FFC3943AEF
:1052C300EE94004014D3EF9440EE9400500BE0248E
:1052D300F9F090013BE034FFF090013BA3E0FF9035
:1052E3000075E024A1F582E43400F583EFF090002B
:1052F30075E004F0025198E49000ABF07B017A0072
:0253030079A18E
:015305002285
:0B91590090005AEBF0A3EAF0A3E9F04D
:10916400E4900060F0900060E0FFC3940E7480947B
:10917400805041EF75F003A4245CF9740135F0FAD2
:109184007B01785D7C007D01122662785D7C007D28
:109194000190005AE0FBA3E0FAA3E0F9122579EF6D
:1091A4003395E04F7006900060E0FF22900060E08D
:0691B40004F080B17FFF12
:0191BA002292
:08963500E0FBA3E0FAA3E0F959
:0B963D00900071EBF0A3EAF0A3E9F04D
:1096480078747C007D017B017A01793F122662786B
:10965800747C007D01900071E0FBA3E0FAA3E0F9BF
:0E966800122579EF3395E04F7002FF227FFF4D
:0196760022D1
:0696F9007B017A007932CA
:0B96FF00900071EBF0A3EAF0A3E9F08B
:10970A0078747C007D017BFF7A0F791C7E007F04D0
:10971A0012221090007B7401F0A37400F0A37474F9
:0F972A00F0900071E0FBA3E0FAA3E0F902756391
:10870400E0FBA3E0FAA3E02FF9EA3EFAE92401F939
:03871400E43AFA4A
:0B87170090005AEBF0A3EAF0A3E9F099
:10872200785D7C007D017BFF7A0F79207E007F04DB
:1087320012221078617C007D017BFF7A0F79247E02
:10874200007F0412221090005AE0FBA3E0FAA3E09B
:10875200F9122236FFB4200C90005BE475F001128E
:10876200231780E2EF90007BB4220D7401F0A37412
:1087720000F0A37461F080167401F0A37400F0A3FA
:10878200745DF090005AE0FBA3E0FAA3E0F91275E1
:018792006383
:0187930022C3
:109B3C0090008E7401F0A37401F0A37448F07BFFC5
:079B4C007A00793C0232634C
:088C51007A0079777B01E4FD54
:0E8C5900900085EBF0A3EAF0A3E9F0A3EDF0A4
:108C6700129C19900085E0FBA3E0FAA3E0F9EF124C
:108C7700227C900088E0701D900085E0FBA3E0FA5D
:108C8700A3E0F912223690008EF07BFF7A00794438
:108C970012326380057F2A129778900085E0FBA344
:108CA700E0FAA3E0F9122236FF7E00900086E47511
:108CB700F001122317900085E0FBA3E0FAA3E0F987
:098CC700E412227CEF640D7097A9
:018CD0002281
:107BB400E4FDFC7FA81297F77E00900064EEF0A32A
:107BC400EFF090008E74FFF0A37400F0A37447F0FC
:107BD400A3EEF0A3EFF07B017A00795A12325D90A4
:107BE400008E7401F0A37400F0A3745AF07BFF7A42
:107BF40000794A1232637BFF7A0079661232637A23
:107C040000795A128C557B017A00795A1276479082
:107C14000064EEF0A3EFF0FBE4FDFC7FA812928475
:107C2400E4FDFC7FA81297F77E00900064EEF0A3B9
:107C3400EFF090008E74FFF0A37400F0A37447F08B
:107C4400A3EEF0A3EFF07B017A00795A12325D9033
:107C5400008E7401F0A37400F0A3745AF07BFF7AD1
:067C640000798602326384
:10797F007D027C007FA81297F77E00900064EEF0E6
:10798F00A3EFF090008E74FFF0A37400F0A3744780
:10799F00F0A3EEF0A3EFF07B017A00795A12325D7B
:1079AF0090008E7401F0A37400F0A3745AF07BFF63
:1079BF007A0079AB1232637BFF7A0079C51232639A
:1079CF007B017A00795AE4FD128C597B017A007998
:1079DF005A127647900064EEF0A3EFF0FB7D027C25
:1079EF00007FA81292847D027C007FA81297F77EF9
:1079FF0000900064EEF0A3EFF090008E74FFF0A300
:107A0F007400F0A37447F0A3EEF0A3EFF07B017ABC
:107A1F0000795A12325D90008E7401F0A37400F059
:0D7A2F00A3745AF07BFF7A0079E302326302
:107A3C007D047C007FA81297F77E00900064EEF026
:107A4C00A3EFF090008E74FFF0A37400F0A37447C2
:107A5C00F0A3EEF0A3EFF07B017A00795A12325DBD
:107A6C0090008E7401F0A37400F0A3745AF07BFFA5
:107A7C007A0179061232637BFF7A0179251232631F
:107A8C007B017A00795AE4FD128C597B017A0079DA
:107A9C005A127647900064EEF0A3EFF0FB7D047C65
:107AAC00007FA81292847D047C007FA81297F77E39
:107ABC0000900064EEF0A3EFF090008E74FFF0A342
:107ACC007400F0A37447F0A3EEF0A3EFF07B017AFF
:107ADC0000795A12325D90008E7401F0A37400F09C
:0D7AEC00A3745AF07BFF7A017948023263DF
:106386007D067C007FA81297F77E00900064EEF0F1
:10639600A3EFF090008E74FFF0A37400F0A374478F
:1063A600F0A3EEF0A3EFF07B017A00795A12325D8A
:1063B600900064E07002A3E0701590008E04F0A3D4
:1063C6007400F0A3745AF07BFF7A017970803590DF
:1063D6000064E07004A3E06401701590008E04F080
:1063E600A37400F0A3745AF07BFF7A0179988014A5
:1063F60090008E7401F0A37400F0A3745AF07BFF32
:106406007A0179BA1232637BFF7A0179F21232632A
:106416007B017A00795AE4FD128C597B017A007966
:106426005A127647900064EEF0A3EFF0FB7D067CEF
:10643600007FA81292847D067C007FA81297F77EC3
:1064460000900064EEF0A3EFF090008E74FFF0A3CE
:106456007400F0A37447F0A3EEF0A3EFF07B017A8B
:1064660000795A12325D900064E07002A3E0701564
:1064760090008E04F0A37400F0A3745AF07BFF7AA8
:106486000179708035900064E07004A3E0640170C7
:106496001590008E04F0A37400F0A3745AF07BFFED
:1064A6007A017998801490008E7401F0A37400F03C
:0D64B600A3745AF07BFF7A0179BA123263A9
:0164C30022B6
:106DA3007D087C007FA81297F77E00900064EEF0C8
:106DB300A3EFF090008E74FFF0A37400F0A3744768
:106DC300F0A3EEF0A3EFF07B017A00795A12325D63
:106DD300900064E07002A3E0701590008E04F0A3AD
:106DE3007400F0A3745AF07BFF7A02791180149037
:106DF300008E7401F0A37400F0A3745AF07BFF7A41
:106E03000279351232637BFF7A0279571232637B40
:106E1300017A00795AE4FD128C597B017A00795A80
:106E2300127647900064EEF0A3EFF0FB7D087C0040
:106E33007FA81292847D087C007FA81297F77E00BA
:106E4300900064EEF0A3EFF090008E74FFF0A37453
:106E530000F0A37447F0A3EEF0A3EFF07B017A00F8
:106E6300795A12325D900064E07002A3E0701590CD
:106E7300008E04F0A37400F0A3745AF07BFF7A022F
:106E83007911801490008E7401F0A37400F0A37440
:0B6E93005AF07BFF7A0279351232635F
:016E9E0022D1
:106E9F007D0A7C007FA81297F77E00900064EEF0C9
:106EAF00A3EFF090008E74FFF0A37400F0A374476B
:106EBF00F0A3EEF0A3EFF07B017A00795A12325D66
:106ECF00900064E07002A3E0701590008E04F0A3B0
:106EDF007400F0A3745AF07BFF7A02797C801490CF
:106EEF00008E7401F0A37400F0A3745AF07BFF7A44
:106EFF000279A21232637BFF7A0279C61232637B68
:106F0F00017A00795AE4FD128C597B017A00795A83
:106F1F00127647900064EEF0A3EFF0FB7D0A7C0041
:106F2F007FA81292847D0A7C007FA81297F77E00BB
:106F3F00900064EEF0A3EFF090008E74FFF0A37456
:106F4F0000F0A37447F0A3EEF0A3EFF07B017A00FB
:106F5F00795A12325D900064E07002A3E0701590D0
:106F6F00008E04F0A37400F0A3745AF07BFF7A0232
:106F7F00797C801490008E7401F0A37400F0A374D8
:0B6F8F005AF07BFF7A0279A2123263F5
:016F9A0022D4
:106F9B007D0C7C007FA81297F77E00900064EEF0CA
:106FAB00A3EFF090008E74FFF0A37400F0A374476E
:106FBB00F0A3EEF0A3EFF07B017A00795A12325D69
:106FCB00900064E07002A3E0701590008E04F0A3B3
:106FDB007400F0A3745AF07BFF7A0279ED80149061
:106FEB00008E7401F0A37400F0A3745AF07BFF7A47
:106FFB0003791E1232637BFF7A03794E1232637B65
:10700B00017A00795AE4FD128C597B017A00795A86
:10701B00127647900064EEF0A3EFF0FB7D0C7C0042
:10702B007FA81292847D0C7C007FA81297F77E00BC
:10703B00900064EEF0A3EFF090008E74FFF0A37459
:10704B0000F0A37447F0A3EEF0A3EFF07B017A00FE
:10705B00795A12325D900064E07002A3E0701590D3
:10706B00008E04F0A37400F0A3745AF07BFF7A0334
:10707B007981801490008E7401F0A37400F0A374D6
:0B708B005AF07BFF7A03791E1232637B
:0170960022D7
:107097007D0E7C007FA81297F77E00900064EEF0CB
:1070A700A3EFF090008E74FFF0A37400F0A3744771
:1070B700F0A3EEF0A3EFF07B017A00795A12325D6C
:1070C700900064E07002A3E0701590008E04F0A3B6
:1070D7007400F0A3745AF07BFF7A0379B38014909D
:1070E700008E7401F0A37400F0A3745AF07BFF7A4A
:1070F7000379D51232637BFF7A0379FE1232637B01
:10710700017A00795AE4FD128C597B017A00795A89
:10711700127647900064EEF0A3EFF0FB7D0E7C0043
:107127007FA81292847D0E7C007FA81297F77E00BD
:10713700900064EEF0A3EFF090008E74FFF0A3745C
:1071470000F0A37447F0A3EEF0A3EFF07B017A0001
:10715700795A12325D900064E07002A3E0701590D6
:10716700008E04F0A37400F0A3745AF07BFF7A0337
:1071770079B3801490008E7401F0A37400F0A374A7
:0B7187005AF07BFF7A0379D5123263C7
:0171920022DA
:107193007D0F7C007FA81297F77E00900064EEF0CD
:1071A300A3EFF090008E74FFF0A37400F0A3744774
:1071B300F0A3EEF0A3EFF07B017A00795A12325D6F
:1071C300900064E07002A3E0701590008E04F0A3B9
:1071D3007400F0A3745AF07BFF7A04792A80149028
:1071E300008E7401F0A37400F0A3745AF07BFF7A4D
:1071F3000479541232637BFF7A04796F1232637B12
:10720300017A00795AE4FD128C597B017A00795A8C
:10721300127647900064EEF0A3EFF0FB7D0F7C0045
:107223007FA81292847D0F7C007FA81297F77E00BF
:10723300900064EEF0A3EFF090008E74FFF0A3745F
:1072430000F0A37447F0A3EEF0A3EFF07B017A0004
:10725300795A12325D900064E07002A3E0701590D9
:10726300008E04F0A37400F0A3745AF07BFF7A0439
:10727300792A801490008E7401F0A37400F0A37433
:0B7283005AF07BFF7A0479541232634A
:01728E0022DD
:1098DC009000887419F0A37432F0A3744BF0A37445
:1098EC0064F0A3747DF0A37496F0A374AFF0A3742A
:1098FC00C8F0A374E1F0A374FAF0E4A3F07B017A4E
:03990C0000798857
:01990F002235
:0A684C00900075EEF0FCA3EFF0FDE4
:106856007FA81297F77E00900081EEF0A3EFF090EC
:10686600008E74FFF0A37400F0A37447F0A3EEF05B
:10687600A3EFF07B017A00797712325D900081E018
:106886007002A3E0701590008E04F0A37400F0A3CC
:106896007477F07BFF7A047994801490008E7401EB
:1068A600F0A37400F0A37477F07BFF7A0479BA1230
:1068B60032637BFF7A0479DE1232637B017A0079D8
:1068C60077E4FD128C597B017A007977127647902E
:1068D6000081EEF0A3EFF0900075E0FCA3E0FDABC5
:1068E600077FA8129284900075E0FCA3E0FD7FA8C4
:1068F6001297F77E00900081EEF0A3EFF090008EE5
:1069060074FFF0A37400F0A37447F0A3EEF0A3EFB6
:10691600F07B017A00797712325D900081E0700297
:10692600A3E09000837018F0A3F090008E04F0A30B
:106936007400F0A37477F07BFF7A0479948017E4EF
:10694600F0A304F090008EF0A37400F0A37477F027
:0F6956007BFF7A0479BA123263900083A3E0FFCB
:01696500220F
:08530600900075EEF0A3EFF03A
:10530E007BFF7A057905123263128C517BFF7A0589
:10531E00792B123263900076E02407FD900075E041
:10532E003400FC900077E0FB7FA812928490007608
:10533E00E02407FD900075E03400FC7FA81297F77B
:10534E007BFF7A00794490008EEFF012326390006A
:10535E0076E02408FD900075E03400FC900078E0C3
:10536E00FB7FA8129284900076E02408FD900075D1
:10537E00E03400FC7FA81297F77BFF7A05794790FF
:10538E00008EEFF0123263900076E02409FD90005B
:10539E0075E03400FC90007AE0FB7FA812928490B6
:1053AE000076E02409FD900075E03400FC7FA81221
:1053BE0097F77BFF7A00794490008EEFF0123263FC
:1053CE00900076E0240AFD900075E03400FC900019
:1053DE007BE0FB7FA8129284900076E0240AFD9079
:1053EE000075E03400FC7FA81297F77BFF7A0079F6
:1053FE004490008EEFF01232637BFF7A05794B12E8
:10540E003263128C517BFF7A05796B1232639000F6
:10541E0076E0240BFD900075E03400FC900077E000
:10542E00FB7FA8129284900076E0240BFD9000750D
:10543E00E03400FC7FA81297F77BFF7A0079449046
:10544E00008EEFF0123263900076E0240CFD900097
:10545E0075E03400FC900078E0FB7FA812928490F7
:10546E000076E0240CFD900075E03400FC7FA8125D
:10547E0097F77BFF7A05794790008EEFF012326333
:10548E00900076E0240DFD900075E03400FC900055
:10549E007AE0FB7FA8129284900076E0240DFD90B6
:1054AE000075E03400FC7FA81297F77BFF7A007935
:1054BE004490008EEFF0123263900076E0240EFDE1
:1054CE00900075E03400FC90007BE0FB7FA8129208
:1054DE0084900076E0240EFD900075E03400FC7F91
:1054EE00A81297F77BFF7A00794490008EEFF002B6
:0254FE00326317
:08696600900088EEF0A3EFF0B1
:10696E007BFF7A057987123263900089E02407FD58
:10697E00900088E03400FC7FA81297F77BFF7A0521
:10698E00799990008EEFF0123263900089E024081E
:10699E00FD900088E03400FC7FA81297F77BFF7A09
:1069AE0005794790008EEFF0123263900089E02453
:1069BE0009FD900088E03400FC7FA81297F77BFF5A
:1069CE007A00794490008EEFF0123263900089E0E5
:1069DE00240AFD900088E03400FC7FA81297F77B14
:1069EE00FF7A05799D90008EEFF012326390008948
:1069FE00E0240BFD900088E03400FC7FA81297F78E
:106A0E007BFF7A00794490008EEFF0123263900093
:106A1E0089E0240CFD900088E03400FC7FA81297DA
:106A2E00F77BFF7A05794790008EEFF01232639074
:106A3E000089E0240DFD900088E03400FC7FA81250
:106A4E0097F77BFF7A00794490008EEFF012326355
:106A5E00900089E0240EFD900088E03400FC7FA8B1
:106A6E001297F77BFF7A00794490008EEFF0023296
:016A7E0063B4
:0849B700900075EEF0A3EFF093
:1049BF007BFF7A0579A31232637BFF7A0579CF12D9
:1049CF0032637BFF7A0579F71232637B017A0079C4
:1049DF0077E4FD128C597BFF7A06791F123263E45C
:1049EF00900082F0900082E0FFC39408748094805E
:1049FF004003024C6D74772FF582E43400F583E0A9
:104A0F00900083F0643270437BFF7A06793712325D
:104A1F0063900076E02401FD900075E03400FC7B8C
:104A2F00327FA8129284900076E02401FD900075E9
:104A3F00E03400FC7FA81297F7900081EFF07BFF26
:104A4F007A06793E90008EF0123263900082E02455
:104A5F0077F582E43400F583E0900083F0643370DF
:104A6F00437BFF7A067944123263900076E024028A
:104A7F00FD900075E03400FC7B337FA81292849088
:104A8F000076E02402FD900075E03400FC7FA81250
:104A9F0097F7900081EFF07BFF7A06793E90008EBA
:104AAF00F0123263900082E02477F582E43400F54F
:104ABF0083E0900083F0643470437BFF7A06794C77
:104ACF00123263900076E02403FD900075E034000D
:104ADF00FC7B347FA8129284900076E02403FD9033
:104AEF000075E03400FC7FA81297F7900081EFF07B
:104AFF007BFF7A06793E90008EF01232639000822F
:104B0F00E02477F582E43400F583E0900083F064CD
:104B1F003570437BFF7A067957123263900076E047
:104B2F002404FD900075E03400FC7B357FA81292C1
:104B3F0084900076E02404FD900075E03400FC7F43
:104B4F00A81297F7900081EFF07BFF7A06793E90DD
:104B5F00008EF0123263900082E02477F582E43405
:104B6F0000F583E0900083F0643670437BFF7A0694
:104B7F00795F123263900076E02405FD900075E0B6
:104B8F003400FC7B367FA8129284900076E02405D7
:104B9F00FD900075E03400FC7FA81297F79000811C
:104BAF00EFF07BFF7A06793E90008EF01232639021
:104BBF000082E02477F582E43400F583E0900083EF
:104BCF00F0643770437BFF7A067968123263900086
:104BDF0076E02406FD900075E03400FC7B377FA85B
:104BEF00129284900076E02406FD900075E0340068
:104BFF00FC7FA81297F7900081EFF07BFF7A067980
:104C0F003E90008EF0123263900082E02477F5829E
:104C1F00E43400F583E0900083F0643170377BFF5C
:104C2F007A067970123263900075E0FCA3E0FD7B89
:104C3F00317FA8129284900075E0FCA3E0FD7FA85D
:104C4F001297F7900081EFF07BFF7A067979900049
:0E4C5F008EF0123263900082E004F00249F3FE
:014C6D002224
:08672400900088EEF0A3EFF0F5
:10672C002401FDE43EFC7FA81297F790008AEFF05D
:10673C0064327BFF70067A06797E80047A0679943F
:10674C00123263900089E02402FD900088E034004E
:10675C00FC7FA81297F790008AEFF064337BFF70F0
:10676C00067A0679AD80047A0679C41232639000F9
:10677C0089E02403FD900088E03400FC7FA8129788
:10678C00F790008AEFF064347BFF70067A0679DEAE
:10679C0080047A0679F8123263900089E02404FDB3
:1067AC00900088E03400FC7FA81297F790008AEFE5
:1067BC00F064357BFF70067A07791580047A0779C7
:1067CC002C123263900089E02405FD900088E0349F
:1067DC0000FC7FA81297F790008AEFF064367BFFDD
:1067EC0070067A07794680047A07795E12326390D4
:1067FC000089E02406FD900088E03400FC7FA8129C
:10680C0097F790008AEFF064377BFF70067A077970
:10681C007980047A077990123263900088E0FCA3A7
:10682C00E0FD7FA81297F790008AEFF064317BFFB0
:0F683C0070067A0779AA80047A0779C21232634C
:01684B00222A
:106101001298DC78647C007D011226627BFF7A079D
:1061110079DD1232637B017A00795AE4FD128C59E0
:106121007B017A00795A127647EF14900074F0E0FF
:106131002464F582E43400F583E0FF7E0090006F73
:10614100EEF0A3EFF0A3EEF0A3EFF0900070E024E7
:106151000FF090006FE03400F0E0FEA3E0FF126862
:106161004C900071E0FFA3E090006FCFF0A3EFF03F
:106171009000747401F0900074E0FFC3940874807F
:106181009480501C900070E02FFD90006FE034006F
:10619100FC7BFF7FA8129284900074E004F080D60B
:1061A100900071E0FEA3E0FF90006FEEF0A3EFF02E
:1061B1001249B790006FE0FEA3E0FF1253067BFF88
:1061C1007A08790D1232637B017A00795AE4FD1263
:1061D1008C597B017A00795A127647900073EFF05F
:1061E100FB900070E02410FD90006FE03400FC7F14
:1061F100A8129284900070E02410FD90006FE034AA
:1062010000FC7FA81297F7900073EFF090008E7456
:10621100FFF0A37400F0A37447F0A3EFF07B017AC1
:1062210000795A12325D900073E06401701690009B
:1062310070E0240AF090006FE03400F0E0FEA3E08B
:04624100FF125306EF
:016245002236
:105500007B017A00795A7F507E031290F3900074E9
:105510007401F0A37400F0A37468F07B017A007941
:105520005A1284C190008E7401F0A37400F0A37429
:1055300068F07BFF7A08793B1232637BFF7A087947
:10554000671232637B017A00795A7F007E031290E2
:10555000F390008E7401F0A37400F0A3745AF07BF2
:10556000FF7A0879791232637B017A00795A1251F5
:1055700008783F7C017D011226627BFF7A08797CE6
:105580001232637B017A00795A7D01128C597B01BA
:105590007A00795A1296FF900065EBF0A3EAF0A327
:1055A000E9F07B017A01793F7F007E031290199028
:1055B0000065129635EF70837BFF7A08798B123283
:1055C000637B017A00795AE4FD128C5990008E7445
:1055D00001F0A37400F0A3745AF07BFF7A0879B548
:1055E00012326390005AE0900068F090005BE09007
:1055F0000069F0E4A3F07B017A00796812764790A5
:10560000006FEEF0A3EFF07BFF7A0879BF90008E79
:10561000EEF0A3EFF012326390006FA3E0FB7D5039
:105620007C037FA812928490005CE0900068F09068
:10563000005DE0900069F0E4A3F07B017A007968F6
:1056400012764790006FEEF0A3EFF07BFF7A0879B7
:10565000BF90008EEEF0A3EFF012326390006FA3C4
:10566000E0FB7D517C037FA812928490005EE09065
:105670000068F090005FE0900069F0E4A3F07B0127
:105680007A00796812764790006FEEF0A3EFF07B16
:10569000FF7A0879BF90008EEEF0A3EFF01232632C
:1056A00090006FA3E0FB7D527C037FA8129284E4FC
:1056B000FB7D537C037FA81292847B017A00795A88
:1056C0007F507E031290F39000747401F0A3740075
:1056D000F0A37468F07B017A00795A1284C19000BB
:1056E0008E7401F0A37400F0A37468F07BFF7A0855
:0556F00079C6023263DF
:1064C4001298DC78777C007D01122662E4900082C9
:1064D400F0900082E0FFC3940A7480948040030229
:1064E40065FA7BFF7A0879F8EF243190008EF01278
:1064F4003263900082E02477F582E43400F583E08F
:10650400FF7E00900083EEF0A3EFF0A3EEF0A3EF84
:10651400F0900084E0240FF0900083E03400F0E079
:10652400FCA3E0FD7FA81297F7900087EFF090009E
:106534008E74FFF0A37400F0A37447F0A3EFF07B14
:10654400017A00796D12325D900087E06401600386
:106554000265E87BFF7A0979211232637BFF7A09AD
:106564007940123263900085E0FEA3E0FF9000833F
:10657400EEF0A3EFF0126724900083E0FEA3E0FFA7
:10658400126966900084E02410FD900083E03400DA
:10659400FC7FA81297F7900087EFF090008E74FFAD
:1065A400F0A37400F0A37447F0A3EFF07B017A002A
:1065B400796D12325D900087E064017BFF701F7A71
:1065C400097956123263900084E0240AF090008323
:1065D400E03400F0E0FEA3E0FF126966800F7A0960
:1065E400797D80067BFF7A0979A412326390008258
:0665F400E004F00264D592
:0165FA00227E
:10412500E4FDFC7FA81297F77E00900064EEF0A3F3
:10413500EFF090008E74FFF0A37400F0A37447F0C5
:10414500A3EEF0A3EFF07B017A00795A12325D906D
:10415500008E7401F0A37400F0A3745AF07BFF7A0B
:104165000979C41232637D027C007FA81297F77E1D
:1041750000900064EEF0A3EFF090008E74FFF0A3C2
:104185007400F0A37447F0A3EEF0A3EFF07B017A7F
:1041950000795A12325D90008E7401F0A37400F01C
:1041A500A3745AF07BFF7A0979E41232637D047CAB
:1041B500007FA81297F77E00900064EEF0A3EFF061
:1041C50090008E74FFF0A37400F0A37447F0A3EE83
:1041D500F0A3EFF07B017A00795A12325D90008EE0
:1041E5007401F0A37400F0A3745AF07BFF7A0A7986
:1041F500021232637D067C007FA81297F77E00903D
:104205000064EEF0A3EFF090008E74FFF0A374004D
:10421500F0A37447F0A3EEF0A3EFF07B017A0079E9
:104225005A12325D900064E07002A3E070087BFFD3
:104235007A0A79258012900064E07004A3E0640195
:1042450070097BFF7A0A79461232637D087C007F0C
:10425500A81297F77E00900064EEF0A3EFF09000AF
:104265008E74FFF0A37400F0A37447F0A3EEF0A3DF
:10427500EFF07B017A00795A12325D900064E070AC
:1042850004A3E064017BFF70067A0A795A80047AF8
:104295000A79751232637D0A7C007FA81297F77E32
:1042A50000900064EEF0A3EFF090008E74FFF0A391
:1042B5007400F0A37447F0A3EEF0A3EFF07B017A4E
:1042C50000795A12325D900064E07002A3E07BFF32
:1042D50070067A0A799180047A0A79A41232637D8C
:1042E5000C7C007FA81297F77E00900064EEF0A387
:1042F500EFF090008E74FFF0A37400F0A37447F004
:10430500A3EEF0A3EFF07B017A00795A12325D90AB
:104315000064E07002A3E07BFF70067A0A79B6803C
:10432500047A0A79D61232637D0E7C007FA8129733
:10433500F77E00900064EEF0A3EFF090008E74FF1E
:10434500F0A37400F0A37447F0A3EEF0A3EFF07BA5
:10435500017A00795A12325D900064E07002A3E0A0
:104365007BFF70067A0A79F580047A0B791212328E
:10437500637D0F7C007FA81297F77E00900064EEA6
:10438500F0A3EFF090008E74FFF0A37400F0A37417
:1043950047F0A3EEF0A3EFF07B017A00795A1232D1
:1043A5005D900064E07002A3E0701590008E04F04B
:1043B500A37400F0A3745AF07BFF7A04792A801461
:1043C50090008E7401F0A37400F0A3745AF07BFF83
:1043D5007A0479541232631264C47B017A00795AE3
:1043E5007F507E031290F39000747401F0A3740063
:1043F500F0A37466F07B017A00795A1284C19000AB
:104405008E7401F0A37400F0A37466F07BFF7A0B41
:0544150079360232635C
:108E4D007BFF7A0B79661232637BFF7A0B79A61260
:108E5D0032637BFF7A0B79E61232637BFF7A0C79F2
:108E6D00221232637BFF7A0C797A1232637BFF7A9E
:108E7D000C79B41232637BFF7A0C79EE1232637B7C
:108E8D00FF7A0D792D1232637BFF7A0D797E1232C6
:108E9D00637BFF7A0D79C81232637BFF7A0E7908F6
:108EAD001232637BFF7A0E79411232637BFF7A0EA9
:058EBD0079720232632E
:109404007B017A00795A125A21E4900064F07B01BE
:109414007A00795A125108783F7C017D0112266244
:109424007B017A01793F7F007E0312901990013FFE
:109434007414F0740BF07414F0E4F07B017A017985
:089444003F7F507E03029019E6
:104F00007BFF7A0E79A41232637D137C007FA81296
:104F100097F7EF600D129404E4FB7D13FC7FA81259
:104F200092847BFF7A0879671232637B017A007979
:104F3000327F007E031290F3E490003CF090008EEC
:104F400004F0A37400F0A37432F07BFF7A0879793F
:104F50001232637B017A007932125108783F7C016A
:104F60007D011226627BFF7A08797C1232637B0115
:104F70007A0079327D01128C591296F9900001EB7A
:104F8000F0A3EAF0A3E9F07B017A01793F7F007E8C
:104F900003129019900001129635EF70850250DAD5
:104FA000129B3C7B017A007932E4FD128C591296F7
:104FB000F9900001EBF0A3EAF0A3E9F012000E90E3
:104FC0000001128704900004EBF0A3EAF0A3E9F0DB
:104FD00012000E900004128704900007EBF0A3EA81
:104FE000F0A3E9F0900004E0FBA3E0FAA3E0F9EA03
:104FF000494B6017122236B42F11780A7C007D01CC
:10500000900004A3A3E0122662803D900004E0FB20
:10501000A3E0FAA3E0F9EA494B602D780A7C007D11
:10502000017B017A017948122662900004E0F9A31D
:10503000E0FAA3E090005DC9F0A3EAF0A3E9F07BF9
:10504000017A00790A129088900001E0FBA3E0FA4F
:10505000A3E0F9EA494B7003024FA0129159EFB453
:105060000E0040030250E690506EF828287302505C
:105070009802509E0250A40250AA0250B00250B6AC
:105080000250BC0250C20250C80250CE0250D4029C
:1050900050DA0251070250E0127BB4024FA012799D
:1050A0007F024FA0127A3C024FA0126386024FA0EB
:1050B000126DA3024FA0126E9F024FA0126F9B02AF
:1050C0004FA0127097024FA0127193024FA012616D
:1050D00001024FA0124125024FA0128E4D024FA097
:1050E000125500024FA0900001E0F9A3E0FAA3E0FE
:1050F00090008EC9F0A3EAF0A3E9F07BFF7A0E7965
:07510000D8123263024FA038
:015107002285
:109B04004461746F7320656E766961646F7320704D
:0D9B1400746F20706172616C3D002564006B
:0B82F600900001EBF0A3EAF0A3E9F018
:10830100900006E4F0A374A0F0E4A3F020B3791286
:108311009C87E4900005F0C286900004F0C2B29000
:108321000006805620B35A900004E0705430B40D1A
:10833100EF1F70011EEF4E70EB04F08044900005BA
:10834100E0C3942874809480503720B408E5A0904D
:108351000008F080F5900008E0FF900001E0FBA329
:10836100E0FAA3E0F9EF12227C900002E475F0013B
:10837100122317900005E004F0A3E0FEA3E0FF80C4
:10838100A330B3FDD2B2D286129C78900005E0FFF3
:0183910022C9
:0E7C6A00900034EBF0A3EAF0A3E9F0A3EDF0F4
:107C780090003DF0D2B2D2B4C286E490003CF0C28B
:107C8800B290003812238400004E2030B34990008F
:107C98003CE07043C2B2D2B4900038E0FCA3E0FDEF
